:020000040000FA
:0A0000000200262D31326D696E00FA
:14000B0002A5172D31336D696E00E06EF0FEA3E06FF0FF220F
:2000230002540075D000759F00758F1075811675113D751035125E65E4FFFE120133126102
:20004300AA32000000000000000000000000000000000000350542000000000050072900C5
:200063000000007765617468657264656D6F2E7465737400C0A86402C0A86401000000005F
:2000830000010000000000FFFFFF9C040400000000000000000081AA81AF81E681EC81F219
:2000A30081F881FE8229822F82728278D4F70003000EE06CF0FCA3E06DF0FDA3E06EF0FE2B
:2000C300A3E06FF0FF224E0045005300FF3395E0FEFDFC225700EE3395E0FDFC22FFE4FE8B
:2000E300FDFC22E4FDFC22AE83AF82A3E024FFF0CFF5828E83E034FFF0FE227800F9800779
:200103007800E480027800C0F0F5F0C3E51199F582C0A8C2AFF511E51098F510D0A8F583C7
:20012300E5F060097812E6F008A3D5F0F9D0F0227912740212010812020612A59012C5106F
:200143001201E07F011261741201ED12A24912A1FCEF4E70F9740212D1121201E574021205
:2001630001F5601412029712A59012C5101201E07F641261741201ED75130012A59012C5D6
:20018300101201E07F041261741201D6740612C5C8E4A2B333F512801DE51224FF30B301DF
:2001A300B35013E4A2B333F51220B30A05131201E07F0112A564740A12D1121201E574064B
:2001C3001201F560D4AF1312D27812D42F12668C020151740A12C5C8740A02D112E4FEFDF6
:2001E300FC22740E12C5C802A5901201D6740202C5C81269F8800012CBEFEC20E70374016E
:2002030022E4227902120103E41269F87482F074011269F87403F012A8597FE07EC712CD00
:200223002112A4E812A36B7FC8C007E4120258D0077A007B0112A30A7FC8C007740112025B
:2002430058D0077A007B0112A30A1202971261AC7B02020260126A038F058E04227A00C00B
:20026300E0801A7A00C0E08006C0E0E4FAE9FB8510838511827812E0F608A3D9FAC0D0E57C
:20028300112BC0A8C2AFF511E5103AF510D0A8D0D0D0E0227902120103E41202587FC87A80
:2002A300007B0212A2987C00E412D47BFD7E007F2D12C7C47D0512A8CA90270CE0F8A3E0C9
:2002C300F92FFFEE38FE7C017D6812A682902666ECF0EDA3F090270EE0F93395E0F8740109
:2002E30012D47BC399FBE498FA30E705E4F9F880048B018A00E86480247F5004E479FFF82B
:2003030090C9EF12032EFA740193FB902668EAF0EBA3F090C7EF12032EF8740193F99027A3
:200323000FE8F0E9A3F07B020202608907880612CE31E493227904120103E412C5C8129EE8
:20034300BBEF4E7005E4FFFE804890208E7445F0A3E4F090206B12CCC290206B128F0BF9AB
:20036300902092128DF2A31290409020967420F090209AC082C083E412D112D083D08212F9
:20038300A81890206D12CC2D90209E12A8187E207F8E7B04020260790C1201038F018E000B
:2003A300128A63740412C5C8E4FDFC90209A120497E412C5C87410C0E0740412D112D0E08C
:2003C30012A8A612C510E4FDFC7EFF7FFF1263F8E41269F8126188E412C5C890209E12CC8D
:2003E3002D740812C5C8E4FDFC90209E1204971204417410C0E0740812D112D0E012A8A6DE
:2004030012C510E4FDFC7EFF7FFF1263F8120441902097E01200E0120441890788061200B6
:20042300E6120441890588047E207FA212049E120441E412D1121204487B0C020260E41280
:2004430069F80280A57904120103801DE4FDFCE41269F812049712C5107410C0E0E412D12E
:2004630012D0E012A8A6126174E412C5C87410C0E0E412D112D0E012A8A6EF4E4D4C70CCCE
:20048300740212D3698F018E00E9F4FFE8F4FE7B040202607EFF7FFF02666A790A74021206
:2004A30001088F018E008D038C02E4FFFEFDFC740212C5C88046890588040DBD00010C123C
:2004C3008FFFE0FC128E8FE0F512751300E5132CFFE43512FE120534C082C083740612D198
:2004E30012D083D0821280A5E92402F9E438F8EBC39402FDEA9400FC8D038C02EB24FEEA1F
:200503006480347F40B0EB144A701A128E8FE0FE7F00120534C082C083740612D112D08360
:20052300D0821280A5740212D11279027B0A0202661200E6740612C5C874020269F82279D5
:200543000C74041201088D078C06740A12C60A9020AEE0F8A3E048700302063A7515B67508
:200563001420902075E0FFC082C083740612C63ED083D082A3E0FF740712C63E7E208E0740
:20058300740812C63E7FB6C007740912C63ED0078F828E83E0700302063175136475122619
:2005A300E513D39515E5129514500302063A851582851483E0FF740412C63EAF15AE141251
:2005C30006F2120711C006C007740612D3698F058E04D007D0061260F1EF4E705112071143
:2005E300740712D47B2BFDC0D0740612D47BD0D03AFCE5152BF9E5143AF809B90001088916
:2006030015881489828883E0F870098D828C83E0600A801A8D828C83E0B42E128D078C06A5
:200623001206F2740612C60AE860030205A3851582851483E06006E4FFFE0206EB740A127A
:20064300D3699020A212CE85858213858312AF13AE12C006C007740812D3698F058E04D0A1
:2006630007D00612612D740812D36912070CE5132FF515E5123EC0E0740812D369D0E0F596
:200683001412070C740B12D47B2FF513C0D0740A12D47BD0D03EF512851582851483E4F0A7
:2006A300AF15AE141206F87401F00F12071C12071C1207007404F01206F27A007B047C20A3
:2006C3007D6D125FF4E513240EF9E43512F89020AC7E807F001278729020B0E4F07401A361
:2006E300F08907880612836279047B0C0202660FBF00010E221206F28F828E8322BF000177
:200703000E8F828E83E4F080EC12614A80E1740412D47BFB3395E0FA221207007401F01220
:2007230006F8E4F00F2279097404120108740812C63E8D158C148B078A06740612C60A74D8
:200743000912D369E515241DFFC0D0740512C63ED0D0E43514FF740412C63EE51524181244
:2007630008BAE0F864036008B8040280030208B0740612D47BC0E0740712D47BFFD0E04FBD
:2007830060627A007B047C447DFD7E207FB61290E4EF4E704F7513BA7512201208E4E0FE47
:2007A300A3E0FF1FBFFF011E9020B612CE85E4F0AF13AE127C457D021290A4EF4E6005125D
:2007C3000B5480039020BAE4F0AF13AE121208FF1208F6C0D0740412D47BD0D01208E0EE5A
:2007E300F0EFA3F01208F6C0D0740412D47BD0D01208E0E0F8A3E04870030208B074071214
:20080300D47BC0E0740612D47BFFD0E04F60081208EA70030208B0740812D47B70191208F4
:20082300EA70141208E4C082C0831208D6D083D0821208CE127FFDE5152414F513E4351452
:20084300F5121208F6C0D0740412D47BD0D01208E0C082C0831208D6D083D0821208CEE099
:20086300FCA3E0FD851382851283E0FAA3E0FB120BD1851382851283E0F8A3E0F9EFD3999C
:20088300EE98401689078806C006C0071208C4D007D00612104574108010C006C007120821
:2008A300C4D007D0061210457419F08003E4FFFE79047B09020266F9E435148000F8021061
:2008C30045740912D3698F018E0022E0FEA3E0FF021045740412D3698F018E002234008054
:2008E300DCE515241480D0740912D369120B54E0540822740512D47B2402F922790C7404E5
:20090300120108C006C007120B8ED007D0067C457D061290518F138E12E513451260321268
:200923000BA2600B120B7CD39513EE95124022E5132402FFE43512FEC006C007120B8ED043
:2009430007D0067C007D2F126097EF4E6003120B8E8006120B93120B8E120B93120B54E059
:20096300642F60EF120B881FBFFF011EC006C007120B598F018E00D007D00612104512CEDC
:2009830085E0B42F0A120B597C457D0912917D120B59E4F8C0E0C0078807740B12C63ED078
:2009A30007D0E0F8C0078807740A12C63ED0077C457D14120B9C70077FFF7EFE020B4D12DC
:2009C3000B597A007B097C457D1E1290E4EF4E6003020A62740712D47B2409F515C0D074AB
:2009E3000612D47BD0D03400F51479C17844120BC07F01740612C63E9044CA120BC9605A8F
:200A0300120BA754026027E5132403120BADAF15AE14120B9C7017790078FEE9C0E0740691
:200A230012D47BFFD0E02FFFE438FE020B4DE513240BF9E43512F8120BC0740612D47BFF07
:200A43000F740612C63E740412D3698F018E00E92409120B5E120BC970A67FFE020B4B129C
:200A63000BA26005120B54E4F0120B597C007D2E1260BDEF4E600B0FBF00010E8F158E1485
:200A83008017120B88740712D47B2FF515C0D0740612D47BD0D03EF51479067844120BC098
:200AA3007F00740812C63E904406120BC9603D120BA7FC740193FDAF15AE14120B9C700F42
:200AC300740812D47BFE7F00740A12C60A801DE5132404F9E43512F8120BC0740812D47BC6
:200AE300FF0F740812C63E120B6770C379717844120BC0751401904471120BC96048120B9F
:200B030071C082C083120B59D083D082E493FC740193FD120B9C701B740B12D47B2514FFED
:200B2300E4C0E0C0D0740A12D47BF8D0D0D0E038FE8017E5132406F9E43512F8120BC0058A
:200B430014120B6770B87FFF7EFF79047B0C0202668F828E8322740602D369FBE438FA8BD1
:200B6300828A8322740412D369120B548058740412D3698F138E1280D8120B597C007D3FA4
:200B8300126097EF22120B5902614A740602C60A120B590FBF00010E2212913FEF4E221201
:200BA3000B7C4E22120B71E49322120BB6FC740193FD22F9E435121208C0E493228907886F
:200BC30006740402C60AE493F87401934822790574041201088F158E14901E537420F07491
:200BE300B6A3F0901E4DECF0EDA3F0901E4FEAF0EBA3F0901E51E4F0A3F0901E4CE4F09039
:200C03001E3CE4F0851413751200E513F5F0E515FF740412C63E7E457F2812108FE51404F4
:200C2300701EE515240360121460091470127F327E4580107F457E45800A7F5B7E45800447
:200C43007F727E4512108F7E457F7912108FE5F02403600C14600914700C7FC87E4380249F
:200C63007FB87E43801EAF13AE127D0212A8E7EF2406F9EE3444F8E92402120B5EE493FECA
:200C8300740193FF12108F7E457F8A12108FE51364FE24FFB392F0400AE513B4FD028003F2
:200CA300020D4EE515B4FF68E514B4FE637513C17512449044CA120BC97003020DCC120EAB
:200CC30006F51454016041E5132403120E2112108F7E457F8F12108F120E0F7F0512CEEAFC
:200CE3007E457F9112108FE514540260077E457F9A12108FE514540460077E457FA212106C
:200D03008F7E457FAA12108F120DE470B1020DCCE515FD7C007E007F0B12C7C4EFC3940B3C
:200D2300F9EE9400F89044C18907880612CE85AD82AC83A2F0E4332402FFED2409F9E43CC6
:200D4300120DD612104512CEEA807E7407C3C0E0C0D0740412D47BFFD0D0D0E09F4049E5C9
:200D630015FD7C007E007F0612C7C4EFC39406F9EE9400F89044718907880612CE858582B4
:200D830013858312E5132404120BAD4C700EE5132402120E2112911D8F058E04E51324020C
:200DA300120E211210708021E515B4FE0BE514B4FF067FAC7E45800EE515B4FF0CE514B471
:200DC300FF077FD17E4512108F120DFD79047B050202661208C0E493F8740193F9E4FBFAA0
:200DE30022E513240BF513E43512F512E5132409F9E435121208C0020BC9901E51E0FEA3F4
:200E0300E0FF22851382851283E49322E5132409F9E43512120DD6AD13AC12021045120BD1
:200E2300B6FE740193FF228F00901E4DE0FAA3E0FB4A60101BBBFF011A901E4DEAF0EBA3E3
:200E4300F0740122120DFD901E4FE0F9A3E0D39FE99E401A901E53E0FAA3E0FB8B828A83CD
:200E630012CE85E8F0901E5112CCC2740122901E5112CCC2E42279037402120108C007740F
:200E83000212C63ED007901E4CE0120F5C706DBF2247901E3CE0F8901E3D12CEE1E4F008BA
:200EA300901E3CE8F07513C17512449044CA120BC9606A120E0654046018E5132403120BD9
:200EC300AD7E1E7F3D120B9C7008120E0F7F0412CEEA120DE470DC8044BF3E05901E4C80CE
:200EE3003A901E3CE0F8740ED3984031E8901E3D12CEE1EFF008901E3CE88020901E4CE0CE
:200F0300F8120F5CF9EFB50118A90009901E4CE9F0E804120F5C7005901E3CE4F07401808D
:200F230029901E4CE0601A7DED7C44901E4CE014F08D828C83E493FF120F54901E4CE070D6
:200F4300EA740212D47BFF120E2A79027B030202660DBD00010C020E2A9044ED12CEE1E4AA
:200F6300932274021200FE8F138E12120F90600C851382851283E0120F8470EF790202023D
:200F83006CFF0513E51370020512020E2A8D018C001DBDFF011CE9482274041200FE120F04
:200FA300BA120FCF600C851582851483E0120FC370EF790402026C8F158E148D138C12222A
:200FC300FF0515E51570020514020E79A913A8121513E513B4FF021512E948228F058E04FC
:200FE3008D828C83E0FF6005120F5470F32279051201038F038E0275F00574051269F8A9DD
:2010030082A88319B9FF011815F012104AED2430121045F012104A8F038E02EB4A70E4E432
:20102300126A038F018E00E925F0FFE438FE78007905E9C395F0FDE498FC120F657B050255
:20104300026089828883228B078A067C007D0A02A68274021200FE8F138E12120F906008C3
:20106300120E06120F8470F3790202026C74041200FE120FBA120FCF600D8515828514835C
:20108300E493120FC370EE790402026C8F058E048D828C83E493FF6005120F5470F222741B
:2010A300021200FE8D138C12EF14600E14604914604614604314605780788B078A06125FE8
:2010C3008EE5132405120BB6F8740193F9EFC399EE98405E121143F8740193C39FE89E4095
:2010E300510513E51370020512120E0612113BEEF0EFA3F07401803BA913A81209B90001B6
:2011030008121045E49312113BE0FEA3E0801F7E457FF412108FE5132405120E21120FF12D
:201123007E457FFC12108F121143FE740193FF120FF1E4790202026CF8740193F902104521
:20114300E5132407020BB6474946383961CA00CA00870000000000000033000066000099B1
:201163000000CC0000FF0033000033330033660033990033CC0033FF00660000663300660D
:20118300660066990066CC0066FF0099000099330099660099990099CC0099FF00CC0000F1
:2011A300CC3300CC6600CC9900CCCC00CCFF00FF0000FF3300FF6600FF9900FFCC00FFFF3C
:2011C3003300003300333300663300993300CC3300FF3333003333333333663333993333AD
:2011E300CC3333FF3366003366333366663366993366CC3366FF33990033993333996633F8
:2012030099993399CC3399FF33CC0033CC3333CC6633CC9933CCCC33CCFF33FF0033FF33A8
:2012230033FF6633FF9933FFCC33FFFF6600006600336600666600996600CC6600FF66331F
:20124300006633336633666633996633CC6633FF6666006666336666666666996666CC6631
:2012630066FF6699006699336699666699996699CC6699FF66CC0066CC3366CC6666CC9915
:2012830066CCCC66CCFF66FF0066FF3366FF6666FF9966FFCC66FFFF9900009900339900C3
:2012A300669900999900CC9900FF9933009933339933669933999933CC9933FF9966009939
:2012C30066339966669966999966CC9966FF9999009999339999669999999999CC9999FF83
:2012E30099CC0099CC3399CC6699CC9999CCCC99CCFF99FF0099FF3399FF6699FF9999FF66
:20130300CC99FFFFCC0000CC0033CC0066CC0099CC00CCCC00FFCC3300CC3333CC3366CC40
:201323003399CC33CCCC33FFCC6600CC6633CC6666CC6699CC66CCCC66FFCC9900CC9933EF
:20134300CC9966CC9999CC99CCCC99FFCCCC00CCCC33CCCC66CCCC99CCCCCCCCCCFFCCFFD4
:2013630000CCFF33CCFF66CCFF99CCFFCCCCFFFFFF0000FF0033FF0066FF0099FF00CCFF7E
:2013830000FFFF3300FF3333FF3366FF3399FF33CCFF33FFFF6600FF6633FF6666FF66995C
:2013A300FF66CCFF66FFFF9900FF9933FF9966FF9999FF99CCFF99FFFFCC00FFCC33FFCC74
:2013C30066FFCC99FFCCCCFFCCFFFFFF00FFFF33FFFF66FFFF99FFFFCCFFFFFF00000000EE
:2013E3000000000000000000000000000000000000000000000000000000000000000000EA
:201403000000000000000000000000000000000000000000000000000000000000000000C9
:201423000000000000000000000000000000000000000000000000000000000000000000A9
:20144300000000000000000000000000000000000000000021F904030000D8002C00000064
:2014630000CA00CA000008FF00B1091C48B0A0C18308132A5CC8B0A1C38710234A9C48B106
:20148300A2C58B18336ADCC8B1A3C78F20438A1C49B2A4C9932853AA5CC9B2A5CB973063BA
:2014A300CA9C49B3A6CD9B3873EADCC9B3A7CF9F40830A1D4AB4A8D1A348932A5DCAB4A92A
:2014C300D3A750A34A9D4AB5AAD5AB58B141DA5A722BA4AC46BD720529F62B58A26545A613
:2014E3003D1B746D48B76C7DC2FD3837EECEBA1DF1DAC5A97763DFBD35FF66140C7826619F
:201503008B870BC34C3CB1AC59C53A194B940CB925E587972BAB749C97B3E6BB99113A7E93
:20152300FC39E7688DA74B474E5D713469D57C5937F60C1B346D88AE6BCBCDEDD0F56BDDD3
:20154300AB7DFFD62A7C38F0E0C5931B3F6E5BB96FE6479D7B85AE54FA58EA48AD63CFAE5D
:201563007D7B74E9DEBF3BFF0F1F163C79B4E6CF0BEDAEBE6DFAF63FD9C3DFAD7CBEFBF18C
:20158300F6E927CF1F1F3F7F9EEFFD679A7F020E585F81C815876082C22D68E07E0EC60650
:2015A3006184361148A161075E4893851A2E966187317108A2651F8EE89288266E36618A12
:2015C30027AEC8224B25BEA8A282329248638D2BC588A3493AEE48528F3E8EE462903F0EAF
:2015E30049A490371ED955924A22D960934B3E09A593CF4D49256F56BEC564969D55C925A8
:20160300595B7E899A9462768965997E1989264501AE399B7C6EE266DD7571CA39E77275AB
:201623008A76279D792A241C126C90D96742AE2101C0A124783928A18EB171E8A389CAB65D
:20164300E841A33D6A2912924E5A50A396429AA9A60355DA290098DE062A41A3396A69A456
:20166300A69E2A906BAA02FFC06AABAE0AC746A08ABA1AEA9E786ACAABAE94DE09AC9E70F9
:201683000EBB2B8AC6121766B29B9EC92CA39F3E6B90B3D2064B6BB5A8468BEDABDA6E4B7F
:2016A300EDB6C786566BB7D87E0BAEB2E29E4A6EB9D79EBB6EB5EF4A1BEFB3F3D29BAEBAFC
:2016C300ED825B2FB3F9EA7B2FBE629D0BED74025B4B70C1CD068C70C2072FCC6DC30EA358
:2016E300CBE7C2FF023C31C50A47FCF0C508570CAAC7BE66AC31C89392BCA8C983A2DCA79F
:20170300CA79B25CA7CB71C2ECA6CC6BD28CA6CD65E22CA6CE5FF2CCA5CF59026DA5D0532E
:20172300120DA5D14D22ADA4D247324DA4D34142EDA3D43B520DE270567788B5C8BBD23BD5
:201743002DD7CADACBF06B100F9B315C6003BBD6DA699B1D705AFD5A0CA4DB731B8B6CB29F
:2017630075E3BDACBC82BA1F9BABDFFBD29D758A81DB3DF88B6D77CCB1C38B53ACF1E390D2
:20178300472EF9E4170604003B3C212D2D636F6D6D656E742D2D0D0A2F2A2A2A2A2A2A2A28
:2017A3002A2A2A2A2A2A2A2A2A2A2A2A2A2A2A2A2A2A2A2A2A2A2A2A2A2A2A2A2A2A2A2AE6
:2017C3002A2A2A2A2A2A2A2A2A2A2A2A2A2A2A2A2A2A2A2A2A2A2A2A2A2A0D0A2A2A0D0A40
:2017E3002A2A2046696C652020202020202020203A206874747070616765732F63676966E0
:201803006F726D2E68746D6C0D0A2A2A2046756E6374696F6E20202020203A2043474920D6
:2018230073616D706C6520666F726D20666F722048545450207365727665720D0A2A2A0D59
:201843000A2A2A2047656E657261746564206174203A20323030332F30392F32342030398E
:201863003A34333A31390D0A2A2A2047656E657261746564206279203A20737461636B6318
:201883006F6E666D616B652076302E310D0A2A2A0D0A2A2A204D414E55414C204348414E51
:2018A3004745532057494C4C204245204F5645525752495454454E20494620544849532097
:2018C30046494C452049532052452D47454E4552415445440D0A2A2A0D0A2A2A2A2A2A2A38
:2018E3002A2A2A2A2A2A2A2A2A2A2A2A2A2A2A2A2A2A2A2A2A2A2A2A2A2A2A2A2A2A2A2AA5
:201903002A2A2A2A2A2A2A2A2A2A2A2A2A2A2A2A2A2A2A2A2A2A2A2A2A2A2A2A2F0D0A0DD9
:201923000A2D2D656E6420636F6D6D656E742D2D3E0D0A0D0A3C484541443E3C5449544C2B
:20194300453E53616D706C652043474920466F726D3C2F5449544C453E3C4D455441204802
:201963005454502D45515549563D22507261676D612220434F4E54454E543D226E6F2D63D5
:2019830061636865223E3C2F484541443E3C424F44593E3C7461626C6520626F726465720E
:2019A3003D31206267636F6C6F723D2223663066306630223E3C7472206267636F6C6F72E0
:2019C3003D2223633063306330223E3C74643E7661723C2F74643E3C74643E76616C7565DE
:2019E3003C2F74643E3C74643E7365743C2F74643E3C2F74723E0D0A3C74723E3C74643EEC
:201A030074656D70657261747572653C2F74643E3C74643E3C212D2D236563686F207661D2
:201A2300723D2274656D7065726174757265222D2D3E266E6273703B3C2F74643E3C7464C1
:201A43003E266E6273703B3C2F74643E3C2F74723E0D0A3C74723E3C74643E77696E645F47
:201A6300646972656374696F6E3C2F74643E3C74643E3C212D2D236563686F207661723DB0
:201A83002277696E645F646972656374696F6E222D2D3E266E6273703B3C2F74643E3C7450
:201AA300643E266E6273703B3C2F74643E3C2F74723E0D0A3C74723E3C74643E77696E64E2
:201AC3005F73706565643C2F74643E3C74643E3C212D2D236563686F207661723D2277699F
:201AE3006E645F7370656564222D2D3E266E6273703B3C2F74643E3C74643E266E62737027
:201B03003B3C2F74643E3C2F74723E0D0A3C2F7461626C653E3C2F424F44593E3C2F4854D1
:201B23004D4C3E0D0A0D0A0D0A3C21444F43545950452048544D4C205055424C494320229B
:201B43002D2F2F5733432F2F4454442048544D4C20342E30205472616E736974696F6E613D
:201B63006C2F2F454E223E0D0A3C68746D6C3E0D0A3C686561643E0D0A3C4D45544120683A
:201B83007474702D65717569763D22436F6E74656E742D547970652220636F6E74656E744D
:201BA3003D22746578742F68746D6C3B20636861727365743D69736F2D383835392D3122C2
:201BC3003E0D0A3C4D45544120485454502D45515549563D22507261676D612220434F4E5A
:201BE30054454E543D226E6F2D6361636865223E0D0A3C4D45544120485454502D455155F8
:201C030049563D22457870697265732220434F4E54454E543D222D31223E0D0A3C736372CE
:201C2300697074206C616E67756167653D224A617661536372697074223E0D0A3C212D2D6C
:201C43000D0A0D0A66756E6374696F6E2075706461746528290D0A7B0D0A09706172656E31
:201C6300742E74656D7065726174757265203D203C212D2D236563686F207661723D2274DF
:201C8300656D7065726174757265222D2D3E3B0D0A09706172656E742E77696E6464697249
:201CA300203D203C212D2D236563686F207661723D2277696E645F646972656374696F6E91
:201CC300222D2D3E3B0D0A09706172656E742E77696E647370656564203D203C212D2D231A
:201CE3006563686F207661723D2277696E645F7370656564222D2D3E3B0D0A096C6F6361A4
:201D030074696F6E2E72656C6F616428293B0D0A7D0D0A2F2F2D2D3E0D0A3C2F7363726901
:201D230070743E0D0A3C2F686561643E0D0A3C626F6479206F6E6C6F61643D22736574548F
:201D4300696D656F757428207570646174652C20333030302029223E0D0A48656C6C6F203F
:201D6300776F726C640D0A3C2F626F64793E0D0A3C2F68746D6C3E0D0A3C68746D6C3E0D02
:201D83000A3C686561643E0D0A3C7469746C653E416C7469756D2057656174686572737434
:201DA3006174696F6E3C2F7469746C653E0D0A0D0A3C736372697074206C616E677561673C
:201DC300653D224A617661536372697074223E0D0A3C212D2D0D0A7661722074656D70657C
:201DE300726174757265203D20303B0D0A7661722077696E64646972203D20303B0D0A767F
:201E030061722077696E647370656564203D20303B0D0A0D0A66756E6374696F6E20736892
:201E23006F776172726F7728206974656D2C20696E64657820290D0A7B0D0A0972616420E1
:201E43003D204D6174682E5049202A20696E646578202F203132383B0D0A09636F737468C9
:201E6300657461203D204D6174682E636F7328726164293B0D0A0973696E74686574612048
:201E83003D204D6174682E73696E28726164293B0D0A0972203D204D6174682E737172748C
:201EA3002820646F63756D656E742E696D616765735B6974656D5D2E7769647468202A20B5
:201EC300646F63756D656E742E696D616765735B6974656D5D2E7769647468202B20646F09
:201EE30063756D656E742E696D616765735B6974656D5D2E686569676874202A20646F6301
:201F0300756D656E742E696D616765735B6974656D5D2E68656967687420293B0D0A0972CD
:201F23006164202B3D204D6174682E5049202F20343B092F2F203435206465677265657313
:201F430020667572746865720D0A0978203D204D6174682E636F7328207261642029202A3A
:201F630020723B0D0A0979203D204D6174682E73696E28207261642029202A20723B0D0A83
:201F83000977203D204D6174682E6D617828204D6174682E61627328207820292C204D610A
:201FA30074682E6162732820792029293B09092F2F20546F74616C207769647468206F66A7
:201FC300206E657720696D6167650D0A096877203D204D6174682E726F756E642820772036
:201FE3002F203220293B0D0A09646F63756D656E742E696D616765735B6974656D5D2E66BB
:20200300696C746572732E6974656D2830292E4D3131203D20636F7374686574613B0D0AC5
:2020230009646F63756D656E742E696D616765735B6974656D5D2E66696C746572732E696C
:2020430074656D2830292E4D3132203D202D73696E74686574613B0D0A09646F63756D65F6
:202063006E742E696D616765735B6974656D5D2E66696C746572732E6974656D2830292EBD
:202083004D3231203D2073696E74686574613B0D0A09646F63756D656E742E696D616765C5
:2020A300735B6974656D5D2E66696C746572732E6974656D2830292E4D3232203D20636F90
:2020C3007374686574613B0D0A09646F63756D656E742E696D616765735B6974656D5D2E81
:2020E3007374796C652E6C656674203D202D2068773B0D0A09646F63756D656E742E696D6C
:20210300616765735B6974656D5D2E7374796C652E746F70203D202D2068773B0D0A7D0D50
:202123000A0D0A66756E6374696F6E2075706461746528290D0A7B0D0A0973686F776172DB
:20214300726F7728202277696E64646972222C2077696E64646972202A20323536202F20F4
:20216300333630202B2031323820293B0D0A0973686F776172726F7728202277696E64739E
:2021830070656564222C202877696E647370656564202A2031393229202F203630202B20D6
:2021A300333220293B0D0A0973686F776172726F7728202274656D706572617475726522ED
:2021C3002C202874656D7065726174757265202B20323029202F203630202A2031393220E9
:2021E3002B203332293B0D0A7D0D0A0D0A2F2F2D2D3E0D0A3C2F7363726970743E0D0A3C68
:202203002F686561643E0D0A3C626F6479206267636F6C6F723D22233030303043432220A9
:20222300746578743D22776869746522204F6E4C6F61643D22736574496E74657276616CE7
:20224300287570646174652C31303030293B223E0D0A3C64697620616C69676E3D22636537
:202263006E746572223E0D0A3C7461626C65206261636B67726F756E643D226B6C6F6B6B2C
:20228300656E2E706E672220636F6C733D22352220726F77733D22332220626F726465720F
:2022A3003D2230222077696474683D2238393822206865696768743D22323838223E0D0AEF
:2022C3003C7472206865696768743D2231223E0D0A093C746420636F6C7370616E3D223578
:2022E300223E3C696D67207372633D227370616365722E6769662220626F726465723D223A
:2023030030223E3C2F74643E0D0A3C2F74723E0D0A3C7472206865696768743D223232323C
:20232300223E0D0A093C74642077696474683D223230223E3C696D67207372633D22737082
:20234300616365722E6769662220626F726465723D2230223E3C2F74643E0D0A093C746417
:202363002077696474683D223238362220616C69676E3D2263656E746572223E3C6469760F
:20238300207374796C653D22706F736974696F6E3A6162736F6C757465223E3C696D672083
:2023A3006E616D653D2277696E6464697222207372633D226172726F772E6769662220620D
:2023C3006F726465723D223022207374796C653D22706F736974696F6E3A6162736F6C7548
:2023E30074653B2066696C7465723A70726F6769643A4458496D6167655472616E73666FCB
:20240300726D2E4D6963726F736F66742E4D61747269782873697A696E674D6574686F6436
:202423003D276175746F20657870616E642729223E3C2F6469763E3C2F74643E0D0A093C63
:2024430074642077696474683D223238362220616C69676E3D2263656E746572223E3C6435
:202463006976207374796C653D22706F736974696F6E3A6162736F6C757465223E3C696D4A
:2024830067206E616D653D2277696E64737065656422207372633D226172726F772E6769DD
:2024A300662220626F726465723D223022207374796C653D22706F736974696F6E3A616220
:2024C300736F6C7574653B2066696C7465723A70726F6769643A4458496D616765547261DD
:2024E3006E73666F726D2E4D6963726F736F66742E4D61747269782873697A696E674D654F
:2025030074686F643D276175746F20657870616E642729223E3C2F6469763E3C2F74643E2F
:202523000D0A093C74642077696474683D223238362220616C69676E3D2263656E746572F8
:20254300223E3C646976207374796C653D22706F736974696F6E3A6162736F6C75746522B9
:202563003E3C696D67206E616D653D2274656D706572617475726522207372633D22617217
:20258300726F772E6769662220626F726465723D223022207374796C653D22706F7369742C
:2025A300696F6E3A6162736F6C7574653B2066696C7465723A70726F6769643A4458496D0D
:2025C3006167655472616E73666F726D2E4D6963726F736F66742E4D617472697828736984
:2025E3007A696E674D6574686F643D276175746F20657870616E642729223E3C2F646976A4
:202603003E3C2F74643E0D0A093C74642077696474683D223230223E3C696D672073726382
:202623003D227370616365722E6769662220626F726465723D2230223E3C2F74643E0D0A0F
:202643003C2F74723E0D0A3C7472206865696768743D2231223E0D0A093C746420636F6C94
:202663007370616E3D2235223E3C696D67207372633D227370616365722E676966222062EB
:202683006F726465723D2230223E3C2F74643E0D0A3C2F74723E0D0A3C2F7461626C653E3D
:2026A3000D0A3C2F6469763E0D0A3C703E0D0A3C7461626C653E0D0A3C74723E3C74643EB1
:2026C3003C696672616D65206865696768743D2230222077696474683D2231303022206229
:2026E3006F726465723D223022207372633D2266657463682E7368746D6C223E3C2F696649
:2027030072616D653E3C2F74723E3C2F74643E0D0A3C2F7461626C653E0D0A3C2F626F6444
:20272300793E0D0A3C2F68746D6C3E89504E470D0A1A0A0000000D49484452000003820008
:202743000001200403000000136CD09E0000000774494D4507D309100C210080F21D480014
:202763000000097048597300002E2300002E230178A53F760000000467414D410000B18FDA
:202783000BFC61050000002D504C54450000C00A0A8818184C120B0E52380F6E4C0EA86FEC
:2027A30001D38A009468124239296F6F6F848484989898B1B1B1BDBDBDEA523B2400000080
:2027C3000174524E530040E6D86600001B7A4944415478DAED9DCD765BC791C7213F816594
:2027E300BD801DBDC0587072B25726C95E87A1B81E8B43EE43085E2774C8FD300E488DF7A2
:20280300179CE33D7041EC6546DCEBD0C15E02719F61FAE3821F407755F55735AE72EB1C3F
:202823009B4E8E48FD59BFEA7F553780DB9DCE6D3CFEE269F7538A5F3521FC7EB5AF1E7718
:20284300D6E3D1A7854FC6B3DC78921114BFDBE7FF06001B81D0FF97FBDC00F0776D70C782
:20286300FF787E5F7775154A80DFFC71F7751BCD88DDBF3E5F41F84400FC5B6E596D384451
:202883005F20FCFADE121400FF3BB7A6369CA2F7FC7E2B144BF04FB915B5E118AFEE2D42EF
:2028A300B104FF985B4F1BCEF1D7BB45F8A4F5D02686F0D1AF6F97E0766E356D78C4C17216
:2028C300113EE9FE3AB79636BCE2855E84622FF8FBDC52DAF08A6FBBCF6A136DB782CD8C82
:2028E300BEB6D12FBABFCDADA40DCFF84BF74B41B035D1E6C6B7AA1176BBED56A2A9D1EBD9
:2029030076651B6C27D1E6C60BD1083FEBFE26B78C36BC4336C227DD3FE496D18677FCB9CC
:20292300FB1F82E0766E196D78C78118659EB4BBC106475F107C1AF9547B7777A35EEADFD1
:202943002039BBBB473A76E365BCF7FC5927DAEB12BDBDC3AD9D818E93ADADA3CC7B94DE81
:20296300DED67D39DFE795B37BB8D4A223567A34C1283FE9686BB01A2747D9CABF77B46300
:2029830090930BE2DEE1C010272FBF8FF0B39F77A310DCDB1998E32486C886CBB1AA89A2F1
:2029A300270AC107128732B2266DB3E4DCA95152CA72FC4052B09E17E1046F259E0ECFCB5E
:2029C300BB180F8B2C49DB2C394B350FC5C8B885F832CCDB83D760EFD026F19ECA13B606E1
:2029E300D43B5ECA5957730BF11F5C7296C931E5E65E7A824A2A94607F0792285546104940
:202A03008FBD3A63252C8769192E936355238A2AB8A40209BE42F8DD252DD02B687188CB6B
:202A2300A973F69241CD1EC64FE951BE70E27FA81244505BD6E97989881C068AA4CAD9C13F
:202A4300CBE93667C99D94989CA51EEFB7EB8610D4263144252E4526B6AEBE2A793C634B2E
:202A630057485B513D7272CAB208718500827D628D3121DC73969312A102485453979427BF
:202A8300427F821A2051622D32E13BFBF7E8257F2B275D4569806435BAA4FEE1F55779137F
:202AA300ECBB65AC16990CE19E4BC92B3929112A802EC9D14EEA85D097609FDA73564426CD
:202AC30042E80CB0AEA834081540C7E47823F424E8033021C257EE001322F402E88DD08F86
:202AE30060CF2763B5C80439EBFBC95108138C33C75E007D0BDC8BA02C321F805A64F49C87
:202B030029393E6A24C2F8077EFB9E003DB3E345F0D817A012193B6772EBEC0550CB89BD99
:202B2300B57FE50D50237495E3433044A3CA59DC9405D4935A8571E5F44392E353E01E047E
:202B4300F78234CA29FEEF315316544F4A4ECCE1CADBD1EF103A56943BC1BEF3562769CE69
:202B6300C26A5ECB89D899031CDD333BEE04E122D32F438B7F9D8322A3F51E59F321F514E7
:202B8300B933BF0A7074CF8A7226B80F1759311C16E7F2DF6760CEA2F59ED09AD77262D99E
:202BA3007A2FD0106A844ED97125D8478AACA8AA8F8260757306FDA1683EDA0F07A8E444D4
:202BC300F2D16304E06C2EFEF5AEFA0593E3921D57823B88464170718A118CE6A33D4C0E3E
:202BE30029C6B17CF415524F934A10BCA8AAEA1AD4E3E6A38E04F7B19A1704AB2146D0D923
:202C0300296C216A1EFC7B8811C947310F9D5692E0D5A29CDD6015E5901D3782B869498212
:202C23006F5182917C348A87D67222F828E6A19AA0C02720C6CB8E1B41DCB424C10FE7289D
:202C4300C1283E8A7AE8E45DB5103D67325B5C96989C701F3DC0EB49119C975384A04448FA
:202C630096E34410F3F99AE0FC0C252873166C5CFB583D89A2AFAACB72267A339EB250397B
:202C83009439541214FF4C2BE4CFB9F8A80BC11EC1B404BB9F16A738C108C685CB99DEC898
:202CA300E161525D5F5497B89CC04588D693034197ECB810A4682CAAF99B6A4820183ECC93
:202CC300606D478C7D2A6902DF0499FE227802A5BCE9044B7A761C0892340A82A7D55B0251
:202CE300C17234186C87A48C36C6087C17225F28C1604FA094B703417A761C0892340A82EA
:202D030083D9870181A0C8D94948CAC412C4015662F72CF325530747A027D0EA893AC9B8BB
:202D230064874E90A651129CCE4904C7413B8A03D25650CE303482B2EA0316216EE9B70423
:202D4300F1DD845376E804691AA58BFEB820110C9B1E76685B41E1A24482A2F5F87B429F5C
:202D630076B440DBD1BB65874C90A851103C7B5351FA60D8F470403D4EABE65482E380C662
:202D83004CB274B5B9219CAAB965874C90A451131C560B12C19045485C827A16A54C3265FD
:202DA3004863EE93EA4913444FB61DB3432548D3A80916620B4D22E8BF08694B50ED26AEEB
:202DC30049BB895A8E67273C8E74BAB72A673B22C17DA2464970342512F4AF7A5ACAC48E73
:202DE3005EE3C377F4B51CBF71B417E31512DFEC1009F6A82F024882E31FA9047D5B0FD1A7
:202E030011A46D89B18F70AA762BC76B11EED33A8C6BD0E4100992354A82E51B2A41DFAA80
:202E230027BAD6E45F953CD3C64FB6C3E490CBDB3548726804E91A15C12199A05FD52772EE
:202E43002DB527F418AD122D416276680449C7317704C5284324E857F5C95256FA8C56A4B4
:202E6300D346BFA0648746903CBB6B826294A112F45984C95CCB6F1192B7A669E490083A3A
:202E8300685404C5284325E853F5E996A02CA81F5CE524D94AD0B34322E8A0B1F8E7CF82FF
:202EA300DD99FA37294499B9A68CEE08EEE1BEBFA1EE94BD6284CBA11074191CF47B7DC19D
:202EC30077FCAE84F3862269CADC5D9DBA534E25874230A16B951EB34CD29409398EAEBECD
:202EE300F3B02953CFCCA2C9A110DC493638C8183B0E0FC9B6123A5C5D7DC511A8E7D6F101
:202F0300B2432098D4B54A69A33FB8A4EC20A923381F13ADCC08D4D78E0CF16EA696EFCA2B
:202F23002246E51008A6752DE7E121E5E8A7E5B8B8FAAA23105FBF3545A596EFEA2246E55F
:202F43001008A6DB7DE9701B1E129BA8ABABAF3A02F13D14468297E56CB1B688513938C1CC
:202F6300C4AE553A0E0F69C72A194EAEBEEA08B4F73119E35A1EC5AF2F622C3B38C1D4AEDA
:202F8300E5383CA41DAB74CAE836BAE60801044B4D707511635B42946072D772B3D17539F1
:202FA300E6018014EAB3446BDFE862A3DFAD96771841B1FAD67E00260725D84FEE5A4E3645
:202FC300BA9632CB00408AA94897E11B0BFA347ABCEA0861048585AEFF800276759460EA8B
:202FE3004954C6983E8DAEA5CC3200D01226D265F8C611D946D71D216092919BC9B9812034
:20300300220725B893DC444B393C107DCBE0E9D7E601801093854897E11BE9367AB056DE55
:2030230001BB0961A2A21AD709227230821C268A1A05943219A6018010D3B92468F846B2DA
:203043008DAE1B54C08E5E2CC11BE32286E56004394CD4C1B7F68D93A8690020C4ECD2E8B9
:203063005A0E7D79DD11424ED566F2FD5886450CCBC108B29828DDB7CC83B171004063A2C8
:20308300B89BBE714CDCDE980CCAFF64FB42BD2DD9B0886139084186BD840AA26F993DFD04
:2030A300C2020289E9DC46B0246E6FE21A941CAAE5FB93D71731280721F81D8B89926DD4CE
:2030C3009C32F30080C6ECD24A9068A3710D4A13342D62500E42F038F909880EA26F1953C8
:2030E300661B006819337E236D7BD36399F230390841261325FA963965B601008B9AA0F1A3
:203103001B497DF980C9A0603930C13E9B46D27EC29832EB004008F38EBE24F6E57D2683CD
:203123009272ECF50D13E46A83C446684C997D00C0C37CAAA6E4101A21CF9C8EC9810972A6
:20314300B541622334A6CC3E00E0613CD9D672F082626B83B01C98205B1B243542C694516D
:203163001A215F1B04E58004798ED474103A0F67CA0ABCA0F8DA20280724C899324223E4CA
:203183004C19A111F2B54170470812E46B83A42DD83163CAF046C8E9E9901C90206795E17A
:2031A3009D873565B81CBE9D56090E7A1041DE94A18D9035657823E4F474480E4490B30D4C
:2031C300123ACF77CC29FB0196C3E9E9901C88206F95A19D87376563ACA0585B0C50DF10D8
:2031E30041DE9495D89E9E3765D864C5DB6280FA8608F2A64C1805383B30A70C1B6578BB84
:203203003250DF0041EE9421A30C77CA905186B72B03F50D10E44E1932CAF09DB22F53060A
:2032230016D43EAF41D9E50004B9AB0C196578E72AB4A0985B8C5D0E40907990C166077E77
:2032430039604131B718BB1C8020779521B3037FCAA0D998BBC5D8EBDB4E907B9041660728
:20326300F694C1B331EF69870C5B7DDB09F2A76C041D83F0A70C1C65B8BBB2BDBEED04F91E
:2032830053061E8370CF55484171776529C75C507682FC29036707EEE91D2928F621C15A26
:2032A300507682FC292BA16194BFE8C182621F12AC72EC04F953069E8CEE644899BDA07ACC
:2032C300EC2DC683207FCAA0E98F7F32060B8A7FCCB33A949D60869401DB891C29030A8A98
:2032E3007FCCB36E27AC0433F88475DCCA46D05A50FC639E558E95608E9401F3FB418694BD
:2033030001059561CCB3ED4FAD0473A40C98DFF977D060416518F36C72AC0473A40C98DF2F
:2033230073A40C2828FEEDA0558E95608E94011BC23C29B316548631CF26C74A3047CA80B4
:20334300572772A4CC5E5039C63CDBFE1420982165C58611B46D08738C79B682B212CC929F
:2033630032EBFC9EA5E8ED059589A0B1A0EC04F3A4EC6F9B94322BC11C83BA4D8E8D609E17
:20338300A2B7EEC07211B414548E0DBD2BC13C29B3EEC0729C6201AFF1E622682AA8C61051
:2033A300CC9132AB25E438927125982765D63D749EA2B716541E82E682B211CC9332EB1EF6
:2033C3003A4FCAC63682598E3B2C05D51204E5582C21CB718723C15C29B39C82E4297A6B62
:2033E300416539EEB014D466112C1B4230CB7187458E8DE05DCA8622CADBEBCC5C6E35F315
:2034030008DB3956AEA2B714549641DD9BE0405F52AABF8C07716F802906759C2FFFB24DDF
:2034230022587E1A048755352AE5B59E95588AE39FE41D9FF1A2F8A78E9FEBBFAD6804C184
:203443003C07568E04EFA6ADA2AADE9F4B74D5DB52DEB0FB31A68B16958E8F08C13C8DA786
:20346300E10497DF37BAAA3E688202A4FE1FF1629DA0F92C3917417341AD11BC904F09A666
:203483005F7BEF19E6B64C20A8969D4027D9156A25C60BF1F37E79E8A24D20B876E478252E
:2034A30009CEAACAFBA689B598BCAB16BFAC56852741DDFA0ABD5074538C17B222EE4F3281
:2034C3005682C96D4B3FE372651D11098A6F9597385D5F54D116E154EAB95CA90A5F82EA5A
:2034E3006AF2A1FC05D59761CCBCADAE69DBEB390F5236930FF58D7CDF6D4D70651D150ECE
:203503000405BE49BC0B5CA737F25EAF95AA702278CFB6DE548BD3F2BC5AC82F6FAA2AEA0E
:203523006A20127CD078D48D65B1EFBB550F8B5D5B474482EA69F9B217C69374A124AD54AB
:20354300852FC1A1A4F6A6FA28BE8CFF57AEC78821090EEB33039D3294E054AE95A0DB7134
:203563008CA108AEAE238BA91B09CA7FD40F891542CC4A55184D9D467028ACF4C34C7D9920
:20358300473D9211047F9600971921130CBAA1CA1435C187EB28274131E3ADFE4C5F8222B9
:2035A300CB2331CEBC9DAA2F51B783B7BB09640D3E4C992218724B9C396102DD2A059CA0D8
:2035C300AEA73404176104EF522636126FC596A2F8A97A2FBE44DD0EFA130CBBA9D1983077
:2035E300318EAC1334CA39E020285D341241B1F03E145755F1A3FA12753BB8410465C6AE42
:2036030089048D6B30EE24A37FCF78043F0EC420FA467E89BB99A0F6411682EB1973EA8354
:203623007177135A4FA449460CA01F4FC50C7A56CD4F1310749D4553120C9964E2EEE8D565
:203643006EE27A7537E14950EC24E6676282195637A7724F18337CF68349261963C6A8048B
:203663008DA701612176F45A4C8C1DBDD84E2CDE8809A69855FF17793B184030F26E42646E
:20368300ECDD5AC61CCE64D64FE402F554AA1EA29CAAD5E3C6FB7379B81D7933E177AA966E
:2036A30062476FCC18F94C267E4CFE55C97A8872B22D7E0FF17B5523F50253E4CD848120D6
:2036C3007AB2ADCE7CA39FAA1933467E6D8229BC098EA66ADE972FD3CBD70863C6ED2443AF
:2036E3007F7549138C7EB26D4E19F1F5419EF07D7DB0D48BEF54CEA4915F1D6CEAEB830D96
:20370300798DFE6EB1C9C5272798B32AF66662E35FA36FF0BB2CEEBF41532E3EF9FEA6619E
:2037230015F9B525FAFB6436EB9D4E0D7BAF9A88336D73F28D658909B6EF3604228060A1D5
:20374300DF06318AFC66D1B2B9EF176DD47BB6D38A1AD6B1246849599E8F9AB49F9BF0D00F
:20376300D88CCF4D34E1B34BEDA7CF4AE0D367EDE707ED29DB30823F98E5E422B8ED40B017
:20378300FD1476B9719FC26EF493107211DCDE24398D2698EB113C1B46B07D229073CA2C49
:2037A3004F046A9FE9E49CB20D7B2A57339EABD63E196FE308B64FA7744E99EDE9940D798C
:2037C300BE68FB8458FB23879BF08CDF3C4F69B6DED1B1614F69CEE150AECFD9CEF3A474FD
:2037E3006BD1E77952FA463DB8DDF559F739B63C40CAF2DC56005C9ED084FB2672DC1862F1
:203803004D598E82026E0C69EF7C714E598E82026EEDC923C7F5DEA5F6E62CFBCD5959EE7F
:203823003E338F79EDED75CE29D37232DC3FE87A7BDDBFFD0D92E095A44DB803B4BDC515B3
:20384300BAC535C73DBCE631AF313729E720F8F74D92E37E93F286DD66CEBF21046F336F53
:20386300C27DF4FCE3169832FE822AEC7B1BE950DC726C67C67682FCD31FB099C851509BD4
:2038830025676C1BF3EC04F99BB5FD950919EC05054DC6FCF56D1D120082DCCD7A0CA68CB9
:2038A300BDA0C0B98A5F8EF5C41120C83D8C2229E3DEDD8CA0B98ABFBEAD5D1920C83D3BE5
:2038C3002029E32E287090C921C7D2950182DC274748CAB867077090E1AF6FEB9000107C40
:2038E3003DE0350A2465DCB3033C5771CBB1BFF80D1164B67A7890E19E1DC6D0111F7F7DFF
:20390300DB4F3B2082BCE70E68CA780B0A99ABB8E5D84F3B2082BC568F0C32DC05051E1055
:20392300F1CBB1B71888609FD5EA914186BBA090AECC2DC7DE952182BC563FC052C63B3B9C
:2039430020830CB31CA0C5800439AD7E8C0D32BCA30CDA0679E5002D0624C879003FC25339
:20396300C6D979D0AECC2B0768312041CE4D74814D0EBC9D07EDCABC72004F0709723642BD
:203983007472E0ED3C681B4C2147DD85627AE41FB4D38209F23542421B4CD079DEA90B932B
:2039A3000C4F764537A749E44C0541E36337214F8709F23542C2E410BFF35CA8E75C9A9E84
:2039C300AE4C68836639E6E794126326081A1F7D0B793A4C90AF1112DAA0ADF3F83F1D7953
:2039E30026C9199F704E68836639E66705D362B2904FEB363D7E1AF27498608FAD1112DA30
:203A0300A0ADF3783FA15C3F14DD78CB00A10D9A4F3CD413CEAFFD9E7B3F9D4B828647C0B9
:203A2300839E0E13148DF08C019F6A838494193B8FFF2D01FADB4C377D90DAA0518EF1CEF2
:203A43003262CC2E0541D3350C05E4E90841AE4648D80DCAD837C8F1BFA9E3A27AB77E3BD6
:203A6300159E32584E69BAB7821493456921081E572104B98E46497DC7DC97FD6FCB991ACD
:203A8300EF5A4253866567B27EFB0F4DCEDC421036288420D3D111D1448D7DD9FFC6AA69E9
:203AA30065BA6BA9246E6D5EDBC684F51BAF6831BBB410840D0A23B8CF62A3A4BD840C43F9
:203AC3005F0E2268B86BA924EE25D6E5E85BB4C464E5A7493DEC786E98646083C208F2D8B8
:203AE30028B1EF1807787F82CA7F4D3D8BE8E9AB7234C149751344706D378118144690E78F
:203B0300608DD8778CBE1542F0D270D712DDD357E5D4B7938A9FEADB9B8D3B7A64CA43095B
:203B2300729CC013877719EB36EA3FC94C96F8567623C4C1D826E7C67F3E369EAA21871D7E
:203B430028418E1378B2899AB63701F7FECDCCE727A4F3219B9C991C437CF7A8A6936DCC0D
:203B63001150821CC7326413557D79454EC0BD7FFA3C6EF5548E6EA286ECA81D4A15F326BF
:203B8300BB11625028416114A91721757857B1B3E65B51EFFD23A40C9453138C78931D66D8
:203BA3005038C183E4D3A883899AB63751EFFD739593FCD00A75049C60721B1D3B98288FED
:203BC3001CB28932C829B0B10A27987C53EFE45AE95D1D4D19AF9C01B6372510EC272E3397
:203BE30027D74AEFEA68CA58E5E08E402068181E78353E8CC4BEB561727047A0104C6BA384
:203C03008EAE955E8E932324964398112804D39699A36B257675B7B12AB91CC28C4021988E
:203C2300B45B8F1C5DEB755A572FDCC62A2D275D7606B82390081E3895D9BDCBE8482973A6
:203C4300742DE95BE9860742CA0C72522D428A2390080A1BA597D9F0F4FC7238A0327477F5
:203C63002D25E72C51CA3C1C21A51CCA8C4022E852F5E353797BFD624424E83CC76839A97A
:203C83007CCB630926F4045279D3083A9499027877B12EAE71DB3D65C986071F4748B80813
:203CA300494D9946905E66EAD27A3A418FC14106365A55F372E273DCEDE508C93C8156DEE1
:203CC3004482E40DC5685A2D8AC1E99446D06F09E28B50BD5DE87AF5FFA2C8F15882C93CB9
:203CE3008156DE4482E40D4531ABDE8B5974F033E9572A3C060715C8042FDFFB5CADFD5FD9
:203D03009152E69F1DF5E2ED6466F8709229C6B4A64C25482DB3A2AADEAABF9DF2A7891A45
:203D23000D81EC6FAAF964951881A0AF2350B33311DDE552BE9C497B5B0FB1BCA904A965E5
:203D43002608BE1F8AAFA4DD84F712C4F637D5FC4AE46A5A5D482B7D273F4D245F792D2F02
:203D6300E0F2F75E82C45DFDC54D79757D21245C510852CB9B4CF0803670098237C52979BF
:203D830010F55C82D836BA9ACBF71B496A37EAAD430BF5DF13F5F2791239A4EC4C457716EF
:203DA300A525FEEB9A9249627993098A32A38CA3A32B91AF3171BD7A2F41B108C1AAAFE4C5
:203DC300E7B8EA77D55F2DF4DB0AE57073595E41724EBCE590B2A3D6E0FA870303EB894EA1
:203DE300B04F3A9819FF54A90D3DE58F06D43CD209D5E293C444C58B94C9F7B229829087C1
:203E03008EBCBB20353BAA0F52DFDA4A2E6F3A41D10909ED7A7CAAF78305FE47836A1EAEF7
:203E2300FA6A21CD6AAADEFE2E53A63F8F70A126095B0CFCF6822ED991B32891A028EF3F33
:203E4300D1FE620782B4D3D1E28DDED19F11346E87A4AC0FB41EF95EFAEB3582E515F0AE9A
:203E6300B6C2732F784F0EA97510090EC853950341E2217C71FA4E22447F1DBA464B00553D
:203E83002F89DDD4046773F59E6E95B9C9CC36C98C039720F9250AF24E623B0141E24B1427
:203EA300C3813C1B1DE21A836A1EAC7AF9F903F519B0E9DD2423A65231C854763921964E61
:203EC300CF0E699271A9271782B2CC309163F98F74D2513C8D801C4BD5ABA637D7042F6EE7
:203EE3009F4DA077173639015315393B65599276132EE5ED44508CF0985314EA9718A20432
:203F0300C397A0AA7A8B1CD5FB169AA0DED10B900BE1A196362800862E4152764AA903DF5C
:203F2300D1172EE5ED4490D0AE0B8550101C631A836BFEF5EB572EAF3C2372B6C3E5D08636
:203F430019FC544DD493C394EE4610778A62510C86D2454F318DE119236E70F08861E9A4DB
:203F6300ECC8C04FB6DDFCC99120EA144525F489ADEBCD693C8D809C410C84513C94941D37
:203F8300523879A83341D4290ABDA1AFDE9EC31A2378A88C283E1AC743EBEC042374F35084
:203FA3007782985314FA4D16E0121C46F25019C7E1081D6B3E243B34806EFEE44C503A0546
:203FC3002072389013DF3574A8E6AC1194135CF5D13C94901D821AE77A72268839859400E9
:203FE300FF8101F9C88F12AF02114A39DBF1E4C8EC60871950148E1EEA4310CDD9187E7534
:2040030037A669C9D80F42280146EAC9B4ECA0005D0DC183A0EA3DDE22DD8B8C22272465C8
:2040230051EB29ACA27C1A8C0FC1909C7914191621BD277E3D8514B85783F122E89FB32296
:20404300E614B30CD97BFCE5C406A8B3E383D0CFD1BD08EA9C79882CE24E31CBD8F3449829
:20406300A49EF47CEC61A412A087A3FB1154FDDA1D61117B6C78206753EA4917B833C2A127
:2040830004E861089E0475D93B8A94197B9922637E0893011408779C11FA02F426E88E7077
:2040A3009C10A087298C1302AC113AEC0B951A2F80FE0415420791D2E5D3654C237490338E
:2040C3004C2C478E33F4920A0018405023A48A4C9DB11A21D549D5C1D1F729E5288444275E
:2040E30055C9F1DD960610D40D9BF60189223940978A1AA707B844487005ADC6BBBF84106B
:204103005C8A4493A66AEC2471C6EAE643C8999693601BB11287AAA4303D4A4D4039051145
:20412300AC4522491BAA1AF37479A7E81D53E40CB8E4BCDEDB41196A3521E7428104B5756F
:204143004149D3FC523BE8433940CE74C6523BE832EA92B2EAA9D5044DE8A1046B27150CFC
:204163004D2AC7B5C4F40EBA8C3E2467B894C3B10075D4156ED033AE6B3B3439C104975E6A
:20418300B1AE72992F51637C1923C8E12B2719BDC365164EE583766A29C325BE70351108E5
:2041A300DE4B9ACADBF0BE406E7E328EEEE49CD672EED4F0F29371C7703D22A8791183E071
:2041C30043860F839D1F9CB3A30C725EF78ECCE9D98A514D51D6A08CDD4383CA97EC05BFB5
:2041E3008C3D839C937C7204C4ADB5DCC429A66804B5CA7B69DB7AB99B2D5F2A760FEFC94F
:2042030039D93ACA2CE7756FEFE8E8704BC6D1D151B45AEA3D7FD679FA4D5467D9DD3BFA6B
:204223007E3787570172728B481892E093EEE6E4BB0DD7E877BF1604B773CB68C33B0E1407
:20424300C13FE496D18677FC5910FCACFB9BDC32DAF08EFFEA7ED979D4FD756E196D78C7D8
:204263008BEEE79D4EB71D651A1BBD6EB7D3E93CED32BD72D046F4F8B6FB4C10FCA2FBDBD7
:20428300DC42DAF08CBF74BF12041F75E3EEE9DB608BDE73D9063B8F9EB6FB89868630512C
:2042A3004950EC08DB69B499F142EC063BCA46DB639946C6415799A85E846D276C5EF496E7
:2042C3004BB0D3F9ACDBFD7D6E396D38C7B7DDEE973541B125FC26FDFB27DB881B7BCFD5BD
:2042E30066B0B3EC84ED8EA261217612CB2EA83B61F73F5B844D0AD1046FBB6047EF09BB59
:20430300DFB4876BCD895762053EBBB7043B9DC712E1EFDA684A48808F3B0FE28BEE271805
:20432300CF7EB5F1E1FFCB7DD5598947B9D31D3F1A00D09BE0430BAD114A27FD9422379C11
:2043430084049F3DBE03F8FFE35AF8A73B0A2BA00000000049454E44AE4260824749463852
:20436300396101000100830000000000FFFFFF00000000000000000000000000000000001E
:204383000000000000000000000000000000000000000000000000000021F90403000002F7
:2043A300002C00000000010001000004021044003B74787400746578742F706C61696E00CF
:2043C30068746D6C00746578742F68746D6C0068746D0067696600696D6167652F67696695
:2043E300006A70656700696D6167652F6A706567006A706700706E6700696D6167652F7014
:204403006E670043B443B843C343C843D243C843D643DA43E443E943F443E943F843FC003B
:204423000000002F6172726F772E676966002F636769666F726D2E68746D6C002F66657454
:2044430063682E7368746D6C002F696E6465782E68746D6C002F6B6C6F6B6B656E2E706EE4
:2044630067002F7370616365722E676966004426114A06424431178C03A0443F1B2C0250DD
:20448300444C1D7C09B24458272E1C314465435F005500000000000074656D7065726174F5
:2044A3007572650077696E645F646972656374696F6E0077696E645F73706565640007268C
:2044C30068449B0000000010A207266644A70000000010A207266A44B60000000010A2006D
:2044E300000000000000000000003C212D2D236563686F207661723D220047455420002058
:204503000D0A002F2F00696E6465782E68746D6C002F6367692F696E666F002F6367692F5A
:204523006765743F00485454502F312E3020003430342046494C45204E4F5420464F554E9A
:204543004400343930204552524F5220494E204347492043414C4C00343931204552524FF1
:204563005220494E204347492056414C554500323030204F4B000D0A436F6E74656E742D34
:20458300747970653A20000D0A0D0A00200020494E464F474554002043474947455400208F
:2045A300535349474554000A003C48323E4854545020343930202D20496E76616C696420DA
:2045C3004347492063616C6C3C2F48323E003C48323E4854545020343034202D2046696CB2
:2045E30065206E6F7420666F756E643C2F48323E0055696E74313620002E2E001248A97588
:20460300DE0075D9012279107404120108740412C60A8B078A06740A12C60A741012D3697E
:20462300740C12C60A741212D47B7900EBD3C0E0C0D01248C2FFD0D0D0E09FEAC0E0C0D0A3
:204643001248BDFFD0D0D0E09F402D7F01740812C63E740B12D47BC3C0E0C0D01248C2FFE5
:20466300D0D0D0E09FFFC0D0740A12D47BD0D0C0E0C0D01248BD802B7FFF740812C63E1226
:2046830048C2C3C0E0C0D0740B12D47BFFD0D0D0E09FFFC0D01248BDD0D0C0E0C0D0740A58
:2046A30012D47BF8D0D0D0E098FE740612C60A1248B8D39DC0D01248B3D0D09C4012780136
:2046C3001248B8C39DFBC0D01248B3D0D09C802078FFEDC3C0E0C0D01248B8FFD0D0D0E039
:2046E3009FFBECC0E0C0D01248B3FFD0D0D0E09FFA1248AEC39BC0D0740612D47BD0D09A01
:204703001249E130E749740412D3697901C006C0078D078C06740412C60AD007D0068F056C
:204723008E04740612D369C006C0078B078A06740612C60AD007D0068F038E02740812D4E0
:204743007BFFC0078807740812C63ED007A807EB25E0FFC0D0740F12C63ED0D0EA33FF7426
:204763000E12C63E740F12D47BC3C0E0C0D01248AEFFD0D0D0E09FFBC0D0740E12D47BD007
:20478300D0C0E0C0D0740612D47BFFD0D0D0E09FFAE9640024FF92F01248AEF513EFF5125B
:2047A30030E70302487845137003024878E5136002051230F00E8D158C14740412D36912D4
:2047C30048A98010740412D3698F158E148D078C061248A98515DB8514DA8FDD8EDC7412DC
:2047E30012D47BF989DE75D9021248AE25E0F515C0D0740612D47BD0D033F5148019E8FFC7
:204803003395E0FEED2FFDEC3EFCEBC39515FFEA9514FE8F038E02EA30E7E3740812D47BE5
:20482300F5153395E0F5141248C22515FFC0D0740512C63ED0D0C0D01248BDD0D03514FF17
:20484300740412C63EEBC0E0740F12D47BFFD0E02FFBEAC0E0C0D0740E12D47BFFD0D0D013
:20486300E03FFA1513E51360030247B61512E51260030247B61248A9740B12D47BFF8FDBCE
:20488300740A12D47BFF8FDA1248B8FF8FDD1248B3FF8FDC741212D47BF888DE75D90279CC
:2048A300047B10020266E5D970FC22740702D47B740C02D47B740D02D47B740402D47B7404
:2048C3000502D47B79097404120108740412C60A1249CB12C60A740912D47BFF740812C6D7
:2048E3003EE4F9F8EB25E0FFEA33FE7C007D03EDC39FF513EC9EF5120249AC740512D47BE3
:2049030029FDC0D01249C6D0D038FC740712D47B2BF515C0D01249C1D0D03A124A0D99FF51
:20492300C0D01249C6D0D0981249E79BF515C0D01249C1D0D09A124A2E740512D47B2BFD32
:20494300C0D01249C6D0D03AFC740712D47B29F515C0D01249C1D0D038124A0D9BFFC0D0A7
:204963001249C6D0D09A1249E799F515C0D01249C1D0D098124A2EE51230E7118907880649
:204983007D0212A8E7EF24061249D28017E9C39BFFE89AFE7D0212A8E7EF240A1249D21BCC
:2049A300BBFF011A09B9000108EBC399EA981249E120E7030248FE79047B09020266740618
:2049C30002D47B740402D47B8D078C06740622FDE43EFCE5132DF513E5123CF5122230D252
:2049E30002B2E722FE124A058515DD8514DC740812D47BF5F085F0DE75D902740712D47B6B
:204A0300C3221248A98FDB8EDA22F5141250A18515DD8514DC124A22740512D47BC322740E
:204A23000812D47BFF8FDE75D90222F5141250A18515DD8514DC740812D47BFC8CDE75D9A3
:204A430002124A058515DD8514DC80D379127404120108740E12C60A1249CB12C60A8B0795
:204A63008A06740C12C60A741212D47B741312D47B124D8AFFC0E0C007741012C63ED007B2
:204A8300D0E0C423541FF8EF5407640024FFE43328FF740412C63E7F00740812C63E124D04
:204AA300805401F9740E12D47BE4F8497003024B34124D41FA124D91FBE4C39B506C740D25
:204AC30012D47B2402F9C0D0740C12D47BD0D03400124D7A8D828C83E4935480124D4BF929
:204AE300E9F8740712D47B2AF513E4C0E0C0D0740612D47BFFD0D0D0E03FF5121248A9122B
:204B03004D80FF8FDB124D738FDA8513DD8512DC88DE75D902EDC0E0124D6CD0E02FF9E46F
:204B23003C124D7A0AEAC39B40AA7F01740812C63E741012D47BFFC0077F00740A12C63E51
:204B4300D0071FC007740B12C63ED007BFFF0C740A12D47BFF1F740A12C63E124D91FFC01F
:204B630007741112C63ED007E4C39F92D5024C631248A9124D80C0E0124D46D0E02FF9E478
:204B8300C0E0C0D0124D73D0D0D0E03FF889DB88DA75150020D503024C58124D63C0D074D5
:204BA3000C12D47BD0D0124D98F512EFC423541FF82BF9E43AF8124D41FD7C000DBD000188
:204BC3000CED5407FFE4FE90522112CE85E493F5138D078C067D0312A8CAEB2FFBEA3EFA55
:204BE30089828883E4935512124D85EDF514124D8A5513124D85E5D970FC740712D47B2584
:204C030015FFE4C0E0C0D0740612D47BF5F0D0D0D0E035F0FE8FDD8EDCEDC454F04514F51D
:204C2300DE75D903E9C0E0124D6CD0E02FFDE438FC8D018C00EB2FFDE43AFC8D038C02058C
:204C430015E515C3C0E0C0D0741112D47BFFD0D0D0E09F408B124D412402FF740812C63E59
:204C6300124D467E00740B12D47BD39FC0D0740A12D47BD0D09E1249E120E703024B737495
:204C83001012D47BD3C0E0C0D0124D46D0D0D0E09F5003024D35740C12D3697900124D5735
:204CA300FCE4C39C4003024D35124D63C0D0740C12D47BD0D0124D98FDEFC423541FF82BB8
:204CC300F513E43AF512124D80C0E0124D46D0E02FFBE4C0E0C0D0124D73D0D0D0E03FFA37
:204CE300851382851283E4935D124D4BFFEFF8740712D47B29FFE4C0E0C0D0740612D47B26
:204D0300F5F0D0D0D0E035F0FE1248A98BDB8ADA8FDD8EDC88DE75D902E513C0E0124D6C7C
:204D2300D0E02FFFE43512FE8F138E1209E9C39C40AE741012D47B79047B12020266740813
:204D430002D47B124D41FF226005741202D47B741302D47B0FBF00010E8F828E83E4932292
:204D6300740D12D47B2402FB22740412D47BFF22740E12D47BFF22F88905880422740F0254
:204D8300D47B124D4BFD228B828A83E49322740C12D36980BF3400FA124D46540790522107
:204DA30012CEE1E4932279127404120108740E12C60A1249CB12C60A8B078A06740C12C692
:204DC3000A124D8AFFC0E0C007741012C63ED007D0E05401F8EFC31328FF740812C63E7F0C
:204DE30000740512C63E1250D65401F9740E12D47BE4F8496070125097FA1250DBFBE4C3F1
:204E03009B505C1250B8C0D0740C12D47BD0D03400124D7A8D828C83E493C4540FFEEDC0A9
:204E2300E01250CFD0E02FF9E43C124D7A740712D47B2AF9E4C0E0C0D01250C8D0D0D0E000
:204E43003FF81248A91250D6FF8FDB1250C18FDA89DD88DC8EDE75D9020AEAC39B40B57F9C
:204E630001740512C63E741012D47BFFC0077F00740A12C63ED0071FC007740B12C63ED0BF
:204E830007BFFF0C740A12D47BFF1F740A12C63E1250DBFFC007740412C63ED007E4C39FFF
:204EA30092D1024FD17F00741112C63E20D103024FC6740D12D47B2402F515C0D0740C1211
:204EC300D47BD0D03400F5141250977E005401F9E4F8B90006B80003C38001D392D51250A8
:204EE30097C313F82515FBE43514FA1250D6C0E012509CD0E02FF513E4C0E0C0D01250C1FA
:204F0300D0D0D0E03FF51230D53F740812D47BC0E0741112D47BF5F0D0E0A4F9A8F0125025
:204F2300B20FBF00010E7D0112A8CA85158285148312CE858907880612CE85E493C4540F1F
:204F4300F8124D8A540FF9800C124D8AF8C4540FF9E8540FF8740712D47BC0E0741112D45A
:204F63007BFFD0E02FFDE4C0E0C0D01250C8D0D0D0E03FFCE5D970FC8513DB8512DA8DDD97
:204F83008CDCE8C454F049F5DE75D903EBC0E01250CFD0E02FF9E43AF889038802741112F2
:204FA300D47BFF0FC007741112C63ED007EFC3C0E0C0D0740412D47BFFD0D0D0E09F50035C
:204FC300024F0A1250972402FF740512C63E1250B2740B12D47BD39FC0D0740A12D47BD021
:204FE300D09E1249E120E703024EA8741012D47BD3C0E0C0D012509CD0D0D0E09F500302D8
:20500300508B740C12D3697B00124D57FAE4C39A50761250B8C0D0740C12D47BD0D0340053
:20502300F81250D6C0E012509CD0E02FFDE4C0E0C0D01250C1D0D0D0E03FFC125097C31332
:20504300FE291250A9740712D47B2BF513E4C0E0C0D01250C8D0D0D0E03FF5128982888322
:20506300E493C4540FF5F0E9C0E01250CFD0E02F1250A91250A18513DD8512DC85F0DE7553
:20508300D9020BEBC39A40BD741012D47B79047B12020266740502D47B125097FF2212484B
:2050A300A98DDB8CDA22FFE438FE8F018E002212509C7E0022740D12D47B2402F922740EB8
:2050C30012D47BFF22740612D47BFF22740812D47BFF22740F02D47B740C12D369024D5709
:2050E3008F828E83E49322024D5774041200FEC006C007740412D3698F018E00D007D006A6
:20510300740612D47BF5F01248A9E5F0C454F045F0F5DEEFD39BEE9A400A8B138A128F15D7
:205123008E1480088F138E128B158A14EDD399EC98400F890388028D018C0009B90001089B
:2051430080098D038C0209B9000108AF13AE127C007D0212C4B7ED4C60141251D020E706E3
:205163004D60031251C10513E5137002051280221251D020E7114D600EED60010C1248A9BA
:2051830075D913DDF8DCF6E5132402F513E43512F512E515D39513E51495121249E130E744
:2051A300CFE51365157006E5126514600C1251D020E7064D60031251C1790402026CED600B
:2051C300010C1248A975D912DDF8DCF6221248A98513DB8512DA8BDD8ADCE9C39BFDE89A18
:2051E300FC2210100000000003E00010080811C4124422442244224821B0100010000840D1
:20520300078000000808382424382424243808081C2220202020221C51E5520752118040DA
:2052230020100804020112529190040CE4F0E0D39402400374FF22438780758DFCE5895498
:205243000F4420F589D28E90040CE024FFB3E43303548024D0F59890040AE4F012528612C7
:20526300527690040BE4F0C2BCC2B0C2B2D2ACD2AFE4229004041252819004028000E4F020
:20528300A3F02290040812528190040680F0D2B2C2AC759800E4229004081252C0E924BF3A
:2052A300E834F95003E4F9F8900406E0FAA3E0FBE9B50307E8B50203740122E4221252C9A8
:2052C30009B900010822E0F8A3E0F9228F0390040812531E24BF12530A1253046D7004EC2F
:2052E3006860F69004081253137A00EAF0EBA3F0900408ECF0EDA3F090040AE07002D299B4
:20530300229004060252C9EC34F95003E4FDFC22E0FEA3E0FF9011BA02CE311252C08905D8
:205323008804ED229004041252C9900402E0FAA3E0B50107EAB50003740122E4221253872F
:20534300900404E0FAA3E0697004EA6860EFD2B2C2AC9004001200EA12539890040212535D
:205363008DA3E0F890040212CCC2900402E0F9A3E0245BE934F95006900402125281C2B220
:20538300D2ACE8229004020252C9E0FEA3E0FF90047002CE319004001253A65003D2B022D4
:2053A300C2B022E0F8A3E024BFE834F922EF5404600BD2B2C2AC125276C2B2D2ACEF54032B
:2053C300B4030CD2B2C2AC125286C2B2D2AC22EF5401601790040AE0601112530490040868
:2053E300E0FAA3E0B501F3EAB500EF22D2B2C2AC90040BE0F8E4F0C2B2D2ACE822C007C034
:20540300E0C082C083C000C001C002C003C004C005C006C0D075D00030983FAB9990040417
:2054230012531E245B12530A1253876D7004EC68601D90040412538D7A00EAF0EBA3F0906E
:205443000404ECF0EDA3F090040012CCC2800690040B7401F0C298125398309940C29990DC
:2054630004081252C9900406E0FAA3E0B5010AEAB5000690040AE48023900406125313A3BA
:20548300E0F59990040612CCC29004061253A6500690040612528190040A7401F0D0D0D074
:2054A30006D005D004D003D002D001D000D083D082D0E0D00732E4F9F88F0274B0CA64805E
:2054C300C39A4024EF64807A39CA6480C39A4018EF25E0F995E0F8E9C39460FFE89400FEAC
:2054E30090564B12CE858066BF2E0590565F805EBF2D059056618056BF3A05905663804EF5
:20550300BF45059056658046BF4E05905667803EBF53059056698036BF570590566B802E1B
:20552300BF640590566D8026BF680590566F801EBF69059056718016BF6D05905673800EF6
:20554300BF6E059056758006BF730A905677E493F8740193F98907880622060870888A88D4
:20556300888B887005082260A02526222224060870880808112040F80608738B08330A0863
:20558300897006081030505091F8101006087B4380F30A0889700608708880F089888870AF
:2055A3000608F81013222340414106087388887088888870060870888A8A78088971020811
:2055C3003F3F3F3F3F3F3FBF0208002F803F3F0000800408000A000F0FE000000608080A65
:2055E300689B8B88986806088081B0CB8B8888880208800D80BFBF80808008080000BCD232
:205603009292929206080003F08B8B88888806080202708B631088700608F98280FB838011
:2056230080F8070885C4A5A594958D84070878848060180485790C0884208A204A404A4098
:205643005140514020802080555D55675571557B5585558F559955A355AD55B755C155D5EF
:2056630055CB561B5625562F563955DF55E955F355FD56075611E4F9F88F0274B0CA6480FF
:20568300C39A4024EF64807A39CA6480C39A4018EF25E0F995E0F8E9C39460FFE89400FEEA
:2056A300905E4412CE85802EBF2D05905E588026BF2E05905E5A801EBF4E05905E5C8016FB
:2056C300BF4505905E5E800EBF5305905E608006BF570A905E62E493F8740193F989078801
:2056E30006221723000000000000007C0001C3000301800701C00600C00E00E00E00F01CEB
:2057030000701C00701C00701C00783C00783C00783C00783C00783C00783C00783C00787E
:205723003C00783C00783C00781C00701C00701C00700E00E00E00E00600C00701C0030138
:2057430080018700007C00000000000000132300000000000000700000F00001F00003F048
:205763000006F00018F00030F00000F00000F00000F00000F00000F00000F00000F0000078
:20578300F00000F00000F00000F00000F00000F00000F00000F00000F00000F00000F000B6
:2057A30000F00000F00000F00003FC001FFF8000000000000000000018230000000000003E
:2057C300003F8000FFE001FFF00381F80700F806007C0C003C0C003C08003C00003C00002B
:2057E3003C0000380000780000700000E00000C0000180000300000600000C0000180000FC
:20580300200000400000800001000402000C04000C0FFFFC1FFFF83FFFF80000000000002C
:20582300000000162300000000000000FC0003FE0007FF00061F800C0F80180780100780B3
:20584300000700000600000C00001800001000007E0000FF800187C00103E00001E00001F9
:20586300F00000F00000F00000F00000F00000F00000E00000E00001E00001C03803803C2C
:2058830007001E1E000FF00000000000000019230000002C000000000000C02C0000C000AF
:2058A3000001C0000003C0000007C0000007C000000BC0000013C0770023C0770023C0770A
:2058C3000043C0770083C0000083C0000103C0770203C0000203C0770403C0000803C000F7
:2058E3001003C0001003C0003FFFFE003FFFFE000003C0000003C0000003C0000003C0007B
:205903000003C0000003C0000003C0000003C0000003C0010000000000000000162300007B
:205923000000008007FF8007FF8007FF80040000040000040000040000040000080000082E
:2059430000000800000BF8000FFE000FFF800C0FC30807E00003E20001E00001F00000F02A
:205963000000F00000F00000F00000F00000E00001E00001C03803833C07001E0E0007F0BE
:205983000000000000000016230000020000030000C0000702000E00003C0000700000E063
:2059A3000001E00003C0000780000780000F00030F00031E00001E3E001E07803E03C33CAF
:2059C30001E03C00E33C00E03C00F03C00F03C00F03C00F03C00F01E00F01E00E00E01E0D1
:2059E3000F01C007838003C70200FC0200000000000016230000000000023FFFF23FFFF067
:205A03003FFFE02000602000402000C00000C000018000018000018000030000030000025A
:205A230003000600000603000C00000C00000C000018030018030018000038000030000077
:205A4300300000300000600000600000600000E00200C00000E00300000200000216230001
:205A6300000000000000FC000387000601800E01C00C00E01C00E01C00E01C00E21C00E069
:205A83001E00C00E01C10F038107C70007FC0001FC0000FF00039F810E07C10C01E01C00F3
:205AA300E03800F33800703800703800703800703800601800E01C00C00E01830707020129
:205AC300FC00000000000000162300000000000000FC00038F000703800E03C31E01C01EA5
:205AE30001E03C00E03C00F03C00F03C00F03C00F33C00F03C00F01C00F21E00F00E00F37E
:205B03000E00F30781E001F1E20001E00003C30003C0000383000701000F03000E03001C0E
:205B23000000380300E0020380030E00010000030000030D23000100000001000000000078
:205B43000400060007000700030003000300030003000300030007000700070007000600F3
:205B6300007FF07FF0000000000004000600060006000600040000000000000823000000F9
:205B830000000000000000000000000000000000000000000000000000183C3C180000005A
:205BA3002723000000000100000000003F80001FF907C00001C003E000008001F000008064
:205BC30001F000008001F8000080017C000080013E000080011F000080010F800080010764
:205BE300C000810103E000810101F000810100F8008101007C008101003E008101001F0031
:205C03008101000F8081010007C081010003E081010003F081010001F881010000FC8001D3
:205C230000007E800100003F800100001F800100000F80010000078003C00003803FF8006E
:205C430001800000000080000000000000000000002223000000003F00000000003FFFFF7F
:205C6300F80001E000380001E000381801E000180F01E000183F01E000080001E0000800CD
:205C830001E000000001E000000001E000803F01E000800001E000800001E000800001E09B
:205CA30000803801FFFF800F01E003803F01E001802801E001800001E000800001E000804A
:205CC3000001E000003F01E000000001E000010001E000010001E000023001E000020F01F6
:205CE300E000063F01E0000E2803E0003E003FFFFFFE000000000000000000003F000000CA
:205D030000001723000000007F010183C00601E10C00E00800611800601800211800201844
:205D230000011C00001E00010F800007C00107F00003FC0100FF00003FC1000FE00003F1F4
:205D43000001F00000790000380000392000182000192000183000113800303C00213E0078
:205D6300401F818103FE000000010000002F230000000000000000000000003FF7FF7FC3F4
:205D8300F80F80F81E00F107807808004003C07C18004003C03C1000C003C03C1000810134
:205DA300E01E20008001E01E20010101E00F60010000F00F40010000F00FC0020000F007D8
:205DC300800200007807C00400007803C00400007803C00800003C03E00800003C03E0082B
:205DE30000003C05F01000001E05F01000001E04F82000001E08F82000000F0878400000F5
:205E03000F107C4000000F103C40000007903E80000007A01E80000007A01F00000003C0E6
:205E23000F00000003C00F000000038006000000018006000000000000000000000000006E
:205E43000056E5575057BB58265891591F598A59F55A605ACB5B365B7E5BA35C545D055D85
:205E6300702290A17EE49360F8FFA3E493A3FEE493A3F8E493A3F9E493A3FAE493A3FBE423
:205E830093A3FCE493FDA3EE54017046EF64016033EF6403602EBF09028029BF0407AE8384
:205EA300AF82025F4BBF06028021AE83AF8288838982E4F0A31DBDFF011CEC4D70F48E8307
:205EC3008F8280A1E4F709DDFB809AE4F309DDFB8093EF64016045EF64036040BF090280B3
:205EE3003BBF040AAE83AF828A838B82805ABF0602803FAE83AF828A838B82E493A3AA83F8
:205F0300AB8288838982F0A3A883A9821DBDFF011CEC4D70E28E838F82025E68AE83AF8285
:205F23008A838B82E493F709A3DDF98E838F82025E68AE83AF828A838B82E493F309A3DDFB
:205F4300F98E838F82025E68E975F008842420F8E6FCE5F06005CC03DCFDCCBD0014E954A7
:205F6300076006EC03FC0980F5ECF68E838F82025E68EB4A6003E493A3C36001D3EC13FCD8
:205F8300091DE9540770D4ECF680BD8F018E00E4FFFE75F00089828883E024F7FA09B90000
:205FA3000108EAD3940440EDEA641760E8BA240575F001800AEA6422600519B9FF0118898B
:205FC300828883E024D0FA09B90001087409C39A401EE5F06004EAF404FA8F058E047E00A7
:205FE3007F0A12C7C4EAFD3395E0FC12616D80CF227904120103740212C60A8D078C06E4A7
:2060030012C60A8B018A00740212D3698F038E02E9486041AD01AC00ED60010C19B9FF0147
:2060230018E412D3698F828E83E08B828A83F00BBB00010A740112D47BFF0FC00774011204
:20604300C63ED007BF000AE412D47BFF0FE412C63EDDC9DCC7740212D3697B0402026079E3
:2060630002120103C006C007E412C60AD007D006EB4A6017A903A802E96001088F828E838F
:20608300EDF00FBF00010ED9F3D8F1E412D3697B020202608F828E83E0FA0FBF00010EEAD8
:2060A300F93395E0F8E9B5050AE8B504061FBFFF011E22EA70DEE4FFFE228F018E008005F4
:2060C30009B900010889828883E070F489828883E0B5050589078806228903880219B9FFBC
:2060E3000118EBB507E6EAB506E2E4FFFE228D018C008B058A04802A1DBDFF011C89828802
:2061030083E0FA09B90001088F828E83E0FB0FBF00010EEB6004EB6A6008EBC39AFF95E0B2
:206123008006ED4C70D2E4FFFE228F018E008D828C83E0FA89828883F00DBD00010C09B9A3
:20614300000108EA70E8228F018E008F038E0289828883E0FC09B9000108EC70F2E9C39B3D
:20616300FFE89AFE1FBFFF011E22ED2FFFEC3EFE2212D40BD0E02FFFD0E03EFED0E03DFD75
:20618300D0E03CFC22C000C001C002E0F8A3E0F9A3E0FAA3E02FFFEA3EFEE93DFDE83CFCC4
:2061A300D002D001D0002280FE1245FF1245FF7EAF7F251250E3F87A027B76126233FDFC02
:2061C3007AAF7B25124DA91262467EA97F7112623C12C574740912C5747AA97B717C007D4F
:2061E3005012809F1268CE1268E212640C7EAA7F6F12623C12C574740A12C5747AAA7B6F0D
:206203007C007DD212809F1268CE1269801264F57EAB7F9112623C12C574740E12C5747A56
:20622300AB7B917C017D4012809F1268CE026A0CEBC398FFE49AFEE4221250E3F87A027B7E
:206243006280ED790C74041201087512FE7513081263A312C5C812633912C552740A12D150
:20626300121263461268CE12634E12C57412633912C552740B12D11212C5271263687A0058
:206283007B641263C51268CE05121513E51370C0740812C5747E007F9012C552126323120C
:2062A300631C1263921263231263151263927A007B147C007D041263761268CE12635B1211
:2062C300633E12C510E5151200CF12C51012633212C6AB12CC1812C5101263DA12CC1874B1
:2062E3000412C5C8E412C574740812C57412633912C5521263B712D3697C007D9612632C81
:206303001268CE12638070B7126A8579047B0C0202667E017FC40246097E007F140250ED44
:206323007A017BC47C007D042212800F7B0422E4FEFDFC7F3C227E547FB922E4FDFC7E01FF
:206343007FC4227B001280CB7B02227A007B12EBC39FF9EA9EF8E42275150075135475129E
:206363000475140822E512FD3395E0FC7E007F1402C7C47E007F141246097B0322E51324FF
:2063830002F513E43512F51205151514E514227B031268CE740712C5747E007F9002C5522E
:2063A300E512FD3395E0FC7E007F0A12C7C41200D9740822851382851283E0FAA3E0FB7415
:2063C3000A22EBC39FFDEA9EFC890788067A087B001281267B07228513828512831263F2AD
:2063E3007C547DB9127F8B7D0112A8CA0200E6E0FEA3E0FF2212D40BD0E05FFFD0E05EFE01
:20640300D0E05DFDD0E05CFC22790C74041201087512007513061263A312C5C812633912A1
:20642300C552740A12D1121263461268CE12634E12C57412633912C552740B12D11212C59C
:20644300271263687A017B0E1263C51268CE05121513E51370C0740812C5747E017F12125F
:20646300C5521264DB12631C1264E41264DB1263151264E47A007B147C007DAE12637612E4
:2064830068CE12635B12633E12C510E5151200CF12C51012633212C6AB12CC1812C510127E
:2064A30063DA12CC18740412C5C8E412C574740812C57412633912C5521263B712D3697CCC
:2064C300017D1812632C1268CE12638070B712716379047B0C0202667A017BC47C007DAE69
:2064E300227B031268CE740712C5747E017F1202C5527908740412010812665512C5747422
:206503000812C57412664A7D7C12809F1268CE7C547DB97E007FCB12661B7F45126613122F
:20652300C574740812C57412664A7D6812809F1268CE7C547DB97E007FCD12661B7F5312F1
:20654300661312C574740812C57412664A7D5412809F1268CE7C547DB97E007FD712661B34
:206563007F5712661312C574740812C57412664A7D4012809F1268CE12665512C574740819
:2065830012C57412664A7D2C12809F1268CE740812C5747E017F8012C55212663012631C22
:2065A3001266391266301263151266397A007B147C017D301263761268CE12635B12633E5B
:2065C30012C510E5151200CF12C51012633212C6AB12CC1812C5101263DA12CC1874041239
:2065E300C5C8E412C574740812C57412633912C5521263B712D3697C017D8612632C126829
:20660300CE12638070B712787C79047B080202661254B9127FCDE422126625F513E89EF57A
:206623001222127F8B78007912E9C39F227A017BC47C017D30227B031268CE740712C57405
:206643007E017F8002C552AF13AE12890388027C01227C547DB97E007FC9126625F513E810
:206663009EF5127F4E80A9C000C001C002E0F8A3E0F9A3E0FAA3E05FFFEA5EFEE95DFDE816
:206683005CFCD002D001D00022790812010390044F1267D390044F1267C7603A90044AE0C9
:2066A300703412A59012C510E4FEFDFC7F64126174E412C5C890044FC082C083E412D1129C
:2066C300D083D08212A8181267DE12684212689290044A7401F090044AE014600B1460121B
:2066E30014601914601B803E126A8590044A7402803812716390044A7403802E12787C8041
:206703002512A59012C510E4FEFDFC7F01126174E412C5C890044FC082C083E412D112D04D
:2067230083D08212A81890044AE4F090044B1267D390044B1267C76031900449E0702B12B8
:20674300A59012C510E4FEFDFC7F64126174E412C5C890044BC082C083E412D112D083D092
:206763008212A8189004497401F0900449E014600B14601214601914601B803E1268E290F8
:206783000449740280381269809004497403802E126A0C802512A59012C510E4FEFDFC7FC9
:2067A30001126174E412C5C890044BC082C083E412D112D083D08212A818900449E4F07B8B
:2067C3000802026012CBEFEC20E703740122E42212CC2D740412C5C802A59079DE782D7B1B
:2067E300E07A2D7CAF7D028B828A83E0FEA3E0FF89828883EEF0EFA3F0EB2402FBE43AFA51
:20680300E92402F9E438F8DCDEDDDC9026681268362414E864803480400679EC78FF800EB0
:20682300E924CDE86480347F50047932780090313C8006E0F8A3E0F922E8F0E9A3F022799D
:206843007E782A7B807A2A7CAF7D028B828A83E0FEA3E0FF89828883EEF0EFA3F0EB2402CB
:20686300FBE43AFAE92402F9E438F8DCDEDDDC90266A126836240BE834FE500A902DDC74F3
:2068830001F074F48006902DDCE8F0E9A3F022791E78277B207A277CAF7D028B828A83E0F1
:2068A300FEA3E0FF89828883EEF0EFA3F0EB2402FBE43AFAE92402F9E438F8DCDEDDDC909C
:2068C3002666126836902A7C02683C7A00CBC0A8C2AF2511F511EA3510F510D0A8EB227416
:2068E300021200FE12694CE0FAA3E0697004EA6860527E567F7912C552890788061200D980
:206903001263461268CE12695612C5747E007F8C12C552AB13AA127C007D69126965902631
