:100000000C9462000C948A000C948A000C948A0070
:100010000C948A000C948A000C948A000C948A0038
:100020000C948A000C948A000C948A000C9461044D
:100030000C948A000C948A000C948A000C948A0018
:100040000C9417040C948A000C94E5030C94BF03E1
:100050000C948A000C948A000C948A000C948A00F8
:100060000C948A000C948A000000000024002700F1
:100070002A0000000000250028002B0000000008D6
:10008000000201000003040700000000000000005F
:1000900000000000230026002900040404040404D6
:1000A0000404020202020202030303030303010227
:1000B00004081020408001020408102001020408F6
:1000C0001020670511241FBECFEFD8E0DEBFCDBFE3
:1000D00011E0A0E0B1E0E8EEF0E102C005900D9281
:1000E000AA31B107D9F721E0AAE1B1E001C01D9220
:1000F000A93FB207E1F710E0C2E6D0E004C02197C3
:10010000FE010E946708C136D107C9F70E94C505E4
:100110000C9472080C940000CF92DF92EF92FF9241
:10012000DC01A03282E0B8070CF03EC0B7FD06C08B
:10013000A53BB1052CF0A4EBB0E002C0A0E0B0E01C
:100140008091F70128E830E06901C81AD10887FDDD
:10015000D394CC0CDD1CCC0CDD1C0D2C000CEE085B
:10016000FF088091F80128E532E0281B310987FD5E
:100170003395220F331F220F331FA901330F660B54
:10018000770B9A01AB012C193D094E095F090E94BA
:10019000FA0724EB30E040E050E00E94D007C20EA6
:1001A000D31EE41EF51ED6019091F6019C3098F501
:1001B0008091F70148E850E0481B510987FD5395AD
:1001C000440F551F440F551FA417B5078CF080919D
:1001D000F80128E532E0281B310987FD3395220F0D
:1001E000331F220F331FAD012A173B070CF4A9015F
:1001F00042505109440F551F2FB7F894892F90E0B2
:10020000FC01EE0FFF1F8E0F9F1FFC01EF52FE4FF0
:10021000528341832FBFFF90EF90DF90CF900895DE
:10022000CF92DF92EF92FF920F931F93CF93DF93C2
:100230006C017A018B01C0E0D0E0CE15DF0589F0BA
:10024000D8016D918D01D601ED91FC910190F08165
:10025000E02DC6010995892B11F47E0102C021967B
:10026000ECCFC701DF91CF911F910F91FF90EF90DD
:10027000DF90CF900895089580E090E00895FC010C
:10028000538D448D252F30E0842F90E0821B930BFB
:10029000541710F0CF96089501970895FC01918DA1
:1002A000828D981761F0828DDF01A80FB11D5D96D8
:1002B0008C91928D9F5F9F73928F90E008958FEF46
:1002C0009FEF0895FC01918D828D981731F0828DFA
:1002D000E80FF11D858D90E008958FEF9FEF089551
:1002E000FC01918D228D892F90E0805C9F4F821BB5
:1002F00091098F739927089584E391E00E9470011A
:1003000021E0892B09F420E0822F0895FC01848DDF
:10031000DF01A80FB11DA35ABF4F2C91848D90E02F
:1003200001968F739927848FA689B7892C93A0890A
:10033000B1898C9180648C93938D848D981306C0C1
:100340000288F389E02D80818F7D80830895EF926C
:10035000FF920F931F93CF93DF93EC0181E0888F7F
:100360009B8D8C8D981305C0E889F989808185FD66
:1003700024C0F62E0B8D10E00F5F1F4F0F73112757
:10038000E02E8C8DE8120CC00FB607FCFACFE8897E
:10039000F989808185FFF5CFCE010E948601F1CFDA
:1003A0008B8DFE01E80FF11DE35AFF4FF0820B8F9A
:1003B000EA89FB898081806207C0EE89FF896083BA
:1003C000E889F98980818064808381E090E0DF9111
:1003D000CF911F910F91FF90EF900895CF93DF93EE
:1003E000EC01888D8823C9F0EA89FB89808185FD2D
:1003F00005C0A889B9898C9186FD0FC00FB607FC8E
:10040000F5CF808185FFF2CFA889B9898C9185FFCE
:10041000EDCFCE010E948601E7CFDF91CF91089505
:1004200080E090E0892B29F00E947C0181110C94DE
:100430000000089590E0FC01E458FF4F3491FC0166
:10044000E255FF4F2491FC01E656FF4FE491EE2365
:1004500009F43BC0332339F1333091F038F43130B3
:10046000A9F0323001F584B58F7D12C0373091F09C
:100470003830A1F03430B9F4809180008F7D03C012
:10048000809180008F77809380000DC084B58F7736
:1004900084BD09C08091B0008F7703C08091B00007
:1004A0008F7D8093B000F0E0EE0FFF1FEE58FF4FFE
:1004B000A591B4918FB7F894EC91611103C0209588
:1004C0002E2301C02E2B2C938FBF0895CF93DF9343
:1004D00090E0FC01E255FF4F2491FC01E656FF4FEE
:1004E0008491882361F190E0880F991FFC01E859FD
:1004F000FF4FC591D491FC01EE58FF4FA591B491E7
:10050000611109C09FB7F894888120958223888360
:10051000EC912E230BC0623061F49FB7F8943881C0
:10052000822F809583238883EC912E2B2C939FBF61
:1005300006C08FB7F894E8812E2B28838FBFDF91F8
:10054000CF9108953FB7F8948091200190912101B7
:10055000A0912201B091230126B5A89B05C02F3F91
:1005600019F00196A11DB11D3FBFBA2FA92F982FD9
:100570008827820F911DA11DB11DBC01CD0142E054
:10058000660F771F881F991F4A95D1F708958F929C
:100590009F92AF92BF92CF92DF92EF92FF920E9412
:1005A000A2024B015C018AE0C82ED12CE12CF12C77
:1005B0000E94A202DC01CB0188199909AA09BB0992
:1005C000883E9340A105B10558F021E0C21AD10838
:1005D000E108F10888EE880E83E0981EA11CB11C8A
:1005E000C114D104E104F10419F7FF90EF90DF90FA
:1005F000CF90BF90AF909F908F900895009769F033
:10060000FC0101900020E9F73197AF01481B590B1D
:10061000BC0184E391E00C94100180E090E0089527
:100620008F929F92AF92BF920F931F93CF93DF93BE
:10063000CDB7DEB7A1970FB6F894DEBF0FBECDBF22
:1006400019A2423008F44AE08E010F5D1F4F842E3C
:10065000912CA12CB12CA50194010E940208E62F37
:10066000B901CA0101501109EA3014F4E05D01C07A
:10067000E95CD801EC93232B242B252B61F7C801CF
:100680000E94FE02A1960FB6F894DEBF0FBECDBF4A
:10069000DF91CF911F910F91BF90AF909F908F905E
:1006A0000895CF92DF92EF92FF92CF93DF936B0189
:1006B0007C01E0913401F09135010190F081E02D51
:1006C0006DE284E391E00995EC0166277727CB0181
:1006D0006C197D098E099F094AE00E9410038C0F56
:1006E0009D1FDF91CF91FF90EF90DF90CF90089505
:1006F000CF93DF93BC01990F880B990B97FF03C031
:100700000E94510303C04AE00E941003EC0182E101
:1007100091E00E94FE028C0F9D1FDF91CF91089502
:100720000F931F9390E0FC01E255FF4F6491FC0191
:10073000E656FF4FE491F0E0EE0FFF1FE057FF4F4A
:100740008591949100E412E42FE030E0462F0E945E
:100750002205611571058105910549F0DC01CB0188
:100760000196A11DB11DBC01CD019F7003C060E0C9
:1007700070E0CB011F910F9108950E946D081F92A8
:100780000F920FB60F9211242F933F934F935F93C5
:100790006F937F938F939F93AF93BF93EF93FF9349
:1007A00084E391E00E948601FF91EF91BF91AF91A8
:1007B0009F918F917F916F915F914F913F912F9179
:1007C0000F900FBE0F901F9018951F920F920FB6AB
:1007D0000F9211242F938F939F93EF93FF93E091A8
:1007E0004401F09145018081E0914A01F0914B0173
:1007F00082FD12C0908180914D018F5F8F73209197
:100800004E01821751F0E0914D01F0E0EC5CFE4F9B
:10081000958F80934D0101C08081FF91EF919F9151
:100820008F912F910F900FBE0F901F9018951F92D0
:100830000F920FB60F9211242F933F938F939F9394
:10084000AF93BF9380911C0190911D01A0911E0157
:10085000B0911F0130911B0123E0230F2D3720F4AD
:100860000196A11DB11D05C026E8230F0296A11D0A
:10087000B11D20931B0180931C0190931D01A09337
:100880001E01B0931F018091200190912101A09140
:100890002201B09123010196A11DB11D8093200179
:1008A00090932101A0932201B0932301BF91AF91B6
:1008B0009F918F913F912F910F900FBE0F901F909E
:1008C00018951F920F920FB60F9211242F933F93FA
:1008D0004F935F936F937F938F939F93AF93BF9348
:1008E000EF93FF9380911A0187FF05C01092850056
:1008F000109284001BC020911A01022E000C330BB1
:100900008091F50190E02817390784F480911A014D
:10091000082E000C990BFC01EE0FFF1F8E0F9F1F7E
:10092000FC01EF52FE4F808186FD15C080911A01B7
:100930008F5F80931A0120911A01022E000C330B55
:100940008091F50190E028173907C4F480911A01CD
:100950008C3064F113C080911A01082E000C990BA1
:10096000FC01EE0FFF1F8E0F9F1FFC01EF52FE4F89
:10097000808160E08F730E941A02D8CF809184003A
:1009800090918500049680349C4918F480E49CE999
:1009900005C0809184009091850004969093890011
:1009A000809388008FEF80931A013BC020918400D0
:1009B0003091850080911A01082E000C990BFC01E2
:1009C000EE0FFF1F8E0F9F1FFC01EF52FE4F818124
:1009D0009281820F931F9093890080938800809169
:1009E0001A01082E000C990BFC01EE0FFF1F8E0F51
:1009F0009F1FFC01EF52FE4F808186FF12C0809145
:100A00001A01082E000C990BFC01EE0FFF1F8E0F30
:100A10009F1FFC01EF52FE4F808161E08F730E94A7
:100A20001A02FF91EF91BF91AF919F918F917F91AA
:100A30006F915F914F913F912F910F900FBE0F904B
:100A40001F901895CF92DF92EF92FF920F931F9312
:100A5000E82FF92F05C0015011092109310961F171
:100A6000908196239417B9F305C00150110921090B
:100A7000310911F1908196239413F7CFC12CD12C19
:100A8000E12CF12C0AC08FEFC81AD80AE80AF80A3C
:100A90000C151D052E053F0579F0808186238417EE
:100AA00091F36C2D7D2D8E2D9F2D1F910F91FF9019
:100AB000EF90DF90CF90089560E070E080E090E0EC
:100AC0001F910F91FF90EF90DF90CF9008951092BB
:100AD00037011092360188EE93E0A0E0B0E08093F9
:100AE000380190933901A0933A01B0933B0184E01F
:100AF00091E0909335018093340185EC90E09093E0
:100B000041018093400184EC90E0909343018093F5
:100B1000420180EC90E0909345018093440181EC88
:100B200090E0909347018093460182EC90E090938F
:100B300049018093480186EC90E090934B018093AB
:100B40004A0110924D0110924E0110924F011092E5
:100B500050018091F5018C30A0F491E0980F9093B2
:100B6000F5018093F60190E0FC01EE0FFF1F8E0F60
:100B70009F1FFC01EF52FE4F88EB9BE09283818325
:100B800008958FEF8093F6010895789484B582607C
:100B900084BD84B5816084BD85B5826085BD85B521
:100BA000816085BD80916E00816080936E0010929F
:100BB000810080918100826080938100809181001A
:100BC00081608093810080918000816080938000AB
:100BD0008091B10084608093B1008091B000816009
:100BE0008093B00080917A00846080937A00809135
:100BF0007A00826080937A0080917A00816080938D
:100C00007A0080917A00806880937A001092C10007
:100C10008091F6018C3008F051C061E089E00E94BB
:100C200066028091F601E82FF0E09F01220F331F4A
:100C3000E20FF31FEF52FE4F9081907C99609083FA
:100C40001092F7011092F8016CE00E9433089CE0CA
:100C5000899FB001112440E050E09A01260F371F10
:100C6000F901EE0FFF1F2E0F3F1FF901EF52FE4F4C
:100C7000908196FD16C04F5F5F4F4C30510569F76C
:100C800081110FC01092800082E080938100109249
:100C9000850010928400B19A80916F0082608093E9
:100CA0006F00E091F601F0E0CF01880F991FE80F87
:100CB000F91FEF52FE4F80818064808361E087E0FE
:100CC0000E94660260E086E00E946602E0914401B4
:100CD000F091450182E08083E0914001F091410173
:100CE0001082E0914201F09143018FEC80831092D9
:100CF0004C01E0914801F091490186E08083E09148
:100D00004601F0914701808180618083E091460136
:100D1000F0914701808188608083E0914601F091E5
:100D20004701808180688083E0914601F09147010E
:100D300080818F7D8083C3ECD0E08AE3882E912C64
:100D4000A12CB12C0AE010E094EBE92EF12C1092CA
:100D50003301109232018091320190913301843B32
:100D600091050CF087C00E948C0010923101109206
:100D7000300180913001909131010B970CF03FC010
:100D800060E087E00E941A02CE010197F1F761E06E
:100D900087E00E941A02CE010197F1F760E087E038
:100DA0000E941A0286E00E94900360932C017093C7
:100DB0002D0180932E0190932F01A50194010E9493
:100DC0000208209328013093290140932A0150936F
:100DD0002B018091260190912701280F391F309314
:100DE0002701209326010E94C70280913001909133
:100DF000310101969093310180933001BACF8091F7
:100E0000260190912701B8010E943F0870932501A7
:100E10006093240110923101109230011092270149
:100E20001092260185E191E00E94FE02609132015C
:100E300070913301072E000C880B990B97FF03C0AC
:100E40000E94510303C04AE00E94100387E191E031
:100E50000E94FE0280912401909125010E94780356
:100E600080913201909133010196909333018093E8
:100E7000320171CFF0923301E09232018091320160
:100E800090913301181619060CF087C00E948C004F
:100E90001092310110923001809130019091310116
:100EA0000B970CF03FC060E087E00E941A02CE0171
:100EB0000197F1F761E087E00E941A02CE010197E5
:100EC000F1F760E087E00E941A0286E00E9490033A
:100ED00060932C0170932D0180932E0190932F012C
:100EE000A50194010E940208209328013093290152
:100EF00040932A0150932B01809126019091270164
:100F0000280F391F30932701209326010E94C70222
:100F1000809130019091310101969093310180933D
:100F20003001BACF8091260190912701B8010E942B
:100F30003F087093250160932401109231011092B3
:100F40003001109227011092260185E191E00E9464
:100F5000FE026091320170913301072E000C880B64
:100F6000990B97FF03C00E94510303C04AE00E94FF
:100F7000100387E191E00E94FE028091240190918C
:100F800025010E94780380913201909133010197ED
:100F9000909333018093320171CF0E941002D7CE1B
:100FA000052E97FB1EF400940E94E70757FD07D01B
:100FB0000E94020807FC03D04EF40C94E7075095FA
:100FC0004095309521953F4F4F4F5F4F0895909535
:100FD0008095709561957F4F8F4F9F4F08950E9428
:100FE0002408A59F900DB49F900DA49F800D911D86
:100FF00011240895B7FF0C94EF070E94EF07821B9E
:10100000930B0895A1E21A2EAA1BBB1BFD010DC074
:10101000AA1FBB1FEE1FFF1FA217B307E407F507A8
:1010200020F0A21BB30BE40BF50B661F771F881F84
:10103000991F1A9469F760957095809590959B011A
:10104000AC01BD01CF010895A29FB001B39FC001C3
:10105000A39F700D811D1124911DB29F700D811DE4
:101060001124911D0895991B79E004C0991F9617CA
:1010700008F0961B881F7A95C9F78095089597FB0D
:10108000072E16F4009407D077FD09D00E9453086C
:1010900007FC05D03EF4909581959F4F089570957B
:1010A00061957F4F0895AA1BBB1B51E107C0AA1F82
:1010B000BB1FA617B70710F0A61BB70B881F991FF9
:1010C0005A95A9F780959095BC01CD010895EE0F32
:1010D000FF1F0590F491E02D099481E090E0F894D1
:0810E0000C947208F894FFCF94
:1010E80000000000A70110013F01EE0170014E0150
:0A10F80062010D0A005800560000C6
:107800000C94343C0C94513C0C94513C0C94513CE1
:107810000C94513C0C94513C0C94513C0C94513CB4
:107820000C94513C0C94513C0C94513C0C94513CA4
:107830000C94513C0C94513C0C94513C0C94513C94
:107840000C94513C0C94513C0C94513C0C94513C84
:107850000C94513C0C94513C0C94513C0C94513C74
:107860000C94513C0C94513C11241FBECFEFD8E036
:10787000DEBFCDBF11E0A0E0B1E0ECE9FFE702C060
:1078800005900D92A230B107D9F712E0A2E0B1E065
:1078900001C01D92AD30B107E1F70E942D3D0C945F
:1078A000CC3F0C94003C982F959595959595959582
:1078B000905D8F708A307CF0282F295A8091C0000B
:1078C00085FFFCCF9093C6008091C00085FFFCCF60
:1078D0002093C6000895282F205DF0CF982F809127
:1078E000C00085FFFCCF9093C6000895EF92FF92F1
:1078F0000F931F93EE24FF2487018091C00087FD22
:1079000017C00894E11CF11C011D111D81E4E8164B
:1079100082E4F8068FE0080780E0180770F3E09132
:107920000401F091050109958091C00087FFE9CF1E
:107930008091C6001F910F91FF90EF9008950E94D3
:10794000763C982F8091C00085FFFCCF9093C600B5
:1079500091362CF490330CF09053892F089597555D
:10796000892F08951F930E949F3C182F0E949F3CCF
:107970001295107F810F1F9108951F93182F882350
:1079800021F00E94763C1150E1F71F9108951F935A
:10799000182F0E94763C803249F0809103018F5F5E
:1079A000809303018530C1F01F9108958091C0003C
:1079B00085FFFCCF84E18093C6008091C00085FFE5
:1079C000FCCF1093C6008091C00085FFFCCF80E102
:1079D0008093C6001F910895E0910401F091050184
:1079E00009951F9108950E94763C803241F0809164
:1079F00003018F5F80930301853081F008958091AA
:107A0000C00085FFFCCF84E18093C6008091C00058
:107A100085FFFCCF80E18093C6000895E0910401CA
:107A2000F09105010995089540E951E08823A1F0FE
:107A30002D9A28EE33E0FA013197F1F721503040CA
:107A4000D1F72D9828EE33E0FA013197F1F7215064
:107A50003040D1F7815061F708953F924F925F9285
:107A60006F927F928F929F92AF92BF92CF92DF924E
:107A7000EF92FF920F931F93CF93DF93000080E16B
:107A80008093C4001092C50088E18093C10086E015
:107A90008093C2005098589A259A81E00E94143D24
:107AA00024E1F22E9EE1E92E85E9D82E0FE0C02ECA
:107AB00010E1B12EAA24A394B1E49B2EA6E58A2E50
:107AC000F2E57F2EE0E26E2E79E4572E63E5462E36
:107AD00050E5352E0E94763C8033B1F18133B9F107
:107AE000803409F46FC0813409F476C0823409F41B
:107AF00085C0853409F488C0803531F1823521F1A3
:107B0000813511F1853509F485C0863509F48DC0BC
:107B1000843609F496C0843709F403C1853709F423
:107B200072C1863709F466C0809103018F5F80932C
:107B30000301853079F6E0910401F0910501099582
:107B40000E94763C803351F60E94F33CC3CF0E94E2
:107B5000763C803249F78091C00085FFFCCFF092DF
:107B6000C6008091C00085FFFCCF9092C600809136
:107B7000C00085FFFCCF8092C6008091C00085FFC9
:107B8000FCCF7092C6008091C00085FFFCCF609250
:107B9000C6008091C00085FFFCCF5092C600809146
:107BA000C00085FFFCCF4092C6008091C00085FFD9
:107BB000FCCF3092C6008091C00085FFFCCFB09210
:107BC000C60088CF0E94763C863808F4BDCF0E945C
:107BD000763C0E94F33C7ECF0E94763C803809F4CC
:107BE0009CC0813809F40BC1823809F43CC1883942
:107BF00009F48FC080E00E94C73C6CCF84E10E94F2
:107C0000BD3C0E94F33C66CF85E00E94BD3C0E94D3
:107C1000F33C60CF0E94763C809306010E94763C44
:107C2000809307010E94F33C55CF0E94763C80333D
:107C300009F41DC183E00E94BD3C80E00E94C73C66
:107C400049CF0E94763C809309020E94763C809343
:107C5000080280910C028E7F80930C020E94763C79
:107C6000853409F415C18091080290910902892B8D
:107C700089F000E010E00E94763CF801E85FFE4FDA
:107C800080830F5F1F4F80910802909109020817AF
:107C9000190788F30E94763C803209F045CF809125
:107CA0000C0280FF01C16091060170910701660F0F
:107CB000771F7093070160930601A0910802B091AD
:107CC00009021097C9F0E8E0F1E09B01AD014E0F09
:107CD0005F1FF999FECF32BD21BD819180BDFA9A17
:107CE000F99A2F5F3F4FE417F50799F76A0F7B1F4B
:107CF00070930701609306018091C00085FFFCCF5F
:107D0000F092C6008091C00085FFFCCFB092C60003
:107D1000E1CE83E00E94C73CDDCE82E00E94C73CFA
:107D2000D9CE0E94763C809309020E94763C8093D3
:107D300008028091060190910701880F991F909386
:107D40000701809306010E94763C853409F4A6C0A1
:107D500080910C028E7F80930C020E94763C8032D0
:107D600009F0B8CE8091C00085FFFCCFF092C6002C
:107D7000609108027091090261157105B9F140E046
:107D800050E080910C02A82FA170B82FB27011C0E2
:107D9000BB2309F45CC0E0910601F0910701319624
:107DA000F0930701E09306014F5F5F4F46175707B7
:107DB000E8F4AA2369F3F999FECF209106013091E6
:107DC000070132BD21BDF89A90B58091C00085FFB2
:107DD000FCCF9093C6002F5F3F4F30930701209355
:107DE00006014F5F5F4F4617570718F38091C00099
:107DF00085FDE5CE8091C00085FFF8CFE0CE81E023
:107E00000E94C73C67CE0E94763C803209F08CCE3F
:107E10008091C00085FFFCCFF092C6008091C00029
:107E200085FFFCCFE092C6008091C00085FFFCCFAB
:107E3000D092C6008091C00085FFFCCFC092C600E2
:107E40008091C00085FFFCCFB092C60043CEE09188
:107E50000601F091070194918091C00085FFFCCF4D
:107E60009093C6009CCF80E10E94C73C33CE0E9415
:107E7000763C0E94763C182F0E94763C112309F430
:107E800083C0113009F484C08FE00E94C73C22CE29
:107E900080910C02816080930C02E5CE80910C02EF
:107EA000816080930C0259CF809107018823880F4D
:107EB000880B8A2180930B02809106019091070123
:107EC000880F991F90930701809306018091080203
:107ED00080FF09C080910802909109020196909359
:107EE000090280930802F894F999FECF1127E091D6
:107EF0000601F0910701C8E0D1E08091080290915D
:107F00000902103091F40091570001700130D9F34B
:107F100003E000935700E89500915700017001308D
:107F2000D9F301E100935700E89509901990009169
:107F3000570001700130D9F301E000935700E89534
:107F40001395103498F011270091570001700130FB
:107F5000D9F305E000935700E895009157000170B0
:107F60000130D9F301E100935700E895329602976A
:107F700009F0C7CF103011F00296E5CF112480919F
:107F8000C00085FFB9CEBCCE8EE10E94C73CA2CD19
:0C7F900085E90E94C73C9ECDF894FFCF0D
:027F9C00800063
:040000030000780081
:00000001FF
