:020000040000FA
:03000000020026D5
:03000B00029B87CE
:200023000266EE75D000759F00758F1075811C75174D7516351275A6E4FFFE12018F127815
:20004300B532FF9C04040000000002A8BEA8A8A89CA886A8BEA920A947A95DA973A989A9CD
:200063009FA8D4A900A920A947A95DA973A989A99FA56BA595A656A680A6AAA6D4A6FEA7E3
:2000830028A752A809A829A849A869000000000000000000000000000000000000352481DE
:2000A30000000000005026680000000041542B43534E533D340D0077656174686572646531
:2000C3006D6F2E7465737400C0A86402C0A86401000000010202020000FFFFC083C082E04E
:2000E300C0E0A3E0C0E0A3E0C0E0A3E0C0E012C245D0E0FFD0E0FED0E0FDD0E0FCD082D003
:2001030083F0A3EDF0A3EEF0A3EFF022CAC0E0E4936AA36009A3A3D5F0F5D0E0FA22E4932A
:20012300FAA3E493F5828A83D0E0FAD0E0D0E0E473CBC0E0E5F0CAC0E0E4936EA37005E438
:20014300936F6013A3A3A3EB70011A1BEA4B70E9D0E0FAD0E0FB22A3E493FAA3E493F58203
:200163008A83D0E0FAD0E0FBD0E0D0E0E473E06EF0FEA3E06FF0FF22E06CF0FCA3E06DF00C
:20018300FDA3E06EF0FEA3E06FF0FF227906740412CD1E1202567E057FDC129BB312990333
:2001A3007E017FF4129BB3129BCC0FBF00010E740412C4381298D0EF4E70F9120249C3C00E
:2001C300E0C0D0740512CA98FFD0D0D0E09FEEC0E0C0D0740412CA98FFD0D0D0E09F1202C5
:2001E3004E601512D1901202492464F9E43EF889078806740412C438751900120249240A11
:20020300F51BE43EF51AE4A2B333F518801CE51824FF30B301B35012E4A2B333F51820B320
:200223000905197E007F01129BB3120249C3951BEE951A12024E60D6AF1912CFC712D0EAF5
:20024300127C380201B7129BCCEF2220E703740122E422790212CD19E41295DD7482F074B5
:20026300011295DD7403F0129CF27FED7EC412CA43129B5C129A2F7FC8C007E41202A8D0C0
:20028300077A007B011299CE7FC8C00774011202A8D0077A007B011299CE12D1901278CB98
:2002A3007B0202CC191295E88F058E0422740312CD14751A009030C7E0F518A3E0F51912F0
:2002C300CE42602F129DA39030C9E0B5070B129BCC9030C712CCF9801A1202492419F8E413
:2002E3003E9030C7F0E8A3F0129DA39030C9EFF0E0F51AE51A790302CC2512061C24FFB3AA
:20030300E43322902AE6E0F86011A90019902AE6E9F0E81470057F001296FD902AE5E0F871
:200323006029A90019902AE5E9F0E814701D12034F24FC600624FD6005800A020625902A8D
:20034300DF74088005902ADF7405F022902ADFE022740112CD148F1812034FF86008B8046C
:20036300028003020405902AE7E0B40108E518B4FF0312042C902AE7E0F864026003B803BA
:2003830057E5182483601514701A12041B6006902AE87401F0902AE6E4F08070902AE77435
:2003A30003F08068902AE7E0B4030CE5186420F518902AE77402F0902AE912043F2424EE58
:2003C30034FA400D902AEB12C937E518120414803B7F011296FD8034E518B47E2512042C97
:2003E30012034F7027120425902AE2743CF074FDA31204397E3C7FFD12C94B902AE1E4F05A
:20040300800AAF181210C4AF18120FC9790102CC25F0902AE902C6FC902AE9E0F8A3E0F936
:200423004822902ADF7404F022902AE77402F0902AE67405F02212973E020E5DE0FEA3E045
:20044300FF2212061C70361204897005E8643C6006B93E17B83F1412049CE4F0902AEE74E1
:2004630021F01297127404A3F08016E914486006B9020AB80007129712A3F08004E4FFFE2A
:20048300227FEF7E2A2212048F64FD22120494F922902AE2E0F8A3E022902AEB74FFF0A34E
:2004A3007403F0A32212049CEEF0902AEEEFF0A3EBF0A3EDF0902AF1E4F01297127408A39F
:2004C300F0221205091204897005E8643C6006B93E0BB83F081204FF7403F08016E914488D
:2004E3006006B9020BB800081204FF7404F08003E4F9F8902AE9E8F0E9A3F022EB2FF9EA22
:200503003EF8902AE822902AE9E0FAA3E0FB22740312CD14902AE8E014600624FE601C803D
:200523001012072E1205DB12061C70097F011296FDE40205D61205E40205D61205091206CC
:200543000FF4F9EEF4F8120509AC011205FCEC1204140BBB00010A1205FCE81204147F7ED9
:2005630012981C7519EB75182A80381205EDF51A120606E51A647E6013E51A647D600D9068
:200583002AE1E060137420D3951A400C7F7D12981CE51A6420FF8002AF1A12981C902AE9A0
:2005A30012CE6C12061C70C37F7E12981C1297C37F011296FD1205F55440FA4B70030205D2
:2005C30034902ADF7405F0902AE27480F0E4A3F0020534790302CC25902AE9EEF0EFA3F03E
:2005E30022902AE87403F0740122851982851883E022120494E4FBE822902AEB8B078A069A
:2006030002C9370519E51970020518227C2A7DEB7EFF7FFF120F1BEF22902AE9E0F8A3E0B4
:200623004822902AE27440F0E4A3F02212061C60030206BE902AE212043F90071A75F00010
:20064300740512013480741206F27EC01206F874041206E174C01206E174231206E17402E7
:200663001206E11206D3120710120710120710120710902AE27E007F101296E1803F1206E6
:20068300F27E801206F81206D31206CDE924EBFFE8342AFE120EB9902AE97E007F04129627
:2006A300EB902AE27E107F001296E180101206D87B057EC07F211204A88002E422902AEA52
:2006C300E024FC902AF2F00205E409B9000108227406020414902AE0E004F0E0FD2212048C
:2006E300141206CD8000902AEB120E5102C9371206D87B0122120706F8A3E0F91206E974D0
:200703000380DB7F211204A8902AE9E0221206CD1206E9E40204140005064A000D064A04DB
:20072300FD06810CFD0681400006B07906740412CD1E902AEBE0B4FF36902AECE07519ED49
:2007430075182AB40329902AE9E0FAC082C0838A07740412C469D083D082A3E0FBFF74051A
:2007630012C46912060F64B87005EE64F06006E4FFFE0208811205EDF9780012060685193A
:200783001B85181AE95401FBE4FA4B701E851B82851A83E0FA89007900E92AFBE438FA8BC5
:2007A300018A00051BE51B7002051A120E5190089875F000740412013402084EE51BC39486
:2007C300EBF519E51A942AF518740512CA98C39519FDC0D0740412CA98D0D09518FCEDC383
:2007E3009402FBEC9400FA120E51AD1BAC1A1208A8120892600EE92519FAE83518902AE917
:20080300F0EAA3F0902AE5E0606E902AE212043F64FD7005EE643C6006BF3E5CBE3F599021
:200823002AE5E412043912C94B804D12152A1208926045E51BC394EBFBE51A942AFAE92BD6
:20084300FCE83A902AE9F0ECA3802C1206D87B087EC0120706FCA3E0FD8802120888EA1235
:2008630004140DBD00010C120888E91204148D0109E924FC902AF2F0902AE912043F790420
:200883007B0602CC1F902AEB8D078C0602C9371205DB02041B0021082E802107BFC0210761
:2008A300BFC02307BF7916740412CD1E740E12C4388D078C06741012C438120EAFC0077F6C
:2008C30000740912C469D007902AE0E0F80FBF00010E120EA9F9E8D399E433F928902AE04B
:2008E300F0120EA4FF2403F9C007C0D08907741512C469D0D0D007C0D0120E9FFED0D034DB
:2009030000F8C0078807741412C469D007EF2402FCC0D08C07741312C469D0D0E43EFF74B9
:200923001212C469120E5DC082C083741212C9F6D083D082E0F8120EA9FC7D00ED28F9E459
:200943003CF8E9D39BE89A30D202B2E720E703020AF7120EA42404FFC0D0740B12C469D0D4
:20096300D0C0D0120E9FD0D03400F51AFF740A12C469740B12CA98F51B120EA429FFC0D037
:20098300120E9FD0D038FE120E9AE9C39404FFE89400FEC006C007120EAF8F018E00D007F7
:2009A300D006740412C438120E5DE0147003020B1F146032147003020B0724FE600724FCDE
:2009C3006078020AF7120E93BF21028003020AF7120E8CBFC0028003020AF7120E567F0670
:2009E300120EB4020D9612048F486006902AE5E07003120E56740E12C9F6900EFF75F0006B
:200A03007402120134020AF7E95410FBE4FA4B7003020AF7E94420FAE8902AE2F0EA020A7B
:200A2300F51205F55410FA4B7003020AF7902AE27E207F001296E1020AF7120E93BF2102B9
:200A43008003020AF7120E8CBFC0028003020AF77F0A120EB4020D96AF1BAE1A851B82851F
:200A63001A83E0FB851B19851A181206061205EDFA120606120E82C0D0120E7DD0D094004E
:200A8300FCEA78007902C399F51BE498F51AE519251BF9E518351AF8891B881AEA780079E7
:200AA30002C399F519E498F518EDC39519F9EC9518F8C006C007120E51740412C438D007FB
:200AC300D006740F12CA98F8B82120740E12CA98F8B88017BB0314EF2402FDE43EFC7A009C
:200AE3007B047E2A7FB6127735800F902AE27440F0E4A3F0E4FFFE020E4A902AE27EEF7FD0
:200B0300FF129667120E7D20E710C0E0740512CA98FFD0E04F6003020A5B80D8120E93BFF1
:200B230023028003020BB8120E8CBFC0028003020BB8120E78120EA9F8740B12CA9828FD5F
:200B4300E4C0E0C0D0740A12CA98FFD0D0D0E03FFC0DBD00010C8D828C83E0F88D828C8317
:200B6300E4F0ED28F9E43CF81206CD120E5DC082C083120E78D083D082E4F0902AC4E0F82A
:200B8300A3E0F90FBF00010E0DBD00010C120E5D12C94B7003020AEE120E78C0077F021220
:200BA3000EB4D0078F828E83E4F00FBF00010E120E9A020D967F02120EB4020D80851B19CA
:200BC300851A18851B82851A83E0F8AB1BAA1A120E6EE0FF740812C4690BBB00010A120E9C
:200BE30082C0D0120E7DD0D09400FC120E697E007F02C39FF51BE49EF51AEB251BFFEA353F
:200C03001AFE8F1B8E1A120E697A007B02C39BFFE49AFEEDC39FFBEC9EFA740E12C9F6C02D
:200C230006C0078B078A06740412C438D007D006900F0775F0007402120134020CF2E814CB
:200C43007003020CE7147003020CE714600F147003020CE7147003020CE7020CEB120EF128
:200C6300B4C007120EE26423607AAB19AA18120E6E7404F0120E5D74C0F085198285188336
:200C83007E007F0312C9377423F07F04740812C4697F038055E824FD6006248260288048BE
:200CA300120EF1703F120EE2703A120ED37035120EC47030120E517A007B047C2A7DC61244
:200CC30077357F038024120EF17019120EE27014120ED3700F120EC4700A120E51120EB905
:200CE3007F0380067F0280027F04740912C469740912CA98D3C0E0C0D0740C12CA98FFD0F0
:200D0300D0D0E09F4017120E62C007120E788F018E00D007120EB4120E51120E9A120E6203
:200D230064046003BF0356740C12CA98C0E0120E62D0E0B50747740712CA986519700974AA
:200D43000612CA9865186012740612C9F6120E69FB7A00AD19AC18127735740712CA98C0E7
:200D6300E0120E69FFD0E02FFFE4C0E0C0D0740612CA98F8D0D0D0E038FE120E9A120E7D53
:200D830020E710C0E0740512CA98FFD0E04F6003020BC0120EAF8F828E83C082C083740C88
:200DA30012CA98D083D082F0740712CA98C3C0E0C0D0120EA4FFD0D0D0E09FF9C0D0740690
:200DC30012CA98D0D0C0E0C0D0120E9FFFD0D0D0E09FC0E0741212C9F6D0E0F88F828E835E
:200DE300C0E0C082C083741412C9F6D083D082D0E0F0AA018F828E83EAC0E0C082C083123F
:200E03000EAFD083D082D0E0F0120EA9B40235740E12C9F6902AE2E0FAA3E0FB900F0F75AF
:200E2300F00074031201348013EB440CFBEA800CEB44C0FBEA8005EBEA440CFA902AE2EAC4
:200E4300F0EBA3F0120E5179047B1602CC1F8907880622902AE5740FF02289828883227495
:200E63000912CA98FF22740802CA980BBB00010A8B828A8322740A02C9F6740402CA987455
:200E83000512CA98C39402FD22740E12CA98FF22740F12CA98FF22740602C438741002CA67
:200EA30098741102CA988F828E83E022741002C9F6740C02C4697A007B047C2A7DB602774B
:200EC300358519828518837E007F0512C937E0228519828518837E007F0412C937E02285AA
:200EE30019828518837E007F0312C937E022E5192402F9E43518F8120E5DE02280210A248C
:200F0300C0210A0B80210C98C0210C4180210E3AC0210E2CC0230E33740412CD148D198CA0
:200F2300188B018A00803219B9FF01188E037A001205EDF51B751A00EF651BFDEE651AFC61
:200F4300EDFFE4FE9010FF12C927E493FC740193FD6BFFEA6CFE120606E94870CA790402E1
:200F6300CC25902AC212043F1297ED1297C3902ACAE4F0902ADFE4F022902ADF7405F0229F
:200F830012034F24FB600914600F24FE6014801B7E037FE812982280147E127FFF120FB87F
:200FA300800B7E137F03120FB88002E42212034F04F0740122120FC37F001296FD020E56D2
:200FC3001297C80297C3EF640D24FFB392F0EF640A24FFB372F0400302109E902ACAE0702D
:200FE300030210B97A007B047C137D0A1210BA701D7E007FC81298227E137F0F120FC39084
:201003002ADF7403F0902AE5742DF00210987A007B077C137D141210BA7037120494487082
:201023002C12034F640224FFB3E433F978001206CD902AE2E8F0E9A3F0902AE5740F1297B9
:201043003E902AE212043F120E5D12C94B12042580437A007B0A7C137D1C1210BA602E7AB2
:20106300007B0A7C137D211210BA60217A007B027C137D2C1210BA701C12034FB407089010
:201083002ADF7408F0800E12034FB40908902ADFE4F0129718902ACAE4801A902ACAE0F895
:2010A300C3941440027800E8902ACB12C942EFF008902ACAE8F0227E2A7FCB1213D9EF4EEC
:2010C30022902AE4E0F890132F12C942E493F9EFB50123A90009902AE4E9F0E804B4061B64
:2010E3001204257E137F36120FC31297487401A3F0902AE18004902AE4E4F0220000118942
:201103002312329B462457AD653674BF8C489DC1AF5ABED3CA6CDBE5E97EF8F710810108DC
:201123003393221A56A5472C75B7643E9CC98D40BFDBAE52DAEDCB64F9FFE8762102308B78
:2011430002101399672676AF443455BDAD4ABCC38E589FD1EB6EFAE7C87CD9F53183200A9C
:201163001291031877A7662E54B5453CBDCBAC429ED98F50FBEFEA66D8FDC9744204538D34
:201183006116709F042015A9273236BBCE4CDFC5ED5EFCD7886899E1AB7ABAF35285430C5C
:2011A3007197601E14A1052837B3263ADECDCF44FDDFEC5698E98960BBFBAA726306728FF8
:2011C3004014519D252234AB063017B9EF4EFEC7CC5CDDD5A96AB8E38A789BF17387620E1C
:2011E3005095411C35A3242A16B10738FFCFEE46DCDDCD54B9EBA8629AF98B7084089581C4
:20120300A71AB693C22CD3A5E13EF0B7084019C92B523ADB4E645FED6D767CFF94898500DB
:20122300B79BA612D2ADC324F1BFE03618C109483BD32A5A5EE54F6C7DF76C7EA50AB48377
:2012430086189791E32EF2A7C03CD1B5294238CB0A501BD96F667EEF4C745DFDB58BA4029B
:2012630096998710F3AFE226D0BDC13439C3284A1AD10B587FE76E6E5CF54D7CC60CD78533
:20128300E51EF497802891A1A33AB2B34A445BCD695678DF0C601DE92F723EFBD68DC7045B
:2012A300F59FE41690A98120B3BBA2325AC54B4C79D7685E1CE10D683FF32E7AE70EF687F7
:2012C300C41CD595A12AB0A3823893B16B467ACF485459DD2D623CEB0E701FF9F78FE6061B
:2012E300D49DC514B1ABA02292B983307BC76A4E58D5495C3DE32C6A1EF10F782B2B2B00EC
:20130300415448300D0A0052494E47004154410D00434F4E4E4543540042555359004E4FA9
:201323002043415252494552004F4B00434C49454E5400434C49454E545345525645520D86
:20134300008F018E008907880689828883E0FA12149FEA70F419B9FF0118121372FA8982C5
:201363008883F00DBD00010C12149FEA70EC228D828C83E493228F018E00121372FA8F82F4
:201383008E83F00DBD00010C12144CEA70EC8907880622121372F80DBD00010C8F828E83F2
:2013A300E0F912144CE96004E96860E7E9C398FF95E0FE228F018E008F038E0289828883CC
:2013C300E493FC12149FEC70F3E9C39BFFE89AFE1FBFFF011E228F018E008D078C068027B4
:2013E3001BBBFF011A8F828E83E493FC12144C89828883E0FD12149FED6004ED6C6008ED3C
:20140300C39CFF95E08006EB4A70D5E4FFFE228F038E028D078C06800312144C8F828E8394
:20142300E493F8600A8B828A83E0F9E8B501EAE860058B078A06228B828A83E0F80BBB000C
:20144300010AE870CEE4FFFE220FBF00010E22740112CD141213726039802E8D018C008F67
:20146300038E02800812149F0BBB00010A89828883E493F5F0600B8B828A83E0F51865F07F
:2014830060E3E5F0600C12144C8F828E83E070CB80028003E4FFFE790102CC2509B9000100
:2014A3000822902AB0E4FEFDFC7F0112A8F4902AB41214DB799E78287A101214E07401F071
:2014C300E924191214E6E9241B1214E6A3F0E92421F9E438F8DAE322E4F0A3F022E9241848
:2014E300021524121524E4F022799E78287A101214E0E0FB6401601AEB6407601512151F5B
:201503007408F0E9241912152474FFF0E9241A1214E6E92421F9E438F8DAD4228D828C832C
:2015230022FDE438FC80F5790412CD197FEF7E2A902AEFE0C4540FB404447C007D14122383
:20154300DDE412C3FCE412C94D122387EF4E702E902AF1121635C39414FFE89400FE902AAD
:20156300F8E014600A24FB601024F56007800F121589800D1215DC800812195D8003E4FFBE
:20158300FE7B0402CC197906740212CD1E8F198E188F058E041215D212C3FC740212C94D16
:2015A300122387EF4E701E902B03E0B40817902B04E07011902B03E4F0A3E4F0AF19AE1879
:2015C3001221A68003E4FFFE79027B0602CC1F7E2B7F031223DD740222740212CD148F19FC
:2015E3008E18AF19AE181222D9EF4E703D902B05E0FEA3E0FF902ABCE0FAA3E0FB80258B9F
:20160300828A83121635B50714E8B5061012163AF9AD19AC181216B412C94B8010EB2404CE
:20162300FBE43AFA12163A4870D5E4FFFE790202CC25E0F8A3E022EB24021216BFF8A3E066
:20164300227B9E7A2875F010EB2419FDE43AFC12151FE0601AEB241AFFE43AFE1216D1F821
:20166300640024FFE433F9E8C3998F828E83F0EB241B1216BFFEA3E0FF4E60271FBFFF0136
:201683001E1216B41216C4EF4E7018EB24181216B97408F012151F74FFF0EB241AF9E43A3F
:2016A3001216CAEB2421FBE43AFA15F0E5F07098228982888322F9E43AF880F51216B9E071
:2016C30022EEF0EFA3F022F81216B4E4F0228F828E83E0227909740412CD1E900456E0FFB5
:2016E30090289E75F0217E0012C91085821B85831A121923F86401700302188DE51B24195C
:20170300FFC007C0D0740512C469D0D0D007E4351AFEC0078E07740412C469D0071216D12D
:20172300700302188DE51B241AFBE4351AFA8B828A83E0600302188DB8071C1218B8C08223
:20174300C083740412C9F6D083D0827401F08F828E8314F002188DE51B24041218A712C454
:20176300E1122277EF4E700302189F902AF87406F0121918902B0512193012193D902B03D1
:201783001219307F00740812C469E4FFC0E0740712C469D0E0FF740612C4691218D56408A1
:2017A3006012740412C9F61216D1F87483C86480D3984014121912F01218CE1218BF7E2B61
:2017C3007F101218EF0218687B107A2B902B10E4F01218D524FE601114600B14603A1460DA
:2017E3001D146017805B1219361218DA4402F01219427F04740812C46980461219361218CC
:20180300DA4401F0E47F01FEFDFC121956127B7812191D12A87F602912193612190A12C360
:201823007F740612C9F61216D1FFE4FBFAAD1BAC1A1216B412C94B7B02128E17740612C4F6
:201843003812195612C4E112191D12A8F4740412C9F61216D1B4FF0D8F828E837401F01284
:2018630018AF1218DFAF1BAE1A740812CA98FDC006C007740612C9F68F038E02D007D0066F
:20188300121EA61204C574018013900456E004F8C3941040027800900456E8F0E479047B07
:2018A3000902CC1FF9E4351AF80216B4E51B241BF9E4351A2285198285188322E51B241616
:2018C3001218C8F9221218A7021635902B107404F0221218B8E022902B10E0221218E5A322
:2018E300F022F81216B47401F0742C2212C37FE4FBFAAD1BAC1A1218FF028E171216B47FF2
:201903000012C94B7B02221218BF8B078A06221218B8740122121D60F922E51B240C80847B
:20192300E51B2418F519E4351AF51880A5E8F0E9A3F022902B107410F022121D69F92290DB
:201943002B177402F0A37404F0A304F0902B1A74AEF022E51B24080218A7790E740412CD66
:201963001E8F058E04902B05E0F518A3E0F519902B03E0FFC082C083740A12C469D083D0E0
:2019830082A3E0FF740B12C469902B0FE00303543F7800C39414FBE89400FAEDC39BF9ECBB
:2019A3009AF8E9C39414FFC0D0740D12C469D0D0E89400FF740C12C4698D078C061222D9E2
:2019C300EF4E6003021A627B00751B9E751A28021C17121DB1E064017003021C0B851B826E
:2019E300851A83E0FAA3E0B519028003021C0BEAB518028003021C0BE51B2402121DD5E07A
:201A0300FAA3E0C0E0740B12CA98FFD0E0B507028003021C0BEAC0E0740A12CA98FFD0E06F
:201A2300B507028003021C0BE51B2404121DD512C4E1902AFB12A87F6003021C0B7B107AD7
:201A43002B121DCF601F1216B47401F0E51B24191218A7E4F0E51B241B121D85121E2CE485
:201A6300FFFE021D591218DA541060F3740D12CA98FFBF000C740C12CA98FFBF0003C3807C
:201A830001D392F05011E51B2410F9E4351AF8902B07121D7C7011E51B240CF9E4351AF8F2
:201AA300902B0B121D7C602D902B0B12C4E112195612A87F7009E51B241A121D8580A01251
:201AC3001DB17401F01218CE121E34E4FBFAAF1BAE1A021D54E51B2419121DD5E4F0121659
:201AE300B412C4E112195612A8F4121DA6BD0006BC0003C38001D3E433FD7C00E51B241017
:201B0300F9E4351AF8740D12CA982DFFC0D0740C12CA98D0D0121DC412192324FE601B1467
:201B23006039146036147003021BDF147003021BF8147003021A62021BFE1218DA7C00B4EC
:201B430012028003021A62BC00028003021A62121DB81216B412A8F4121936121D766006D1
:201B63001218B87406F01218AF1218DFE4FF740812C4691218D5F864036003B804101218DF
:201B8300DAB4100A20F0077F01740812C469121E348F038E02121DCF600512191280101280
:201BA30018D5F864026003B803061218B87404F01218D5B4040B121D7660061218B8740541
:201BC300F0740812CA98600D1218DAB41007EB4A7003021A62AF1BAE1A021D54121D7670A6
:201BE30003021A621218B87407F01218AF1218E5121E2C8006121912021A57121936E4FB5A
:201C0300FAAF1BAE1A021D540BE51B2421F51BE4351AF51AEBC3941050030219D51218DA87
:201C230054027003021D43902ABAE0F51AA3E0F51B021D0A121D60B519028003021CFFE870
:201C4300B518028003021CFF121E4DE864107003021A62121DE97403121E0112C3FC121D88
:201C6300A0C082C083740412C94DD083D08212A8F4121DE3C082C083740412C94DD083D0EF
:201C83008212A8F4121DB8121DDD12A8F41219181218B8121930121D9AC082C083740A1212
:201CA300CA98D083D082F0C082C083740B12CA98D083D082A3F0121D70121D8C121DEF12F0
:201CC300193DE5192416FBE4121E9E121930E519241DFFE43518FEE4FDFC7A007B0412779F
:201CE300A31219421218DA4410F0E5192419121E1AE4FBFAAF19AE187D048057E51B24041D
:201D0300F51BE4351AF51A121D69486003021C377A007B1C7C2A7DEF7E2B7F0B1277359032
:201D23002B037403F0A3F0902B071214DBA31214DB902AF87401F07E007F241221A680166A
:201D4300121DCF6003021A621218CEE4FFFEE4FBFA7D00121EA679047B0E02CC1F851B8287
:201D6300851A83021635E51B24020218C8902AFB02C4E11218DA54012212C4E11216B4027D
:201D8300A87FF9E4351A0216CAE51924048000F9E43518F80216B4E519240280F2E51924BF
:201DA3000C80EC1218DA78005403FDE4FC22E51B24180218A7E4FEFDFC902B077F01027B3F
:201DC300783CFE12D05D1216B402D2381218DA540422FDE4351AFC02151FE519241080AFE6
:201DE300E519240880A9E519241880A312A8F4E5192414121D927405F074AEA3F022F0E477
:201E0300FFFEFD902AB07C0112D238902AB012C4E1129825740422F9E435181216CAE5191E
:201E2300241BF9E435180218DFA3F012190A0218EF12190A12C37FAD1BAC1A740E12C9F602
:201E43008F038E021218FF028E17780075199E7518288003121E917410D398400DE5192492
:201E630018FBE4121E9EE0B401EAB81020780075199E7518288003121E917410D398400D5A
:201E8300E5192418FBE4121E9EE0B407EA2208E5192421F519E43518F518223518FA8B82A4
:201EA3008A8322790C740412CD1E8F198E188DF0EB25F0F9E43AF8E92414F51BE438F51AC0
:201EC300E51945187003021F58121DA6BD0006BC0003C38001D3E433FD7C00E519240CF993
:201EE300E43518F8EB2DFFEA121DC4121DE9E0B40715E5192419FBE4121E9E74FF121FE589
:201F0300741E12200A8024EB25F0F9E43AF849700C1218DAB41006121FFAE4800E121FFAE2
:201F2300E0048B828A83121FE5740AF0121DCF600D8B828A83E4121FE5E412200AF0121D5E
:201F4300E312C4E1902B0712A8F4121DDD12C4E1902B0B805B902B0712C4E1740412C3FC4E
:201F6300902B0B12C4E1740812C3FC782B790B1216B4C082C083121FF5D083D082121FED23
:201F83001216B4C082C083121FF5D083D08212017B902B0BC082C083121FF5D083D082125C
:201FA3001FED902B07C082C083121FF5D083D08212A8F4E5F0232354FC2450902B0F122077
:201FC30018902B131214DBAF1BAE1A1222D9902B131216C4AF1BAE1A1221D479047B0C021F
:201FE300CC1FF0E519241A021D9212A076740402C3FC740402C94DE5192419F9E43518F8C8
:20200300890388020216B4F0E519241BF9E435181216CAA322F0902B05E0FAA3E0FB902B0A
:20202300038B078A06120171902B03121635F96BFCEA68A3F0ECA3F0EB69FDEA68FCE96D20
:20204300FAE86C902B03F0EAA3F022790C740412CD1E8F1B8E1A8D078C06740812C4388B5B
:20206300078A06740A12C438121E4DB81006E4FFFE022155121DE97402121E0112C3FC12F4
:202083001DA0C082C083740412C94DD083D08212A8F4121DE3C082C083740412C94DD0837E
:2020A300D08212A8F4121DDDE4FFFEFDFC12A8F4E51B451A600A1218B8E51AF0E51B80244B
:2020C300902AAE121635F909B9000108E9242FE834F8500479E878031218B8121930902AFD
:2020E300AEE8F0E9A3F0121D9AC082C083740812CA98D083D082F0C082C083740912CA9892
:20210300D083D082A3F0121D8CC082C083740C12C94DD083D082121DEFE5192416121D92E0
:20212300C082C083740A12CA98D083D082F0C082C083740B12CA98D083D082A3F0E51924BE
:2021430019121D9274FFF0E519241A121E1AAF19AE1879047B0C02CC1F740212CD148F1929
:202163008E18902B07E518F0E519A3122018902B091214DBAF19AE181222D9902B091221C5
:202183008702CC251216C4AF19AE181221D4790222902AF87411F0902B03ECF0EDA3F0A3C0
:2021A3000216C47906740212CD1E8F198E18902B051214DBAD19AC181215D212C3FC740275
:2021C30012C94D122387902B051221877B0602CC1F790E740212CD1EEF2414F519E43EF5EA
:2021E30018902AF1F0E519A3F0902AFF12C4E1740612C3FC902AFBC082C083740612C94D01
:20220300D083D08212017B121D70740A12C3FC782A79FB1216B4C082C083740612C94DD0B1
:2022230083D08212A076902AFF12A8F4902AFFC082C083740A12C94DD083D08212A07690F6
:202243002AFB12A8F4902AF91214DB7C007D147E2A7FEF1223DD740212C3FC740212C94DDA
:20226300122387902AF91216C4AF19AE1879027B0E02CC1F790412CD19E412C3FC120445FC
:20228300EF4E7005E4FFFE8048902AEF7445F0A3E4F0902AB412C6FC902AB4121635F99081
:2022A3002AF3121930A31214DB902AF77420F0902AFBC082C083E412C94DD083D08212A825
:2022C300F4902AB612C4E1902AFF12A8F47E2A7FEF7B0402CC19790C12CD198F018E001250
:2022E3001D70740412C3FCE4FDFC902AFB1223D6E412C3FC7410C0E0740412C94DD0E0122D
:20230300A9B512C328E4FDFC7EFF7FFF127DE0E41295DD127B78E412C3FC902AFF12C4E186
:20232300740812C3FCE4FDFC902AFF1223D61223807410C0E0740812C94DD0E012A9B512FD
:20234300C328E4FDFC7EFF7FFF127DE0122380902AF8E012D11A1223808907880612D05DF2
:20236300122380890588047E2B7F031223DD122380E412C94D1223877B0C02CC19E41295D8
:20238300DD02D238790412CD19801DE4FDFCE41295DD1223D612C3287410C0E0E412C94DC2
:2023A300D0E012A9B51278B7E412C3FC7410C0E0E412C94DD0E012A9B5EF4E4D4C70CC742E
:2023C3000212C9F68F018E00E9F4FFE8F4FE7B0402CC197EFF7FFF027EBA790A740212CDE0
:2023E3001E8F018E008D038C02E4FFFEFDFC740212C3FC8046890588040DBD00010C121581
:202403001FE0FC1216B4E0F518751900E5192CFFE43518FE122473C082C083740612C94D3F
:20242300D083D08212D238E92402F9E438F8EBC39402FDEA9400FC8D038C02EB24FEEA6488
:2024430080347F40B0EB144A701A1216B4E0FE7F00122473C082C083740612C94DD083D057
:202463008212D238740212C94D79027B0A02CC1F12D05D740612C3FC74020295DD22790C15
:20248300740412CD1E8D078C06740A12C438902B0FE0F8A3E0487003022579751B17751A5C
:2024A3002B902ABEE0FFC082C083740612C469D083D082A3E0FF740712C4697E2B8E0774C6
:2024C3000812C4697F17C007740912C469D0078F828E83E070030225707519C5751830E5C1
:2024E30019D3951BE518951A5003022579851B82851A83E0FF740412C469AF1BAE1A1226FA
:2025030031122650C006C007740612C9F68F058E04D007D006127832EF4E7051122650749E
:202523000712CA982BFDC0D0740612CA98D0D03AFCE51B2BF9E51A3AF809B9000108891BDD
:20254300881A89828883E0F870098D828C83E0600A801A8D828C83E0B42E128D078C061243
:202563002631740612C438E860030224E2851B82851A83E06006E4FFFE02262A740A12C910
:20258300F6902B0312C937858219858318AF19AE18C006C007740812C9F68F058E04D007CD
:2025A300D00612786E740812C9F612264BE5192FF51BE5183EC0E0740812C9F6D0E0F51A56
:2025C30012264B740B12CA982FF519C0D0740A12CA98D0D03EF518851B82851A83E4F0AF11
:2025E3001BAE1A1226377401F00F12265B12265B12263F7404F01226317A007B047C2A7D88
:20260300B6127735E519240EF9E43518F8902B0D7E807F001296E1902B11E4F07401A3F07B
:202623008907880612215C79047B0C02CC1F0FBF00010E221226318F828E8322BF00010E7F
:202643008F828E83E4F080EC12788B80E1740412CA98FB3395E0FA2212263F7401F01226E0
:2026630037E4F00F227909740412CD1E740812C4698D1B8C1A8B078A06740612C4387409F4
:2026830012C9F6E51B241DFFC0D0740512C469D0D0E4351AFF740412C469E51B24181227E0
:2026A300F9E0F864036008B8040280030227EF740612CA98C0E0740712CA98FFD0E04F6043
:2026C300627A007B047C647D3C7E2B7F171213D9EF4E704F75191B75182B122823E0FEA38B
:2026E300E0FF1FBFFF011E902B1712C937E4F0AF19AE187C647D41121412EF4E6005122A02
:20270300938003902B1BE4F0AF19AE1812283E122835C0D0740412CA98D0D012281FEEF02E
:20272300EFA3F0122835C0D0740412CA98D0D012281FE0F8A3E04870030227EF740712CAAB
:2027430098C0E0740612CA98FFD0E04F600812282970030227EF740812CA98701912282920
:202763007014122823C082C083122815D083D08212280D1296EBE51B2414F519E4351AF5B4
:2027830018122835C0D0740412CA98D0D012281FC082C083122815D083D08212280DE0FC9E
:2027A300A3E0FD851982851883E0FAA3E0FB122B10851982851883E0F8A3E0F9EFD399EED4
:2027C30098401689078806C006C007122803D007D006122F8474108010C006C007122803D0
:2027E300D007D006122F847419F08003E4FFFE79047B0902CC1FF9E4351A8000F8022F843C
:20280300740912C9F68F018E0022E0FEA3E0FF022F84740412C9F68F018E0022340080DCF9
:20282300E51B241480D0740912C9F6122A93E0540822740512CA982402F922790C74041255
:20284300CD1EC006C007122ACDD007D0067C647D451214528F198E18E51945186032122AB6
:20286300E1600B122ABBD39519EE95184022E5192402FFE43518FEC006C007122ACDD007D5
:20288300D0067C007D2F1277D8EF4E6003122ACD8006122AD2122ACD122AD2122A93E0646F
:2028A3002F60EF122AC71FBFFF011EC006C007122A988F018E00D007D006122F8412C93795
:2028C300E0B42F0A122A987C647D48121344122A98E4F8C0E0C0078807740B12C469D0070B
:2028E300D0E0F8C0078807740A12C469D0077C647D53122ADB70077FFF7EFE022A8C122A17
:20290300987A007B097C647D5D1213D9EF4E60030229A1740712CA982409F51BC0D07406C4
:2029230012CA98D0D03400F51A79007864122AFF7F01740612C469906409122B08605A1266
:202943002AE654026027E5192403122AECAF1BAE1A122ADB7017790078FEE9C0E074061206
:20296300CA98FFD0E02FFFE438FE022A8CE519240BF9E43518F8122AFF740612CA98FF0FBD
:20298300740612C469740412C9F68F018E00E92409122A9D122B0870A67FFE022A8A122A5B
:2029A300E16005122A93E4F0122A987C007D2E1277FEEF4E600B0FBF00010E8F1B8E1A8052
:2029C30017122AC7740712CA982FF51BC0D0740612CA98D0D03EF51A79457863122AFF7FEE
:2029E30000740812C469906345122B08603D122AE6FC740193FDAF1BAE1A122ADB700F7440
:202A03000812CA98FE7F00740A12C438801DE5192404F9E43518F8122AFF740812CA98FF1F
:202A23000F740812C469122AA670C379B07863122AFF751A019063B0122B086048122AB069
:202A4300C082C083122A98D083D082E493FC740193FD122ADB701B740B12CA98251AFFE446
:202A6300C0E0C0D0740A12CA98F8D0D0D0E038FE8017E5192406F9E43518F8122AFF051A78
:202A8300122AA670B87FFF7EFF79047B0C02CC1F8F828E8322740602C9F6FBE438FA8B82A0
:202AA3008A8322740412C9F6122A938058740412C9F68F198E1880D8122A987C007D3F12E7
:202AC30077D8EF22122A9802788B740602C438122A980FBF00010E22121396EF4E22122A19
:202AE300BB4E22122AB0E49322122AF5FC740193FD22F9E435181227FFE4932289078806B6
:202B0300740402C438E493F874019348227905740412CD1E8F1B8E1A90289C742BF07417A8
:202B2300A3F0902896ECF0EDA3F0902898EAF0EBA3F090289AE4F0A3F0902895E4F090281B
:202B430085E4F0851A19751800E519F5F0E51BFF740412C4697E647F67122FCEE51A0470F1
:202B63001EE51B240360121460091470127F717E6480107F847E64800A7F9A7E6480047FB9
:202B8300B17E64122FCE7E647FB8122FCEE5F02403600C14600914700C7F077E6380247F69
:202BA300F77E62801EAF19AE187D0212C235EF2445F9EE3463F8E92402122A9DE493FE74E8
:202BC3000193FF122FCE7E647FC9122FCEE51964FE24FFB392F0400AE519B4FD02800302DF
:202BE3002C8DE51BB4FF68E51AB4FE63751900751864906409122B087003022D0B122D45F8
:202C0300F51A54016041E5192403122D60122FCE7E647FCE122FCE122D4E7F0512C94B7EE6
:202C2300647FD0122FCEE51A540260077E647FD9122FCEE51A540460077E647FE1122FCEBB
:202C43007E647FE9122FCE122D2370B1022D0BE51BFD7C007E007F0B12C4BAEFC3940BF900
:202C6300EE9400F89064008907880612C937AD82AC83A2F0E4332402FFED2409F9E43C1242
:202C83002D15122F8412C94B807E7407C3C0E0C0D0740412CA98FFD0D0D0E09F4049E51B35
:202CA300FD7C007E007F0612C4BAEFC39406F9EE9400F89063B08907880612C93785821953
:202CC300858318E5192404122AEC4C700EE5192402122D601213B78F058E04E519240212BE
:202CE3002D60122FAF8021E51BB4FE0BE51AB4FF067FEB7E64800EE51BB4FF0CE51AB4FFF3
:202D0300077F107E65122FCE122D3C79047B0502CC1F1227FFE493F8740193F9E4FBFA2220
:202D2300E519240BF519E43518F518E5192409F9E435181227FF022B0890289AE0FEA3E0A2
:202D4300FF22851982851883E49322E5192409F9E43518122D15AD19AC18022F84122AF55D
:202D6300FE740193FF228F00902896E0FAA3E0FB4A60101BBBFF011A902896EAF0EBA3F0A4
:202D8300740122122D3C902898E0F9A3E0D39FE99E401A90289CE0FAA3E0FB8B828A831247
:202DA300C937E8F090289A12C6FC74012290289A12C6FCE4227903740212CD1EC007740223
:202DC30012C469D007902895E0122E9B706DBF2247902885E0F890288612C942E4F00890F1
:202DE3002885E8F0751900751864906409122B08606A122D4554046018E5192403122AEC1F
:202E03007E287F86122ADB7008122D4E7F0412C94B122D2370DC8044BF3E05902895803AC4
:202E2300902885E0F8740ED3984031E890288612C942EFF008902885E88020902895E0F808
:202E4300122E9BF9EFB50118A90009902895E9F0E804122E9B7005902885E4F0740180299B
:202E6300902895E0601A7D2C7C64902895E014F08D828C83E493FF122E93902895E070EA00
:202E8300740212CA98FF122D6979027B0302CC1F0DBD00010C022D6990642C12C942E49395
:202EA30022740212CD148F198E18122ECF600C851982851883E0122EC370EF790202CC25CB
:202EC300FF0519E51970020518022D698D018C001DBDFF011CE94822740412CD14122EF9A6
:202EE300122F0E600C851B82851A83E0122F0270EF790402CC258F1B8E1A8D198C1822FF21
:202F0300051BE51B7002051A022DB8A919A8181519E519B4FF021518E948228F058E048D80
:202F2300828C83E0FF6005122E9370F322790512CD198F038E0275F00574051295DDA98237
:202F4300A88319B9FF011815F0122F89ED2430122F84F0122F898F038E02EB4A70E4E41229
:202F630095E88F018E00E925F0FFE438FE78007905E9C395F0FDE498FC122EA47B0502CCCE
:202F83001989828883228B078A067C007D0A02A772740212CD148F198E18122ECF6008125D
:202FA3002D45122EC370F3790202CC25740412CD14122EF9122F0E600D851B82851A83E440
:202FC30093122F0270EE790402CC258F058E048D828C83E493FF6005122E9370F22274025E
:202FE30012CD148D198C18EF14600E14604914604614604314605780788B078A061276CFB6
:20300300E5192405122AF5F8740193F9EFC399EE98405E123082F8740193C39FE89E4051B0
:203023000519E51970020518122D4512307AEEF0EFA3F07401803BA919A81809B9000108C5
:20304300122F84E49312307AE0FEA3E0801F7E657F33122FCEE5192405122D60122F307E1C
:20306300657F3B122FCE123082FE740193FF122F30E4790202CC25F8740193F9022F84E500
:20308300192407022AF5474946383961CA00CA0087000000000000003300006600009900D3
:2030A30000CC0000FF0033000033330033660033990033CC0033FF00660000663300666648
:2030C3000066990066CC0066FF0099000099330099660099990099CC0099FF00CC0000CC2C
:2030E3003300CC6600CC9900CCCC00CCFF00FF0000FF3300FF6600FF9900FFCC00FFFF3376
:2031030000003300333300663300993300CC3300FF3333003333333333663333993333CCB4
:203123003333FF3366003366333366663366993366CC3366FF3399003399333399663399CB
:20314300993399CC3399FF33CC0033CC3333CC6633CC9933CCCC33CCFF33FF0033FF3333AF
:20316300FF6633FF9933FFCC33FFFF6600006600336600666600996600CC6600FF663300F3
:203183006633336633666633996633CC6633FF6666006666336666666666996666CC66666C
:2031A300FF6699006699336699666699996699CC6699FF66CC0066CC3366CC6666CC9966B6
:2031C300CCCC66CCFF66FF0066FF3366FF6666FF9966FFCC66FFFF99000099003399006664
:2031E3009900999900CC9900FF9933009933339933669933999933CC9933FF9966009966DA
:20320300339966669966999966CC9966FF9999009999339999669999999999CC9999FF99F0
:20322300CC0099CC3399CC6699CC9999CCCC99CCFF99FF0099FF3399FF6699FF9999FFCCD3
:2032430099FFFFCC0000CC0033CC0066CC0099CC00CCCC00FFCC3300CC3333CC3366CC337A
:2032630099CC33CCCC33FFCC6600CC6633CC6666CC6699CC66CCCC66FFCC9900CC9933CCF7
:203283009966CC9999CC99CCCC99FFCCCC00CCCC33CCCC66CCCC99CCCCCCCCCCFFCCFF0041
:2032A300CCFF33CCFF66CCFF99CCFFCCCCFFFFFF0000FF0033FF0066FF0099FF00CCFF001F
:2032C300FFFF3300FF3333FF3366FF3399FF33CCFF33FFFF6600FF6633FF6666FF6699FFFE
:2032E30066CCFF66FFFF9900FF9933FF9966FF9999FF99CCFF99FFFFCC00FFCC33FFCC66AE
:20330300FFCC99FFCCCCFFCCFFFFFF00FFFF33FFFF66FFFF99FFFFCCFFFFFF0000000000F4
:2033230000000000000000000000000000000000000000000000000000000000000000008A
:2033430000000000000000000000000000000000000000000000000000000000000000006A
:2033630000000000000000000000000000000000000000000000000000000000000000004A
:203383000000000000000000000000000000000000000021F904030000D8002C0000000005
:2033A300CA00CA000008FF00B1091C48B0A0C18308132A5CC8B0A1C38710234A9C48B1A205
:2033C300C58B18336ADCC8B1A3C78F20438A1C49B2A4C9932853AA5CC9B2A5CB973063CA33
:2033E3009C49B3A6CD9B3873EADCC9B3A7CF9F40830A1D4AB4A8D1A348932A5DCAB4A9D3C2
:20340300A750A34A9D4AB5AAD5AB58B141DA5A722BA4AC46BD720529F62B58A26545A63D49
:203423001B746D48B76C7DC2FD3837EECEBA1DF1DAC5A97763DFBD35FF66140C7826618BF1
:20344300870BC34C3CB1AC59C53A194B940CB925E587972BAB749C97B3E6BB99113A7EFCC3
:2034630039E7688DA74B474E5D713469D57C5937F60C1B346D88AE6BCBCDEDD0F56BDDABC5
:203483007DFFD62A7C38F0E0C5931B3F6E5BB96FE6479D7B85AE54FA58EA48AD63CFAE7D2C
:2034A3007B74E9DEBF3BFF0F1F163C79B4E6CF0BEDAEBE6DFAF63FD9C3DFAD7CBEFBF1F6B4
:2034C300E927CF1F1F3F7F9EEFFD679A7F020E585F81C815876082C22D68E07E0EC6066186
:2034E30084361148A161075E4893851A2E966187317108A2651F8EE89288266E36618A27ED
:20350300AEC8224B25BEA8A282329248638D2BC588A3493AEE48528F3E8EE462903F0E492D
:20352300A490371ED955924A22D960934B3E09A593CF4D49256F56BEC564969D55C9255938
:203543005B7E899A9462768965997E1989264501AE399B7C6EE266DD7571CA39E772758A1B
:2035630076279D792A241C126C90D96742AE2101C0A124783928A18EB171E8A389CAB6E8A0
:2035830041A33D6A2912924E5A50A396429AA9A60355DA290098DE062A41A3396A69A4A639
:2035A3009E2A906BAA02FFC06AABAE0AC746A08ABA1AEA9E786ACAABAE94DE09AC9E700E32
:2035C300BB2B8AC6121766B29B9EC92CA39F3E6B90B3D2064B6BB5A8468BEDABDA6E4BED41
:2035E300B6C786566BB7D87E0BAEB2E29E4A6EB9D79EBB6EB5EF4A1BEFB3F3D29BAEBAED9D
:20360300825B2FB3F9EA7B2FBE629D0BED74025B4B70C1CD068C70C2072FCC6DC30EA3CB1A
:20362300E7C2FF023C31C50A47FCF0C508570CAAC7BE66AC31C89392BCA8C983A2DCA7CA40
:2036430079B25CA7CB71C2ECA6CC6BD28CA6CD65E22CA6CE5FF2CCA5CF59026DA5D0531287
:203663000DA5D14D22ADA4D247324DA4D34142EDA3D43B520DE270567788B5C8BBD23B2D5B
:20368300D7CADACBF06B100F9B315C6003BBD6DA699B1D705AFD5A0CA4DB731B8B6CB275F8
:2036A300E3BDACBC82BA1F9BABDFFBD29D758A81DB3DF88B6D77CCB1C38B53ACF1E39047A1
:2036C3002EF9E4170604003B3C212D2D636F6D6D656E742D2D0D0A2F2A2A2A2A2A2A2A2AE6
:2036E3002A2A2A2A2A2A2A2A2A2A2A2A2A2A2A2A2A2A2A2A2A2A2A2A2A2A2A2A2A2A2A2A87
:203703002A2A2A2A2A2A2A2A2A2A2A2A2A2A2A2A2A2A2A2A2A2A2A2A2A0D0A2A2A0D0A2AE0
:203723002A2046696C652020202020202020203A206874747070616765732F636769666F3B
:20374300726D2E68746D6C0D0A2A2A2046756E6374696F6E20202020203A20434749207373
:20376300616D706C6520666F726D20666F722048545450207365727665720D0A2A2A0D0A63
:203783002A2A2047656E657261746564206174203A20323030332F30392F32342030393AFF
:2037A30034333A31390D0A2A2A2047656E657261746564206279203A20737461636B636F84
:2037C3006E666D616B652076302E310D0A2A2A0D0A2A2A204D414E55414C204348414E471A
:2037E30045532057494C4C204245204F5645525752495454454E2049462054484953204639
:20380300494C452049532052452D47454E4552415445440D0A2A2A0D0A2A2A2A2A2A2A2AF4
:203823002A2A2A2A2A2A2A2A2A2A2A2A2A2A2A2A2A2A2A2A2A2A2A2A2A2A2A2A2A2A2A2A45
:203843002A2A2A2A2A2A2A2A2A2A2A2A2A2A2A2A2A2A2A2A2A2A2A2A2A2A2A2F0D0A0D0A9A
:203863002D2D656E6420636F6D6D656E742D2D3E0D0A0D0A3C484541443E3C5449544C4591
:203883003E53616D706C652043474920466F726D3C2F5449544C453E3C4D45544120485494
:2038A30054502D45515549563D22507261676D612220434F4E54454E543D226E6F2D636169
:2038C300636865223E3C2F484541443E3C424F44593E3C7461626C6520626F726465723DD3
:2038E30031206267636F6C6F723D2223663066306630223E3C7472206267636F6C6F723D81
:203903002223633063306330223E3C74643E7661723C2F74643E3C74643E76616C75653C7F
:203923002F74643E3C74643E7365743C2F74643E3C2F74723E0D0A3C74723E3C74643E7454
:20394300656D70657261747572653C2F74643E3C74643E3C212D2D236563686F2076617275
:203963003D2274656D7065726174757265222D2D3E266E6273703B3C2F74643E3C74643E96
:20398300266E6273703B3C2F74643E3C2F74723E0D0A3C74723E3C74643E77696E645F64C2
:2039A3006972656374696F6E3C2F74643E3C74643E3C212D2D236563686F207661723D2293
:2039C30077696E645F646972656374696F6E222D2D3E266E6273703B3C2F74643E3C7464AF
:2039E3003E266E6273703B3C2F74643E3C2F74723E0D0A3C74723E3C74643E77696E645F88
:203A030073706565643C2F74643E3C74643E3C212D2D236563686F207661723D2277696E30
:203A2300645F7370656564222D2D3E266E6273703B3C2F74643E3C74643E266E6273703BFA
:203A43003C2F74643E3C2F74723E0D0A3C2F7461626C653E3C2F424F44593E3C2F48544D60
:203A63004C3E0D0A0D0A0D0A3C21444F43545950452048544D4C205055424C494320222D5C
:203A83002F2F5733432F2F4454442048544D4C20342E30205472616E736974696F6E616C9F
:203AA3002F2F454E223E0D0A3C68746D6C3E0D0A3C686561643E0D0A3C4D455441206874D3
:203AC30074702D65717569763D22436F6E74656E742D547970652220636F6E74656E743D25
:203AE30022746578742F68746D6C3B20636861727365743D69736F2D383835392D31223E62
:203B03000D0A3C4D45544120485454502D45515549563D22507261676D612220434F4E54E4
:203B2300454E543D226E6F2D6361636865223E0D0A3C4D45544120485454502D45515549A3
:203B4300563D22457870697265732220434F4E54454E543D222D31223E0D0A3C736372694F
:203B63007074206C616E67756167653D224A617661536372697074223E0D0A3C212D2D0D69
:203B83000A0D0A66756E6374696F6E2075706461746528290D0A7B0D0A09706172656E746B
:203BA3002E74656D7065726174757265203D203C212D2D236563686F207661723D2274658F
:203BC3006D7065726174757265222D2D3E3B0D0A09706172656E742E77696E64646972202F
:203BE3003D203C212D2D236563686F207661723D2277696E645F646972656374696F6E2230
:203C03002D2D3E3B0D0A09706172656E742E77696E647370656564203D203C212D2D236577
:203C230063686F207661723D2277696E645F7370656564222D2D3E3B0D0A096C6F63617435
:203C4300696F6E2E72656C6F616428293B0D0A7D0D0A2F2F2D2D3E0D0A3C2F7363726970A6
:203C6300743E0D0A3C2F686561643E0D0A3C626F6479206F6E6C6F61643D22736574546937
:203C83006D656F757428207570646174652C20333030302029223E0D0A48656C6C6F2077D2
:203CA3006F726C640D0A3C2F626F64793E0D0A3C2F68746D6C3E0D0A3C68746D6C3E0D0A10
:203CC3003C686561643E0D0A3C7469746C653E416C7469756D20576561746865727374617E
:203CE30074696F6E3C2F7469746C653E0D0A0D0A3C736372697074206C616E6775616765D9
:203D03003D224A617661536372697074223E0D0A3C212D2D0D0A7661722074656D7065720F
:203D23006174757265203D20303B0D0A7661722077696E64646972203D20303B0D0A766130
:203D4300722077696E647370656564203D20303B0D0A0D0A66756E6374696F6E2073686F25
:203D6300776172726F7728206974656D2C20696E64657820290D0A7B0D0A09726164203DB4
:203D8300204D6174682E5049202A20696E646578202F203132383B0D0A09636F7374686542
:203DA3007461203D204D6174682E636F7328726164293B0D0A0973696E7468657461203D11
:203DC300204D6174682E73696E28726164293B0D0A0972203D204D6174682E737172742842
:203DE30020646F63756D656E742E696D616765735B6974656D5D2E7769647468202A20641A
:203E03006F63756D656E742E696D616765735B6974656D5D2E7769647468202B20646F63AA
:203E2300756D656E742E696D616765735B6974656D5D2E686569676874202A20646F63758F
:203E43006D656E742E696D616765735B6974656D5D2E68656967687420293B0D0A09726182
:203E630064202B3D204D6174682E5049202F20343B092F2F203435206465677265657320F5
:203E8300667572746865720D0A0978203D204D6174682E636F7328207261642029202A20DB
:203EA300723B0D0A0979203D204D6174682E73696E28207261642029202A20723B0D0A093B
:203EC30077203D204D6174682E6D617828204D6174682E61627328207820292C204D617440
:203EE300682E6162732820792029293B09092F2F20546F74616C207769647468206F66209C
:203F03006E657720696D6167650D0A096877203D204D6174682E726F756E64282077202FC7
:203F2300203220293B0D0A09646F63756D656E742E696D616765735B6974656D5D2E666921
:203F43006C746572732E6974656D2830292E4D3131203D20636F7374686574613B0D0A09C6
:203F6300646F63756D656E742E696D616765735B6974656D5D2E66696C746572732E6974A2
:203F8300656D2830292E4D3132203D202D73696E74686574613B0D0A09646F63756D656E9D
:203FA300742E696D616765735B6974656D5D2E66696C746572732E6974656D2830292E4D7F
:203FC3003231203D2073696E74686574613B0D0A09646F63756D656E742E696D6167657340
:203FE3005B6974656D5D2E66696C746572732E6974656D2830292E4D3232203D20636F7331
:2040030074686574613B0D0A09646F63756D656E742E696D616765735B6974656D5D2E7321
:2040230074796C652E6C656674203D202D2068773B0D0A09646F63756D656E742E696D611E
:204043006765735B6974656D5D2E7374796C652E746F70203D202D2068773B0D0A7D0D0A48
:204063000D0A66756E6374696F6E2075706461746528290D0A7B0D0A0973686F7761727214
:204083006F7728202277696E64646972222C2077696E64646972202A20323536202F2033D4
:2040A3003630202B2031323820293B0D0A0973686F776172726F7728202277696E64737002
:2040C300656564222C202877696E647370656564202A2031393229202F203630202B2033B4
:2040E3003220293B0D0A0973686F776172726F7728202274656D7065726174757265222C95
:20410300202874656D7065726174757265202B20323029202F203630202A20313932202B8A
:20412300203332293B0D0A7D0D0A0D0A2F2F2D2D3E0D0A3C2F7363726970743E0D0A3C2F04
:20414300686561643E0D0A3C626F6479206267636F6C6F723D222330303030434322207405
:204163006578743D22776869746522204F6E4C6F61643D22736574496E74657276616C28D4
:204183007570646174652C31303030293B223E0D0A3C64697620616C69676E3D2263656E92
:2041A300746572223E0D0A3C7461626C65206261636B67726F756E643D226B6C6F6B6B65D6
:2041C3006E2E706E672220636F6C733D22352220726F77733D22332220626F726465723DD8
:2041E3002230222077696474683D2238393822206865696768743D22323838223E0D0A3C91
:204203007472206865696768743D2231223E0D0A093C746420636F6C7370616E3D22352232
:204223003E3C696D67207372633D227370616365722E6769662220626F726465723D2230CC
:20424300223E3C2F74643E0D0A3C2F74723E0D0A3C7472206865696768743D2232323222EB
:204263003E0D0A093C74642077696474683D223230223E3C696D67207372633D22737061E4
:204283006365722E6769662220626F726465723D2230223E3C2F74643E0D0A093C746420F9
:2042A30077696474683D223238362220616C69676E3D2263656E746572223E3C64697620B0
:2042C3007374796C653D22706F736974696F6E3A6162736F6C757465223E3C696D67206ED6
:2042E300616D653D2277696E6464697222207372633D226172726F772E6769662220626FAD
:20430300726465723D223022207374796C653D22706F736974696F6E3A6162736F6C7574E3
:20432300653B2066696C7465723A70726F6769643A4458496D6167655472616E73666F726D
:204343006D2E4D6963726F736F66742E4D61747269782873697A696E674D6574686F643D0C
:20436300276175746F20657870616E642729223E3C2F6469763E3C2F74643E0D0A093C74CD
:20438300642077696474683D223238362220616C69676E3D2263656E746572223E3C6469E1
:2043A30076207374796C653D22706F736974696F6E3A6162736F6C757465223E3C696D67ED
:2043C300206E616D653D2277696E64737065656422207372633D226172726F772E6769667F
:2043E3002220626F726465723D223022207374796C653D22706F736974696F6E3A616273B4
:204403006F6C7574653B2066696C7465723A70726F6769643A4458496D6167655472616E82
:2044230073666F726D2E4D6963726F736F66742E4D61747269782873697A696E674D6574E9
:20444300686F643D276175746F20657870616E642729223E3C2F6469763E3C2F74643E0D37
:204463000A093C74642077696474683D223238362220616C69676E3D2263656E7465722284
:204483003E3C646976207374796C653D22706F736974696F6E3A6162736F6C757465223E3E
:2044A3003C696D67206E616D653D2274656D706572617475726522207372633D2261727284
:2044C3006F772E6769662220626F726465723D223022207374796C653D22706F73697469D6
:2044E3006F6E3A6162736F6C7574653B2066696C7465723A70726F6769643A4458496D61B6
:2045030067655472616E73666F726D2E4D6963726F736F66742E4D61747269782873697A0B
:20452300696E674D6574686F643D276175746F20657870616E642729223E3C2F6469763E80
:204543003C2F74643E0D0A093C74642077696474683D223230223E3C696D67207372633D24
:20456300227370616365722E6769662220626F726465723D2230223E3C2F74643E0D0A3CB1
:204583002F74723E0D0A3C7472206865696768743D2231223E0D0A093C746420636F6C73FE
:2045A30070616E3D2235223E3C696D67207372633D227370616365722E6769662220626F90
:2045C300726465723D2230223E3C2F74643E0D0A3C2F74723E0D0A3C2F7461626C653E0D40
:2045E3000A3C2F6469763E0D0A3C703E0D0A3C7461626C653E0D0A3C74723E3C74643E3C23
:20460300696672616D65206865696768743D2230222077696474683D223130302220626F96
:20462300726465723D223022207372633D2266657463682E7368746D6C223E3C2F696672E6
:20464300616D653E3C2F74723E3C2F74643E0D0A3C2F7461626C653E0D0A3C2F626F6479DE
:204663003E0D0A3C2F68746D6C3E89504E470D0A1A0A0000000D4948445200000382000022
:2046830001200403000000136CD09E0000000774494D4507D309100C210080F21D480000B5
:2046A30000097048597300002E2300002E230178A53F760000000467414D410000B18F0B70
:2046C300FC61050000002D504C54450000C00A0A8818184C120B0E52380F6E4C0EA86F0197
:2046E300D38A009468124239296F6F6F848484989898B1B1B1BDBDBDEA523B240000000121
:2047030074524E530040E6D86600001B7A4944415478DAED9DCD765BC791C7213F8165BD78
:20472300801DBDC0587072B25726C95E87A1B81E8B43EE43085E2774C8FD300E488DF717E8
:204743009CE33D7041EC6546DCEBD0C15E02719F61FAE3821F407755F55735AE72EB1C9B5C
:204763004E8E48FD59BFEA7F553780DB9DCE6D3CFEE269F7538A5F3521FC7EB5AF1E77D67E
:20478300E3D1A7854FC6B3DC78921114BFDBE7FF06001B81D0FF97FBDC00F0776D70C7FFFA
:2047A300787E5F7775154A80DFFC71F7751BCD88DDBF3E5F41F84400FC5B6E596D38445F92
:2047C30020FCFADE121400FF3BB7A6369CA2F7FC7E2B144BF04FB915B5E118AFEE2D42B13E
:2047E30004FF985B4F1BCEF1D7BB45F8A4F5D02686F0D1AF6F97E0766E356D78C4C1721157
:204803003EE9FE3AB79636BCE2855E84622FF8FBDC52DAF08A6FBBCF6A136DB782CD8CBE75
:20482300B6D12FBABFCDADA40DCFF84BF74B41B035D1E6C6B7AA1176BBED56A2A9D1EB76C1
:20484300651B6C27D1E6C60BD1083FEBFE26B78C36BC4336C227DD3FE496D18677FCB9FBE8
:204863001F82E0766E196D78C78118659EB4BBC106475F107C1AF9547B7777A35EEADF204D
:2048830039BBBB473A76E365BCF7FC5927DAEB12BDBDC3AD9D818E93ADADA3CC7B94DEDE64
:2048A300D67D39DFE795B37BB8D4A223567A34C1283FE9686BB01A2747D9CABF77B46390EF
:2048C300930BE2DEE1C010272FBF8FF0B39F77A310DCDB1998E32486C886CBB1AA89A227FB
:2048E3000AC107128732B2266DB3E4DCA95152CA72FC4052B09E17E1046F259E0ECFCBBB6B
:20490300180F8B2C49DB2C394B350FC5C8B885F832CCDB83D760EFD026F19ECA13B606D468
:204923003B5ECA5957730BF11F5C7296C931E5E65E7A824A2A94607F079228554610498F25
:20494300BD3A63252C8769192E936355238A2AB8A40209BE42F8DD252DD02B687188CBA9F2
:2049630073F69241CD1EC64FE951BE70E27FA81244505BD6E97989881C068AA4CAD9C1CBBE
:20498300E93667C99D94989CA51EEFB7EB8610D4263144252E4526B6AEBE2A793C634B5743
:2049A300485B513D7272CAB208718500827D628D3121DC73969312A1024854539794274275
:2049C3007F821A2051622D32E13BFBF7E8257F2B275D4569806435BAA4FEE1F5577913EC76
:2049E300BB65AC16990CE19E4BC92B3929112A802EC9D14EEA85D097609FDA735644264218
:204A0300E80CB0AEA834081540C7E47823F424E8033021C257EE001322F402E88DD08F6008
:204A2300CF2763B5C80439EBFBC95108138C33C75E007D0BDC8BA02C321F805A64F49C295E
:204A4300393E6A24C2F8077EFB9E003DB3E345F0D817A012193B6772EBEC0550CB89BDB5AE
:204A63007FE50D50237495E3433044A3CA59DC9405D4935A8571E5F44392E353E01E04F7DD
:204A83008234CA29FEEF315316544F4A4ECCE1CADBD1EF103A56943BC1BEF3562769CEC23F
:204AA3006A5ECB89D899031CDD333BEE04E122D32F438B7F9D8322A3F51E59F321F514B991
:204AC30033BF0A7074CF8A7226B80F1759311C16E7F2DF6760CEA2F59ED09AD77262D97A7E
:204AE3002FD0106A844ED97125D8478AACA8AA8F8260757306FDA1683EDA0F07A8E444F2FD
:204B0300D16304E06C2EFEF5AEFA0593E3921D57823B88464170718A118CE6A33D4C0E29A7
:204B2300C6B17CF415524F934A10BCA8AAEA1AD4E3E6A38E04F7B19A1704AB2146D0D929C3
:204B43006C216A1EFC7B8811C947310F9D5692E0D5A29CDD6015E5901D3782B86949826F6D
:204B63005182917C348A87D67222F828E6A19AA0C02720C6CB8E1B41DCB424C10FE728C1EC
:204B8300283E8A7AE8E45DB5103D67325B5C96989C701F3DC0EB49119C975384A0444896C6
:204BA300E34410F3F99AE0FC0C252873166C5CFB583D89A2AFAACB72267A339EB25039941E
:204BC30039541214FF4C2BE4CFB9F8A80BC11EC1B404BB9F16A738C108C685CB99DEC8E1EC
:204BE30061525D5F5497B89CC04588D693034197ECB810A4682CAAF99B6A4820183ECC60B5
:204C03006D478C7D2A6902DF0499FE227802A5BCE9044B7A761C0892340A82A7D55B02C190
:204C23007234186C87A48C36C6087C17225F28C1604FA094B703417A761C0892340A8283C8
:204C4300D9870181A0C8D94948CAC412C4015662F72CF325530747A027D0EA893AC9B8647B
:204C6300874E90A651129CCE4904C7413B8A03D25650CE303482B2EA0316216EE9B704F137
:204C8300DD845376E804691AA58BFEB820110C9B1E76685B41E1A24482A2F5F87B429F7678
:204CA300B440DBD1BB65874C90A851103C7B5351FA60D8F470403D4EABE65482E380C64C2D
:204CC300B274B5B9219CAAB965874C90A451131C560B12C19045485C827A16A54C326548A2
:204CE30063EE93EA4913444FB61DB3432548D3A80916620B4D22E8BF08694B50ED26AE498B
:204D0300BB895A8E67273C8E74BAB72A673B22C17DA2464970342512F4AF7A5ACAC48E5EFE
:204D2300E3C377F4B51CBF71B417E31512DFEC1009F6A82F024882E31FA9047D5B0FD11194
:204D4300A46D89B18F70AA762BC76B11EED33A8C6BD0E4100992354A82E51B2A41DFAA270B
:204D6300BAD6E45F953CD3C64FB6C3E490CBDB3548726804E91A15C12199A05FD527722D89
:204D8300B527F418AD122D416276680449C7317704C5284324E857F5C95256FA8C56A4D3AF
:204DA30046BFA0648746903CBB6B826294A112F45984C95CCB6F1192B7A669E490083A6846
:204DC3005404C5284325E853F5E996A02CA81F5CE524D94AD0B34322E8A0B1F8E7CF82DD2B
:204DE30099FA37294499B9A68CEE08EEE1BEBFA1EE94BD6284CBA11074191CF47B7DC177A4
:204E0300FCAE84F3862269CADC5D9DBA534E25874230A16B951EB34CD29409398EAEBEF3F1
:204E2300B02953CFCCA2C9A110DC493638C8183B0E0FC9B6123A5C5D7DC511A8E7D6F1B2E2
:204E4300432098D4B54A69A33FB8A4EC20A923381F13ADCC08D4D78E0CF16EA696EFCA225C
:204E630046E51008A6752DE7E121E5E8A7E5B8B8FAAA23105FBF3545A596EFEA2246E51012
:204E830008A6DB7DE9701B1E129BA8ABABAF3A02F13D14468297E56CB1B688513938C1C4B9
:204EA300AE553A0E0F69C72A194EAEBEEA08B4F73119E35A1EC5AF2F622C3B38C1D4AEE55A
:204EC300383CA41DAB74CAE836BAE60801044B4D707511635B42946072D772B3D17539E691
:204EE300018014EAB3446BDFE862A3DFAD96771841B1FAD67E00260725D84FEE5A4E36BA12
:204F03009632CB00408AA94897E11B0BFA347ABCEA0861048585AEFF800276759460EA499C
:204F230054C6983E8DAEA5CC3200D01226D265F8C611D946D71D216092919BC9B9812022FB
:204F43000725B893DC444B393C107DCBE0E9D7E601801093854897E11BE9367AB056DE0117
:204F6300BB0961A2A21AD709227230821C268A1A05943219A6018010D3B92468F846B28DEF
:204F8300AE1B54C08E5E2CC11BE32286E56004394CD4C1B7F68D93A8690020C4ECD2E85A8D
:204FA3000E7D79DD11424ED566F2FD5886450CCBC108B29828DDB7CC83B171004063A2B80B
:204FC3009BBE714CDCDE980CCAFF64FB42BD2DD9B0886139084186BD840AA26F993DFDC29B
:204FE300020289E9DC46B0246E6FE21A941CAAE5FB93D71731280721F81D8B89926DD49C95
:2050030032F30080C6ECD24A9068A3710D4A13342D62500E42F038F909880EA26F1953669E
:205023001B006819337E236D7BD36399F230390841261325FA963965B601008B9AA0F11B8E
:20504300497DF980C9A0603930C13E9B46D27EC29832EB004008F38EBE24F6E57D268392F7
:2050630072ECF50D13E46A83C446684C997D00C0C37CAAA6E4101A21CF9C8EC9810972B524
:2050830041622334A6CC3E00E0613CD9D672F082626B83B01C98205B1B243542C694511AA9
:2050A300215F1B04E58004798ED474103A0F67CA0ABCA0F8DA20280724C899324223E44C39
:2050C30019A111F2B54170470812E46B83A42DD83163CAF046C8E9E9901C90206795E19DCA
:2050E300873565B81CBE9D56090E7A1041DE94A18D9035657823E4F474480E4490B30D1278
:205103003ACF77CC29FB0196C3E9E9901C88206F95A19D87376563ACA0585B0C50DF104149
:20512300DE9495D89E9E3765D864C5DB6280FA8608F2A64C1805383B30A70C1B6578BB3233
:2051430050DF0041EE9421A30C77CA905186B72B03F50D10E44E1932CAF09DB22F530616C7
:20516300D43EAF41D9E50004B9AB0C196578E72AB4A0985B8C5D0E40907990C166077E39F5
:20518300604131B718BB1C8020779521B3037FCAA0D998BBC5D8EBDB4E907B90416607F60C
:2051A30094C1B331EF69870C5B7DDB09F2A76C041D83F0A70C1C65B8BBB2BDBEED04F95362
:2051C300061E8370CF55484171776529C75C507682FC29036707EEE91D2928F621C15A50CA
:2051E3007682FC292BA16194BFE8C182621F12AC72EC04F953069E8CEE644899BDA07AECD1
:205203002DC683207FCAA0E98F7F32060B8A7FCCB33A949D60869401DB891C29030A8A7FA5
:20522300CCB36E27AC0433F88475DCCA46D05A50FC639E558E95608E9401F3FB41869401DB
:20524300059561CCB3ED4FAD0473A40C98DFF977D060416518F36C72AC0473A40C98DF735E
:20526300A40C2828FEEDA0558E95608E94011BC23C29B316548631CF26C74A3047CA805771
:205283002772A4CC5E5039C63CDBFE1420982165C58611B46D08738C79B682B212CC923265
:2052A300EBFC9EA5E8ED059589A0B1A0EC04F3A4EC6F9B94322BC11C83BA4D8E8D609EA248
:2052C300B7EEC07211B414548E0DBD2BC13C29B3EEC0729C6201AFF1E622682AA8C610CCC8
:2052E3009132AB25E438927125982765D63D749EA2B716541E82E682B211CC9332EB1E3A29
:205303004FCAC63682598E3B2C05D51204E5582C21CB718723C15C29B39C82E4297A6B41FB
:205323006539EEB014D466112C1B4230CB7187458E8DE05DCA8622CADBEBCC5C6E35F308EE
:20534300DB3956AEA2B714549641DD9BE0405F52AABF8C07716F802906759C2FFFB24D2266
:20536300587E1A048755352AE5B59E95588AE39FE41D9FF1A2F8A78E9FEBBFAD6804C13C0B
:2053830007568E04EFA6ADA2AADE9F4B74D5DB52DEB0FB31A68B16958E8F08C13C8DA7E182
:2053A3000497DF37BAAA3E688202A4FE1FF1629DA0F92C3917417341AD11BC904F09A65F89
:2053C3007BEF19E6B64C20A8969D4027D9156A25C60BF1F37E79E8A24D20B876E478250925
:2053E300CEAACAFBA689B598BCAB16BFAC56852741DDFA0ABD5074538C17B222EE4F3256D5
:2054030082C96D4B3FE372651D11098A6F9597385D5F54D116E154EAB95CA90A5F82EA6AE6
:20542300F2A1FC05D59761CCBCADAE69DBEB390F5236930FF58D7CDF6D4D70651D150E04D4
:2054430005BE49BC0B5CA737F25EAF95AA702278CFB6DE548BD3F2BC5AC82F6FAA2AEA6A49
:2054630020127CD078D48D65B1EFBB550F8B5D5B474482EA69F9B217C69374A124AD548531
:205483002FC1A1A4F6A6FA28BE8CFF57AEC78821090EEB33039D3294E054AE95A0DB718CCE
:2054A300A108AEAE238BA91B09CA7FD40F891542CC4A55184D9D467028ACF4C34C7D994706
:2054C3003D9211047F9600971921130CBAA1CA1435C187EB28274131E3ADFE4C5F8222CBD6
:2054E3002331CEBC9DAA2F51B783B7BB09640D3E4C992218724B9C396102DD2A059CA0AE96
:20550300A73404176104EF522636126FC596A2F8A97A2FBE44DD0EFA130CBBA9D198303194
:205523008EAC1334CA39E020285D341241B1F03E145755F1A3FA12753BB8410465C6AE898A
:20554300048D6B30EE24A37FCF78043F0EC420FA467E89BB99A0F6411682EB1973EA83710D
:2055630077135A4FA449460CA01F4FC50C7A56CD4F1310749D4553120C9964E2EEE8D56E09
:20558300E27A7537E14950EC24E6676282195637A7724F18337CF68349261963C6A8048D0D
:2055A300A701612176F45A4C8C1DBDD84E2CDE8809A69855FF17793B184030F26E4264ECB0
:2055C300DD5AC61CCE64D64FE402F554AA1EA29CAAD5E3C6FB7379B81D7933E177AA966299
:2055E300476FCC18F94C267E4CFE55C97A8872B22D7E0FF17B5523F50253E4CD8481207A5F
:20560300B2ADCE7CA39FAA1933467E6D8229BC098EA66ADE972FD3CBD70863C6ED24437F4A
:205623007549138C7EB26D4E19F1F5419EF07D7DB0D48BEF54CEA4915F1D6CEAEB830D793C
:205643008DFE6EB1C9C5272798B32AF66662E35FA36FF0BB2CEEBF41532E3EF9FEA66115A3
:20566300F9B525FAFB6436EB9D4E0D7BAF9A88336D73F28D658909B6EF3604228060A1DFAC
:2056830006318AFC66D1B2B9EF176DD47BB6D38A1AD6B1246849599E8F9AB49F9BF0D0D8B7
:2056A3008CCF4D34E1B34BEDA7CF4AE0D367EDE707ED29DB30823F98E5E422B8ED40B0FD93
:2056C3001476B9719FC26EF493107211DCDE24398D2698EB113C1B46B07D229073CA2C4F98
:2056E300046A9FE9E49CB20D7B2A57339EABD63E196FE308B64FA7744E99EDE9940D79BEBE
:2057030068FB8458FB23879BF08CDF3C4F69B6DED1B1614F69CEE150AECFD9CEF3A4746BF0
:20572300D1E77952FA463DB8DDF559F739B63C40CAF2DC56005C9ED084FB2672DC18624DAF
:20574300598E82026E0C69EF7C714E598E82026EEDC923C7F5DEA5F6E62CFBCD5959EE3E2F
:20576300338F79EDED75CE29D37232DC3FE87A7BDDBFFD0D92E095A44DB803B4BDC515BAD8
:20578300C535C73DBCE631AF313729E720F8F74D92E37E93F286DD66CEBF21046F336FC2EC
:2057A3007DF4FCE3169832FE822AEC7B1BE950DC726C67C67682FCD31FB099C851509B2512
:2057C300676C1BF3EC04F99BB5FD950919EC05054DC6FCF56D1D120082DCCD7A0CA68CBDC2
:2057E300A0C0B98A5F8EF5C41120C83D8C2229E3DEDD8CA0B98ABFBEAD5D1920C83D3B2023
:2058030029E32E287090C921C7D2950182DC274748CAB867077090E1AF6FEB9000107C3DC3
:20582300E0350A2465DCB3033C5771CBB1BFF80D1164B67A7890E19E1DC6D0111F7F7DDB01
:205843004F3B2082BCE70E68CA780B0A99ABB8E5D84F3B2082BC568F0C32DC05051E10F1E0
:20586300CBB1B71888609FD5EA914186BBA090AECC2DC7DE952182BC563FC052C63B3B200E
:20588300830CB31CA0C5800439AD7E8C0D32BCA30CDA0679E5002D0624C879003FC253C634
:2058A300D979D0AECC2B0768312041CE4D74814D0EBC9D07EDCABC72004F070972364274B0
:2058C30072E0ED3C681B4C2147DD85627AE41FB4D38209F23542421B4CD079DEA90B930C34
:2058E3004F764537A749E44C0541E36337214F8709F23542C2E410BFF35CA8E75C9A9EAE83
:205903004C68836639E6E794126326081A1F7D0B793A4C90AF1112DAA0ADF3F83F1D79267B
:20592300C9199F704E68836639E66705D362B2904FEB363D7E1AF27498608FAD1112DAA056
:20594300ADF3783FA15C3F14DD78CB00A10D9A4F3CD413CEAFFD9E7B3F9D4B828647C08377
:205963009E0E13148DF08C019F6A838494193B8FFF2D01FADB4C377D90DAA0518EF1CE32E4
:2059830062CC2E0541D3350C05E4E90841AE4648D80DCAD837C8F1BFA9E3A27AB77E3B1594
:2059A3009E32584E69BAB7821493456921081E572104B98E46497DC7DC97FD6FCB991AEF94
:2059C3005A4253866567B27EFB0F4DCEDC421036288420D3D111D1448D7DD9FFC6AA696514
:2059E300BA6BA9246E6D5EDBC684F51BAF6831BBB410840D0A23B8CF62A3A4BD840C435FA0
:205A03000E2268B86BA924EE25D6E5E85BB4C464E5A7493DEC786E98646083C208F2D8288F
:205A2300B1EF1807787F82CA7F4D3D8BE8E9AB7234C149751344706D378118144690E760F7
:205A43008DD8778CBE1542F0D270D712DDD357E5D4B7938A9FEADB9B8D3B7A64CA430972EA
:205A63009CC013877719EB36EA3FC94C96F8567623C4C1D826E7C67F3E369EAA21871D2869
:205A8300418E1378B2899AB63701F7FECDCCE727A4F3219B9C991C437CF7A8A6936DCC11C5
:205AA30050821CC7326413557D79454EC0BD7FFA3C6EF5548E6EA286ECA81D4A15F326BBB6
:205AC30011625028416114A91721757857B1B3E65B51EFFD23A40C9453138C78931D6650E4
:205AE30038C183E4D3A883899AB63751EFFD739593FCD00A75049C60721B1D3B98288F1CC2
:205B0300B28932C829B0B10A27987C53EFE45AE95D1D4D19AF9C01B6372510EC272E33272C
:205B2300D74AEFEA68CA58E5E08E402068181E78353E8CC4BEB561727047A0104C6BA38EBD
:205B4300AE955E8E932324964398112804D39699A36B257675B7B12AB91CC28C402198B409
:205B63005B8F1C5DEB755A572FDCC62A2D275D7606B82390081E3895D9BDCBE84829737487
:205B83002DE95BE9860742CA0C72522D428A2390080A1BA597D9F0F4FC7238A03274772DDD
:205BA30025E72C51CA3C1C21A51CCA8C4022E852F5E353797BFD624424E83CC76839A97CCC
:205BC300CB630926F4045279D3083A9499027877B12EAE71DB3D65C986071F4748B80849E7
:205BE3004D9946905E66EAD27A3A418FC14106365A55F372E273DCEDE508C93C8156DE4487
:205C030082E40DC5685A2D8AC1E99446D06F09E28B50BD5DE87AF5FFA2C8F15882C93C811C
:205C230056DE4482E40D4531ABDE8B5974F033E9572A3C060715C8042FDFFB5CADFD5F9169
:205C430052E69F1DF5E2ED6466F8709229C6B4A64C25482DB3A2AADEAABF9DF2A7891A0D6A
:205C630081EC6FAAF964951881A0AF2350B33311DDE552BE9C497B5B0FB1BCA904A965266D
:205C830008BE1F8AAFA4DD84F712C4F637D5FC4AE46A5A5D482B7D273F4D245F792D2FE0E9
:205CA300F2F75E82C45DFDC54D79757D21245C510852CB9B4CF0803670098237C529791030
:205CC300F55C82D836BA9ACBF71B496A37EAAD430BF5DF13F5F2791239A4EC4C457716A5FB
:205CE30025FEEB9A9249627993098A32A38CA3A32B91AF3171BD7A2F41B108C1AAAFE4E724
:205D0300B8EA77D55F2DF4DB0AE57073595E41724EBCE590B2A3D6E0FA870303EB894EB078
:205D23004F3A9819FF54A90D3DE58F06D43CD209D5E293C444C58B94C9F7B2298290878E83
:205D4300BCBB20353BAA0F52DFDA4A2E6F3A41D10909ED7A7CAAF78305FE47836A1EAEFA2C
:205D63006A21CD6AAADEFE2E53A63F8F70A126095B0CFCF6822ED991B32891A028EF3FD1FD
:205D8300FE620782B4D3D1E28DDED19F11346E87A4AC0FB41EF95EFAEB3582E515F0AEB656
:205DA300C2732F784F0EA97510090EC853950341E2217C71FA4E22447F1DBA464B00552F65
:205DC30089DDD4046773F59E6E95B9C9CC36C98C039720F9250AF24E623B0141E24B14C334
:205DE300813C1B1DE21A836A1EAC7AF9F903F519B0E9DD2423A65231C854763921964ECFF6
:205E03000E699271A9271782B2CC309163F98F74D2513C8D801C4BD5ABA637D7042F6E9FB7
:205E23004DA077173639015315393B65599276132EE5ED44508CF0985314EA9718A204C3AE
:205E430097A0AA7A8B1CD5FB169AA0DED10B900BE1A196362800862E4152764AA903DFD1EF
:205E6300172EE5ED4490D0AE0B8550101C631A836BFEF5EB572EAF3C2372B6C3E5D086198F
:205E8300FC544DD493C394EE4610778A62510C86D2454F318DE119236E70F08861E9A4ECA9
:205EA300C8C04FB6DDFCC99120EA144525F489ADEBCD693C8D809C410C84513C94941D5272
:205EC3003879A83341D4290ABDA1AFDE9EC31A2378A88C283E1AC743EBEC042374F3507700
:205EE30082985314FA4D16E0121C46F25019C7E1081D6B3E243B34806EFEE44C503A05203E
:205F030072389013DF3574A8E6AC1194135CF5D13C94901D821AE77A72268839859400FFAA
:205F23008101F9C88F12AF02114A39DBF1E4C8EC60871950148E1EEA4310CDD9187E75379C
:205F4300A669C9D80F42280146EAC9B4ECA0005D0DC183A0EA3DDE22DD8B8C22272465514F
:205F6300EB29ACA27C1A8C0FC1909C7914191621BD277E3D8514B85783F122E89FB322E6A2
:205F830014B30CD97BFCE5C406A8B3E383D0CFD1BD08EA9C79882CE24E31CBD8F34498A40C
:205FA3009EF47CEC61A412A087A3FB1154FDDA1D61117B6C78206753EA4917B833C2A10468
:205FC300E861089E0475D93B8A94197B9922637E0893011408779C11FA02F426E88E709C80
:205FE30010A087298C1302AC113AEC0B951A2F80FE0415420791D2E5D3654C237490334C7F
:206003002C478E33F4920A0018405023A48A4C9DB11A21D549D5C1D1F729E52884442755F5
:20602300C9F1DD960610D40D9BF60189223940978A1AA707B844487005ADC6BBBF84105C04
:206043008A4493A66AEC2471C6EAE643C8999693601BB11287AAA4303D4A4D40390511AC96
:206063004522491BAA1AF37479A7E81D53E40CB8E4BCDEDB41196A3521E7428104B575417B
:2060830049D3FC523BE8433940CE74C6523BE832EA92B2EAA9D5044DE8A1046B27150C4D91
:2060A3002AC7B5C4F40EBA8C3E2467B894C3B10075D4156ED033AE6B3B3439C104975EB1A7
:2060C300AE72992F51637C1923C8E12B2719BDC365164EE583766A29C325BE70351108DE59
:2060E3004B9ACADBF0BE406E7E328EEEE49CD672EED4F0F29371C7703D22A8791183E043AD
:20610300860F839D1F9CB3A30C725EF78ECCE9D98A514D51D6A08CDD4383CA97EC05BF8C0C
:206123003D839C937C7204C4ADB5DCC429A66804B5CA7B69DB7AB99B2D5F2A760FEFC93942
:20614300D93ACA2CE7756FEFE8E8704BC6D1D151B45AEA3D7FD679FA4D5467D9DD3BFA7EC7
:206163003787570172728B481892E093EEE6E4BB0DD7E877BF1604B773CB68C33B0E14C165
:206183003FE496D18677FC5910FCACFB9BDC32DAF08EFFEA7ED979D4FD756E196D78C78BAF
:2061A300EEE79D4EB71D651A1BBD6EB7D3E93CED32BD72D046F4F8B6FB4C10FCA2FBDBDC27
:2061C30042DAF08CBF74BF12041F75E3EEE9DB608BDE73D9063B8F9EB6FB89868630514960
:2061E30050EC08DB69B499F142EC063BCA46DB639946C6415799A85E846D276C5EF4964B86
:20620300B0D3F9ACDBFD7D6E396D38C7B7DDEE973541B125FC26FDFB27DB881B7BCFD56642
:20622300B0B3EC84ED8EA261217612CB2EA83B61F73F5B844D0AD1046FBB6047EF09BBDF80
:20624300B4876BCD895762053EBBB7043B9DC712E1EFDA684A48808F3B0FE28BEE2718CFB6
:206263007EB5F1E1FFCB7DD5598947B9D31D3F1A00D09BE0430BAD114A27FD9422379C84FD
:20628300049F3DBE03F8FFE35AF8A73B0A2BA00000000049454E44AE42608247494638393E
:2062A3006101000100830000000000FFFFFF000000000000000000000000000000000000F8
:2062C30000000000000000000000000000000000000000000000000021F904030000020098
:2062E3002C00000000010001000004021044003B74787400746578742F706C61696E006808
:20630300746D6C00746578742F68746D6C0068746D0067696600696D6167652F676966009D
:206323006A70656700696D6167652F6A706567006A706700706E6700696D6167652F706E46
:20634300670062F362F763026307631163076315631963236328633363286337633B00001A
:2063630000002F6172726F772E676966002F636769666F726D2E68746D6C002F6665746392
:20638300682E7368746D6C002F696E6465782E68746D6C002F6B6C6F6B6B656E2E706E6781
:2063A300002F7370616365722E67696600636530890642637036CB03A0637E3A6B0250634E
:2063C3008B3CBB09B26397466D1C3163A4629E005500000000000074656D70657261747550
:2063E30072650077696E645F646972656374696F6E0077696E645F7370656564000730CCCC
:2064030063DA000000002FE10730CA63E6000000002FE10730CE63F5000000002FE1000065
:206423000000000000000000003C212D2D236563686F207661723D22004745542000200DEB
:206443000A002F2F00696E6465782E68746D6C002F6367692F696E666F002F6367692F67A1
:2064630065743F00485454502F312E3020003430342046494C45204E4F5420464F554E445E
:2064830000343930204552524F5220494E204347492043414C4C00343931204552524F5284
:2064A30020494E204347492056414C554500323030204F4B000D0A436F6E74656E742D74B3
:2064C3007970653A20000D0A0D0A00200020494E464F474554002043474947455400205351
:2064E3005349474554000A003C48323E4854545020343930202D20496E76616C696420438B
:2065030047492063616C6C3C2F48323E003C48323E4854545020343034202D2046696C6530
:20652300206E6F7420666F756E643C2F48323E0055696E74313620002E2E001265A7900453
:2065430055E4F0E0D39402400374FF22438780758DFCE589540F4420F589D28E900455E0CA
:2065630024FFB3E43303548024D0F598900453E4F0126598126589900454E4F0C2BCC2B05D
:20658300D2ACD2AFE42290044DE4F0A3F090044BE4F0A3F022900451E4F0A3F090044FE430
:2065A300F0A3F022C2AC759800E4221265D1E924BFE834F95003E4F9F890044FE0FAA3E021
:2065C300FBE9B50307E8B50203740122E4229004511266A409B9000108228F031265D18985
:2065E300058804ED24BFEC34F95003E4FDFC1266216D7004EC6860F6900451E0FEA3E0FF85
:20660300901C0312C9277A00EAF0EBA3F0900451ECF0EDA3F0900453E07002D29922900459
:206623004F0266A490044D1266A490044BE0FAA3E0B50107EAB50003740122E42290044BE8
:206643001266A490044DE0FAA3E0697004EA6860ECC2AC90044912CE6C90044912669A508C
:2066630004D2B08002C2B090044BE0FEA3E0FF900EB912C927A3E0F890044B12C6FC900443
:206683004BE0F9A3E0245BE934F9500790044BE4F0A3F0D2ACE822E0F8A3E024BFE834F943
:2066A30022E0F8A3E0F922EF54046007C2AC126589D2ACEF5403B40308C2AC126598D2ACA5
:2066C30022EF54016017900453E06011126621900451E0FAA3E0B501F3EAB500EF22C2AC00
:2066E300900454E0F8E4F0D2ACE822C0E0C082C083C0D075D008309868AB9990044DE0F84C
:20670300A3E0F909B9000108890D880CED245BEC34F95003E4FDFC90044BE0F8A3E0F96DB0
:206723007004EC68602590044DE0FEA3E0FF900EB912C9277A00EAF0EBA3F090044DECF0E0
:20674300EDA3F090044912C6FC80069004547401F0C2989004491267BB5004D2B08002C2AD
:20676300B030994BC299900451E0F8A3E0F990044FE0FAA3E0B5090AEAB50806900453E43E
:20678300802C90044FE0FEA3E0FF901C0312C927A3E0F59990044F12C6FC90044F1267BB77
:2067A300500790044FE4F0A3F09004537401F0D0D0D083D082D0E03202669AE5D970FC7521
:2067C300DE0075D901221267D28BDE75D90222E5D970FC8FDB8EDA8DDD8CDC221267D2EB1B
:2067E300C454F04AF5DE75D90322790E740412CD1E740412C4388D1B8C1A8B078A06740C8C
:2068030012C438740E12C9F6740A12C438741012CA987C00EBD3C0E0C0D0126A79FFD0D092
:20682300D0E09FEAC0E0C0D0126A74FFD0D0D0E09F402975F001740D12CA98C3C0E0C0D057
:20684300126A79FFD0D0D0E09FFFC0D0740C12CA98D0D0C0E0C0D0126A74802775F0FF12F2
:206863006A79C3C0E0C0D0740D12CA98FFD0D0D0E09FFFC0D0126A74D0D0C0E0C0D0740C8D
:2068830012CA98F8D0D0D0E098FE740812C438740B12CA98D3951BC0D0740A12CA98D0D081
:2068A300951A40187A01740B12CA98C3951BF9C0D0740A12CA98D0D0951A80267AFFE51B04
:2068C300C3C0E0C0D0740B12CA98FFD0D0D0E09FF9E51AC0E0C0D0740A12CA98FFD0D0D058
:2068E300E09FF8126A6FC399C0D0740812CA98D0D0981274C730E73C740412C9F67C01C0F9
:2069030006C007AF1BAE1A740412C438D007D0068F1B8E1A740812C9F6C006C0078907889E
:2069230006740812C438D007D0068F018E00ABF08AF0AA03E925E0FFC0D0740712C469D030
