:0200000068C3D3
:140026003030303030000000000099882136AB0000000000B3
:14003A000000000000000000000000000000F80000000000BA
:14004E000000333000000000100C06100C06000000000000F7
:1400620000000040C07840C0784000043F04043F04040000C8
:140076007088FC08300000001820FF211E0000F008F000E00C
:14008A0018000000211C031E211E0000F00888700000001E9F
:14009E002123241927211010160E0000000000000000000041
:1400B200000000000000E018040200000000071820400000BD
:1400C600020418E00000000040201807000000404080F08039
:1400DA004040000202010F01020200000000F0000000000188
:1400EE0001011F01010100000000000000000080B07000003A
:140102000000000000000000000000000101010101010100E2
:140116000000000000000000303000000000000000000080F5
:14012A00601804006018060100000000E010080810E00000D6
:14013E000F102020100F00001010F8000000000020203F2078
:1401520020000000700808088870000030282422213000000A
:14016600300888884830000018202020110E000000C020103E
:14017A00F8000000070424243F240000F808888808080000A3
:14018E0019212020110E0000E0108888180000000F1120204C
:1401A200110E0000380808C83808000000003F00000000009B
:1401B60070880808887000001C222121221C0000E010080877
:1401CA0010E0000000312222110F00000000C0C0000000001C
:1401DE0000003030000000000000800000000000008060004D
:1401F200000000000080402010080000010204081020004082
:140206004040404040400004040404040404000008102040D0
:14021A008000000020100804020100007048080808F0000051
:14022E0000003036010000C030C828E810E000071827242310
:14024200140B000000C038E0000000203C23020227382008A7
:14025600F8888888700000203F202020110E00C030080808AE
:14026A00083800071820202010080008F808080810E0002081
:14027E003F202020100F0008F88888E8081000203F202023DC
:1402920020180008F88888E8081000203F200003000000C0CE
:1402A6003008080838000007182020221E020008F80800001B
:1402BA0008F808203F210101213F20000808F808080000000E
:1402CE0020203F2020000000000808F8080800C08080807F86
:1402E20000000008F888C028180800203F2001263820000872
:1402F600F8080000000000203F20202020300008F8F800F8F5
:14030A00F80800203F003F003F200008F830C00008F80820CA
:14031E003F200007183F00E01008080810E0000F1020202097
:14033200100F0008F808080808F000203F210101010000E025
:140346001008080810E0000F18242438504F0008F8888888AD
:14035A00887000203F2000030C302000708808080838000071
:14036E0038202121221C00180808F8080818000000203F20DC
:1403820000000008F808000008F808001F202020201F000891
:1403960078880000C83808000007380E010000F80800F80005
:1403AA0008F800033C0700073C030008186880806818082083
:1403BE00302C03032C30200838C800C83808000000203F20BE
:1403D20000000010080808C8380800203826212020180000F0
:1403E6000000FE020202000000007F40404000000C30C000C4
:1403FA00000000000000010638C00000020202FE00000000EC
:14040E004040407F000000000004020202040000000000008D
:140422000000000000000000000000808080808080808010B6
:14043600160E0000000000000000000000000000008080800E
:14044A008000000019242222223F2008F8008080000000001C
:14045E003F112020110E000000008080800000000E112020FC
:14047200201100000000808088F800000E112020103F2000F7
:1404860000808080800000001F222222221300008080F08830
:14049A008888180020203F20200000000080808080800000E7
:1404AE006B94949493600008F8008080800000203F21000020
:1404C200203F2000809898000000000020203F202000000038
:1404D6000000809898000000C08080807F000008F800008023
:1404EA00808000203F24022D302000000808F80000000000F4
:1404FE0020203F202000008080808080808000203F20003FED
:1405120020003F8080008080800000203F210000203F2000F7
:1405260000808080800000001F202020201F00808000808003
:14053A0000000080FFA12020110E000000008080808000002E
:14054E000E112020A0FF80808080008080800020203F21205B
:14056200000100000080808080800000332424242419000028
:140576008080E0808000000000001F20200000808000000032
:14058A00808000001F202020103F208080800000808080006F
:14059E00010E300806010080800080008080800F300C030CA1
:1405B200300F0000808000808080000020312E0E3120008018
:1405C6008080000080808080818E7018060100008080808083
:1405DA008080000021302C2221300000000000807C0202001D
:1405EE00000000003F404000000000FF00000000000000FF3C
:140602000000000002027C800000000040403F000000000025
:14061600060101020204040000000000000000008060F807DD
:14062A00000404844424140C040000010000FF0000384641E5
:14063E0040404040407800202424A4FE23222000F808080871
:14065200F8000010080601FF010600003F1010103F000000C9
:1406660000F888888888FF88888888F800000000001F080822
:14067A0008087F888888889F80F00080828282828282E2A29E
:14068E00928A8682808000000000000040807F0000000000F5
:1406A2000000003132330D0A0032344C30312B3A5458200053
:1406B60079686D63752E74616F62616F2E636F6D0041565210
:1406CA0020626F6172640000CFE5D4E0CDBFDEBFCE51D04034
:1406DE000AEA08830024EDE8F0E010E0ED38F10711F001921F
:1406F200FBCF0083E5EAF6E0A0E6B0E016E000E00BBFE23D2D
:14070600F10721F0C89531960D92F9CF01D0FFCF609786E24D
:14071A0090E0FE0136960AE010E0FA93EA939A938A937AD414
:14072E0044275527BED0C7D0C798BF9AC69ABE986DD20027D7
:1407420040D2002732D282B3836082BB81B3836081BB9BD350
:14075600C7D282E890E09983888328E102E050D381E790E00F
:14076A0099838883222704E049D386E690E0998388832227BF
:14077E0006E042D3CE0106969983888320E506E03BD387C09A
:1407920080E08A838B838C838D8310C081E090E0A0E0B0E008
:1407A6002A803B804C805D80280E391E4A1E5B1E2A823B825A
:1407BA004C825D8288E893E1A0E0B0E02A803B804C805D807C
:1407CE00281639064A065B0618F3C9D0C1D000E610E0A1D36A
:1407E200202F00E610E020D1C79ABF9AB699FECFEDD0A02E8C
:1407F600AA20E1F3C798BF9A05FF43C083E022B2282622BA31
:14080A0081B3836081BB4F5F5F4FBA0120E137E28B0191D366
:14081E00C801C0968E8320E137E28B0188D3B80128EE33E0B3
:1408320086D3C801C0968F8328EE33E08B017DD3B80124E660
:1408460030E07BD3C801C096888724E630E08B0172D3B8016E
:14085A002AE030E070D3C801C09689872AE030E08B0167D31E
:14086E00B801CB01C0968A8722242B86CE0106969983888301
:1408820020E506E0BFD2A4FE06C082B38C7F82BB81B38360EA
:1408960081BBA6FE00C000E785D078CF609608950FB9779BBE
:1408AA00FECF0FB1089588B38C6288BB87B38C6387BBBC98E5
:1408BE0080E58DB90895C098B89A089500918C00089500934A
:1408D2008C00002319F4C798BF9A02C0C79ABF9A0895AA9249
:1408E600A02EC298BA9A0A2DDBDF0FEFD9DFA02EC29ABA9A5D
:1408FA00A990089571D3C22E402FE2DFA02E0027E2DFC298A0
:14090E00BA9A042F0062C8DF0C2DC6DFC29ABA9A0A2DD7DFCA
:1409220066C33BD3A901602FEA84CEDFA02E0027CEDFC2983A
:14093600BA9A062F0062B4DFCC2407C0EC2DFF27E40FF51F32
:14094A000081ACDFC394CE14B8F3C29ABA9A0A2DBADF14C352
:14095E00C298BA9A01EEA0DFC29ABA9A0895C298BA9A02EE7E
:1409720099DFC29ABA9A0895C298BA9A03EE92DFC29ABA9AEC
:140986000895C298BA9A0FEF8BDFC29ABA9A0895AA92C298C7
:14099A00BA9A07E083DFA02EC29ABA9AA9900895AA924A933F
:1409AE00402F4077F1DFA02EC298BA9A242F202B07E09EDFC1
:1409C200C29ABA9AE7DF4991A9900895E3DF00770895AA92E9
:1409D600C298BA9A00E664DF0FEF62DFA02EC29ABA9AA99040
:1409EA000895D9D2680107E078DF402F46954770ECDFA02E70
:1409FE00C298BA9A01E650DF442709C00FEF4CDFE02EE42FA3
:140A1200FF27EC0DFD1DE08243954A15A8F3C29ABA9AA3DF31
:140A26000A2DA5C2BAD2A22E780180E28A1518F440E250E0EA
:140A3A0002C04A2D5527C42E8DDFC298BA9A00EA2DDFAA2423
:140A4E0007C0EA2DFF27EE0DFF1D008125DFA394AC14B8F352
:140A6200C29ABA9A86C2A4D2422F580180E2841710F04423E4
:140A760009F410C0C298BA9A00EB12DF04C0F50101915F0169
:140A8A000DDF242E332441502220B9F7C29ABA9A90C281D2EB
:140A9E00A22E780180E28A1518F440E250E002C04A2D5527E7
:140AB200C42EC298BA9A08EAF5DEAA2407C0EA2DFF27EE0DFE
:140AC600FF1D0081EDDEA394AC14B8F3C29ABA9A4EC284D2FC
:140ADA00C22E5801219785E08C1518F445E050E002C04C2D65
:140AEE005527C42EC882950100E115DF219679C250D2590163
:140B0200E02E2197C98485E08C1518F445E050E002C04C2D2A
:140B16005527C42E85E08E1518F445E050E002C04E2D55273B
:140B2A00C8829501042F065FF8DE21961EC24A936A93602F69
:140B3E0006E0D1DE402F477D662311F4406207C0613011F44E
:140B5200477D03C0623009F44860242F06E0CEDE6991499118
:140B660008952ED2A02E06E0BADE402F487F6A2D7727603097
:140B7A00670769F06130E0E07E0751F06230E0E07E0741F081
:140B8E006330E0E07E0731F006C005C0426003C0446001C005
:140BA2004660242F06E0AADE14C24A93402F242F2F7705E0D8
:140BB600A3DE4991089507E192DE007108954A936A93602F64
:140BCA0000278BDE402F662321F44E7F00277BDE05C06130D7
:140BDE0019F4416001E075DE242F002789DE699149910895CF
:140BF2004A93002776DE402F242F2D7F00277EDE499108952F
:140C06004A9300276CDE402F242F2260002774DE4991089558
:140C1A00AA92269780E390E0FE01319605E010E0FA93EA9355
:140C2E009A938A93F7D14ADEA02E00274ADEDADF00E7B4DE29
:140C420021E00CE15BDE26E00DE158DE0CE149DE0DE147DE26
:140C560028E0002751DE21E001E04EDE21E002E04BDE23E00F
:140C6A0003E048DE2FE804E045DE222705E042DE27E206E012
:140C7E003FDE25E08E010F5F1F4F27DF85E088839E012F5F32
:140C92003F4F002733DFB6DF2696A9900895AED1C22EA02E23
:140CA600688579852C2D0A2D64D0442707C01B016F5F7F4FA1
:140CBA00F1010491C4D043954031B8F32C2D0A2D0F5F55D0F4
:140CCE00442707C01B016F5F7F4FF1010491B5D043954031D3
:140CE200B8F395C1AA922297AA2400E21A2D0103100185E295
:140CF60096E0280E391E3982288200E10103202D205E0027AB
:140D0A00CADFA39400E21A2D0103100185E296E0280E391E4D
:140D1E003982288200E10103202D205E0027B9DFA39400E2D4
:140D32001A2D0103100185E296E0280E391E3982288200E1A1
:140D46000103202D205E0027A8DFA39400E21A2D01031001A7
:140D5A0085E296E0280E391E3982288200E10103202D205E06
:140D6E00002797DF2296A99008954A936A93422F602F062F37
:140D82000770005554D0042F02950F700F70005F4ED0042FF5
:140D96000F704BD06991499108952ED1C22EA02E4885403242
:140DAA0008F42BC000E1142F0103B001605072402C2D0A2D83
:140DBE00DCDF44270BC01B016F5F7F4F85E390E0F101E80FB7
:140DD200F91F049138D04395483098F32C2D0A2D0F5FC9DFD7
:140DE60044270BC01B016F5F7F4F85E390E0F101E80FF91F32
:140DFA00049125D04395483098F305C1EDD0422FC02E2197E6
:140E0E00AF80B88408C0F50121905F012882242F0C2DBFDFC2
:140E2200485FF50120802220A1F72196E0C0AA92A02EC198EB
:140E3600B99A97988F9A0A2D33DDC19AB99AA9900895AA92F6
:140E4A00A02EC198B99A979A8F9A0A2D27DDC19AB99AA9909E
:140E5E000895B2D0A02E44270FC0042F0055E1DF01E0DFDF72
:140E720000E1DDDF662703C00A2DE5DF63956038D8F3439551
:140E8600483078F3A4C04A935A9396988E9A4427552702C048
:140E9A004F5F5F4F483EE3E05E07D0F3969A8E9A0EEAC1DF87
:140EAE000027BFDF00E1BDDF00E4BBDF01E8B9DF0FECB7DF5E
:140EC20001EAB5DF08ECB3DF06EAB1DF08EAAFDF0FE3ADDF99
:140ED60003EDABDF0027A9DF05EDA7DF00E8A5DF09EDA3DF83
:140EEA0001EFA1DF0AED9FDF02E19DDF0BED9BDF00E499DFE2
:140EFE0000E297DF02E095DF0DE893DF04E191DF04EA8FDF1A
:140F120006EA8DDF0FEA8BDF0027A1DF599149910895E02FF5
:140F2600F12FAA27BB270190002011F01196FBCF0A2F1B2F3E
:140F3A000895689401C0E894EA92FA928A93EE24FF2480E112
:140F4E00000F111FEE1CFF1CE216F30618F0E21AF30A0395A1
:140F62008A95A1F716F40E2D1F2D8991F990E9900895A99041
:140F7600B990C990D990E990F990499159910895A990B99077
:140F8A00C990D990E990F990499159916991799108957A931D
:140F9E006A935A934A93FA92EA92DA92CA92BA92AA92089583
:140FB2005A934A93BA92AA920895A990B99049915991089559
:140FC6007A936A935A934A93BA92AA920895A990B9904991C2
:140FDA0059916991799108955A934A93DA92CA92BA92AA925E
:140FEE000895A990B990C990D9904991599108957A936A93A3
:141002005A934A93DA92CA92BA92AA920895A990B990C99048
:14101600D99049915991699179910895AA93BA93EA93FA9364
:14102A000A92AF81B885ED81FE810030010731F0C8950D9267
:14103E00319601501040F7CF0990F991E991B991A991249695
:021052000895FF
:00000001FF
