:020000040000FA
:0600000002000E020CE7F5
:20000B0002493F75D000759F00758F10758114750F15750E1D12142BE4FFFE1206C5120575
:20002B00793200000000502FEA00000000C0A86401000000000000000000000000000000D4
:20004B00000000000000000000000000000000000000000000000000000000000000000095
:20006B00000000000000000000000000000000000000000000000000000000000000000075
:20008B00000000000000000000000000000000000000000000000000000000000000000055
:2000AB00000000000000000000000000000000000000000000000000000000000000000035
:2000CB000000000000000000000143000000000000000000000000000000000000000000D1
:2000EB000000000000000000000000000000000000000000000000000000000000000000F5
:20010B000000000000000000000000000000000000000000000000000000000000000000D4
:20012B000000000000000000000000000000000000000000000000000000000000000000B4
:20014B000000000000000000000000000000000000000000000000000000004D4E4F600842
:20016B00CCA2E730D201B3EC2212018C02420D1202137007123DEA7002E422740122024043
:20018B007074FFFFFEFDFC12344BE4FFFEFDFC12344B7F207EA17D077C001202CF7B080259
:2001AB0049F674021246538F118E10900538E0FF60031206917E0D7F5E1234CFE51124E85F
:2001CB00FFE5103403FE7D011202091249F6900538F0900537E0FF60031206917E077F8205
:2001EB001234CFE51124D0FFE5103407FE7D021202091249F6900537F079020245D97A0505
:20020B007BDC12057B7B02227402124653900538E0FF12096BEE20E7338F038E027C0D7DA8
:20022B005E7E137F3A1219E01202701241718F118E10E51020E7114511600D120268B4F882
:20024B0007AB11AA101202787401800CBFF608BEFF05C295120270E479020245D9900537E4
:20026B00E0FF02086E900538E0FF020A817C137D3A7E077F821219E0900537E0FFE4FBFA88
:20028B00AD11AC10020784120268B4F8057F827E0722E4FFFE22010200080000000605015D
:2002AB000400002D013905020539000013DD0074021246538F118E108F038E02120278790D
:2002CB00020245D97914124658E4123DCA74FFFAF9F87FF98A06890588047404123DCA7A2C
:2002EB000074FFFFFEFDFC7410123DCA1205097819791712051A123298E81205101231D07D
:20030B001236CB7408123DCAE41249EBC082C0837408124562D083D082124259123298E830
:20032B001247BC12425412329812051A1243E6740C123DCA740C124562EC30E708121D425F
:20034B00740C123DCA74101249EBC082C083740C124562D083D0821227EF501CE4FEFDFC5D
:20036B0074081249EB7F20123292500C740C1245627410123DCAAA0018D90280030202FEE7
:20038B008A007494C86480C398401A12051A123298EA1205101231D01236CB120523C454C9
:2003AB00F024EF80428A007486C86480C398401712051A123298EA1205101231D01236CB47
:2003CB00120523240C80208A007483C86480C398405912051A123298EA1205101231D012A4
:2003EB0036CB12052324FD900107F0E0C4540F5407FA900106E0F9780009B90001081205E8
:20040B001A123298900107E0540F2AFBE433FAEB2403FDE43AFC8907880612433E12476532
:20042B001231D01236CB7404123DCA74041245628F038E028D018C00E8047010E904700CB8
:20044B00EA047008EB64F970030204FF9001047403F090010814F090010D7460F07418C024
:20046B00E07414124562D0E0122A4D900110EFF07410C0E07414124562D0E0122A4D900168
:20048B0011EFF07408C0E07414124562D0E0122A4D900112EFF0A3C082C08374171245BE81
:2004AB00D083D082F07418C0E0124562D0E0122A4D900114EFF07410C0E07418124562D0C1
:2004CB00E0122A4D900115EFF07408C0E07418124562D0E0122A4D900116EFF0A3C082C05E
:2004EB0083741B1245BED083D082F012050914F0D2A8D2AF74041245627B140245CD9001B1
:20050B00007401F0221247BCE41249EB0242597C017D517E807F00227408123DCA74081260
:20052B004562EF14900106F0EA227800900100E05401600478FE801E900102E0F9FB33958E
:20054B00E0FAEB5480FDE4FC4D600478FC8007E95440600278FBE82278FF900100E05401D5
:20056B006007900100E4F07800E82202050980FE74041246538D048B138A12C006C00774A5
:20058B00041245818F038E02D007D0067DFA79AB780475F00075100A120651E07072E92462
:2005AB000212066D7D051231C0E9240412066DE92406FFE43812067CE9240AFFE438120682
:2005CB007CBC010A120651740112068B8034BC020F120651740712068B120663E4F0802A4B
:2005EB00BC030F120651740A12064074401206338010BC0417120651740B120656E512F040
:20060B00E513120663E512F0E513A3F0ADF0801205F0E9240EF9E438F81510E5106003021F
:20062B0005A3ED79040245D9F0E92408FBE43812064DE4F022F0890388020BBB00010A022D
:20064B000EE6FA020EE68982888322120640E4F0E92408FBE43880EAA3F0E9240CFBE438EE
:20066B0080E0F511E438F510120EEBEEF0EFA3F022FE120686EAF0EBA3F0228F828E832201
:20068B00120656E4F02278FD1206BA4015EFFD3395E0FC1206AFF9EE3404F8120651E4F0A4
:2006AB007800E8227E007F0E12433EEF24AB22EF6480790AC96480D399227906740412464F
:2006CB005D12081A12463712126E1245CA12076A2402120777124604EF4E70F91209B270C4
:2006EB002812076AC3C0E0C0D074051245BEFFD0D0D0E09FEEC0E0C0D074041245BEFFD05B
:20070B00D0D0E09F12076F600E12076A24321207771208B1120AD275110012076A2404F571
:20072B0013E43EF512E4A2B333F510801CE51024FF30B301B35012E4A2B333F51020B30907
:20074B0005117E007F0A12499112076AC39513EE951212076F60D6AF11120B570206E01216
:20076B0049BCEF2220E703740122E422F9E43EF88907880674040240F774021246538F011E
:20078B0078FDE964807E0ACE6480D39E4065E9FF120804858211858310E0B40756EB4A6000
:2007AB0002800BE511240AFBE43510120811E5112406FFE4351012067CE5112408FBE4351C
:2007CB001012064DECF0EDA3F09004AAE0700A900102E0540460F88013120EEB7402F090EE
:2007EB0004AAE0700C120EEBE0B40205890712100E7800E879020245D93395E0FE9004AB9E
:20080B0075F00E0244E912064DE0FAA3E0FB227902124658E41249EB7482F074011249EB56
:20082B007403F0124B757FBA7E1912135312491412476C7FC8C007E4120866D0077A007BBA
:20084B00011247047FC8C0077401120866D0077A007B011247047B020245CD1249E28F05A0
:20086B008E04228F0079FDE8120893401912089D6402600612089DB4090479F780081208B9
:20088B009DB4070279F8E92264807A0ACA6480D39A22E8FD3395E0FC80001206AFFBEE34E5
:2008AB000412064DE0227902124658E41208667FC87A007B021246927C00E41245BEFD7E1B
:2008CB00007F2D12433E7D05122D08900776E0F8A3E0F92FFFEE38FE7C017D68121E95909B
:2008EB000772ECF0EDA3F0900778E0F93395E0F874011245BEC399FBE498FA30E705E4F940
:20090B00F880048B018A00E86480247F500279FFE9780025E0FFE833FE9015BA1209609019
:20092B000774E8F0E9A3F09017BA12096090077BE8F0E9A3F090077DE070059007748003A4
:20094B0090077BE0F8A3E0F9900779E8F0E9A3F07B020245CD124500E493F8740193F92248
:20096B0079FD78FFEF12089340251209A9E014600924FC6011146008801579F778FF800F45
:20098B0079F678FF8009EB2408F9E43A12099F8907880622F8120651E0F8A3E0F922EF12DD
:2009AB000804AB82AA83227901124658124BFAFF7E007006BE0003C38001D392F0C007C04F
:2009CB00D0A2F0E433FFE4124164D0D0D007506B900A5D75F00074091248A6805E90077FFA
:2009EB00E4F090077EE4F0120FC7F0804E90077FE004F0E0F87483C86480D398403D9007A5
:200A0B007FE4F0803690077EE004F0120A53402B90077EE4F08024120FD2401F80C97F0157
:200A2B00124B4280167F02124B42800F7F03124B428008124B398003120BC7E41245BE2404
:200A4B00FFE4337B010245CDE0F87481C86480D39822000109E8000209F800030A100004C9
:200A6B000A2200050A2900060A3000070A3700080A3E00100A4378FD1206BA4048EF1208FA
:200A8B0004A982A883E0FA64056003BA06047A01800FEA64026008EA64086003BA09027ACD
:200AAB0007120651EAF0E9240AFBE438120811E92406FDE438FC8D828C83EAF0EBA31206C2
:200ACB0033A3F0E4F8E822124B0E90077FE0600B14601114601714601D8025120B337FC9B5
:200AEB007E198019120B337FD07E198010120B337FD57E198007120B337FDB7E191213537A
:200B0B0090077EE0600514600B80137F0C7D001211C1800A7F0C7D00124AA91211D07F0663
:200B2B007D01124AA9020FE4900770120B3E7B01021385120B44024688E0FEA3E0FF228087
:200B4B000078FD1206BA4002E4F8E822780090077FE014600814600914600A800C790B80A6
:200B6B000A792880067919800279167B117A047D107C047E958B828A83E08D828C83F00D57
:200B8B00BD00010C8B828A83E0F5F028F80BBB00010ADEE19004A5EFF0E82FF5F0E9A4FD53
:200BAB00ACF07E007F1912433E7C007D96121E95900770EEF0EFA3F022020B4C74041246DF
:200BCB0053E4F511F510751200751301020CC7E512602214604914606E147003020C7714AB
:200BEB007003020C7F24FA7003020C87147003020CB6020CBFE513600A124B0E7E1A7F4E7A
:200C0B00120CD6E5106003020CBFE51114606824FE7003020CB9147003020CB1020CBFE58A
:200C2B0013600A124B0E7E1A7F6D120CD6E5106003020CBFE51114600924FE603214606623
:200C4B008072751203806AE513600A124B0E7E1A7F7E120CD6E510705BE51114600924FE78
:200C6B006015146041804D7512048045120EF7751202803D1211207512018035E513600AE3
:200C8B00124B0E7E1A7F8D120CD6E5107026E51114600924FE600A14600C801875120B8092
:200CAB0010751200800B7512FF80091211D975120A751301124BFAF511751000E512B4FF56
:200CCB00028003020BDA79040245D9121353120FA97E1A7F5C12135375130022C007C0E0C2
:200CEB00C0F0C082C083C000C001C002C003C004C005C006C0D075D000790A740412465DDA
:200D0B00900103E0540260329004A9E0F89004AAE4F09004A9E004FDB40A027D009004A9AD
:200D2B00EDF0120EF264026006120EF2B409078D0712100E8004EDB500D8900103E054018C
:200D4B007003020EC47511AB751004780A120EEBE0B401028003020EAC900111E0FAA3E025
:200D6B00FBE5112404FDE43510FC8D828C83E0FCA3E0FDEBB505028003020EACEAB5040228
:200D8B008003020EACE5112406FFC007C0D07409124164D0D0D007E43510FEC0078E0774F1
:200DAB0008124164D007121109FCA3E0FDE5112408FFC007C0D07407124164D0D0D007E4E5
:200DCB003510FEC0078E077406124164D007121109F512A3E0F513900110E0540FFE7B1333
:200DEB007A0164086013900113E07B147A0164076006120EEB7405F01EEEF93395E0F8E531
:200E0B001329FFC0D07405124164D0D0E51238FF7404124164E511240CF9E4351012099FCD
:200E2B0074051245BED399C0D074041245BED0D09830D202B2E730E7601EEE2401F8648037
:200E4B00247F5015120EE6E08D828C83F00BBB00010A0DBD00010CD8EB74081245811206B4
:200E6B0086ECF0EDC0E0C082C0837406124581D083D082D0E0A3F0120686C082C08374041E
:200E8B001245BED083D082F0C082C08374051245BED083D082A3F0801A120EEB7406F080C3
:200EAB0012E511240EF511E43510F510D8028003020D589001017404F079047B0A1245D3CF
:200ECB00D0D0D006D005D004D003D002D001D000D083D082D0F0D0E0D007328B828A832248
:200EEB00851182851083227C000208A57403124653751201121002120FB060421208B1124C
:200F0B004B0E7E1A7F98121353120FE4120FA97E1A7FA01213537FDF124ACB90077DE0606F
:200F2B00047F4380027F46124ACB7D017F09124AA97E1A7FA5121353751200121002124B2B
:200F4B00FAFB7A00EA704AEB24FE600814600F146021803D120FD24035120FC7802F900793
:200F6B0078E0F864807932C96480D3994019E8F9098016900778E0F8F9744EC96480D399DA
:200F8B004005E8F9198002E8F9900778E9F0751201EB144A6003020F0279030245D97D015B
:200FAB007F00024AA912076AC39511EE951012076F6006751201121002E5122290077DE488
:200FCB00F09004A874432290077DE004F09004A87446F090077D020A53900779120B44123D
:200FEB004765120FF89004A8E0FF024ACB7B001213857FDF024ACB12076A2432F511E43E54
:20100B00F510221209A9EB2404F9E43A12099F900111E8F0E9A3F07D137C01120EE6E0B459
:20102B00030E75F00085F000120EE6740A0210BB120EE6E0B40914EB2408F9E43AF8120674
:20104B0051121115780275F0018060EB2408FFE43AFE12110E24F8E86480347F501775F072
:20106B000885F0001206867E007F081249CF120EE67402803B12110EB40721B8001E900170
:20108B00137407F07D147C01F875F006120686E4F07401A3F0120EE6740980141206861215
:2010AB001115120686A3E0F5F004F8120EE67407F08B078A060FBF00010E121109289001A8
:2010CB0010F015F0EB2406F9E43AF8E5F02401FA6480247F501D120651E0FEA3E0FF121108
:2010EB00098D828C83F01206511244A00DBD00010CDAE39001017401F09004AAF02212067C
:20110B0086E022121109F8A3E022A3E0900113F07D147C012274031246537512011210025E
:20112B00120FB060271208B1124B0E7E1A7FE11213531211D07D007F0A1211C1120FA97E81
:20114B001A7FE7121353751200121002124BFAF97800E8704EE924FE600814600C146024E8
:20116B008041900776E4F080359007761211BB64677005EA640160070BBB00010A8019E4DE
:20118B00FBFA80149007761211BB4A60071BBBFF011A80047B677A01900776EAF0EBA3F0E9
:2011AB00751201E91448600302112B79030245D9E0FAA3E0FB22124AA9900772120B44121F
:2011CB001274021353900772120B3E020FF874041246537510019004A6E0F512A3E0F51354
:2011EB00E5106022124B0E7E1A7FF712135312126E1246887B00121385120FA97E1B7F0201
:20120B00121353751000124BFAF97800E8703BE924FD600514601680319004A61211BB2485
:20122B00FCEA34FF40190BBB00010A80129004A61211BB24FEEA34FF50051BBBFF011A90A2
:20124B0004A6EAF0EBA3F0751001E91448709112126E65137005E5126E60031245CA7904D0
:20126B000245D99004A6020B44EF24F4EE34FF5008EF24A3EE34FE50077F127E1B0213527A
:20128B00EF24DEEE34FF40077F167E1B021352EF24C7EE34FF40077F1A7E1B021352EF2467
:2012AB00B1EE34FF40077F1E7E1B021352EF249AEE34FF40077F8F7E4C021352EF2484EE94
:2012CB0034FF40067F8B7E4C807DEF246DEE34FF40067F877E4C806FEF2457EE34FF400642
:2012EB007F837E4C8061EF2440EE34FF40067F7F7E4C8053EF242AEE34FF40067F7B7E4C79
:20130B008045EF2413EE34FF40057F777E4C22EF24FDEE34FE40057F737E4C22EF24E6EE55
:20132B0034FE40057F3B7E4C22EF24D0EE34FE40057F377E4C22EF24B9EE34FE40057F33B8
:20134B007E4C227F2F7E4C2274021246538F118E108008121372E493121379121372E4935B
:20136B0070F179020245D985118285108322FF0511E51170020510024ACB79107402124614
:20138B005D7402123DCA780088017402124562EC30E70A121D427402123DCA790174101209
:2013AB0049EB85821185831012141EE4F01511E511B4FF0215101214121228CCEF2430121D
:2013CB001372F01214121248E308E8B5030612141E742EF07402124562EF4E4D4C70CEEB66
:2013EB00C39830E702B2D230D2C3E9600612141E742DF0121372E0121379121372E070F312
:20140B0079027B100245D3E4FEFDFC74021249EB7F0A221511E511B4FF02151002137222C0
:20142B009002A1E49360F8FFA3E493A3FEE493A3F8E493A3F9E493A3FAE493A3FBE493A37D
:20144B00FCE493FDA3EE54017046EF64016033EF6403602EBF09028029BF0407AE83AF820B
:20146B00021511BF06028021AE83AF8288838982E4F0A31DBDFF011CEC4D70F48E838F822D
:20148B0080A1E4F709DDFB809AE4F309DDFB8093EF64016045EF64036040BF0902803BBF4C
:2014AB00040AAE83AF828A838B82805ABF0602803FAE83AF828A838B82E493A3AA83AB8247
:2014CB0088838982F0A3A883A9821DBDFF011CEC4D70E28E838F8202142EAE83AF828A83AC
:2014EB008B82E493F709A3DDF98E838F8202142EAE83AF828A838B82E493F309A3DDF98E88
:20150B00838F8202142EE975F008842420F8E6FCE5F06005CC03DCFDCCBD0014E9540760CD
:20152B0006EC03FC0980F5ECF68E838F8202142EEB4A6003E493A3C36001D3EC13FC091D1F
:20154B00E9540770D4ECF680BD8F018E00E4FFFE75F00089828883E024F7FA09B90001089F
:20156B00EAD3940440EDEA641760E8BA240575F001800AEA6422600519B9FF01188982880C
:20158B0083E024D0FA09B90001087409C39A401EE5F06004EAF404FA8F058E047E007F0AAA
:2015AB0012433EEAFD3395E0FC124BF380CF2200C800B2009100800074006C006500600011
:2015CB005B005700540051004E004B00490047004500430041003F003E003C003B003A0089
:2015EB003800370036003500340033003200310030002F002E002D002C002C002B002A00D5
:20160B00290029002800270026002600250025002400230023002200220021002000200079
:20162B001F001F001E001E001D001D001C001C001B001B001A001A001A00190019001800E5
:20164B00180017001700170016001600150015001500140014001300130013001200120032
:20166B001100110011001000100010000F000F000F000E000E000E000D000D000D000C0072
:20168B000C000C000B000B000B000A000A000A0009000900090008000800080008000700A6
:2016AB000700070006000600060005000500050004000400040004000300030003000200D5
:2016CB000200020001000100010001000000000000FFFFFFFFFFFFFFFFFFFEFFFEFFFEFF09
:2016EB00FDFFFDFFFDFFFCFFFCFFFCFFFCFFFBFFFBFFFBFFFAFFFAFFFAFFF9FFF9FFF9FF3E
:20170B00F9FFF8FFF8FFF8FFF7FFF7FFF7FFF6FFF6FFF6FFF5FFF5FFF5FFF4FFF4FFF4FF6B
:20172B00F4FFF3FFF3FFF3FFF2FFF2FFF2FFF1FFF1FFF0FFF0FFF0FFEFFFEFFFEFFFEEFF9E
:20174B00EEFFEEFFEDFFEDFFECFFECFFECFFEBFFEBFFEAFFEAFFEAFFE9FFE9FFE8FFE8FFDE
:20176B00E7FFE7FFE6FFE6FFE6FFE5FFE5FFE4FFE3FFE3FFE2FFE2FFE1FFE1FFE0FFDFFF35
:20178B00DFFFDEFFDDFFDDFFDCFFDBFFDAFFD9FFD9FFD8FFD7FFD6FFD5FFD3FFD2FFD1FFC4
:2017AB00CFFFCDFFCBFFC9FFC7FFC3FFBFFFB7019001600125010600F100E200D600CD0060
:2017CB00C400BD00B700B100AC00A700A3009F009C009800950092008F008D008A008800F7
:2017EB008500830081007F007D007B0079007800760074007300710070006E006D006C0068
:20180B006A006900680066006500640063006200610060005E005D005C005B005A005900A8
:20182B00580057005700560055005400530052005100500050004F004E004D004C004C0080
:20184B004B004A004900490048004700460046004500440044004300420041004100400027
:20186B003F003F003E003E003D003C003C003B003A003A00390039003800370037003600B1
:20188B00360035003400340033003300320031003100300030002F002F002E002E002D0029
:2018AB002C002C002B002B002A002A00290029002800280027002600260025002500240098
:2018CB00240023002300220022002100210020001F001F001E001E001D001D001C001C0001
:2018EB001B001B001A001A001900190018001700170016001600150015001400140013006A
:20190B001300120011001100100010000F000F000E000E000D000C000C000B000B000A00D6
:20192B000A000900080008000700070006000500050004000300030002000100010000004D
:20194B0000FFFFFFFEFFFDFFFDFFFCFFFBFFFBFFFAFFF9FFF8FFF8FFF7FFF6FFF5FFF5FFE9
:20196B00F4FFF3FFF2FFF1FFF0FFEFFFEFFFEEFFEDFFECFFEBFFEAFFE9FFE8FFE6FFE5FF9C
:20198B00E4FFE3FFE2FFE0FFDFFFDEFFDCFFDBFFD9FFD7FFD6FFD4FFD2FFD0FFCDFFCBFFBB
:2019AB00C8FFC5FFC1FFBDFFB9FFB3FFAAFF9D2020496E697469616C697A696E6700204BCF
:2019CB006E6F747300206D2F7300206B6D2F6800204D504800790412465874021240F78DFC
:2019EB00078C06E41240F78B018A0074021245818F038E02E9486041AD01AC00ED60010C0A
:201A0B0019B9FF0118E41245818F828E83E08B828A83F00BBB00010A74011245BEFF0FC0E0
:201A2B00077401124164D007BF000AE41245BEFF0FE4124164DDC9DCC774021245817B0410
:201A4B000245CD202043414C4942524154494F4E004F6B20202020206E65787420204573EE
:201A6B00630043616C3A2074656D70657261747572650043616C3A20646972656374696F23
:201A8B006E00202020202053455455500054656D70203D20004F6B2020002B202020202DB7
:201AAB00007902124658C006C007E41240F7D007D006EB4A6017A903A802E96001088F8224
:201ACB008E83EDF00FBF00010ED9F3D8F1E41245817B020245CD4469723A20004F6B204EAD
:201AEB006F727468202B202020202D0041646472657373203D20004F6B2020202020202049
:201B0B002B202020202D004E2020004E4E45004E452000454E45008F828E83E0FA0FBF001E
:201B2B00010EEAF93395E0F8E9B5050AE8B504061FBFFF011E22EA70DEE4FFFE2255696E2F
:201B4B0074313620003C48323E4854545020343034202D2046696C65206E6F7420666F75CB
:201B6B006E643C2F48323E003C48323E4854545020343930202D20496E76616C69642043DD
:201B8B0047492063616C6C3C2F48323E000A002053534947455400204347494745540020DF
:201BAB00494E464F4745540020000D0A0D0A00C000C001C002C003E0F8A3E0F9A3E0FAA346
:201BCB00E0FBC3EF9BFFEE9AFEED99FDEC98FCD003D002D001D000220D0A436F6E74656E64
:201BEB00742D747970653A2000323030204F4B00343931204552524F5220494E20434749DF
:201C0B002056414C554500343930204552524F5220494E204347492043414C4C0034303457
:201C2B002046494C45204E4F5420464F554E4400485454502F312E3020002F6367692F6796
:201C4B0065743F002F6367692F696E666F00C000C001C002E0F8A3E0F9A3E0FAA3E0C39F2B
:201C6B00FFEA9EFEE99DFDE89CFCD002D001D00022696E6465782E68746D6C002F2F0020C3
:201C8B000D0A00C0E0E581141414C8C618C9C618C9C618C9C618C9C618C9C608080808C629
:201CAB0008C9C6C8D0E02247455420003C212D2D236563686F207661723D2200C000C00126
:201CCB00C002E0F8A3E0F9A3E0FAA3E06FFFEA6EFEE96DFDE86CFCD002D001D000220707D9
:201CEB00741D570000000027470707721D330000000027470707701D28000000002747070D
:201D0B0004A61D200000006427470000000000000000000000616464726573730077696ECB
:201D2B00645F73706565640077696E645F646972656374696F6E00EFF42401FFEEF43400D5
:201D4B00FEEDF43400FDECF43400FC2274656D7065726174757265001D82235403F31D75EA
:201D6B001F3004240000000000002F66657463682E7368746D6C002F636769666F726D2E0E
:201D8B0068746D6C001F2C1E8A1E851E7B1E771E7B1E731E691E641DC21DBE1DC21DBA1DFF
:201DAB00B000000000696D6167652F706E6700706E67006A706700696D6167652F6A7065FA
:201DCB006700EF4E4D4C7002D322E8C0E0E9C0E0EAC0E0EBC0E0E4C0E0C0E0C0E0C0E07A50
:201DEB00207B04E58124F3F8E67013EA24F8FA080808E4C618C618C618F6DBED80427B04C6
:201E0B00E581F924F6F8C3E633F618DBFA7B04E733F719DBFAC3E581F8E69F18E69E18E6C9
:201E2B009D18E69C4018E58124F6F806C3A881E69FF618E69EF618E69DF618E69CF6DABED8
:201E4B00D0E0FFD0E0FED0E0FDD0E0FCD0E0FBD0E0FAD0E0F9D0E0F8226A70656700696D7D
:201E6B006167652F676966006769660068746D00746578742F68746D6C0068746D6C007474
:201E8B006578742F706C61696E00BC0014BD0002D322BE004FC5F08DF0CF84CFADF0C5F06C
:201EAB0022BE0008EFFDEEFCE4FFFE22C3EF9DEE9C40F1C0F0E8C0E0E9C0E0E4F97801C372
:201ECB00EF33FFEE33FEE933F9EE9DF5F0E99CB35003F9AEF0E833F850E5E9FCEEFDE8FF11
:201EEB007E008033C0F0E8C0E0E9C0E07809EFF97F008DF0ACF0EE84FEE5F0C35006CF3384
:201F0B00CF9C80089C50012CCFB333CFC925E0C9FD35E0D8E77C00D0E0F9D0E0F8D0F0C36E
:201F2B0022747874003C21444F43545950452048544D4C205055424C494320222D2F2F5747
:201F4B0033432F2F4454442048544D4C20342E30205472616E736974696F6E616C2F2F4504
:201F6B004E223E0D0A3C68746D6C3E0D0A3C686561643E0D0A3C4D45544120687474702DB8
:201F8B0065717569763D22436F6E74656E742D547970652220636F6E74656E743D2274658E
:201FAB0078742F68746D6C3B20636861727365743D69736F2D383835392D31223E0D0A3C5D
:201FCB004D45544120485454502D45515549563D22507261676D612220434F4E54454E54A4
:201FEB003D226E6F2D6361636865223E0D0A3C4D45544120485454502D45515549563D2229
:20200B00457870697265732220434F4E54454E543D222D31223E0D0A3C7363726970742053
:20202B006C616E67756167653D224A617661536372697074223E0D0A3C212D2D0D0A6675DB
:20204B006E6374696F6E2075706461746528290D0A7B0D0A0976617220737472203D206E97
:20206B00657720417272617928293B0D0A097661722073203D206C6F636174696F6E2E6866
:20208B007265663B0D0A09737472203D20732E73706C69742820223F2220293B0D0A0D0A7D
:2020AB000969662028207374722E6C656E67746820213D203220290D0A097B0D0A0909618E
:2020CB006C657274282022496C6C6567616C20706172616D657465726C697374206F6E2060
:2020EB0066657463682220293B0D0A097D0D0A09656C73650D0A097B0D0A2F2F09096C6FC2
:20210B00636174696F6E2E7265706C61636528207374725B315D202B20223F776469723DE3
:20212B0022202B206576616C284D6174682E666C6F6F72284D6174682E72616E646F6D28D4
:20214B0029202A203336302929202B0D0A2F2F0909090909202020222C7773706565643D96
:20216B0022202B206576616C284D6174682E666C6F6F72284D6174682E72616E646F6D2894
:20218B0029202A2036302929202B0D0A2F2F0909090909202020222C74656D703D22202BEE
:2021AB00206576616C284D6174682E666C6F6F72284D6174682E72616E646F6D2829202A4E
:2021CB00203630202D203230292920293B0D0A09090D0A09096C6F636174696F6E2E726519
:2021EB00706C61636528207374725B315D202B20223F776469723D22202B203C212D2D231F
:20220B006563686F207661723D2277696E645F646972656374696F6E222D2D3E202B0D0A5E
:20222B000909090909202020222C7773706565643D22202B203C212D2D236563686F207657
:20224B0061723D2277696E645F7370656564222D2D3E202B0D0A0909090909202020222C28
:20226B0074656D703D22202B203C212D2D236563686F207661723D2274656D706572617430
:20228B00757265222D2D3E20293B0D0A097D0D0A7D0D0A2F2F2D2D3E0D0A3C2F7363726938
:2022AB0070743E0D0A3C2F686561643E0D0A3C626F6479206F6E6C6F61643D22736574490D
:2022CB006E74657276616C28207570646174652C203330303020293B223E0D0A57656C6397
:2022EB006F6D65206174207765617468657273746174696F6E203C7363726970743E646F89
:20230B0063756D656E742E77726974656C6E2820272227202B206C6F636174696F6E2E68E1
:20232B006F7374202B2027222720293B3C2F7363726970743E0D0A3C2F626F64793E0D0A1A
:20234B003C2F68746D6C3E0D0A3C212D2D636F6D6D656E742D2D0D0A2F2A2A2A2A2A2A2A8D
:20236B002A2A2A2A2A2A2A2A2A2A2A2A2A2A2A2A2A2A2A2A2A2A2A2A2A2A2A2A2A2A2A2A12
:20238B002A2A2A2A2A2A2A2A2A2A2A2A2A2A2A2A2A2A2A2A2A2A2A2A2A2A0D0A2A2A0D0A6C
:2023AB002A2A2046696C652020202020202020203A206874747070616765732F636769660C
:2023CB006F726D2E68746D6C0D0A2A2A2046756E6374696F6E20202020203A204347492003
:2023EB0073616D706C6520666F726D20666F722048545450207365727665720D0A2A2A0D86
:20240B000A2A2A2047656E657261746564206174203A20323030332F30392F3234203134BE
:20242B003A35343A32390D0A2A2A2047656E657261746564206279203A20737461636B6341
:20244B006F6E666D616B652076302E310D0A2A2A0D0A2A2A204D414E55414C204348414E7D
:20246B004745532057494C4C204245204F5645525752495454454E204946205448495320C3
:20248B0046494C452049532052452D47454E4552415445440D0A2A2A0D0A2A2A2A2A2A2A64
:2024AB002A2A2A2A2A2A2A2A2A2A2A2A2A2A2A2A2A2A2A2A2A2A2A2A2A2A2A2A2A2A2A2AD1
:2024CB002A2A2A2A2A2A2A2A2A2A2A2A2A2A2A2A2A2A2A2A2A2A2A2A2A2A2A2A2F0D0A0D06
:2024EB000A2D2D656E6420636F6D6D656E742D2D3E0D0A0D0A3C484541443E3C5449544C58
:20250B00453E53616D706C652043474920466F726D3C2F5449544C453E3C4D45544120482E
:20252B005454502D45515549563D22507261676D612220434F4E54454E543D226E6F2D6301
:20254B0061636865223E3C2F484541443E3C424F44593E3C7461626C6520626F726465723A
:20256B003D31206267636F6C6F723D2223663066306630223E3C7472206267636F6C6F720C
:20258B003D2223633063306330223E3C74643E7661723C2F74643E3C74643E76616C75650A
:2025AB003C2F74643E3C74643E7365743C2F74643E3C2F74723E0D0A3C74723E3C74643E18
:2025CB0074656D70657261747572653C2F74643E3C74643E3C212D2D236563686F207661FF
:2025EB00723D2274656D7065726174757265222D2D3E266E6273703B3C2F74643E3C7464EE
:20260B003E266E6273703B3C2F74643E3C2F74723E0D0A3C74723E3C74643E77696E645F73
:20262B00646972656374696F6E3C2F74643E3C74643E3C212D2D236563686F207661723DDC
:20264B002277696E645F646972656374696F6E222D2D3E266E6273703B3C2F74643E3C747C
:20266B00643E266E6273703B3C2F74643E3C2F74723E0D0A3C74723E3C74643E77696E640E
:20268B005F73706565643C2F74643E3C74643E3C212D2D236563686F207661723D227769CB
:2026AB006E645F7370656564222D2D3E266E6273703B3C2F74643E3C74643E266E62737053
:2026CB003B3C2F74643E3C2F74723E0D0A3C74723E3C74643E616464726573733C2F7464B2
:2026EB003E3C74643E3C212D2D236563686F207661723D2261646472657373222D2D3E2638
:20270B006E6273703B3C2F74643E3C74643E266E6273703B3C2F74643E3C2F74723E0D0AB2
:20272B003C2F7461626C653E3C2F424F44593E3C2F48544D4C3E0D0A0D0A0D0A7402124615
:20274B00538D118C10EF14600E14604914604614604314605780788B078A06121554E511EC
:20276B002405122FCFF8740193F9EFC399EE98405E1227E8F8740193C39FE89E40510511FD
:20278B00E51170020510122CE41227E0EEF0EFA3F07401803BA911A81009B900010812286F
:2027AB009EE4931227E0E0FEA3E0801F7E1B7F481227F6E5112405122CFF12284A7E4C7F28
:2027CB00931227F61227E8FE740193FF12284AE479020245D9F8740193F902289EE5112428
:2027EB0007022FCF121BBA4D4E4F228F058E048D828C83E493FF6005122A3C70F222740441
:20280B0012465312290512291A600D851382851283E49312290E70EE79040245D9121C598A
:20282B004D4E4F2274021246538F118E101229556008122CE412294970F379020245D9790D
:20284B00051246588F038E0275F00574051249EBA982A88319B9FF011815F01228A3ED243A
:20286B003012289EF01228A38F038E02EB4A70E4E41249E28F018E00E925F0FFE438FE78FF
:20288B00007905E9C395F0FDE498FC12292A7B050245CD89828883228B078A067C007D0AB3
:2028AB00021E95ECF0A3EDF0A3EEF0A3EFF0228F058E048D828C83E0FF6005122A3C70F374
:2028CB0022E0C0E0A3E0C0E0A3E0C0E0A3E0C0E01231D0D0E0D0E0D0E0D0E022740412461D
:2028EB005312290512291A600C851382851283E012290E70EF79040245D98F138E128D1140
:20290B008C1022FF0513E51370020512022961A911A8101511E511B4FF021510E94822749B
:20292B00021246538F118E10122955600C851182851083E012294970EF79020245D9FF0513
:20294B0011E51170020510022A618D018C001DBDFF011CE948227903740212465DC007740C
:20296B0002124164D007900549E0122A44706DBF2247900539E0F890053A12450EE4F008C3
:20298B00900539E8F07511E975101C901CF2122FE2606A122CE454046018E5112403122F9B
:2029AB00C67E057F3A122FB57008122CED7F04124517122CC270DC8044BF3E059005498010
:2029CB003A900539E0F8740ED3984031E890053A12450EEFF008900539E88020900549E097
:2029EB00F8122A44F9EFB50118A90009900549E9F0E804122A447005900539E4F0740180BD
:202A0B0029900549E0601A7DB77C1C900549E014F08D828C83E493FF122A3C900549E07082
:202A2B00EA74021245BEFF122A6179027B030245D30DBD00010C022A61901CB712450EE457
:202A4B009322541F600FCCC313CD13CDCE13CECF13CFDCF3FC228F0090054AE0FAA3E0FB72
:202A6B004A60101BBBFF011A90054AEAF0EBA3F0740122122CDB90054CE0F9A3E0D39FE922
:202A8B009E401A900550E0FAA3E0FB8B828A83124500E8F090054E1244A074012290054E5A
:202AAB001244A0E4227905740412465D8F138E129005507413F07462A3F090054AECF0EDB5
:202ACB00A3F090054CEAF0EBA3F090054EE4F0A3F0900549E4F0900539E4F0851211751054
:202AEB0000E511F5F0E513FF74041241647E1C7F3B1227F6E51204701EE513240360121419
:202B0B0060091470127F287E1C80107F127E1C800A7FFB7E1B80047FF47E1B1227F67E1BBA
:202B2B007FE31227F6E5F02403600C14600914700C7F7B7E1E80247F8A7E1E801EAF11AE99
:202B4B00107D021231C0EF2490F9EE341DF8E92402122F77E493FE740193FF1227F67E1BFA
:202B6B007FB51227F6E51164FE24FFB392F0400AE511B4FD028003022C2DE513B4FF68E56E
:202B8B0012B4FE637511E975101C901CF2122FE27003022CAA122CE4F51254016041E511D2
:202BAB002403122CFF1227F67E1B7FB31227F6122CED7F051245177E1B7FAA1227F6E51278
:202BCB00540260077E1B7FA21227F6E512540460077E1B7F9A1227F67E1B7F981227F612BC
:202BEB002CC270B1022CAAE513FD7C007E007F0B12433EEFC3940BF9EE9400F8901CE989F5
:202C0B00078806124500AD82AC83A2F0E4332402FFED2409F9E43C122CB412289E12451726
:202C2B00807D7403C3C0E0C0D0041245BEFFD0D0D0E09F4049E513FD7C007E007F061243C9
:202C4B003EEFC39406F9EE9400F8901D6389078806124500858211858310E5112404122F58
:202C6B00C64C700EE5112402122CFF1244348F058E04E5112402122CFF1228098021E5137B
:202C8B00B4FE0BE512B4FF067F737E1B800EE513B4FF0CE512B4FF077F507E1B1227F61292
:202CAB002CDB79047B050245D3123181E493F8740193F9E4FBFA22E511240BF511E4351068
:202CCB00F510E5112409F9E43510123181022FE290054EE0FEA3E0FF22851182851083E44F
:202CEB009322E5112409F9E43510122CB4AD11AC1002289E122FCFFE740193FF22ED540F14
:202D0B00600AFDEEC313CF13CFDDF9FE22790C740412465DC006C007122FA7D007D0067C86
:202D2B001C7D871243538F118E10E51145106032122FBB600B122F95D39511EE95104022FA
:202D4B00E5112402FFE43510FEC006C007122FA7D007D0067C007D2F121B22EF4E600312DB
:202D6B002FA78006122FAC122FA7122FAC122F6DE0642F60EF122FA11FBFFF011EC006C056
:202D8B0007122F728F018E00D007D00612289E124500E0B42F0A122F727C1C7D7C1244B459
:202DAB00122F72E4F8C0E0C0078807740B124164D007D0E0F8C0078807740A124164D0076C
:202DCB007C1C7D4F122FB570077FFF7EFE022F66122F727A007B097C1C7D451243FBEF4EEE
:202DEB006003022E7B74071245BE2409F513C0D074061245BED0D03400F51279E9781C12F3
:202E0B002FD97F017406124164901CF2122FE2605A122FC054026027E5112403122FC6AFC2
:202E2B0013AE12122FB57017790078FEE9C0E074061245BEFFD0E02FFFE438FE022F66E5BD
:202E4B0011240BF9E43510F8122FD974061245BEFF0F740612416474041245818F018E00B7
:202E6B00E92409122F77122FE270A67FFE022F64122FBB6005122F6DE4F0122F727C007D9F
:202E8B002E124C3FEF4E600B0FBF00010E8F138E128017122FA174071245BE2FF513C0D0C5
:202EAB0074061245BED0D03EF5127990781D122FD97F007408124164901D90122FE2603D2C
:202ECB00122FC0FC740193FDAF13AE12122FB5700F74081245BEFE7F00740A1240F7801D7C
:202EEB00E5112404F9E43510F8122FD974081245BEFF0F7408124164122F8070C37963785B
:202F0B001D122FD9751201901D63122FE26048122F8AC082C083122F72D083D082E493FCF1
:202F2B00740193FD122FB5701B740B1245BE2512FFE4C0E0C0D0740A1245BEF8D0D0D0E047
:202F4B0038FE8017E5112406F9E43510F8122FD90512122F8070B87FFF7EFF79047B0C0244
:202F6B0045D38F828E83227406024581FBE438FA8B828A83227404124581122F6D80587411
:202F8B00041245818F118E1080D8122F727C007D3F121B22EF22122F72024C0C74060240A0
:202FAB00F7122F720FBF00010E22124456EF4E22122F954E22122F8AE49322122FCFFC7428
:202FCB000193FD22F9E43510123181E493228907880674040240F7E493F87401934822798B
:202FEB0009740412465D74081241648D138C128B078A0674061240F77409124581E51324C9
:20300B001DFFC0D07405124164D0D0E43512FF7404124164E513241812317BE0F86403603F
:20302B0008B80402800302317174061245BEC0E074071245BEFFD0E04F60627A007B047CA4
:20304B001C7DB27E137F621243FBEF4E704F7511667510131231A5E0FEA3E0FF1FBFFF01B2
:20306B001E901362124500E4F0AF11AE107C1C7D8A1243A6EF4E6005122F6D800390136603
:20308B00E4F0AF11AE10122D181231B7C0D074041245BED0D01231A1EEF0EFA3F01231B787
:2030AB00C0D074041245BED0D01231A1E0F8A3E048700302317174071245BEC0E0740612EE
:2030CB0045BEFFD0E04F60081231AB700302317174081245BE70191231AB70141231A5C043
:2030EB0082C083123197D083D08212318F1249AAE5132414F511E43512F5101231B7C0D0BA
:20310B0074041245BED0D01231A1C082C083123197D083D08212318FE0FCA3E0FD85118249
:20312B00851083E0FAA3E0FB122AB0851182851083E0F8A3E0F9EFD399EE98401689078855
:20314B0006C006C007123185D007D00612289E74108010C006C007123185D007D006122834
:20316B009E7419F08003E4FFFE79047B090245D3F9E435128000F802289E74091245818F62
:20318B00018E0022E0FEA3E0FF02289E74041245818F018E0022340080DCE513241480D0AB
:2031AB007409124581122F6DE054082274051245BE2402F922ED540F600AFDEF25E0CE3328
:2031CB00CEDDF9FF2212459AC0F0E8C0E012459A75F000E58124FDF8E630E70505F01232E6
:2031EB001CEC30E709E5F02402F5F0121D42121DCDE5F0601030E003121D42E5F0B40302F8
:20320B00800312321C121C8ED0E0F8D0F0121C8E22E58124FEF8E6F42401F618E6F4340023
:20322B00F618E6F43400F618E6F43400F622BC0005BD0002D322C0F075F000EE30E70C0593
:20324B00F0EFF42401FFEEF43400FEEC30E710E5F02402F5F0EDF42401FDECF43400FC1240
:20326B001E95E5F0601E30E00AEDF42401FDECF43400FCE5F0B40302800AEFF42401FFEE03
:20328B00F43400FED0F022121C59020166C004C005C006C007121C8E22790A740212465D89
:2032AB008F018E008D038C02E4FFFEFDFC7402123DCA8046890588040DBD00010C12420251
:2032CB00E0FC1240E0E0F510751100E5112CFFE43510FE12333AC082C0837406124562D01B
:2032EB0083D08212496BE92402F9E438F8EBC39402FDEA9400FC8D038C02EB24FEEA648058
:20330B00347F40B0EB144A701A1240E0E0FE7F0012333AC082C0837406124562D083D082C1
:20332B0012496B740212456279027B0A0245D31246887406123DCA74020249EB790412467F
:20334B0058801DE4FDFCE41249EB1233961232987410C0E0E4124562D0E0122A4D124BCA8E
:20336B00E4123DCA7410C0E0E4124562D0E0122A4DEF4E4D4C70CC74021245818F018E00CD
:20338B00E9F4FFE8F4FE7B040245CD7EFF7FFF024A87790C1246588F018E00123C8E740464
:2033AB00123DCAE4FDFC901346123396E4123DCA7410C0E07404124562D0E0122A4D123279
:2033CB0098E4FDFC7EFF7FFF124B13E41249EB124B53E4123DCA90134A1244777408123DA6
:2033EB00CAE4FDFC90134A1233961234447410C0E07408124562D0E0122A4D123298E4FD7A
:20340B00FC7EFF7FFF124B13123444901343E012468C12344489078806124688123444896B
:20342B000588047E137F4E1232A4123444E41245621233477B0C0245CDE41249EB02496B7C
:20344B00E50F24FCC0A8C2AFF50FF582E50E34FFF50ED0A8F583ECF0A3EDF0A3EEF0A3EF71
:20346B00F0227904124658E4123DCA120292EF4E7005E4FFFE804890133A7445F0A3E4F007
:20348B009007681244A09007681241BFF990133E124043A31242439013427420F090134620
:2034AB00C082C083E4124562D083D0821228AE90076A12447790134A1228AE7F3A7E137BEA
:2034CB00040245CDE50F24FEC0A8C2AFF50FF582E50E34FFF50ED0A8F583EEF0A3EFF022C4
:2034EB00790E740212465DEF2414F511E43EF51090133CF0E511A3F090134A12447774062F
:20350B00123DCA901346C082C0837406124562D083D082124854123C8E740A123DCA781395
:20352B0079461240E0C082C0837406124562D083D082121CC790134A1228AE90134AC08239
:20354B00C083740A124562D083D082121CC79013461228AE9013441242431241C47402125E
:20356B003DCA74021245621233479013441240E5AF11AE1079027B0E0245D37906740212BD
:20358B00465D8F118E10901350124243AD11AC1012415A123DCA7402124562123347901317
:2035AB00501240E5AF11AE101234EB79027B060245D3790C740412465D8F138E128D078CA0
:2035CB000674081240F78B078A06740A1240F7123D71B81006E4FFFE0236C4123D0D7402EF
:2035EB00123D25123DCA123CC4C082C0837404124562D083D0821228AE123D07C082C08303
:20360B007404124562D083D0821228AE123D01E4FFFEFDFC1228AEE5134512600A123FCBFA
:20362B00E512F0E51380249007621241BFF909B9000108E9242FE834F8500479E87803129B
:20364B003FCB124043900762E8F0E9A3F0123CBEC082C08374081245BED083D082F0C0827A
:20366B00C08374091245BED083D082A3F0123CB0C082C083740C124562D083D082123D136F
:20368B00E5112416123CB6C082C083740A1245BED083D082F0C082C083740B1245BED083D2
:2036AB00D082A3F0E5112419123CB674FFF0E511241A123D3EAF11AE1079047B0C0245D323
:2036CB0012459AD007D006D005D00422790C740412465D8F118E108DF0EB25F0F9E43AF8FA
:2036EB00E92414F513E438F512E51145107003023789123CCABD0006BC0003C38001D3E45E
:20370B0033FD7C00E511240CF9E43510F8EB2DFFEA123CE8123D0DE0B40715E5112419FB41
:20372B00E4123DC274FF123848741E12386D8024EB25F0F9E43AF849700C123FEDB41006BB
:20374B0012385DE4800E12385DE0048B828A83123848740AF0123CF3600D8B828A83E412E2
:20376B003848E412386DF0123D071244779013521228AE123D01124477901356805B90139F
:20378B00521244777404123DCA9013561244777408123DCA781379561240E0C082C08312F0
:2037AB003858D083D0821238501240E0C082C083123858D083D082124854901356C082C088
:2037CB0083123858D083D082123850901352C082C083123858D083D0821228AEE5F02323B6
:2037EB0054FC245090135AF0901350E0FAA3E0FB90134E8B078A0612488590134E1241BFCD
:20380B00F96BFCEA68A3F0ECA3F0EB69FDEA68FCE96DFAE86C90134EF0EAA3F090135E1225
:20382B004243AF13AE1212339D90135E1240E5AF13AE121234EB79047B0C0245D3F0E511A5
:20384B00241A023CB6121CC77404023DCA7404024562E5112419F9E43510F889038802022F
:20386B0040E0F0E511241BF9E43510123CA9A322790E740412465D8F058E04901350E0F578
:20388B0010A3E0F51190134EE0FFC082C083740A124164D083D082A3E0FF740B124164900D
:2038AB00135AE00303543F7800C39414FBE89400FAEDC39BF9EC9AF8E9C39414FFC0D074AA
:2038CB000D124164D0D0E89400FF740C1241648D078C0612339DEF4E60030239807B007574
:2038EB001352751205023B35123CD5E064017003023B29851382851283E0FAA3E0B51102C0
:20390B008003023B29EAB510028003023B29E5132402123CF9E0FAA3E0C0E0740B1245BE23
:20392B00FFD0E0B507028003023B29EAC0E0740A1245BEFFD0E0B507028003023B29E513BB
:20394B002404123CF91244779013461228286003023B297B5B7A13123CF3601F1240E07443
:20396B0001F0E5132419123FBAE4F0E513241B123CA3123D50E4FFFE023C77123FED541038
:20398B0060F3740D1245BEFFBF000C740C1245BEFFBF0003C38001D392F05011E5132410ED
:2039AB00F9E43512F8901352123C9A7011E513240CF9E43512F8901356123C9A602D90132D
:2039CB00561244771240691228287009E513241A123CA380A0123CD57401F0123FE1123DD3
:2039EB0058E4FBFAAF13AE12023C72E5132419123CF9E4F01240E01244771240691228AE67
:203A0B00123CCABD0006BC0003C38001D3E433FD7C00E5132410F9E43512F8740D1245BE7C
:203A2B002DFFC0D0740C1245BED0D0123CE812403624FE601B146039146036147003023A15
:203A4B00FD147003023B16147003023980023B1C123FED7C00B412028003023980BC00026B
:203A6B008003023980123CDC1240E01228AE124049123C946006123FCB7406F0123FC2122B
:203A8B003FF2E4FF7408124164123FE8F864036003B80410123FEDB4100A20F0077F0174F6
:203AAB0008124164123D588F038E02123CF360051240258010123FE8F864026003B803060B
:203ACB00123FCB7404F0123FE8B4040B123C946006123FCB7405F074081245BE600D123F3F
:203AEB00EDB41007EB4A7003023980AF13AE12023C72123C947003023980123FCB7407F0D7
:203B0B00123FC2123FF8123D508006124025023975124049E4FBFAAF13AE12023C720BE55C
:203B2B00132421F513E43512F512EBC3941050030238F3123FED54027003023C6190076E6B
:203B4B00E0F512A3E0F513023C28123C7EB511028003023C1DE8B510028003023C1D123D34
:203B6B0071E864107003023980123D0D7403123D25123DCA123CC4C082C083740412456217
:203B8B00D083D0821228AE123D07C082C0837404124562D083D0821228AE123CDC123D017A
:203BAB001228AE12402B123FCB124043123CBEC082C083740A1245BED083D082F0C082C029
:203BCB0083740B1245BED083D082A3F0123C8E123CB0123D13124050E5112416FBE4123D4F
:203BEB00C2124043E511241DFFE43510FEE4FDFC7A007B04121AAC124055123FED4410F02F
:203C0B00E5112419123D3EE4FBFAAF11AE107D048057E5132404F513E43512F512123C87FB
:203C2B00486003023B557A007B1C7C137D3A7E137F561219E090134E7403F0A3F090135294
:203C4B00124243A31242439013437401F07E007F241235868016123CF36003023980123F09
:203C6B00E1E4FFFEE4FBFA7D001236D779047B0E0245D38513828512830241BFE51324028E
:203C8B00023FDB901346024477123FED5401221244771240E0022828F9E435128000F812A3
:203CAB0040E0E4F022E51124048000F9E43510F80240E0E511240280F2E511240C80EC12D7
:203CCB003FED78005403FDE4FC22E5132418023FBAE4FEFDFC9013527F01024B533CFE1274
:203CEB0046881240E002496B123FED540422FDE43512FC024202E511241080AFE511240866
:203D0B0080A9E511241880A31228AEE5112414123CB67405F074B4A3F022F0E4FFFEFD905C
:203D2B0007647C0112496B90076412447712451C740422F9E43510123CA9E511241BF9E4CA
:203D4B003510023FF2A3F012401D02400212401D1234CFAD13AC12740E1245818F038E021C
:203D6B001240120249F678007511527510058003123DB57410D398400DE5112418FBE412D3
:203D8B003DC2E0B401EAB8102078007511527510058003123DB57410D398400DE5112418E3
:203DAB00FBE4123DC2E0B407EA2208E5112421F511E43510F510223510FA8B828A83222528
:203DCB000FF582E50E3400F583ECF0A3EDF0A3EEF0A3EFF022250FF582E50E35F080E8798E
:203DEB0009740412465D900400E0FF90055275F0217E001244E9858213858312124036F831
:203E0B0064017003023FA0E5132419FFC007C0D07405124164D0D0D007E43512FEC0078E2E
:203E2B00077404124164D0071240EB7003023FA0E513241AFBE43512FA8B828A83E0600326
:203E4B00023FA0B8071C123FCBC082C0837404124581D083D0827401F08F828E8314F00278
:203E6B003FA0E5132404123FBA12447712346DEF4E7003023FB29013437406F012402B90AD
:203E8B00135012404312405090134E1240437F007408124164E4FFC0E07407124164D0E0E0
:203EAB00FF7406124164123FE86408601274041245811240EBF87483C86480D398401412B7
:203ECB004025F0123FE1123FD27E137F5B124002023F7B7B5B7A1390135BE4F0123FE82420
:203EEB00FE601114600B14603A14601D146017805B124049123FED4402F01240557F047477
:203F0B00081241648046124049123FED4401F0E47F01FEFDFC124069124B53124030122881
:203F2B0028602912404912401D1234CF74061245811240EBFFE4FBFAAD13AC121240E0127D
:203F4B0045177B021249F674061240F71240691244771240301228AE74041245811240EBEA
:203F6B00B4FF0D8F828E837401F0123FC2123FF2AF13AE1274081245BEFDC006C007740682
:203F8B001245818F038E02D007D0061236D71202BA74018013900400E004F8C39410400261
:203FAB007800900400E8F0E479047B090245D3F9E43512F80240E0E513241BF9E435122258
:203FCB0085118285108322E5132416123FDBF922123FBA0241BF90135B7404F022123FCB5A
:203FEB00E02290135BE022123FF8A3F022F81240E07401F0742C221234CFE4FBFAAD13AC0B
:20400B00121240120249F61240E07F001245177B0222123FD28B078A0622123FCB74012206
:20402B00123C7EF922E513240C8084E5132418F511E43512F51080A5E8F0E9A3F0229013BA
:20404B005B7410F022123C87F9229013627402F0A37404F0A304F090136574B4F022E5132D
:20406B002408023FBA7B527A0575F010EB2419FDE43AFC124202E0601AEB241AFFE43AFE1A
:20408B001240EBF8640024FFE433F9E8C3998F828E83F0EB241B1240F1E0FEA3E0FF4E6078
:2040AB00261FBFFF011E1240E01240E5EF4E7017EB24181240F17408F012420274FFF0EB2C
:2040CB00241A1240F1E4F0EB2421FBE43AFA15F0E5F07098228982888322EEF0EFA3F0227F
:2040EB008F828E83E022F9E43AF880E9250FF582E50E3400F583EEF0A3EFF022250FF582A2
:20410B00E50E35F080EE7906740212465D8F118E108F058E0412415A123DCA74021245620B
:20412B00123347EF4E701E90134EE0B4081790134FE0701190134EE4F0A3E4F0AF11AE106C
:20414B001235868003E4FFFE79027B060245D37E137F4E1232A4740222250FF582E50E345D
:20416B0000F583EFF022790412465890133AE0C4540FB404371241C4E4123DCAE41245620A
:20418B00123347EF4E702590133C1241BFC39414FFE89400FE901343E014600624FB60071B
:2041AB00800A124111800812387B8003E4FFFE7B040245CDE0F8A3E0227C007D147E137F28
:2041CB003A0232A4795278057A10124248E0FB6401601AEB640760151242027408F0E92400
:2041EB001912420774FFF0E9241A12424EE92421F9E438F8DAD4228D828C8322FDE438FCB4
:20420B0080F5900764E4FEFDFC7F011228AE900768124243795278057A101242487401F077
:20422B00E9241912424EE9241B12424EA3F0E92421F9E438F8DAE322E4F0A3F022E9241886
:20424B00024207124207E4F02212459A8050E0C0E0A3E0C0E0A3E0C0E0A3E0C0E0803FE46A
:20426B0093C0E0A3E493C0E0A3E493C0E0A3E493C0E0802A88F0E6C0E008E6C0E008E6C0EE
:20428B00E008E6C0E0A8F0801588F0E2C0E008E2C0E008E2C0E008E2C0E0A8F08000E4C024
:2042AB00E0C0E0C0E0C0E0E581CBC0E0EAC0E0E9C0E074FC2BC8C0E07A04EF1243221BEE5F
:2042CB001243181BED12431C1BEC124320180B0BEF1243181BEE12431C1BED124320180BCD
:2042EB00EF12431C1BEE12432018EF124320D0E0F8D0E0F9D0E0FAD0E0FBD0E0FFD0E0FE56
:20430B00D0E0FDD0E0FCE58124FCF581227A0380067A0280027A01F5F0EBF9E6A427F7DA54
:20432B000122E5F01937F7DA0122500619E437F7DAF822C0F0ED8FF0A4CFC5F0CCA42CCE13
:20434B008DF0A42EFED0F02274011246531244E26039802E8D018C008F038E02800812436B
:20436B00A00BBB00010A89828883E493F5F0600B8B828A83E0F51065F060E3E5F0600C12FA
:20438B0043E08F828E83E070CB80028003E4FFFE79010245D909B9000108228F038E028D96
:2043AB00078C0680031243E08F828E83E493F8600A8B828A83E0F9E8B501EAE860058B074C
:2043CB008A06228B828A83E0F80BBB00010AE870CEE4FFFE220FBF00010E2212459AD0E094
:2043EB00C39FFFD0E09EFED0E09DFDD0E09CFC228F018E008D078C0680271BBBFF011A8FE7
:20440B00828E83E493FC1243E089828883E0FD1243A0ED6004ED6C6008EDC39CFF95E0801C
:20442B0006EB4A70D5E4FFFE228F018E008F038E0289828883E493FC1243A0EC70F3E9C335
:20444B009BFFE89AFE1FBFFF011E221244E2F80DBD00010C8F828E83E0F91243E0E9600495
:20446B00E96860E7E9C398FF95E0FE22E0FCA3E0FDA3E0FEA3E0FF228F018E001244E2FAF0
:20448B008F828E83F00DBD00010C1243E0EA70EC8907880622AE83AF82A3E02401F0CFF5AF
:2044AB00828E83E03400F0FE228F018E008907880689828883E0FA1243A0EA70F419B9FFFA
:2044CB0001181244E2FA89828883F00DBD00010C1243A0EA70EC228D828C83E49322C0F0E5
:2044EB00EFA42582F582E58335F0F583D0F0EEA42583F58322EF2582F582EE3583F583221A
:20450B000249142582F5825002058322E4730249917908124658E4123DCA74031245BEF832
:20452B00AF00740412416474021245BEF8AF00740512416474011245BEF8AF007406124132
:20454B0064E41245BEF8AF00740712416474041245627B080245CD250FF582E50E3400F58B
:20456B0083E0FCA3E0FDA3E0FEA3E0FF22250FF582E50E3E80E9250FF582E50E3400F5839D
:20458B00E0FEA3E0FF22250FF582E50E3E80EFC0E0E581141414C8C618C9C618181818C6A6
:2045AB0008C9C608C9C608C9C608C9C608C9C6C8D0E022250FF582E50E3400F583E0220215
:2045CB0001AD7A00C0E0801A7A00C0E08006C0E0E4FAE9FB850E83850F827810E0F608A337
:2045EB00D9FAC0D0E50F2BC0A8C2AFF50FE50E3AF50ED0A8D0D0D0E022124629E0F8A3E05B
:20460B00F96F7004EE68600F124629EEF0EFA3F01201897F01800412017AFF7E00221249E6
:20462B00BC7C007D641232399004012290076E7404F07403A3F07E077F6A7C047D0B7A00BB
:20464B007B041219E00201747800F980077800E480027800C0F0F5F0C3E50F99F582C0A83C
:20466B00C2AFF50FE50E98F50ED0A8F583E5F060097810E6F008A3D5F0F9D0F022E4FDFC78
:20468B0022FFE4FEFDFC22740212465312475944011247507043E511451060371247C48DF1
:2046AB00828C83F00DBD00010C1511E511B4FF021510E5117007E5107003C38001D392F033
:2046CB00E433F87901E9C398FBFF12479CB5030920F0C9E5117002E510E5117007E510704A
:2046EB0003C38001D392F012481A30F00478038002E4F8E879020245D974021246531247A5
:20470B005954FE124750702880208D828C83E0FF0DBD00010C1247E71511E511B4FF021508
:20472B00107F0112479C64016006E511451070DA12481AE5114510600478038002E4F8E8A5
:20474B0079020245D9FF1247E77F0102479C8FF08B118A10124868E5F022EE3395E0FDFC12
:20476B0022D295D2947A09C294309509C295124796D295800312479612484DDAEA30950742
:20478B00309404E4F880027803E82212484DD29422EFFA24FF9295001247DEEA6005E4A2F5
:2047AB009533FA7E007F0112488FC29412484DEA22FF3395E0FEFDFC227A00D2957B80128E
:2047CB0047DE309503EA4BFA7E007F0112480D70EEEA22D2947E007F0802488F8F027B8013
:2047EB00EA5B640024FFE43378004824FF92957E007F0112488FD2947E007F0912480D7097
:20480B00DF2212488FC29412484DEBC313FB22C294C2951247967AD07B0812484D20940400
:20482B00DAF8DBF6D2957AD07B0812484D209504DAF8DBF6309407309504E4F88002780227
:20484B00E8227E007F0A02488FE06CF0FCA3E06DF0FDA3E06EF0FEA3E06FF0FF22D295D233
:20486B00947F057E0012488FC2957F017E0012488FC2947F057E0002488FE06EF0FEA3E080
:20488B006FF0FF22EF4E6012A907A806E96001081FBFFF011E00D9F8D8F622CBC0E0E5F031
:2048AB00CAC0E0E4936EA37005E4936F6013A3A3A3EB70011A1BEA4B70E9D0E0FAD0E0FBD0
:2048CB0022A3E493FAA3E493F5828A83D0E0FAD0E0FBD0E0D0E0E473C083C082E0C0E0A345
:2048EB00E0C0E0A3E0C0E0A3E0C0E01231D0D0E0FFD0E0FED0E0FDD0E0FCD082D083F0A3E6
:20490B00EDF0A3EEF0A3EFF022C28C750B91750A00758C02858C8AE58954F04402F589E4B4
:20492B00F509F508750D91750C0043B802D28CD2A9D2AF22C0E0C0D075D000E50D70021576
:20494B000C150DE50D450C7012E5092401F509E5083400F508850A0C850B0DD0D0D0E03270
:20496B00C083C082E0C0E0A3E0C0E0A3E0C0E0A3E0C0E0124BCAD082D083ECF0A3EDF0A3F3
:20498B00EEF0A3EFF0228F018E001249BCE92FFBE83EFA1249BCEFC39BEE9A20E7F522A375
:2049AB00E02FFFF0E582700215831582E03EFEF022AE08AF09C3E5089E70F6E5099F6003A6
:2049CB001470EE22C3A3E09FFFF0E582700215831582E09EFEF022250FFFE50E3400FE2254
:2049EB00250FF582E50E3400F583227A00CBC0A8C2AF250FF50FEA350EF50ED0A8EB220134
:204A0B00031F08080808080604060406040E0E18180704060404001818030404040300EF8D
:204A2B005407C40354F84440FF124BC278088D828C83E493541FFF0DBD00010C124BDED8EA
:204A4B00ED7F00024BC27902124658124BE6547FF874011249EBAB82AA83E4F0E8C394402F
:204A6B00400B8B828A837401F0E824C0F8AF00E4124164E41245817B020245CDC000C00185
:204A8B00C002E0F8A3E0F9A3E0FAA3E05FFFEA5EFEE95DFDE85CFCD002D001D00022EFC387
:204AAB00941040037F000DEDC3940240047F008F05E4DD0104030354C02F2480FF024BC21A
:204ACB007904124658EFFCB40A0F124A5174021240F774031245BE801E124A51E41240F776
:204AEB008C07124BDEE41245BEF97800B90F0FB8000C74011245BEFD0D7F00124AA97B0441
:204B0B000245CD7F01024BC212459AD0E05FFFD0E05EFED0E05DFDD0E05CFC2290040FE025
:204B2B0054FB024B4B90040FE04404024B4B90040FE054FC024B4B90040FE054FC4F800013
:204B4B00F0E04408FF024BC2C000C001C002E0F8A3E0F9A3E0FAA3E02FFFEA3EFEE93DFD12
:204B6B00E83CFCD002D001D000227F30124BC27F30124BC27F30124BC27F38124BC27F06B0
:204B8B00124BC2124B0E7F007C4A7D22124A2A7F017C4A7D1A124A2A7F027C4A7D12124A81
:204BAB002A7F037C4A7D0A124A2A7F008F05124AA9124B39024B30900200EFF0024BEB1285
:204BCB00459AD0E02FFFD0E03EFED0E03DFDD0E03CFC22900201EFF0024BEB900202E022ED
:204BEB00124BE6548070F922ED2FFFEC3EFE227800309709E590540F04F8D29000C290E8EB
:204C0B00228F018E008F038E0289828883E0FC09B9000108EC70F2E9C39BFFE89AFE1FBF78
:204C2B00FF011E224E4E57004E572000574E5700572020008F018E00800509B900010889E7
:204C4B00828883E070F489828883E0B5050589078806228903880219B9FF0118EBB507E6F6
:204C6B00EAB506E2E4FFFE22575357005357200053535700532020005353450053452000A1
:0B4C8B0045534500452020002E2E0060
:040000050000000EE9
:00000001FF
