:020000040000FA
:03000000020026D5
:11000B000204DB900744E054FB024D677F01024CF085
:200023000224B375D000759F00758F107581167511FF7510FF12256DE4FFFE120F0F124A51
:20004300E032000000000000FFFF000500000000000000FFFF000601000000000000FFFF85
:200063000006020000000000000000000000000000000000000000000000004E4E57004E34
:200083005700574E5700570057535700535700535357005300535345005345004553450058
:2000A3004500454E45004E45004E4E45004E004F6B202020202020202B202020202D0041AB
:2000C3006464726573733A20004F6B204E6F727468202B202020202D004469723A20002BBD
:2000E300202020202D004F6B2020DF0054656D703A20004F6B20202020202020202020206D
:2001030045736300536574204164647265737300202020202053455455500043616C3A2014
:20012300646972656374696F6E0043616C3A2074656D7065726174757265004F6B202020C9
:2001430020206E657874202045736300202043414C4942524154494F4E0000C8FF9C204D0A
:20016300504800206B6D2F6800206D2F7300204B6E6F74730000000000204F4B0020464196
:20018300494C454400303030300050494E636F64650047534D206D6F64656D20666F756E0B
:2001A30064004F4B00415445300047534D206D6F64656D0020536561726368696E672066E1
:2001C3006F72002020496E697469616C697A696E67005765617468657220205374617469FB
:2001E3006F6E003331363232363933383931003B77696E64646972656374696F6E3D003BB7
:2002030061766773706565643D003B77696E6473706565643D003B6D617874656D703D00A0
:200223003B6D696E74656D703D0074656D70657261747572653D00010086303132333435A8
:200243003637383941424344454640A324A5E8E9F9ECF2C70AD8F80DC5E5FF5FFFFFFFFF22
:20026300FFFFFFFFFFFFC6E6DFC9202122232425262728292A2B2C2D2E2F30313233343586
:20028300363738393A3B3C3D3E3FA14142434445464748494A4B4C4D4E4F5051525354554A
:2002A300565758595AC4D6D1DCA7BF6162636465666768696A6B6C6D6E6F7071727374750F
:2002C300767778797AE4F6F1FCE02B4353513A00415445302B4353510D00415445302B432F
:2002E3004D47463D300D002C0D003100415445302B435245473F0D00FF2B4350494E3A20ED
:2003030052454144590041542B4350494E3F0D004F4B000D0041542B4350494E3D002B43F3
:2003230050494E3A2053494D2050494E002B4350494E3A00415445302B4350494E3F0D004F
:2003430025322E32583931004552524F52004F4B0025731A003E00415445302B434D4753AE
:200363003D25640D00303030304141003030313130300008003031323334353637383941ED
:20038300424344454600007904124672EFFCB40A0F1203EF740212482174031246D9801ECC
:2003A3001203EFE41248218C07124CE8E41246D9F97800B90F0FB8000C74011246D9FD0D2D
:2003C3007F001203CD7B040246A2EFC3941040037F000DEDC3940240047F008F05E4DD01CC
:2003E30004030354C02F2480FF024CF07902124672124CE3547FF8740112457DAB82AA83D8
:20040300E4F0E8C39440400B8B828A837401F0E824C0F8AF00E4124814E41247097B020232
:2004230046A2EF5407C40354F84440FF124CF078088D828C83E493541FFF0DBD00010C1233
:200443004CE8D8ED7F00024CF0181803040404030018180704060404000604060406040E2C
:200463000E01031F08080808087904124672AC08AD09AE0AAF0BC3E5089C70F2E5099D7054
:20048300EDE50A9E70E8E50B9F60031470E0C006C0078D078C06E4124821D007D0067402FC
:2004A300124821E41247227B040246A27908124672E412483B12046CE412457D12454774E6
:2004C3000412483B12046C740412457D1247D6EC20E7F17B080246A2C0E0C0D075D000E5D8
:2004E3000F7002150E150FE50F450E701EE50B2401F50BE50A3400F50AE5093400F509E520
:20050300083400F508850C0E850D0FD0D0D0E032C28C750D91750C00758C02858C8AE589EF
:2005230054F04402F589E4F50BF50AF509F508750F91750E0043B802D28CD2A9D2AF227948
:2005430008740412467774061248218D038C028D078C0674041248217F008F0512066C1274
:20056300060C8F018E00890788067D0412494290073312475DE0FA120614EAF0E9540FFF61
:20058300E4FE90073312475DE0F81206070FBF00010E8F828E83E8F01206147E007F0212EB
:2005A300475DE4F0E4F515F51474061247098F138E12AF13AE12122776EE4F603285138291
:2005C300851283E0FFC0071206078F058E04D00712061C0513E513700205120515E51570EB
:2005E30002051412060CE515C39FE5149E40CE1206078F038E027D027F0012066C79047BFD
:20060300080246A8740402470974061247090227761206078F828E8322740312466D8F1458
:200623008D138C12E514120661C3131206610303543F12066723541F120667540F120667A9
:200643000354071206612323540312065579030246AE5401FFAB13AA127D0102066C12066C
:2006630055E51422120661C422740112466DEFF512D394014003751201BD0125900731E0BA
:20068300700A9007321206D11206C6F0E512035480F8900732E0C31348F0900731E01480A4
:2006A3001CBD0216900731E0F8900732E0083313C3D8FC900732F01206D11206C6F079012E
:2006C3000246AE900732E4F0900731740822E0FD8B078A067A027B00020CA6780679047405
:2006E300041246798F138E128D158C1412080F7C077D2A122759AF13AE12C006C007120890
:2007030014D007D00612081E12080FC006C007120814D007D0061226FC12080F7C077D23CC
:200723001226FCAF15AE14C006C007120814D007D00612054212080FC006C007120814D087
:2007430007D0061226FC12080F1227767D011249421FBFFF011E12487F1207FE7C077D1591
:20076300123A2C7B0212456974011248677E077F1312487F1207F4C006C007120802D0070E
:20078300D0067A007B05120DA37B031245697404F5F01245887C077D13122799EF4E604880
:2007A30012080F12487F1207FE7C077D0F123A2C7B02124569E41248677E077F0C12487FCB
:2007C3001207F4C006C007120802D007D0067A007B14120DA37B031245697404F5F01245F6
:2007E300887C077D0612279979047A067B040246AA7407800075F002024588740680F67493
:200803000775F0041245888F058E0422740402459174041207F88F058E042279107404120A
:200823004677C006C007740C124821D007D0068D138C1212277612487FAF13AE127C067D7C
:20084300FE123A2C7B021245691209E45401F9E4F8EF29FFC0D0740F124814D0D0EE38C09B
:20086300E0740C124709D0E0F8C0078807740E124814D007E4F8C0E0C00788077407124847
:2008830014D007D0E0F8C00788077406124814D007E5132404F515E43512F514C007740A0A
:2008A300124821D0070FC007740B124814D0071209EE740D1246D924FFFFC0D07409124805
:2008C30014D0D0C0D0740C1246D9D0D034FFFF7408124814E5132405FFC0D07405124814CD
:2008E300D0D0E43512FF74041248140209AB74071246D95401F974061246D9E4F849702D28
:2009030074061247098F138E120513E513700205121209E4D39513EE95124007740A1247F0
:2009230009800F8515828514837446801074081247098F828E83E0851582851483C0E0C022
:2009430082C0837404124709D083D082D0E0F08F828E83E4F00FBF00010E740412482105E5
:2009630015E51570020514740B1246D9FF0FC007740B124814D0071209EE74081247090F9B
:20098300BF00010EC006C00774061247098F018E00D007D006740812482109B90001088907
:2009A300078806740612482174071246D9C3C0E0C0D0740F1246D9FFD0D0D0E09FC0D07465
:2009C300061246D9D0D0C0E0C0D0740E1246D9FFD0D0D0E09F50030208F179047B100246CE
:2009E300A8740C124709122776EF22BF000C740A1246D9FF0F740A124814227804790374A8
:200A0300031246798F138E1275140074011248677E067FEB12487F120AE27B0A7E067FF2BF
:200A2300120ADC124569120AD4122776EF4E7003020AB6120AD47C067DDC120AC160657409
:200A4300031245917C067DD31227597403124591AD13AC121226FC74031245917C067DD104
:200A63001226FC74011248677E067FCE12487F7406124591C006C007120AC7D007D0067A66
:200A8300007B1E120ADC12456974011248677E067FEB12487F120AE27B0F7E067FC4120A9A
:200AA300DC124569120AD47C067DB7120AC16003751401E51479037A047B030246AA12278B
:200AC30099EF4E22740675F0021245888F058E0422740375F002024588120DA37B032212F2
:200AE3000AC77A002278027901740112467975120174011248677E067FA812487F74041280
:200B03000B537E067FAA120ADC1245697401124591120B496016E4FFFE120B49600E7C069F
:200B23007DA8122730EF4E70037512009006B6E0F8651260069006B6E512F0E51279017ACE
:200B4300027B010246AA7C067DA512280BEF4E221245918F058E047A007B052278027901BC
:200B6300740112467975120174011248677E067FCE12487F7404120B537E067F98120ADC49
:200B83001245697401120B9B6003751200E51279017A027B010246AA1245917C067DCE0269
:200BA3000AC178027904740412467975120074011248677E067FCE12487F7407120B537E57
:200BC300067F8E120ADC1245697404120B9B7003020C8A120C957C067D88120AC170030280
:200BE3000C8AEF2406FDE43EFC120C95122759E4F515F514740412457D858213858312125A
:200C03000C9AEE20E7374F6034851382851283E0B42C08851382851283E4F00513E5137098
:200C23000205120515E51570020514120C9AEFD39515EE951430D202B2E730E7CC120C950B
:200C4300122696751200EE20E7064F6003751201EF24FE120CA05003751202EF24EB120C40
:200C6300A05003751203EF24E4120CA05003751204EF24E1120CA05003751205EF24E012CB
:200C83000CA05003751200E51279047A027B040246AA7404024591120C95022776EE6480F6
:200CA300347F22791574041246778F158E148D0774141248148B138A1274041245918F018D
:200CC3008E009005F8AD01AC007E007F10124654AF15AE141227768F018E001513E513B4BC
:200CE300FF021512E9C39513E8951230D202B2E730E76974141246D9FF3395E0FE7D0412D8
:200D03004942EF540FFBE4FA740412457D8B078A0612475DE0FA85158285148389078806C6
:200D230012475DEAF0890788060FBF00010E74141246D9540FF8740412457DE8124743E061
:200D4300F885158285148312475DE8F00FBF00010E85158285148312475DE4F079047B1526
:200D63000246A88F058E047E007F641247FF1246390204AF740212466D8F138E12801385C6
:200D83001382851283E0FF0513E51370020512122382851382851283E070E479020246AE99
:200DA300792074041246778F158E148D078C06741E1248218B138A127420124709742212FF
:200DC30046D9FCE4FBFAF9F8C0048B078A0689058804740C12483BD0047F00741C124814C5
:200DE300C2B2BC01057F0D122382AF15AE14120D77AD13AC127E007F641247FF12462C742C
:200E03001012483B12046C741012457D124547120EE6740412483B12046C1248BDE4FEFD27
:200E2300FC7F64124533120F07741E1247098F138E121223DA70601223F3F51412046C1244
:200E430048BDE4FEFDFC7F0A124533120F07851382851283E514F00513E51370020512744A
:200E63000C12457D1247A3851382851283E4F0741E124709C006C00774201247098F058EF2
:200E830004D007D006122799EF4E6023D2B27F01741C1248148018741C1246D9FFBF010FE3
:200EA3007414124722120EF07408120EF870127404124722120EF07404120EF87003020EF0
:200EC30035741E1247098F828E83C082C083740E124709D083D08212475DE4F079047B2014
:200EE3000246A8741412483B7414024722741812483B02046C12457D1247D6EC20E70374EF
:200F03000122E422120EE6740802483B79C2740212467712112912123A12046C1210E012DE
:200F2300046C1210D812046C1248BD1210B11248C912485B90213012496D12109574B61264
:200F4300483B1210E890212E1210FC74BA12483B1210E890212C1210FC74BE12483B121053
:200F6300C7124952A907A80690212A1210C11210C71245CA121095A907A8069021281210C4
:200F8300C174021247221210D0740212457D12110760121212EF12046C1248BD1210B11233
:200FA30045331210E075130012046C1248BD1210907F041245331210B7740612483BE4A266
:200FC300B333F512801DE51224FF30B301B35013E4A2B333F51220B30A05131210907F01D6
:200FE3001204AF74AE1247221210D0740612457D12110760D1AF131214D212181A12156A62
:20100300121405740A1247221210D0740A12457D1211077003020F2812046C1248BD7C007A
:201023007D057E7E7F401245331210D8740E1245917C057DE812275990213A1210A67C05D6
:201043007DDE1226FC9021361210A67C057DD41226FC9021381210A67C057DC81226FC900E
:20106300214412109B7C057DBD1226FC90214012109B7C057DAD1226FC90213412109B8F9E
:20108300058E047E057FA11206DE020F28E4FEFDFC229021300247CA1210A08073121CB759
:2010A3000246391210AB8068121CB702462C1210907F642274AE12483B74AE024722E8F0CB
:2010C300E9A3F0221210909021307F182274B212483B02046C1210B7740A02483B1210B741
:2010E300740202483B1210F3124952A907A806221210909021307F3C221210C11210F31236
:2011030045CA808E1247D6EC20E703740122E4227B00121E508F058E04740E12459112262A
:20112300FC740E024591792212467212120B124CF87E057F90121E047E057F81121E0412DD
:2011430022DC1205131212051200177E057F72121E047D017F031203CD7E057F68121BBE33
:201163001248BDE4FDFC7E077FD0124533741A12483B741A124722740212483BE41248673E
:201183007E057F6012487F74091245918F058E047A007B017E057F63120DA37B031245692B
:2011A30074061245917C057D60122799EF4E7017741A124722741E12483B12046C7402129C
:2011C300457D12110760B51200177E057F50121E04121ABC7E057F48121E047E057F43129F
:2011E30009FE70097E057F3B121E0480FE7E057F37121E0412120512121B1212EF7B2202F6
:2012030046A21210B10204AFE412457D7482F0740112457D7403F022124BC6E41212267426
:2012230001800012122E7B01024BF61245918F058E047FC87A002279F6782590213A12120D
:20124300697C9089828883EAF0EBA3F0E92402FFE438FE8F828E83EAF0EBA3F0E92404F9FC
:20126300E438F8DCDE22E0FAA3E0FB22790974011246777512009021231247CA74051248EA
:201283003B12046C902123121107604E124CC9902127E0B5071812046C1212E6C082C0831E
:2012A3007401124722D083D08212496D802C12046C1248BD1210907F191245331212E6C0EB
:2012C30082C0837401124722D083D08212496D124CC9902127EFF0E0F512E51279017B092F
:2012E3000246A8740112483B90212322790412467212120B12121B740212122E7B02124CA3
:20130300577C0074021246D9FD7E007F2D1247FF7D051249429005F6E0121CBD2FFFEE3808
:20132300FE7C017D68124979902134ECF0EDA3F09028D6E0F93395E0F874031246D9C3992A
:20134300FBE498FA30E705E4F9F88003121386E86480247F5004E479FFF8901EDC12138BA9
:20136300FA740193FB90213AEAF0EBA3F09020DC12138BF8740193F99028D71210C17B0404
:201383000246A28B018A002289078806124768E49322790112467212126FF8640024FF92C8
:2013A300F0C0D0A2F0E433FFE4124814D0D05045E814600F14601D14602414602B24F460D0
:2013C3003180329028E1E4F09028E0E4F09028DFE4F080219028E1E0045403F0801790282F
:2013E300E0E0045401F0800D9028DFE0045401F0800312198EE41246D924FFE4337B01028B
:2014030046A2790812467212139570169005331247CA740412483B12046C900533121107EA
:20142300602512046C1248BD1210B1124533E412483B900533C082C083E4124722D083D0E6
:201443008212496D12144F7B080246A21200179028E1E0600B14601414601D1460268031EC
:201463009021441214CA7F2C7E0580229028DD1214CA7F277E0580169028DB1214CA7F214D
:201483007E05800A9028D91214CA7F1C7E05121E047F0C7D001203CD9028E0E0600514602E
:2014A300078008121CC28003121CCE7F067D011203CD9028DFE0600414600622121BDC8046
:2014C30003121BC402038A1210A07B01021E34740212466DE4FDFC793778287B367A287EBB
:2014E3009589828883E08B828A83F00BBB00010A89828883E0F5F02DF513E43CF512AD138C
:20150300AC1209B9000108DED89028CBEFF0ED2FF9E43CF8890588047E027F2612156090A4
:2015230021441215567E017F131215609028DD1215567E047F011215609028DB1215567E05
:20154300027F711215609028D9EEF0EFA3F079020246AEEEF0EFA3F089058804221247FFB9
:201563007C007D960249797912740412467790051AE0121CBD90213A12180D20E703121378
:2015830086121803E0121CBD1217F920E7031213869005181210C190211F1247CA740812E2
:2015A300483B12046C90211F12110770030217BC12046C1248BDE4FDFC7EEA7F601245339A
:2015C300740412483B90211FC082C0837404124722D083D08212496D90051AE0FFC007C031
:2015E30082C0837410124814D083D082D007A3E0F8C00788077411124814D00790211DEF5D
:20160300F0C082C08374111246D9D083D082A3F0900518E0FFC007C082C083740E1248149C
:20162300D083D082D007A3E0F8C0078807740F124814D00790211BEFF0C082C083740F12CD
:2016430046D9D083D082C0E0C082C08374101247098F038E02D083D082D0E0A3F0E4FFC00B
:20166300E0740D124814D0E0FF740C124814740E1247098F058E047FF67E257513FA7512D0
:201683002575F08FEF2402F515E43EF514E5132402F9E43512F889828883E0F8A3E0F985BB
:2016A3001582851483E8F0E9A3F0851382851283E0F8A3E0F98F828E83E8F0E9A3F0E5132A
:2016C3002404F513E43512F512851582851483E0F8A3E0F9C39BE89A30D202B2E720E70491
:2016E300890388028F828E83E0F8A3E0F9EDC399EC9830D202B2E720E70489058804EF24B9
:2017030004FFEEC0E0C007C0D0740C1247098F018E00D0D0D007D0E03400FE09B9000108BA
:20172300C006C00789078806740C124821D007D00615F0E5F0600302168790211BECF0EDE2
:20174300A3F090211DEAF0EBA3F09025F675F004C082C083740C124709D083D082124778DC
:20176300A982A883E92402FBE438FA8B828A83C082C08374101246D9D083D082F0C082C005
:201783008374111246D9D083D082A3F0121ECDC082C083740E1246D9D083D082F0C082C009
:2017A30083740F1246D9D083D082A3F090213AE0121CBD1218031210C190211DE0121CBD58
:2017C30090051A121269E91217F930E7031213869021381210C190211BE0121CBD900518EA
:2017E30012180D30E7031213869021361210C179047B120246A8C39BE89A30D202B2E72287
:2018030090051A1210C190051822121269C399EA9830D202B2E722791274041246779021B7
:20182300171247CA740812483B12046C902117121107700302198112046C1248BD1210B16B
:20184300124533740412483B902117C082C0837404124722D083D08212496D902142E4F07A
:20186300A3F0E4FFC0E07411124814D0E0FF7410124814E4FBFAF9F88B078A0689058804B5
:20188300740C12483BE4F9F87513467512217B487A217514577515038B828A83E0FCA3E0A1
:2018A300FD851382851283ECF0EDA3F0EB2402FBE43AFA851382851283E0FEA3E0FFE9D324
:2018C3009FE89E50048F018E00124639740C12457D1245A4E5132402F513E512C0E0C0D041
:2018E3007410124709D0D0D0E03400F5120FBF00010E74101248211514E514709B1515E55C
:2019030015709512198890213CC082C083740C124722D083D08212496D7410124709902186
:2019230046124768A982A883902144121269121ECDEAF0EBA3F0902142121269121ECD12E1
:201943001CB7EBD39FEA9E400512138680048F018E0012198812463990213C1245479021BA
:201963003C12496DE4FDFC90213C7E027F581245FB90213EE0121CBD9021401210C17904E2
:201983007B120246A89021420210C1740312466D751400851413751201021AADE5136029BE
:2019A300146049146072147003021A41147003021A4924FA7003021A4E147003021A6F2480
:2019C300FE7003021A9F021AA8E512600A1200177E057F0A121AC3E51414605D24FE700330
:2019E300021AA2147003021A9A021AA8E512600A1200177E047FE8121AC3E51414600D2425
:201A0300FE600F147003021A9A021AA8751303021AA5751302021AA5E512600A1200177EB6
:201A2300047FD9121AC3E51414600924FE600A146065807175130480697513018064121A7E
:201A4300D4751300805C121BE580F6E512600A1200177E047FCE121AC3E51414600924FEE3
:201A630060DF146032803E75130B8036E51260171200177E047FC2121E04121ABC7E047F00
:201A8300B1121E04751200E51414600624FD6007801375130D800B7513FF8009121CD7759F
:201AA300130A75120112126FF514E513B4FF02800302199F79030246AE7D017F000203CDB7
:201AC300121E04121ABC7E047FF9121E0475120022790D740112467775120012046C021B20
:201AE300947405124722740912483B121BB3700A12126FF5127003021BA3E51224FE6008A1
:201B030014600E14602080399028DFE0045401802F9028D6E0F864807932C96480D3994026
:201B230019E8F90980169028D6E0F8F9744EC96480D3994005E8F9198002E8F99028D6E9B6
:201B4300F01212EF1200177E047FAA121E049028DFE06005121BC48003121BDC12038A126D
:201B63001ABC7E047FA4121E049028DFE060047F4380027F4612038A7D017F091203CD7ECA
:201B8300047F9D121BBE1248BD1210907F32124533740512483B7405124722740112483B27
:201BA300A812D8028003021AE479017B0D0246A812046C740112457D021107121E040204FA
:201BC3006C9028D7121BCD7F46221210AB80007B00121E347FDF02038A90213A121BCD7FA9
:201BE3004322790D740112467775120012046C021C987405124722740912483B121BB3709E
:201C03000A12126FF5127003021CA79005F6121CB7E51224FE600814601F1460238030908A
:201C23002134E0121CBD7C017D68EDC399FBEC98FAEF2BFFEE3AFE80160FBF00010E800F1C
:201C4300EF4E60071FBFFF011E80047F677E019005F6EEF0EFA3F07C017D68124979900542
:201C6300F6ECF0EDA3F01212EF1200177E047F97121E04121CCE7D007F0A1203CD121CC233
:201C8300121ABC7E047F87121BBE1248BD1210907F32124533740512483B7405124722746C
:201CA3000112483BA812D8028003021BF579017B0D0246A8E0FEA3E0FF22F8A3E0F92290C8
:201CC3002134121CB7121D25021E049021341210A0021BD27802E86041B8030B9005F5E086
:201CE300F904601109800EB804109005F5E0F9D394014001199005F5E9F01200177E047F5E
:201D03007D121E049005F5E01246337B00121E34121ABC7E047F6D121E0412126FF8F9D954
:201D2300B522EF24F4EE34FF5008EF24A3EE34FE50077F6B7E04021E03EF24DEEE34FF403B
:201D4300077F677E04021E03EF24C7EE34FF40077F647E04021E03EF24B1EE34FF40077F79
:201D6300607E04021E03EF249AEE34FF40077F5E7E04021E03EF2484EE34FF40067F5A7E6F
:201D830004807DEF246DEE34FF40067F577E04806FEF2457EE34FF40067F537E048061EF1C
:201DA3002440EE34FF40067F517E048053EF242AEE34FF40067F4D7E048045EF2413EE3431
:201DC300FF40057F4A7E0422EF24FDEE34FE40057F467E0422EF24E6EE34FE40057F447ED2
:201DE3000422EF24D0EE34FE40057F407E0422EF24B9EE34FE40057F3D7E04227F397E0444
:201E030022740212466D121E0F0246AE8F138E128013851382851283E0FF0513E5137002C3
:201E2300051212038A851382851283E070E479022279067402124677740212483B7402128D
:201E43004722121E50121E0F7B060246A87904124672E412483B7A008AF0E4124722EC30B7
:201E6300E70A124AA7E412483B75F00179D57828121ECDE4F019B9FF0118121ED212495234
:201E8300EF2430121ECDF0121ED21245CA0AEAB5030B19B9FF0118121ECD742EF0E412477F
:201EA30022EF4E4D4C70CEEBC39A30E702B2D230D2C3E5F0600B19B9FF0118121ECD742D77
:201EC300F0890788067B040246A28982888322121090E412457D7F0A2200C800B200910030
:201EE300800074006C00650060005B005700540051004E004B004900470045004300410071
:201F03003F003E003C003B003A003800370036003500340033003200310030002F002E005F
:201F23002D002C002C002B002A002900290028002700260026002500250024002300230023
:201F4300220022002100200020001F001F001E001E001D001D001C001C001B001B001A009D
:201F63001A001A0019001900180018001700170017001600160015001500150014001400F0
:201F8300130013001300120012001100110011001000100010000F000F000F000E000E0035
:201FA3000E000D000D000D000C000C000C000B000B000B000A000A000A000900090009006B
:201FC30008000800080008000700070007000600060006000500050005000400040004009C
:201FE300040003000300030002000200020001000100010001000000000000FFFFFFFFFFCC
:20200300FFFFFFFFFEFFFEFFFEFFFDFFFDFFFDFFFCFFFCFFFCFFFCFFFBFFFBFFFBFFFAFF03
:20202300FAFFFAFFF9FFF9FFF9FFF9FFF8FFF8FFF8FFF7FFF7FFF7FFF6FFF6FFF6FFF5FF31
:20204300F5FFF5FFF4FFF4FFF4FFF4FFF3FFF3FFF3FFF2FFF2FFF2FFF1FFF1FFF0FFF0FF62
:20206300F0FFEFFFEFFFEFFFEEFFEEFFEEFFEDFFEDFFECFFECFFECFFEBFFEBFFEAFFEAFF9E
:20208300EAFFE9FFE9FFE8FFE8FFE7FFE7FFE6FFE6FFE6FFE5FFE5FFE4FFE3FFE3FFE2FFEB
:2020A300E2FFE1FFE1FFE0FFDFFFDFFFDEFFDDFFDDFFDCFFDBFFDAFFD9FFD9FFD8FFD7FF61
:2020C300D6FFD5FFD3FFD2FFD1FFCFFFCDFFCBFFC9FFC7FFC3FFBFFFB7019001600125019F
:2020E3000600F100E200D600CD00C400BD00B700B100AC00A700A3009F009C00980095001A
:2021030092008F008D008A0088008500830081007F007D007B0079007800760074007300AE
:20212300710070006E006D006C006A006900680066006500640063006200610060005E0026
:202143005D005C005B005A005900580057005700560055005400530052005100500050001A
:202163004F004E004D004C004C004B004A00490049004800470046004600450044004400CB
:20218300430042004100410040003F003F003E003E003D003C003C003B003A003A0039005E
:2021A3003900380037003700360036003500340034003300330032003100310030003000DA
:2021C3002F002F002E002E002D002C002C002B002B002A002A00290029002800280027004A
:2021E30026002600250025002400240023002300220022002100210020001F001F001E00B6
:202203001E001D001D001C001C001B001B001A001A0019001900180017001700160016001D
:20222300150015001400140013001300120011001100100010000F000F000E000E000D0088
:202243000C000C000B000B000A000A000900080008000700070006000500050004000300FB
:202263000300020001000100000000FFFFFFFEFFFDFFFDFFFCFFFBFFFBFFFAFFF9FFF8FF8B
:20228300F8FFF7FFF6FFF5FFF5FFF4FFF3FFF2FFF1FFF0FFEFFFEFFFEEFFEDFFECFFEBFF32
:2022A300EAFFE9FFE8FFE6FFE5FFE4FFE3FFE2FFE0FFDFFFDEFFDCFFDBFFD9FFD7FFD6FF22
:2022C300D4FFD2FFD0FFCDFFCBFFC8FFC5FFC1FFBDFFB9FFB3FFAAFF9D122344900438E412
:2022E300F0E0D39402400374FF22438780758DFCE589540F4420F589D28E900438E024FFA0
:20230300B3E43303548024D0F598900436E4F0122339122329900437E4F0C2BCC2B0C2B22B
:20232300D2ACD2AFE42290043012233490042E8000E4F0A3F0229004341223349004328026
:20234300F0D2B2C2AC759800E422900434122373E924BFE834F95003E4F9F8900432E0FA6C
:20236300A3E0FBE9B50307E8B50203740122E42212237C09B900010822E0F8A3E0F9228F52
:20238300039004341223D124BF1223BD1223B76D7004EC6860F69004341223C67A00EAF006
:2023A300EBA3F0900434ECF0EDA3F0900436E07002D2992290043202237CEC34F95003E418
:2023C300FDFC22E0FEA3E0FF90149502476812237389058804ED2290043012237C90042E8D
:2023E300E0FAA3E0B50107EAB50003740122E42212243A900430E0FAA3E0697004EA686061
:20240300EFD2B2C2AC90042C12465912244B90042E122440A3E0F890042E12478F90042EC7
:20242300E0F9A3E0245BE934F9500690042E122334C2B2D2ACE82290042E02237CE0FEA347
:20244300E0FF90074B02476890042C1224595003D2B022C2B022E0F8A3E024BFE834F922B8
:20246300EF5404600BD2B2C2AC122329C2B2D2ACEF5403B4030CD2B2C2AC122339C2B2D2B6
:20248300AC22EF54016017900436E060111223B7900434E0FAA3E0B501F3EAB500EF22D259
:2024A300B2C2AC900437E0F8E4F0C2B2D2ACE822C007C0E0C082C083C000C001C002C00394
:2024C300C004C005C006C0D075D00030983FAB999004301223D1245B1223BD12243A6D7002
:2024E30004EC68601D9004301224407A00EAF0EBA3F0900430ECF0EDA3F090042C12478F30
:2025030080069004377401F0C29812244B309940C29990043412237C900432E0FAA3E0B572
:20252300010AEAB50006900436E480239004321223C6A3E0F59990043212478F900432123F
:20254300245950069004321223349004367401F0D0D0D006D005D004D003D002D001D000E2
:20256300D083D082D0E0D0073222904D45E49360F8FFA3E493A3FEE493A3F8E493A3F9E424
:2025830093A3FAE493A3FBE493A3FCE493FDA3EE54017046EF64016033EF6403602EBF093A
:2025A300028029BF0407AE83AF82022653BF06028021AE83AF8288838982E4F0A31DBDFF96
:2025C300011CEC4D70F48E838F8280A1E4F709DDFB809AE4F309DDFB8093EF64016045EF72
:2025E30064036040BF0902803BBF040AAE83AF828A838B82805ABF0602803FAE83AF828AB7
:20260300838B82E493A3AA83AB8288838982F0A3A883A9821DBDFF011CEC4D70E28E838F93
:2026230082022570AE83AF828A838B82E493F709A3DDF98E838F82022570AE83AF828A83EA
:202643008B82E493F309A3DDF98E838F82022570E975F008842420F8E6FCE5F06005CC03C4
:20266300DCFDCCBD0014E954076006EC03FC0980F5ECF68E838F82022570EB4A6003E49324
:20268300A3C36001D3EC13FC091DE9540770D4ECF680BD8F018E00E4FFFE75F000898288DE
:2026A30083E024F7FA09B9000108EAD3940440EDEA641760E8BA240575F001800AEA642262
:2026C300600519B9FF011889828883E024D0FA09B90001087409C39A401EE5F06004EAF4AA
:2026E30004FA8F058E047E007F0A1247FFEAFD3395E0FC12452C80CF228D038C028F058E95
:20270300048D828C83E0F80DBD00010CE870F21DBDFF011C8B828A83E0F88D828C83F00B9A
:20272300BB00010A0DBD00010CE870E8228F018E008D828C83E0FA0DBD00010C8982888394
:20274300E0FB09B9000108EB6004EB6A60E3EBC39AFF95E0FE228F018E008D828C83E0FAF7
:2027630089828883F00DBD00010C09B9000108EA70E8228F018E008F038E0289828883E014
:20278300FC09B9000108EC70F2E9C39BFFE89AFE1FBFFF011E227902124672E41248218D0C
:2027A300828C83E060548045E41247098D038C02800A0BBB00010A0FBF00010E8B828A8376
:2027C300E0F860098F828E83E0F96860E5E8602A74011246D9FF0FC0077401124814D00766
:2027E300BF000AE41246D9FF0FE4124814E41247098F828E83E070B08006E41247098003E1
:20280300E4FFFE7B020246A27906124672C006C0078D078C067404124821D007D006EF4E94
:202823006006E41248218019900749E0FFC082C083E4124814D083D082A3E0FF74011248AB
:202843001474011246D9C0E0E41246D9FFD0E04F6046E4124709C006C0071228E7D007D0C7
:2028630006123F7E74011246D92FFFC0D07403124814D0D0C0D0E41246D9D0D03EFEFF74A3
:202883000212481474031246D9FF8F828E83E0700C900749E4F0A3F0E4FFFE80427402122E
:2028A3004709C006C0071228E7D007D006123F43EF4E7007900749E4F080118F828E83E4D7
:2028C300F00FBF00010E900749EEF0EFC0E0C082C0837402124709D083D082D0E0A3F07B1B
:2028E300060246A274041247098F058E042222791C124672741A1248218D078C0674141279
:2029030048218B078A067418124821E4F9F8122FC2E4124821122FCFFD7003022F6DBD25EB
:2029230013122FC7C007123074D0071230CA122FCFB42520122FC7C007123074D007123072
:20294300CA12302AC006C00712305AD007D00612393080C1E4FFC0E07411124814D0E01274
:202963002FBCE4FFC0E07413124814D0E0FF7412124814E4FFC0E07417124814D0E0FF74AF
:20298300161248141230B7C007123074D0071230CABA2D08122FB11230C480E8BA2B0F1202
:2029A3002F9954EF122FF84408122FF080D6BA2017122F995408F9122FA8F84970C6122F3C
:2029C3009944101230C480BCBA300A122F9944021230C480AFBA230A122F9944041230C46D
:2029E30080A2BA2A401230AEC0D0123084D0D0C0D012307FD0D01230DA122FC2122FA3E8CC
:202A030030E713122FB11230C4E9F42401FFE8F43400FE122FA31230B7C007123074D00751
:202A23001230CA802F80237412124709123089C006C007123022D007D006122FA31230447A
:202A4300C007123074D0071230CA123018400512300E40D3BA2E028003022B02122F994457
:202A630020122FDFC0E07414124709D0E0F8C00788077410124814D0078F828E83E0FA12B4
:202A83002FC7C007123074D0071230CABA2A3F1230AEC0D0123084D0D0C0D012307FD0D0E3
:202AA300122FDAFEA3E0FFC0067416124821D006EE30E70B122FB1122FF854DF122FF01226
:202AC30030B7C007123074D0071230CA803180257416124709123089C006C007123022D0DE
:202AE30007D0067416124821123044C007123074D0071230CA123018400512300E40D1EA21
:202B0300646C24FFB392F0500A122F994480122FDF8033BA680A122F994440122FDF80266F
:202B2300BA4C071230BE4401801CBA6A071230BE44028012BA7A071230BE44048008BA7468
:202B4300381230BE4408122FBC20F003BA681D122FCFF8EAB500151230BE4410122FBC1280
:202B63002FC7C007123074D0071230CA1230B7C007123074D0071230CABA63028003022CD3
:202B83008E122F995401F9122FA8F87401B90004B80001E41392F0C0D0A2F0E433FF740E7D
:202BA300124814D0D04054801112302AC006C00712305AD007D00612306274171246D9C37A
:202BC300C0E0C0D0123009FFD0D0D0E09FC0D074161246D9D0D0C0E0C0D0123004FFD0D089
:202BE300D0E09F12307930E71212300924FEC0D0123004D0D06480347F40AE1230AEC0D0B7
:202C0300123084D0D0C0D012307FD0D0122F7BA3E0F8E8FD12302AC006C00712305AD007D2
:202C2300D006123930740E1246D924FF4003022918801112302AC006C00712305AD007D017
:202C43000612306274171246D9C3C0E0C0D0123009FFD0D0D0E09FC0D074161246D9D0D0F4
:202C6300C0E0C0D0123004FFD0D0D0E09F12307920E70302291812300924FEC0D0123004A2
:202C8300D0D06480347F40AB022918EA646424FFB392F0401CEA64696017EA646F6012EA1F
:202CA3006478600DEA64586008BA75028003022D7AE4F820F003BA69027801E8FB12304D5E
:202CC3007401B90004B80001E425E02402B40423122FE7C0D0123084D0D0C0D012307FD0DD
:202CE300D01230A3740212483B7404124709122F9E802C1230AEC0D0123084D0D0C0D01224
:202D0300307FD0D01230DA122F995440FD122F765410FCBD4008BC0005EB70038001EB1221
:202D23002F995420FD122FA8FC4D600A122F9954FD1230C480057F0112302F122FAD1248CC
:202D43007F122FFF12487F122FC212487F741612470912487F741A124709C006C007741E28
:202D6300124709122FB7D007D0068A031232987B08124569022918BA736D12303BE4F8491E
:202D8300700E7FFF74171248147F7F74161248141230AEC0D0123084D0D0C0D012307FD03E
:202DA300D01230DA122FAD12487F122FFF12487F122FC212487F7416124709C006C007747B
:202DC30018124709122FB7D007D006C006C007741C1247098F038E02D007D0061230E27BE4
:202DE30006124569022918EA64666021EA6446601CEA64656017EA64456012EA6467600D31
:202E0300EA64476008EA64616003BA416F122FE7C0D0123084D0D0C0D012307FD0D01230E5
:202E2300A3740612483B7406124722740A12483B12303BFFE4F84970057F0612302F122F88
:202E4300AD12487F122FFF12487F740A12472212489B741812470912487F741C124709C069
:202E630006C0077420124709122FB7D007D0068A03123F427B0A124569022918BA704C12B7
:202E830030AEC0D0123084D0D0C0D012307FD0D01230DA122FAD12487F122FFF12487F125C
:202EA3002FC212487F74171246D94402FF74161246D9FE12487F7B787C007D087E007F08B9
:202EC3001232987B08124569022918BA6E028003022F6412304D4960251230AEC0D012302C
:202EE30084D0D0C0D012307FD0D01230DAE41247091246398982888312496D022918122F65
:202F0300995440F9122F765410F8B9402CB810291230AEC0D0123084D0D0C0D012307FD058
:202F2300D01230DA89828883C082C08374011246D9D083D082F00229181230AEC0D01230C7
:202F430084D0D0C0D012307FD0D01230DAE41247098F038E0289828883EAF0EBA3F002293C
:202F630018900747E4F07419A3F0E41247097B1C0246A274100246D9122F837FFE02475D11
:202F83003400FEFF741812481474191246D9FF8F828E837EFF2274110246D98F018E00229F
:202FA3007412024821122F76E422E4024591122F994401228F058E0422FF741002481489B1
:202FC3000788062274151246D9FF0F2274141247098F828E83E022122F7BE022FF741112EB
:202FE3004814808F74191246D92404FF22FFE8FE7410024821F9122F76F8E922741C0247FC
:203003000974120246D974130246D98A0074B9C86480D398228A0074B0C86480C39822741A
:2030230014124709022F9E741A02470974171248147F007416024814122F995420F9022F90
:203043007689828883E0FA022FC7122F995480F9122F765402F822122FAD8F038E02227D92
:203063002012393074121247091FBFFF011E022FA3741502481430D202B2E7227418024680
:20308300D97419024814122FB77E007F0A1247FFEF2AF9E43EF8E9C39430FFE89400FE22DB
:2030A300122F837FFC12475D0247CA74191246D92402FF22122FCFFA022FC7122F99022FF3
:2030C300DF122FDF022FBCBF000C74141246D9FF0F741412481422122FDAF8A3E0F922792D
:2030E3000A12467274081248218D078C06E41248218B078A067402124821740A124709C0CA
:2031030006C0077404124821D007D006122776740612482174091246D95401F974081246CB
:20312300D9E4F84960030231B78022740C124709C006C007123285D007D0067D20123930A2
:20314300E41247091FBFFF011EE412482174011246D9D3C0E0C0D074071246D9FFD0D0D007
:20316300E09FC0D0E41246D9D0D0C0E0C0D074061246D9FFD0D0D0E09F12307930E7AC74CD
:20318300011246D9D3C0E0C0D074031246D9FFD0D0D0E09FC0D0E41246D9D0D0C0E0C0D0EC
:2031A30074021246D9FFD0D0D0E09F12307920E70302312E807174041247098F828E83E084
:2031C300FD74051246D9FF0FC0077405124814D007BF000C74041246D9FF0F74041248144A
:2031E300ED6063740C124709C006C007123285D007D00612327FC0E01246D9FFD0E0BF0035
:203203000DC0E0E41246D9FFD0E0BF0001E4F9780074011246D9C399FFC0D0E41246D9D0AF
:20322300D098FEE4124821740212470912328FC006C007122FC27402124821D007D006EFFE
:203243004E60030231B98015740C124709C006C007123285D007D0067D20123930E41247FF
:203263000912328FC006C007122FC2E4124821D007D006EF4E70D17B0A0246A212393074F7
:203283000122740E1247098F038E0222122F9E19B9FF0118227915124672740A1248218D17
:2032A300078C061238788B077414124814741512470974121248217F00123873EB24A870D9
:2032C3000302349924F4601924FB601524FA700302349924FA602E24FD700302349902374C
:2032E300ED7417124709122F9EE830E7187F2D123873E9F42401FBE8F43400FA8B078A0669
:203303007417124821122FADC006C00712386BD007D0067A007B0A1239461238B3C0E01288
:2033230038AEFFD0E04F7008123895700302382E12385E74081248141238907022123848E4
:203343006475600D1238BEB90807B800047F2B800B1238BEB91008B800057F20123873125F
:20336300389060487401C0E01238FED0E0BF000BC0E01238F9D0E0BF0001E412391CC0D0D5
:20338300123854D0D01238F21238385403123917601A123859123890FDC006C00712392683
:2033A300D007D0061239307F00123873123838540112391770681238E2BB0004BA0001E40B
:2033C3001238A0124814801712385974071246D9FDC006C007123926D007D0061238D012D8
:2033E30038B3C3C0E0C0D01238FED0D0D0E09FC0D01238AED0D0C0E0C0D01238F9D0D0D0AA
:20340300E09F12307930E71612387D12383DD399C0D0123854D0D09812307930E7AA12385C
:20342300906015123859123890FDC006C007123926D007D0061239308035123859C006C006
:2034430007123926D007D0067D3012327FC0E01238FED0E0BF000BC0E01238F9D0E0BF0020
:2034630001E412391CC0D0123854D0D01238F2740E12470912328FC006C007122FC2123862
:2034830078D007D00612387DEFD399EE9812307930E7A70237ED1238B824FFB392F0C0D0D3
:2034A300A2F0E433FF7407124814D0D0E433FF7D037E0012493278007910E9C39FFBE89E6A
:2034C300FA122FADC006C00712386BD007D006123946123848FFBF783DE412457DAB82AAED
:2034E30083E41246D9602F123866E0F8F974C1C96480C3994015880174DAC96480D399E4BA
:2035030033C42354E0F928123866F00BBB00010A123866E070D112385E7410124814123813
:203523009570361238B3C0E01238AEFFD0E04F7025123848FFBF6F02800302382E123842ED
:20354300123917700302382E7F01740F1248147F00740E124814123903123842123917709F
:2035630003023635123838540212391770030236041238B87003023601123859C006C00711
:20358300123926D007D0067D3012327FC0E01238FED0E0BF000BC0E01238F9D0E0BF0001E5
:2035A300E412391CC0D07409124814D0D0C0D0123854D0D098FF7408124814123888C006BB
:2035C300C007123926D007D00612327FC0E074091246D9FFD0E0BF000EC0E074081246D929
:2035E300FFD0E0BF0001E4F9780074091246D9C399FFC0D074081246D9D0D01238F2123997
:203603000374071246D924FF50281238C51238B3D399C0D01238AED0D09812307930E71241
:2036230074101246D9FF3395E0FE0FBF00010E12387812384212384D7401B90004B8000180
:20364300E41392F0C0D0A2F0E433FF740C124814D0D050301238B8602B74101246D9240240
:20366300FF74101248141238B32402FFC0D0740F124814D0D0C0D01238AED0D03400FF7444
:203683000E124814123838540112391770681238E2BB0004BA0001E41238A0124814801721
:2036A30012385974071246D9FDC006C007123926D007D0061238D01238B3C3C0E0C0D012F4
:2036C30038FED0D0D0E09FC0D01238AED0D0C0E0C0D01238F9D0D0D0E09F12307930E71650
:2036E3001238C512383DD399C0D0123854D0D09812307930E7AA740C1246D924FF400302CA
:2037030037921238B87003023792123859C006C007123926D007D0067D3012327FC0E0122D
:2037230038FED0E0BF000BC0E01238F9D0E0BF0001E412391CC0D07409124814D0D0C0D08D
:20374300123854D0D098FF7408124814123888C006C007123926D007D00612327FC0E07453
:20376300091246D9FFD0E0BF000EC0E074081246D9FFD0E0BF0001E4F9780074091246D9D1
:20378300C399FFC0D074081246D9D0D01238F28035123859C006C007123926D007D0067D32
:2037A3003012327FC0E01238FED0E0BF000BC0E01238F9D0E0BF0001E412391CC0D0123839
:2037C30054D0D01238F2740E12470912328FC006C007122FC2123878D007D0061238C5EF02
:2037E300D399EE9812307930E7A7123838547FF9123833F8741B12470912487F741B1247E6
:203803000912487F740412459112487F122FC2C006C0077410124709122FB7D007D0067AF5
:203823007F7BFF1230E27B061245697B150246A274120246D974130246D9740B0246D912AC
:20384300383854042274140246D9F9123833E4F822740A0246D97419024709122FAD1227B9
:2038630076EF228B828A83227417124709022FB7740C024814740E02482174081246D9F93C
:203883003395E0F822123859123848FD22740C0246D97417124709122F9EE94822FF7D04CF
:2038A3007E00124932E82FFF740722740E0246D9740F0246D9123848646F2212383854188B
:2038C300808874101246D9F93395E0F822123930740A1247091FBFFF011E740A02482178B5
:2038E300201238385402FB123833E4FA74012298FE740A024821123854FF2212383DFF22FA
:2039030012383854FBFF7413124814123833FF741202481412384D4922F9780012383DC3C2
:2039230099FF22741B1247098F038E0222122F9E12386612478FEDFF3395E0FE8905880472
:20394300023A997908124672C006C0077404124821D007D006C006C0078D078C06E4124826
:2039630021D007D006C006C0078B078A067402124821D007D006740612482174051246D98A
:203983002407FBC0D074041246D9D0D03400FA1BBBFF011A123866E4F0E4124709C006C0B7
:2039A300077402124709122FB7D007D006124979122F9E122FB774021247091247FF122F64
:2039C300B774011246D9C39DFFC0D0E41246D9D0D09CFE122FB7ED24F6EC34FF5004ED24C6
:2039E30007FD1BBBFF011AED2430123866F0122FC2E4124821E94870A07404124709123828
:203A030066E0F88F828E83F00BBB00010A74041247090FBF00010E7404124821E870DA7432
:203A2300061247097B080246A2790E124672C006C007740E1245918F038E02D007D006C0D7
:203A430006C0077F127E007408124821D007D006C006C0077402124821D007D006E412487A
:203A6300217FFF7E7F7404124821E41245911228F2740C124821E4FFFEC006C007E4124518
:203A8300918F058E04D007D006123A99740C1247097B0E0246A28F038E02ED2408F9E43C31
:203AA300F889828883E0F8A3E05412FFE4FEBF1218BE0015123AFF20E70AA803123AE98BD0
:203AC300078A06227FFF7EFF22123AFF20E710EBF8123AE9EBF93395E0F8E9FFE4FE22EB38
:203AE300FF7E00023B1D8D828C83E0FEA3E0FF8F828E83E8F08D828C8302478FED2404FF6A
:203B0300E43CFE8F828E83E0F8A3E0F919B9FF01188F828E83124659E82279101246727480
:203B23000E1248218D078C067408124821ED2408FFC007C0D0740D124814D0D0D007E43CE7
:203B4300FEC0078E07740C124814D007123E8E7E017F0012459A123E89123ECAF95402FB39
:203B6300E4FA4B7003023C6DE95404FBE4FA4B6064123EAC2404F9C0D0123F1FD0D03400E1
:203B8300123EA6E4F0A3F0123EECFFE4124814123EE0C0D0123F1FD0D03400123EA6E0FF5F
:203BA3003395E0FEC006C007E41245918F058E04D007D0067A007B01123F3FEF144E7003E6
:203BC300023E7F123F24740F1248147FFF740E124814023E7F123EAC2404FFC007C0D074A2
:203BE3000B124814D0D0D007C0D0123F1FD0D03400FEC0078E07740A124814D007123ECAC7
:203C03002402E864803480400E740A124709123EF1123E93123FD6123EAC2402FFC007C0DA
:203C2300D07407124814D0D0D007C0D0123F1FD0D03400FEC0078E077406124814D0071252
:203C43003E8EE0FFC007C082C0837404124814D083D082D007A3E0F8C0E0C007880774051E
:203C6300124814D007D0E04F7008123F247EFF023E84123E89123F157003023D25123F0A5E
:203C8300487011123EE7C082C083123E93D083D082123F0F123ED2C082C083123E93D083D7
:203CA300D082E4F0A3F0EF2406F9E43EF8123E8EC082C083123EA1D083D082123F2AFAA30B
:203CC300E0FBEFC39BEE9A30D202B2E730E71A123EEC8D828C83C0E0C082C083123E93D031
:203CE30083D082D0E0F0123EF1123E93123E8EC082C083123EA1D083D082123F2AF8A3E039
:203D0300F96F7004EE68601A123EECFFBF0A028003023E7F740E1246D9FFBF0002800302B4
:203D23003E7F123F0AF9487003023E16E9C3C0E0C0D074051246D9FFD0D0D0E09FFFC0D05B
:203D43007403124814D0D0E8C0E0C0D074041246D9FFD0D0D0E09FFFC0E07402124814D0D9
:203D6300E030E703023E16C0E074031246D9FFD0E04F7003023E16123EE0C0D0123F1FD0E1
:203D8300D03400123EA6C082C08374041247098F058E04D083D082E0FF3395E0FEC006C0F1
:203DA3000774021247098F038E02D007D006123F3FEFC0E074031246D9FFD0E06F700EEE01
:203DC300C0E074021246D9FFD0E06F6046123EBD123ED9C0D0123F1FD0D0123EFE6005123A
:203DE3003EF78007123ED27402F0E4C0E0C082C083123EA1D083D082D0E0A3F0123E8EC0FC
:203E030082C083123E93D083D082123F0F7FFF7EFF806E123EE7C082C083123E93D083D047
:203E230082123EB1C0E0C082C083123E89D083D082D0E0A3F0123F157042123ED9C0D01233
:203E43003F1FD0D0123EFE600A19B9FF0118123EF78008123ED27401F074FFC0E0C082C054
:203E630083123E93D083D082D0E0A3F0123EECF8123E988B828A83E8F0123EF1740E1247C7
:203E8300097B100246A2740C0247098F828E83227408024709123E8EE0FAA3E0FB227406EB
:203EA300024709F8898288832274090246D9E0F8A3E0F9123E8EE8F0E922123E89123E8E13
:203EC3007E007F8002459A123E8EE0F8A3E022740A12470980B5123EAC2406F922123EACD4
:203EE300240AF922123EA180A2740F0246D9123E8E02478F123ED2E8F0E9223400123EA6DA
:203F0300E0F8A3E0F94822123E9380BB123EB1A3F022123ECA5408FBE4FA4B22740802468C
:203F2300D9123EBD7FFF22E0FCA3E0FD123E98EDC39BFFEC9AFE89828883E0220243512216
:203F43008F018E008D078C0680050FBF00010E8F828E83E0FA600A89828883E0FBEAB503BF
:203F6300E9EA6005890788062289828883E0FA09B9000108EA70CDE4FFFE2279021246729C
:203F83008F018E008D078C06E4124821E4FFFE8036C006C007E41247098F058E04D007D044
:203FA3000680050DBD00010C8D828C83E0FA600A89828883E0FBEAB503E9EA60110FBF0095
:203FC300010E09B900010889828883E070C37B020246A279121246727408124821E4FFC085
:203FE300E0740D124814D0E0FF740C124814E41242AD1242A3C0E01242A8FFD0E04F706903
:204003007F0074091248147F0474081248147F0474041248147408124709123FD6740D12C5
:2040230046D94FFF740D124814740C1246D94EFF740C1248141242A3240BFFC0D0740912F1
:204043004814D0D0C0D01242A8D0D03400FF740812481474041246D9FF1FC00774041248B8
:2040630014D007BF00AF02427F1242A3FF2404F8C007C0D088077411124814D0D0D007C0FB
:20408300D01242A8FED0D03400F8C00788077410124814D007EF2408F9C007C0D0890774F9
:2040A3000F124814D0D0D007E43EF8C0078807740E124814D00789828883E0F8A3E0540409
:2040C300FBE4FA4B600302420CEF2402F9C0D01242A8D0D0340012429DC082C0837410128C
:2040E3004709D083D082E0F8C007C082C0838807740A124814D083D082D007A3E0F8C0076B
:204103008807740B124814D0078F828E83E030E7030241C6124293E0F8A3E0C3C0E0C0D0EF
:20412300740B1246D9FFD0D0D0E09FFFC0D07407124814D0D0E8C0E0C0D0740A1246D9FF00
:20414300D0D0D0E09FFFC0E07406124814D0E030E7030241EAC0E074071246D9FFD0E04FA5
:2041630070030241EA1242A3240AF9C0D01242A8D0D0340012429DC082C083740A124709C8
:204183008F058E04D083D082E0FF3395E0FEC006C00774061247098F038E02D007D0061282
:2041A3003F3FEFC0E074071246D9FFD0E06F700EEEC0E074061246D9FFD0E06F6029124273
:2041C300BD8024124289E0FEA3E0FF2401EE64803480401312462C1248BDE4FEFDFC7F014A
:2041E300124533E412483B124293C082C083740A1246D9D083D082F0C082C083740B1246AD
:20420300D9D083D082A3F080241242A32406F9C0D01242A8D0D0340012429DE0F8A3E064BC
:20422300FF7005E864FF600574FF1242ADE4124722EF4E4D4C603E12489B740D1246D92445
:204243000AF9C0D0740C1246D9D0D0340012429DE0FF3395E0FE7C007D011243567B041297
:204263004569EC04700FED04700BEE047007EF0470031242BD124289E4F0A3F0740C1247B5
:20428300097B120246A274101247098F828E832274081247098F828E8322F889828883221F
:2042A30074090246D974080246D9FBFAF9F88B078A0689058804E402483B740E1247098FC2
:2042C300828E837E007F8012459A7FFF740D1248147FFF740C02481479031246727F0074D8
:2042E300011248147F04E41248147F04740212481474011246D92408F9C0D0E41246D9D0D0
:20430300D03400F889828883E0F8A3E0486007E412470912435D74011246D9240BFFC0D022
:204323007401124814D0D0C0D0E41246D9D0D03400FFE412481474021246D9FF1FC007742D
:2043430002124814D007BF00A87B030246A28B078A062274FFFFFEFDFC227908124672C06A
:2043630006C0077402124821D007D006EF2408F9C0D089077407124814D0D0E43EF8FF7485
:20438300061248141244F9F95403FBE4FA4B7003024477E95410FBE4FA4B60030244771210
:2043A30044F2C007C0D07401124814D0D0D007C0D0124514D0D03400FEC0078E07E41248AC
:2043C30014D0078F828E83E0F8A3E02401E864803480400DE41247098F828E8374FFF0A312
:2043E300F07402124709123FD6C006C00774061247098F018E00D007D00674041248211292
:2044030044F95420FBE4FA4B6028900745E0F8A3E0F91244DD2402FBC0D0124514D0D034E9
:2044230000FA8B828A83E0FEA3E0FF898288831247411244DD240AF9C0D0124514D0D0124E
:20444300450CE0FF3395E0FE124527EE30E703124519124502E0F8A3E05424FBE4FA4B60DD
:20446300301244EBC0D0124514D0D012450CE4F0A3F0801D900747E4F0740DA3F012451990
:204483001244F2C0D0124514D0D03400FEE4124821124502C082C083E4124709D083D082DC
:2044A3001244E2E4F0A3F01244EBC0D0124514D0D012450CC082C0837402124709D083D09B
:2044C300821244E2C082C0837404124709D083D082E4F0A3F07B080246A274030246D9E4CB
:2044E300F0A3F08F828E83221244DD2402F9221244DD2404FF2289828883E0F8A3E02274FB
:20450300061247098F828E83223400F8898288832274020246D97FFF74051248147FFF749A
:20452300040248147FFF7EFF22ED2FFFEC3EFE221246E5D0E02FFFD0E03EFED0E03DFDD0D3
:20454300E03CFC22C000C001C002E0F8A3E0F9A3E0FAA3E02FFFEA3EFEE93DFDE83CFCD020
:2045630002D001D000227A00CBC0A8C2AF2511F511EA3510F510D0A8EB222511F582E510BE
:204583003400F583222511FFE51035F0FE222511FFE5103400FE22E04EF0FEA3E04FF0FF80
:2045A30022C083C082E0C0E0A3E0C0E0A3E0C0E0A3E0C0E0124533D082D083ECF0A3EDF0DD
:2045C300A3EEF0A3EFF022C083C082E0C0E0A3E0C0E0A3E0C0E0A3E0C0E01248C9D0E0FF73
:2045E300D0E0FED0E0FDD0E0FCD082D083F0A3EDF0A3EEF0A3EFF022C083C082E0C0E0A3CF
:20460300E0C0E0A3E0C0E0A3E0C0E0124A10D0E0FFD0E0FED0E0FDD0E0FCD082D083F0A377
:20462300EDF0A3EEF0A3EFF022EE3395E0FDFC22FFE4FEFDFC22E4FDFC22E0A3CCC583CD65
:20464300C582CCF0A3CDC583CCC582CDEF70011E1FEE4F70E522AE83AF82A3E024FFF0CFA4
:20466300F5828E83E034FFF0FE227800F980077800E480027800C0F0F5F0C3E51199F582E0
:20468300C0A8C2AFF511E51098F510D0A8F583E5F060097812E6F008A3D5F0F9D0F0227A53
:2046A30000C0E0801A7A00C0E08006C0E0E4FAE9FB8510838511827812E0F608A3D9FAC0ED
:2046C300D0E5112BC0A8C2AFF511E5103AF510D0A8D0D0D0E0222511F582E5103400F5839B
:2046E300E022C0E0E581141414C8C618C9C618181818C608C9C608C9C608C9C608C9C608B4
:20470300C9C6C8D0E0222511F582E5103400F583E0FEA3E0FF222511F582E5103E80EF2529
:2047230011F582E5103400F583E0FCA3E0FDA3E0FEA3E0FF222511F582E5103E80E9E4732C
:2047430030E70EF404C582C39582F58250021583222582F58250F9058322EF2582F582EE89
:204763003583F58322C3EF33CE33CE2582F582E5833EF58322C0F0EFA42582F582E58335D4
:20478300F0F583D0F0EEA42583F58322AE83AF82A3E02401F0CFF5828E83E03400F0FE22A5
:2047A300C083C082E0FDA3E0FEA3E0FFA3E02401F0CF3400CE3400CD3400FCD082D083F062
:2047C300EDA3F0EEA3F022E0FCA3E0FDA3E0FEA3E0FF22C000C001C002C003E0F8A3E0F9D8
:2047E300A3E0FAA3E0FBC3EF9BFFEE9AFEED99FDEC98FCD003D002D001D00022C0F0ED8F52
:20480300F0A4CFC5F0CCA42CCE8DF0A42EFED0F0222511F582E5103400F583EFF02225115F
:20482300F582E5103400F583EEF0A3EFF0222511F582E51035F080EE2511F582E5103400D0
:20484300F583ECF0A3EDF0A3EEF0A3EFF0222511F582E51035F080E81246E5D007D006D073
:2048630005D00422FAE511C0A8C2AF700215101511D0A8851083851182EAF022E51124FEF8
:20488300C0A8C2AFF511F582E51034FFF510D0A8F583EEF0A3EFF022E51124FCC0A8C2AF31
:2048A300F511F582E51034FFF510D0A8F583ECF0A3EDF0A3EEF0A3EFF022C004C005C0068B
:2048C300C007124ABC221246E5C0F0E8C0E01246E575F000E58124FDF8E630E70505F01235
:2048E3004915EC30E709E5F02402F5F0124AA7124A10E5F0601030E003124AA7E5F0B40315
:20490300028003124915124ABCD0E0F8D0F0124ABC22E58124FEF8E6F42401F618E6F4344A
:2049230000F618E6F43400F618E6F43400F622ED540F600AFDEF25E0CE33CEDDF9FF22EDC6
:20494300540F600AFDEEC313CF13CFDDF9FE22E0C0E0A3E0C0E0A3E0C0E0A3E0C0E01248DC
:20496300C9D0E0D0E0D0E0D0E022ECF0A3EDF0A3EEF0A3EFF022BC0014BD0002D322BE00C6
:204983004FC5F08DF0CF84CFADF0C5F022BE0008EFFDEEFCE4FFFE22C3EF9DEE9C40F1C094
:2049A300F0E8C0E0E9C0E0E4F97801C3EF33FFEE33FEE933F9EE9DF5F0E99CB35003F9AEE3
:2049C300F0E833F850E5E9FCEEFDE8FF7E008033C0F0E8C0E0E9C0E07809EFF97F008DF08E
:2049E300ACF0EE84FEE5F0C35006CF33CF9C80089C50012CCFB333CFC925E0C9FD35E0D8A7
:204A0300E77C00D0E0F9D0E0F8D0F0C322EF4E4D4C7002D322E8C0E0E9C0E0EAC0E0EBC0B7
:204A2300E0E4C0E0C0E0C0E0C0E07A207B04E58124F3F8E67013EA24F8FA080808E4C6185E
:204A4300C618C618F6DBED80427B04E581F924F6F8C3E633F618DBFA7B04E733F719DBFAEA
:204A6300C3E581F8E69F18E69E18E69D18E69C4018E58124F6F806C3A881E69FF618E69EE3
:204A8300F618E69DF618E69CF6DABED0E0FFD0E0FED0E0FDD0E0FCD0E0FBD0E0FAD0E0F9B0
:204AA300D0E0F822EFF42401FFEEF43400FEEDF43400FDECF43400FC22C0E0E58114141488
:204AC300C8C618C9C618C9C618C9C618C9C618C9C608080808C608C9C6C8D0E02280FEEF7E
:204AE3004E6012A907A806E96001081FBFFF011E00D9F8D8F622D295D2947F057E00124A5B
:204B0300E2C2957F017E00124AE2C2947F057E00024AE2C294C295124BF07AD07B08124B73
:204B230049209404DAF8DBF6D2957AD07B08124B49209504DAF8DBF6309407309504E4F828
:204B430080027802E8227E007F0A024AE28F027B80EA5B640024FFE43378004824FF92959E
:204B63007E007F01124AE2D2947E007F09124B7670DF22124AE2C294124B49EBC313FB222E
:204B83007A00D2957B80124B9D309503EA4BFA7E007F01124B7670EEEA22D2947E007F089F
:204BA300024AE2EFFA24FF929500124B9DEA6005E4A29533FA7E007F01124AE2C294124B11
:204BC30049EA22D295D2947A09C294309509C295124BF0D2958003124BF0124B49DAEA3094
:204BE3009507309404E4F880027803E822124B49D29422740212466D124C4B54FE124C4267
:204C0300702880208D828C83E0FF0DBD00010C124B501513E513B4FF0215127F01124BA659
:204C230064016006E513451270DA124B16E5134512600478038002E4F8E879020246AEFFB6
:204C4300124B507F01024BA68FF08B138A12124AF9E5F022740212466D124C4B4401124CA5
:204C6300427043E51345126037124B838D828C83F00DBD00010C1513E513B4FF021512E5B0
:204C8300137007E5127003C38001D392F0E433F87901E9C398FBFF124BA6B5030920F0C920
:204CA300E5137002E512E5137007E5127003C38001D392F0124B1630F00478038002E4F8AE
:204CC300E879020246AE7F00309708E590540F04FFD290C2907E0022124CE3548070F9225B
:204CE300900202E022900201EFF0024CDB900200EFF0024CDB7F30124CF07F30124CF07F6D
:204D030030124CF07F38124CF07F06124CF01200177F007C047D4C1204257F017C047D543D
:204D23001204257F027C047D5C1204257F037C047D641204257F008F051203CD124D6F023D
:204D43004D780102000800000008050104000045034505020745000021A100900744E054BD
:1E4D6300FC4F8000F0E04408FF024CF0900744E054FC024D67900744E04404024D6794
:0400000500000026D1
:00000001FF
