:020000040000FA
:060000000200260234F1AB
:0C000B000205CD2582F5825002058322FB
:2000230002036F75D000759F00758F1075811C751BE7751A5C124141E4FFFE1238EB123C70
:20004300E832004469736B00003508880000000000500AFC00154D6F00000000776561745B
:2000630068657264656D6F2E7465737400C0A86402C0A8640145B945B445AF45AA45A64506
:20008300A1459C45974592458D45884583457E457945754571456D45684563455E45594543
:2000A30054454F454A000000000000000000000000000000000000000000000000000000C6
:2000C30000000000000000000000000000000000000000000000000000000000000000001D
:2000E3000000000000000000000000000000000000000000000000000000000000000000FD
:200103000000000000000000000000000000000000000000000000000000000000000000DC
:200123000000000000000000000000000000000000000000000000000006000000422F0045
:2001430000000000000000000000000000000000006874646F637300000000000000000017
:200163000000000000C3EF33CE33CE2582F582E5833EF583221201E1900522E4F0E0D394A4
:2001830002400374FF22438780758DFCE589540F4420F589D28E900522E024FFB3E43303A0
:2001A300548024D0F598900520E4F01201D21201C3900521E4F0C2BCC2B0D2ACD2AFE42224
:2001C30090051AE4F0A3F0900518E4F0A3F02290051EE4F0A3F090051CE4F0A3F022C2AC0E
:2001E300759800E422C0F0EFA42582F582E58335F0F583D0F0EEA42583F58322120222E9D0
:2002030024BFE834F95003E4F9F890051CE0FAA3E0FBE9B50307E8B50203740122E422903B
:20022300051E12031909B900010822AE83AF82A3E02401F0CFF5828E83E03400F0FE228F79
:200243000312022289058804ED24BFEC34F95003E4FDFC1202866D7004EC6860F690051E57
:20026300E0FEA3E0FF904C661201687A00EAF0EBA3F090051EECF0EDA3F0900520E0700276
:20028300D2992290051C02031990051A120319900518E0FAA3E0B50107EAB5000374012222
:2002A300E422E493FCA3E493FDA3E493FEA3E493FF2290051812031990051AE0FAA3E06908
:2002C3007004EA6860ECC2AC9005161239C790051612030F5004D2B08002C2B0900518E0B8
:2002E300FEA3E0FF903F1C120168A3E0F890051812022E900518E0F9A3E0245BE934F950BD
:2003030007900518E4F0A3F0D2ACE822E0F8A3E024BFE834F922E0F8A3E0F922EF540460A5
:2003230007C2AC1201C3D2ACEF5403B40308C2AC1201D2D2AC22EF54016017900520E06049
:200343001112028690051EE0FAA3E0B501F3EAB500EF22E0FCA3E0FDA3E0FEA3E0FF22C243
:20036300AC900521E0F8E4F0D2ACE822C0E0C082C083C0D075D008D2B2309868AB99900555
:200383001AE0F8A3E0F909B9000108890D880CED245BEC34F95003E4FDFC900518E0F8A31A
:2003A300E0F96D7004EC68602590051AE0FEA3E0FF903F1C1201687A00EAF0EBA3F09005CB
:2003C3001AECF0EDA3F090051612022E80069005217401F0C29890051612043E5004D2B0E7
:2003E3008002C2B030994BC29990051EE0F8A3E0F990051CE0FAA3E0B5090AEAB50806907D
:200403000520E4802C90051CE0FEA3E0FF904C66120168A3E0F59990051C12022E90051CA1
:2004230012043E500790051CE4F0A3F09005207401F0D0D0D083D082D0E03202030F123758
:2004430074D0E0C39FFFD0E09EFED0E09DFDD0E09CFC22C000C001C002E0F8A3E0F9A3E0FA
:20046300FAA3E0C39FFFEA9EFEE99DFDE89CFCD002D001D00022C000C001C002C003E0F89F
:20048300A3E0F9A3E0FAA3E0FBC3EF9BFFEE9AFEED99FDEC98FCD003D002D001D00022C0E5
:2004A300F0ED8FF0A4CFC5F0CCA42CCE8DF0A42EFED0F0221237748050E0C0E0A3E0C0E0EC
:2004C300A3E0C0E0A3E0C0E0803FE493C0E0A3E493C0E0A3E493C0E0A3E493C0E0802A889D
:2004E300F0E6C0E008E6C0E008E6C0E008E6C0E0A8F0801588F0E2C0E008E2C0E008E2C07E
:20050300E008E2C0E0A8F08000E4C0E0C0E0C0E0C0E0E581CBC0E0EAC0E0E9C0E074FC2B73
:20052300C8C0E07A04EF1205851BEE12057B1BED12057F1BEC120583180B0BEF12057B1BA3
:20054300EE12057F1BED120583180BEF12057F1BEE12058318EF120583D0E0F8D0E0F9D065
:20056300E0FAD0E0FBD0E0FFD0E0FED0E0FDD0E0FCE58124FCF581227A0380067A0280021E
:200583007A01F5F0EBF9E6A427F7DA0122E5F01937F7DA0122500619E437F7DAF822AE1023
:2005A300AF11C3E5109E70F6E5119F60031470EE228F018E001205A1E92FFBE83EFA120510
:2005C300A1EFC39BEE9A20E7F522C0E0C0D075D000E515700215141515E51545147012E596
:2005E300112401F511E5103400F510851214851315D0D0D0E032C28C75130F751200758C47
:200603000A858C8AE58954F04402F589E4F511F51075150F75140043B802D28CD2A9D2AF54
:2006230022251BF582E51A3400F583EFF022251BF582E51A3400F583EEF0A3EFF022251B0E
:20064300F582E51A35F080EE251BF582E51A3400F583ECF0A3EDF0A3EEF0A3EFF022251B6B
:20066300F582E51A35F080E88F018E008907880689828883E0FA120810EA70F419B9FF01FE
:2006830018120699FA89828883F00DBD00010C120810EA70EC228D828C83E49322123774B1
:2006A300D007D006D005D004228F018E00120699FA8F828E83F00DBD00010C1207BDEA70DD
:2006C300EC8907880622120699F80DBD00010C8F828E83E0F91207BDE96004E96860E7E9CC
:2006E300C398FF95E0FE22E51B24FEC0A8C2AFF51BF582E51A34FFF51AD0A8F583EEF0A3D4
:20070300EFF0228F018E008F038E0289828883E493FC120810EC70F3E9C39BFFE89AFE1FAE
:20072300BFFF011E228F018E008D078C0680271BBBFF011A8F828E83E493FC1207BD898266
:200743008883E0FD120810ED6004ED6C6008EDC39CFF95E08006EB4A70D5E4FFFE22E51BAF
:2007630024FCC0A8C2AFF51BF582E51A34FFF51AD0A8F583ECF0A3EDF0A3EEF0A3EFF02244
:200783008F038E028D078C0680031207BD8F828E83E493F8600A8B828A83E0F9E8B501EA3F
:2007A300E860058B078A06228B828A83E0F80BBB00010AE870CEE4FFFE220FBF00010E22BA
:2007C30074011238441206996039802E8D018C008F038E0280081208100BBB00010A898251
:2007E3008883E493F5F0600B8B828A83E0F51665F060E3E5F0600C1207BD8F828E83E070FE
:20080300CB80028003E4FFFE79010237B009B900010822C004C005C006C00712146A2212FA
:2008230004560214D41204790214D4BC0005BD0002D322C0F075F000EE30E70C05F0EFF485
:200843002401FFEEF43400FEEC30E710E5F02402F5F0EDF42401FDECF43400FC1211FDE552
:20086300F0601E30E00AEDF42401FDECF43400FCE5F0B40302800AEFF42401FFEEF43400A5
:20088300FED0F02222790C740412384E8D078C06740A120631903600E0F8A3E048700302F3
:2008A3000980751908751836903F08E0FFC082C0837406120624D083D082A3E0FF740712AE
:2008C30006247E368E0774081206247F08C0077409120624D0078F828E83E0700302097715
:2008E3007517B675163BE517D39519E51695185003020980851982851883E0FF740412063B
:2009030024AF19AE18120A38120A57C006C00774061237328F058E04D007D006123F35EF91
:200923004E7051120A5774071237982BFDC0D07406123798D0D03AFCE5192BF9E5183AF89C
:2009430009B90001088919881889828883E0F870098D828C83E0600A801A8D828C83E0B46C
:200963002E128D078C06120A387406120631E860030208E9851982851883E06006E4FFFE52
:20098300020A31740A1237329035F4127E4A858217858316AF17AE16C006C0077408123773
:2009A300328F058E04D007D006123F187408123732120A52E5172FF519E5163EC0E07408D3
:2009C300123732D0E0F518120A52740B1237982FF517C0D0740A123798D0D03EF51685195D
:2009E30082851883E4F0AF19AE18120A3E7401F00F120A62120A62120A467404F0120A3808
:200A03007A007B047C3F7D00124034E517240EF9E43516F89035FE7E807F00123DBD9036BC
:200A230002E4F07401A3F089078806126EB479047B0C0237AA0FBF00010E22120A388F8238
:200A43008E8322BF00010E8F828E83E4F080EC123EA680E17404123798FB3395E0FA2212AF
:200A63000A467401F0120A3EE4F00F22123774C0F0E8C0E012377475F000E58124FDF8E6E3
:200A830030E70505F0120ABBEC30E709E5F02402F5F01213981212E0E5F0601030E0031254
:200AA3001398E5F0B403028003120ABB12146AD0E0F8D0F012146A22E58124FEF8E6F42478
:200AC30001F618E6F43400F618E6F43400F618E6F43400F622ED540F600AFDEF25E0CE33FA
:200AE300CEDDF9FF22541F600FCF25E0CE33CECD33CDCC33CCDFF3FF227909740412384E8C
:200B030074081206248D078C0674041206318B078A06740612063174091237327404123795
:200B230032EF241DF519E43EF518EF2418F9E43EF8121186E0F864036020E86404601BE5BD
:200B4300192414120CE97003020CB1E5192402FFE43518FE121DF0020CB17406123798C0BD
:200B6300E07407123798FFD0E04F60707A007B047C137D777E367F08120728EF4E705D75F1
:200B8300170C751636120CC1C0D07404123798D0D0120CE11FBFFF011E903608127E4AE47F
:200BA300F0AF17AE167C137D7C120783EF4E60068F828E83800390360CE4F0E5192402FD85
:200BC300E43518FCAF17AE16120CF3E5192415F9E43518F8121186EEF0EFA3F0E5192415B1
:200BE300120CE9F8A3E0487003020CB17407123798C0E07406123798FFD0E04F6008120C1B
:200C0300D47003020CB17408123798701D120CD47018120CC1C0D07404123798D0D0120CE1
:200C2300E1851982851883123DAB74051237982414F517C0D07404123798D0D03400F51630
:200C4300851782851683120CBB1206EAE5192415120CE9FEA3E0FFE5192402FDE43518FC6E
:200C6300851982851883E0FAA3E0FB120EFA7B02123E1F851782851683E0F8A3E0F9EFD381
:200C830099EE98401689078806C006C007120CCAD007D00612118674108010C006C0071240
:200CA3000CCAD007D0061211867419F08003E4FFFE79047B090237AAE0FEA3E0FF22740545
:200CC3001237982414F92274091237328F018E002274091237328F828E83E05408223400F9
:200CE300F812118680D2F9E43518F8121186E022790E740412384EC006C007120EE7D0072F
:200D0300D006C006C0078D078C06740C120631D007D0067C137D801207C38F178E16E51723
:200D230045166033120EF54E600B120EF5D39517EE95164022E5172402FFE43516FEC00651
:200D4300C007120EE7D007D0067C007D2F123FA5EF4E6003120EE78006120EEC120EE712A5
:200D63000EEC8F828E83E0642F60EE120ED21FBFFF011EC006C007120ECD8F018E00D00736
:200D8300D006121186127E4AE0B42F0A120ECD7C137D8312066B120ECDE4F8C0E0C0078873
:200DA30007740B120624D007D0E0F8C0078807740A120624D007120EC44E6004120EE1F081
:200DC300120ECD7C007D2E123F71EF4E600B0FBF00010E8F198E188017120ED2740712371A
:200DE300982FF519C0D07406123798D0D03EF51879C07812120ED87F0074081206249012B1
:200E0300C0E493F874019348605474041237328F178E16120EE193FC740193FDAF19AE183C
:200E23001206C9EF4E700F7408123798FE7F00740A1206318028E5172404F9E43516F81273
:200E43000ED87408123798FF0F74081206247404123732120EE193F87401934870AC120E7B
:200E6300CD8F178E167C007D2F123F71EF4E600B120EE1F00FBF00010E8009AF17AE16E401
:200E8300F517F5161206EA740E123732AB17AA167C057D0F121CA47B02123E1FEF4E701629
:200EA300740B12379824FFFFC0D0740A123798D0D03400FE80047FFF7EFF79047B0E02372E
:200EC300AA7C007D3F123FA5EF227406023732120ECD023EA68907880674040206318F828E
:200EE3008E83E4227406020631120ECD0FBF00010E22120ECD80CA7908740412384E7406F7
:200F03001206318D198C1874081237328F018E00903F1A7436F07408A3F012106E903F161F
:200F2300E8F0E9A3F0903F18E4F0A3F07406123798F517751600F5F07E137F8E1211BD7443
:200F4300061237980470217407123798240360121460091470127FAD7E1380107FC07E13ED
:200F6300800A7FD67E1380047FED7E131211BD7E137FF41211BDE5F02403600C14600914C0
:200F8300700C7FEB7E1180297FD47E118023AF17AE167D02120AD8EF24C0F9EE3412F8E9CD
:200FA3002402FBE438FA8B828A83E493FE740193FF1211BD7E147F201211BDE5192412122A
:200FC3000CE9607E903F14120CBB123B15120761AF19AE187D001226C37B04123E1F903FE0
:200FE30014E4F0A3F0903F18E0F8A3E0F9903F1AE0FAA3E029FDEA38FC903F16E0FEA3E068
:20100300C399FBEE98FAAF19AE181228F9EE20E7094F6006903F18123DABAF19AE18C0064D
:20102300C0077404123E0B8F058E04D007D0067A007B011228F9EE20E7214F601E1210779B
:2010430080197407123798FFBFFF107406123798FFBFFF077E147F471211BD12106879046D
:201063007B080237AA903F18020CBB903F14EAF0EBA3F022903F1802022E541F600FCCC370
:2010830013CD13CDCE13CECF13CFDCF3FC228F00903F14E0FAA3E0FB4A600B1BBBFF011AD1
:2010A30012106E740122121068903F16E0F9A3E0D39FE99E4017903F1AE0FAA3E0FB8B829D
:2010C3008A83127E4AE8F0121077740122121077E42274021238448F178E16121100600CA2
:2010E300851782851683E01210F470EF79020237B0FF0517E517700205160210918D018C97
:20110300001DBDFF011CE948228F058E048D828C83E0FF600512111E70F3220DBD00010C5E
:20112300021091ECF0A3EDF0A3EEF0A3EFF02279051238498F038E0275F0057405123E140E
:20114300A982A88319B9FF011815F012118BED2430121186F012118B8F038E02EB4A70E466
:20116300E4123E0B8F018E00E925F0FFE438FE78007905E9C395F0FDE498FC1210D57B05E5
:201183000237A489828883228B078A067C007D0A0211FD74021238448F178E161211006031
:2011A3000D851782851683E4931210F470EE79020237B01204564D4E4F228F058E048D82E7
:2011C3008C83E493FF600512111E70F22274787400746578742F706C61696E001204794D19
:2011E3004E4F2268746D6C00746578742F68746D6C0068746D0067696600BC0014BD0002C1
:20120300D322BE004FC5F08DF0CF84CFADF0C5F022BE0008EFFDEEFCE4FFFE22C3EF9DEE25
:201223009C40F1C0F0E8C0E0E9C0E0E4F97801C3EF33FFEE33FEE933F9EE9DF5F0E99CB307
:201243005003F9AEF0E833F850E5E9FCEEFDE8FF7E008033C0F0E8C0E0E9C0E07809EFF947
:201263007F008DF0ACF0EE84FEE5F0C35006CF33CF9C80089C50012CCFB333CFC925E0C94C
:20128300FD35E0D8E77C00D0E0F9D0E0F8D0F0C322696D6167652F676966006A70656700FA
:2012A300696D6167652F6A706567006A706700706E6700696D6167652F706E670011D01164
:2012C300D411E611EB11F511EB11F91294129E12A312AE12A312B212B600000000EF4E4DA2
:2012E3004C7002D322E8C0E0E9C0E0EAC0E0EBC0E0E4C0E0C0E0C0E0C0E07A207B04E5812F
:2013030024F3F8E67013EA24F8FA080808E4C618C618C618F6DBED80427B04E581F924F644
:20132300F8C3E633F618DBFA7B04E733F719DBFAC3E581F8E69F18E69E18E69D18E69C40BE
:2013430018E58124F6F806C3A881E69FF618E69EF618E69DF618E69CF6DABED0E0FFD0E0E3
:20136300FED0E0FDD0E0FCD0E0FBD0E0FAD0E0F9D0E0F8224745542000200D0A002F2F00B6
:20138300696E6465782E68746D6C00485454502F312E302000EFF42401FFEEF43400FEED29
:2013A300F43400FDECF43400FC223430342046494C45204E4F5420464F554E4400343930B1
:2013C300204552524F5220494E204347492043414C4C00343931204552524F5220494E205B
:2013E3004347492056414C554500323030204F4B000D0A436F6E74656E742D747970653A13
:201403002000E0C0E0A3E0C0E0A3E0C0E0A3E0C0E01212E0D0E0D0E0D0E0D0E0220D0A0DB6
:201423000A00C000C001C002E0F8A3E0F9A3E0FAA3E06FFFEA6EFEE96DFDE86CFCD002D0FF
:2014430001D000223C48323E4854545020343034202D2046696C65206E6F7420666F756E74
:20146300643C2F48323E00C0E0E581141414C8C618C9C618C9C618C9C618C9C618C9C608C7
:20148300080808C608C9C6C8D0E0227908123849E412064B7403123798F8AF007404120650
:2014A300247402123798F8AF0074051206247401123798F8AF007406120624E4123798F8E2
:2014C300AF00740712062474041237057B080237A44D4E4F6008CCA2E730D201B3EC220210
:2014E30005B40205F902024274021238448F178E16800A851782851683E012150E851782A3
:20150300851683E070ED79020237B0FF0517E517700205160214E874021238448F178E1619
:20152300800B851782851683E49312150E851782851683E49370EB79020237B07F0102033E
:201543001F74021238448F178E1612028C6003E4800C1202B5851782851683F074017902C3
:201563000237B00201787902123849E41206317E007F021206EA740212373212183E121548
:20158300A2C006C00774021226BBD007D006122F097B02123E1FE41237327B020237A4E92B
:2015A30025E0FFE833FE023B15790212384912183E121C52E41206317E007F021206EA1283
:2015C30015A2C006C00774021226BBD007D0061219F9123E1F7B020237A47908123849E4C9
:2015E30012064B121635E4123705740412064B8017121617C082C083E4123705D083D082E9
:201603001211B6600712161CE94870E51218397B080237A48982888322E92410121627F85E
:20162300A3E0F922FBE43812162FE022FA8B828A832290050DE0F8A3E0F92290050DE0FCCD
:20164300A3E0FDF98C008010E9B50709E8B506057FFF7EFF2212161CE94870EC121673EC27
:20166300F0EDA3F090050DEEF0EFA3F0E4FFFE22EF2410F9E43EF80216171216358903881C
:20168300028022E9B5070EE8B5060A121673E0FAA3E0FB8014E92410FDE438FC8D828C836C
:2016A300E0F8A3E0F9E94870DA90050DEAF0EBA3F0227905740412384E1223EFE47517FF1B
:2016C300F5167FFF7404120624AF17AE16121569EF4E701EAF17AE16AD17AC161215ACE51D
:2016E3001945186029AF19AE18AD17AC161215AC801C1517E517B4FF021516740412379804
:20170300FF1FC0077404120624D007BF00BBAF17AE1679047B050237AA010200100000005F
:2017230006050104000045012305020523000053C500790D740412384E740A120631121C5B
:201743005274081206318B198A18E51830E70C7F00740C12062412187B80077F01740C1290
:20176300062412185412184E12064B021808740412373212183EB9002EB8022B74061237D7
:2017830032121569C006C007740612373212183ED007D006E96F7004E86E60757406120664
:2017A3003112184312063174041237321218941206EA121839123B151208167408123732A0
:2017C30012188C123E8BC006C007740A1237328F038E02D007D006122F097B02123E1F12D8
:2017E300186C1237982517FFC0D07409120624D0D0C0D07408123798D0D03516FF740812F8
:20180300062412185CE51820E70745196003021771740C1237986013121854C082C0837474
:2018230004123705D083D082121126AF19AE1879047B0D0237AA89078806228F018E00226F
:20184300121849740422E4F9F880EB120356740422740A123732021C3FE519C39517F9E592
:20186300189516F889198818227404123E14AF17AE16123DAB740922E519F42401F9E5183A
:20188300F43400F88919881822123B157409020AE812183E7A027B00EBC399F517EA98F5C5
:2018A30016E519D39517E51895165006851917851816AF17AE1622790C740412384EC00625
:2018C300C007740A120631D007D006C006C007121C527408120631D007D0068B198A1812F3
:2018E3001C3F12184E12064BE51830E71412187BE4FFC0E0740B120624D0E0FF740A12065F
:20190300241219F4121A0A7009E4FFFE1216B51219FF1219F4121A0A70030219BF0219B37A
:20192300740412373212183EB90029B802261219F4121569C006C0071219F412183ED007ED
:20194300D006E9B5070BE8B506071216B5EF4E606B1219FF74041237321218941206EA1280
:201963001839123B15120816740812373212188C123E8BC006C007740A1237328F038E0251
:20198300D007D0061219F9123E1F12186C1237982517FFC0D07409120624D0D0C0D074085D
:2019A300123798D0D03516FF740812062412185CE51820E70745196003021923740B123749
:2019C30098C0E0740A123798FFD0E04F6018740A123732121C3FC082C0837404123705D076
:2019E30083D082121126AF19AE1879047B0C0237AA7406023732122E4A7B022274061206B1
:201A03003112184302063112183EE94822790E740412384E1223EF121C52740C1206318BA2
:201A2300178A16740C123732123EA6EF24EEEE34FF4077122BC5E4F0A3F0121AC212184E53
:201A430012064B805B121AED12064BAF19AE18AD17AC167A00121ABDE5172406121ADBE045
:201A63006036E5172407FFE43516FEC006C007740C123732121AB8D007D006121AE37018CA
:201A8300122BC5C082C0837408123705D083D082121126E4FFFE8016121AC97404121AF301
:201AA3007404123705121ACE709B7FFC7EFF79047B0E0237AA8F058E04227B1802173585C9
:201AC300178285168322E4FEFDFC228F038E028D018C00EB4A494822F9E43516F8021617BA
:201AE3007A007B11123F35EF4E22121C39740822123E147F18023DC7791C740412384E123B
:201B0300183E121C727406121C57741A120631121C80E94870209004F5121C6D7E007F184E
:201B2300123A20E4FFFE12156912183E121C27E5192404121C8FE51745167003021C1280AB
:201B430003121C49121C7B642F60F6121C7B7003021C1B121C80E4FDFC7408121C577A100B
:201B6300121C7BFB6019EB642F6014121C3FEBF00FBF00010E121C490DBD00010CDAE174B1
:201B830008123E14121C52127E4AE4F07408123798FABA2E05ED144C606B121C44C006C054
:201BA300077408121C9ED007D006AB19AA18121C667005EE64FF600BE5192406121C2F5402
:201BC30002700E741A123732121C3FE4F0A3F08047121617E0540860167E007F181206EAD6
:201BE300121C39AB19AA18122F097B02123E1FE5192404121C5FF98003121C49121C7BFA76
:201C03006003BA2FF4121C7B6003021B428009121C27121843120631740412370579047BC4
:201C23001C0237AA1218397406020631F9E43518F8121617E022122BC50203568F828E83AA
:201C4300227404023E0B0517E51770020516228D078C0622123E14AF82AE8322121C2FF850
:201C6300A3E022121A10EF64FC22AD19AC18228D178C168B198A1822121AC2E022121C2770
:201C8300E4FBFA8B078A067404020631FBE43518800012162FE8F0E9A3F022123E0B021AA5
:201CA300B8793B740412384E1223EF8B178A16743B123732E5192412F9E43518121DE2C0E6
:201CC30006C00774081226BBD007D006121DDC12064B7422123732121A0A7003021DBD74A0
:201CE3000C123732AD17AC16C006C00774081226BBD007D006121AFB742412064B7426125D
:201D03003732121A0A7003021DBD740C1237327406120631121843120631121C44C006C066
:201D230007743B123732121AB8D007D006C006C00774081226BBD007D006121C667005EE3E
:201D430064FF6076740E123798F8B8046DAF19AE1812163EEF4E60047FFB80607404123713
:201D630005742812064B740C123732742E120631121849742C120631121DC8743012064B1C
:201D83007408123705743412064B740E123798F8AF00743A120624E5192410121C5FFF8831
:201DA3000674381206317428123E14121C6D7E007F13123A20E4FFFE80047FFC7EFF790434
:201DC3007B3B0237AA121DD480008A068905880422E4FBFAF9F88B0722121AFB742022F8C5
:201DE300121DEAE4FFFE22121617E4F0227920740412384E122565E5172412F519E43516DB
:201E0300F518122BC5E05480605AAF17AE16C006C0077404121C9ED007D006121E84E5178A
:201E2300240C121ADB120356741C12064B741C123E14C082C0837404123705D083D0821214
:201E430011B66020401E741C123705740412064BAF17AE16C006C0077404121C9ED007D01F
:201E630006121E7D122F7BAF17AE1612167D122BC5E4F079047B200237AA7A007B180218C9
:201E8300BA7AFF7BE8021735794A740412384E7448120631121C7212214412211CC0D0127B
:201EA300213FD0D03400F8121DEA122144123EA6EF24EFEE34FF50030220DF122144121C51
:201EC3003FE0642E70030220DFE4FFFEAD17AC16C006C00774081226BBD007D006121AFBA3
:201EE300744012064B7442123732121A0A70030220DF740C123732121C6DC006C00774084E
:201F03001226BBD007D006121AFB740412064B7406123732121A0A70030220DF1221548076
:201F230052122129C006C0077424121C9ED007D0067A00121ABD121C7B78005406FBE4FA9B
:201F43004B6028122144C006C007742B121C9ED007D006121AE37013E4FFC0E074491206A5
:201F630024D0E0FF7448120624800D121AC9743C121AF312217470A912217460030220DF77
:201F8300122154803112212E122129C006C0077424121C9ED007D0067A00121ABD121C7B9F
:201FA300700C7444123705742012064B8012121AC9743C121AF312217470CA742A1221128B
:201FC300E4FFFE1216B57428120631121DC8742412064B742B121C57C006C007122144122F
:201FE3001AB8D007D006122138743B123E14E4F0121AC27404F012212E740E12379854405F
:202003006005122174601F7428123732121A0A6015122129C006C0077424121C9ED007D07C
:20202300061221236014E4FFC0E07449120624D0E0FF74481206240220DF7448123732E48E
:20204300FDFC7A007B13123FFF7448123732121C3FC082C0837444123705D083D082121135
:2020630026742812373212183E12210D2406FBC0D012213FD0D03400121C9512211CC0D0DB
:2020830012213FD0D0122BCCC082C083742A123798D083D082F012163512210D2410FBC0FD
:2020A300D012213FFFD0D0122149C082C08312210DD083D082A3F01221747020121AC97423
:2020C30008123E147F18123D85121C44C006C0077408121C9ED007D006121E7D122F7B7B4E
:2020E300FE7AFF12210DB4000912213FB40003C38001D3E433780025E0FDE833FCEB2DFF6A
:20210300EA3CFE79047B4A0237AA7449023798123E148582178583162212210D2412F92292
:20212300121E7DEF4E227420023E0B7420123705744402064B7A007B11023EC974480237C0
:2021430098744A0237323400121C9590050DEFF022740C1237327422120631121849742040
:202163001206317408123705743C12064B742A809E743C123705021ACE793A740412384ECF
:202183001223EF8D178C168B078A067438120631E4FFFE121C6DC006C00774041226BBD077
:2021A30007D006121AFB743312064B7435123732AD17AC16C006C00774041226BBD007D0C5
:2021C30006121AFB742F12064B74381237321206EA741E123E0B121C6DAB17AA16121E8BDB
:2021E3007B02123E1F122565E517451660030222A7121DD41222CF743112373212183E74CD
:2022030008120631740A123E14858219858318740AF0742F123732123B15120816121839C7
:2022230012188C123E8B740412064B740B123E0B7C2D7D751206AC122129C006C007740495
:20224300121C9ED007D0061221236021121DD41222CF1222C0C006C0077404121C9ED00789
:20226300D0061222B57517FD7516FF80371222C0C006C0077404121C9ED007D006121E84AC
:20228300122BC57402F0E4FAF9F87F181222CF742F123E0BC006C0077404121C9ED007D0F4
:2022A300061222B5122F7BAF17AE1679047B3A0237AA121E7D741C123E0B02167D741C1202
:2022C3003705742F12064B742F023E0B121DCD740402064B7924740412384E12183E121CC1
:2022E300721223E7C006C00774041226BBD007D006121DDC12064B7422123732121A0A7083
:20230300030223DC7408123732AD17AC16C006C00774041226BBD007D006121AFB741C12CB
:20232300064B741E123732121A0A70030223DC7408123732741E120631121849741C1206A5
:2023430031741C123E0B121C6DC006C00774041226BBD007D006121A10EF4E707C740A1229
:202363003E14A982A883E05404606E121DEA7E007F181206EA741E123732123B15120816DD
:20238300742012373212188C123E8BC006C00774061226BBD007D0061219F9123E1F7408E4
:2023A3001237321225658026AF17AE161215691223EFE4FDFCAF17AE161215ACE51765196B
:2023C3007006E5166518600C851917851816E517451670D4E4FFFE80047FFC7EFF79047B48
:2023E300240237AAE4FFFE89058804228F198E18227930740412384E12256F700302255AF3
:202403001223E7C006C007740C1226BBD007D006121AFB742812064B742A123732121A0A7B
:20242300700302255A12256A121C6DC006C007740C1226BBD007D006121AFB742C12064B92
:20244300742E123732121A0A700302255A12256A7406120631121843120631121C44AD17E2
:20246300AC16C006C007740C1226BBD007D006121C667008EE64FF700302255A74121221E0
:2024830012E0B4026412256A740A1206317F187E007408120631121AC9740C123E147F187B
:2024A300120456742412064B80297408123E0BC006C007740C121C9ED007D0067A00121A06
:2024C300BD121C7B60057FFA02255C121AC97424121AF37424123705121ACE70CD740412DF
:2024E30037051215DDEF4E60047FFB806C121C44C006C007740C121C9ED007D006121E84E6
:20250300121AC2E4F0121C44C006C007740C121C9ED007D006121E7D12256A1223EFE5198E
:202523004518602EAF19AE18121569122565E4FDFCAF19AE181215AC851719851618E51751
:20254300B517028003022527E516B516028003022527E4FFFE80047FFC7EFF79047B3002B9
:2025630037AA8F178E1622741002373212183E8D198C188B178A16E5174516227926740498
:2025830012384E1223EF740A123E0B12183E902D78AD01AC007E007F18123A3DE4FFFE7CB1
:2025A300FF7DFF1215AC7F017E0074041206317517027516007E007F021206EAE4FFFEFD13
:2025C300FCC006C00774061226BBD007D0061219F9123E1F7E007F021206EA121AC9C00606
:2025E30074061226BBD0067F021219F9123E1F7404123732740E120631E4FAF9F87F04125F
:202603001DCD740612064B121843120631802C7E007F021206EA7408123705C006C00774C2
:20262300061226BBD007D0061219F9123E1F121AC97406123E147F02123D85AF17AE16129A
:202643003B15742212064B121C49E4FFFDFC7422123E147E0112082240B5E4FFFDFC7E06D1
:2026630012076174121237321226B3122D907B04123E1FE5194518600B7411123E0B121C60
:202683006D1221387E007F181206EA74101237321226B3C006C007740C1226BBD007D006B1
:2026A3001219F9123E1F122F7B79047B260237AA7D09120AD8023B15123E0B8F038E02225C
:2026C3007925740412384E1223EF8D077424120624AF19AE18C006C0077404121C9ED00787
:2026E300D006121E84E5192408F517E43518F516121AC2120356741C12064B121AC2C0825F
:20270300C083122801D083D0821211B660274025741C123705740412064BAF19AE18C006C1
:20272300C0077404121C9ED007D0067AFF7BE81218BA122F7B7424123798146005146007F5
:20274300801D121AC280057404123E14C082C083122812D083D082123E69742512064B124D
:202763002801742012064B7425123E14C082C083122801D083D082120822400812280174A1
:202783002512064B1228128C00E830E708121DC8742512064B121AC2C082C083122812D04D
:2027A30083D0821211B6604C121AC2C082C083122812D083D0821211268013740812373285
:2027C3001215697408120631122806123DC712280612082840E5740812373212183EE51947
:2027E3002406121C8F742712373212183EE5192404121C8F12281279047B250237AA7404CA
:20280300023705E4FFFDFC7425123E147E02227425023705790A740412384E7408120631CD
:202823008B198A181228F42412FBC0D01228EFD0D0340012162FE0F879005405FFE4FEBFC2
:20284300040280030228E4BE000280030228E4E844808B828A83F01228F42404FFC0D012E0
:2028630028EFD0D03400FEAB19AA181218BAE519C39FF517E5189EF5161228F42408FBC0DB
:20288300D01228EFD0D03400FAAF17AE16123CEA8B828A83123D851228F4240CF9C0D012C5
:2028A30028EFD0D03400F88B828A8312184E12064B121617C082C0837404123705D083D090
:2028C300821211DF60154013121617C082C0837404123705D083D082121126AF17AE168027
:2028E300047FFB7EFF79047B0A0237AA740802379874090237987912740412384E12183E57
:20290300121C5274101206318B178A16E9240CFBE43812162F120356740C12064BE924083B
:20292300F519E438F518121AED12064B122BC5C082C083740C123705D083D08212047974E4
:202943000412064BAF17AE16123CEA7404123E141211DF600A40087404123705122565E970
:20296300241212162754046038E92404FFE438FEC006C0077410123732121AB8D007D00698
:20298300AB17AA16121735E517C39FF9E5169EF8121839123CEA122BC5123D851218398018
:2029A300047FFE7EFF79047B120237AA7910740412384E740C1206318B078A06740E12060B
:2029C3003174101237321223EF122AED2412F9C0D0122AE8D0D03400121DE2AB19AA181217
:2029E3001AFB740812064B740A123732121A0A7003022ADEE5192404F517E43518F51612B4
:202A03001C7BFEA3E0FFC006C007740E123732121AB8D007D006AB19AA18121AFB7404124A
:202A2300064B7406123732121A0A7003022ADE740C123732121C3FC082C0837404123705E7
:202A4300D083D082121126121C7BF8A3E0FF88067406120631121843120631121C39122AB8
:202A6300ED240CF9C0D0122AE8D0D0122BCC121126121C44121C6D122BD2705F122AED245F
:202A830008F9C0D0122AE8D0D0122BCC121AC97F18121126122AED2404F9C0D0122AE8D032
:202AA300D0122BCCC082C0837404123705D083D082121126121635122AED2410FBC0D012AA
:202AC3002AE8FFD0D0122149C082C083122AEDD083D082A3F07F017E008003E4FFFE790401
:202AE3007B100237AA740C023798740D023798790A740412384EC006C007121C5274041298
:202B03000631D007D006E4F8C0E0C00788077409120624D007D0E0F8C007880774081206DA
:202B230024D007EF240CF8C007C0D088077407120624D0D0D007E43EF8C007880774061270
:202B43000624D007EF2408F519E43EF518EF2404F517E43EF516804BAF17AE16C006C007E7
:202B63007404123732121AB8D007D006122BD27045121AC9122BC57F18123D8574051237E6
:202B8300982406F9C0D07404123798D0D0122BCCE060107F0174091206247F007408120649
:202BA3002480137406123732121C3F120356122BC51211B640A2740812373279047B0A02D6
:202BC30037AA851982851883223400F80216177A00121ABDEF4E2202167D7928740412389A
:202BE3004E12256F60741223E7C006C00774081226BBD007D006121DDC12064B74221237F8
:202C030032121A0A6054740C123732121C6DC006C00774081226BBD007D006121AFB742497
:202C230012064B7426123732121A0A602D740C1237327406120631121843120631121C4470
:202C4300AD17AC16C006C00774081226BBD007D006121A10BFFC0ABEFF07740E123E14E4B3
:202C6300F0740E123798FF7E0079047B280237AA792A740412384E1225658D198C188B0753
:202C83008A067428120631742A1237328B078A06122D6B7003022D60742A123732122D6B12
:202CA3007003022D60E4FFFEAD17AC16C006C00774081226BBD007D006121DDC12064B741D
:202CC30022123732121A0A7003022D60740C123732121C6DC006C00774081226BBD007D0E3
:202CE30006121AFB742412064B7426123732121A0A606A740C123732740612063112184369
:202D0300120631121C44C006C0077428123732121AB8D007D006C006C00774081226BBD0F4
:202D230007D006121C667005EE64FF6030740F123E0BC006C007742A123732121AB8D0078A
:202D4300D006122138121C44C006C0077408121C9ED007D006121E7DE4FFFE80047FFC7E30
:202D6300FF79047B2A0237AA7C2D7D751206C9EF4E222E2E00000000000000100000000005
:202D8300000000000000000000000000007904123849E412064BE41237058D018C00E92480
:202DA300FEE834FF5003D38001C340727404123E14C082C083E4123705D083D082123E69EA
:202DC300122E264012E4FFFEFCE4123E147D02120479740412064B7402123732122E3EC0FB
:202DE300E0E4123705D0E012107DEFFA8AD180237404123E141238C4E4FDE85480FC4D6058
:202E030008E9E8547FF80A8AD1122E34E4F009B90001087404123705EF4E4D4C70D27B0436
:202E23000237A4ED24FE8000EC34FF4002D322C32290800089078806027E4A8F018E00E9E9
:202E4300E8547FF8740F227906740212384E740212064B74061237328F178E1674021237B3
:202E630005ED24FEEC34FF5003D38001C34045122EEE40087404123732122EC27404123701
:202E830032122E3EC0E07402123705D0E012107DEFFC8CD18018122ED38B828A83E0FD12D0
:202EA3002E34EDF00BBB00010A09B9000108E517451670E27FFF7EFF79027B060237AA8F22
:202EC300018E00E9F42401F517E8F43400F516221517E517B4FF021516E4FFE85480FE4F21
:202EE3006008E9E8547FF80C8CD122AF17AE16123B157402123E14123E69EF24FFEE34FF8E
:202F0300ED34FD022E2B7906740212384E740212064B74061237328F178E167402123705CC
:202F2300122E2640067FFF7EFF8046122EEE40087404123732122EC27404123732122E3E45
:202F4300C0E07402123705D0E012107DEFFC8CD18016122ED3122E34E08B828A83F009B9AA
:202F63000001080BBB00010AE517451670E4E4FFFE79027B060237AA227914123849E412D1
:202F8300064B74FFFAF9F87FF98A0689058804740412064B7A0074FFFFFEFDFC7410120603
:202FA3004B1231B6781979171231C7120816E81231BD120A6F1206A0740812064BE4123E31
:202FC30014C082C0837408123705D083D0821204BC120816E8123CF11204B712081612317D
:202FE300C7120441740C12064B740C123705EC30E708121398740C12064B7410123E14C0AC
:2030030082C083740C123705D083D0821211DF501CE4FEFDFC7408123E147F201208225021
:203023000C740C123705741012064BAA0018D9028003022FAB8A007494C86480C398401ADD
:203043001231C7120816EA1231BD120A6F1206A01231D0C454F024EF80428A007486C86466
:2030630080C39840171231C7120816EA1231BD120A6F1206A01231D0240C80208A00748350
:20308300C86480C39840591231C7120816EA1231BD120A6F1206A01231D024FD900107F06A
:2030A300E0C4540F5407FA900106E0F9780009B90001081231C7120816900107E0540F2ABF
:2030C300FBE433FAEB2403FDE43AFC890788061204A2123CEA120A6F1206A0740412064B8C
:2030E30074041237058F038E028D018C00E8047010E904700CEA047008EB64F970030231A2
:20310300AC9001047403F090010814F090010D7460F07418C0E07414123705D0E012107DB4
:20312300900110EFF07410C0E07414123705D0E012107D900111EFF07408C0E07414123755
:2031430005D0E012107D900112EFF0A3C082C0837417123798D083D082F07418C0E01237F8
:2031630005D0E012107D900114EFF07410C0E07418123705D0E012107D900115EFF0740826
:20318300C0E07418123705D0E012107D900116EFF0A3C082C083741B123798D083D082F0B0
:2031A3001231B614F0D2A8D2AF74041237057B140237A49001007401F022123CF1E4123E57
:2031C300140204BC7C017D517E807F0022740812064B7408123705EF14900106F0EA227875
:2031E30000900100E05401600478FE801E900102E0F9FB3395E0FAEB5480FDE4FC4D600438
:2032030078FC8007E95440600278FBE82278FF900100E054016007900100E4F07800E822C9
:203223000231B674041238448D048B198A18C006C00774041237328F038E02D007D0067DF9
:20324300FA7969780475F00075160A1232FCE07072E924021233187D05120AD8E924041212
:203263003318E92406FFE438123327E9240AFFE438123327BC010A1232FC74011233368051
:2032830034BC020F1232FC740712333612330EE4F0802ABC030F1232FC740A1232EB7440B4
:2032A3001232DE8010BC04171232FC740B123301E518F0E51912330EE518F0E519A3F0AD14
:2032C300F0801205F0E9240EF9E438F81516E516600302324EED79040237B0F0E92408FBEE
:2032E300E4381232F8E4F022F0890388020BBB00010A0236F0FA0236F089828883221232E0
:20330300EBE4F0E92408FBE43880EAA3F0E9240CFBE43880E0F517E438F5161236F5EEF0E4
:20332300EFA3F022FE123331EAF0EBA3F0228F828E8322123301E4F02278FD123365401504
:20334300EFFD3395E0FC12335AF9EE3404F81232FCE4F07800E8227E007F0E1204A2EF24B8
:203363006922EF6480790AC96480D3992274021238448F0178FDE964807E0ACE6480D39EAD
:203383004065E9FF1233F0858217858316E0B40756EB4A6002800BE517240AFBE4351612B3
:2033A30033FDE5172406FFE43516123327E5172408FBE435161232F8ECF0EDA3F090046834
:2033C300E0700A900102E0540460F880131236F57402F0900468E0700C1236F5E0B4020507
:2033E3008907127D387800E879020237B03395E0FE90046975F00E0201E81232F8E0FAA3F5
:20340300E0FB228F0079FDE812342B401912343564026006123435B4090479F78008123434
:2034230035B4070279F8E92264807A0ACA6480D39A22E8FD3395E0FC800012335AFBEE34B1
:20344300041232F8E02279FD78FFEF12342B4025123487E014600924FC60111460088015A9
:2034630079F778FF800F79F678FF8009EB2408F9E43A12347D8907880622F81232FCE0F823
:20348300A3E0F922EF1233F0AB82AA832278FD1233654048EF1233F0A982A883E0FA640587
:2034A3006003BA06047A01800FEA64026008EA64086003BA09027A071232FCEAF0E9240AF0
:2034C300FBE4381233FDE92406FDE438FC8D828C83EAF0EBA31232DEA3F0E4F8E8228000C7
:2034E30078FD1233654002E4F8E8220234E3C007C0E0C0F0C082C083C000C001C002C003C7
:20350300C004C005C006C0D075D000790A740412384E900103E054026032900467E0F89032
:203523000468E4F0900467E004FDB40A027D00900467EDF01236FC640260061236FCB40946
:20354300078D07127D388004EDB500D8900103E0540170030236CE751769751604780A12AE
:2035630036F5E0B4010280030236B6900111E0FAA3E0FBE5172404FDE43516FC8D828C83B1
:20358300E0FCA3E0FDEBB5050280030236B6EAB5040280030236B6E5172406FFC007C0D022
:2035A3007409120624D0D0D007E43516FEC0078E077408120624D007127E33FCA3E0FDE59C
:2035C300172408FFC007C0D07407120624D0D0D007E43516FEC0078E077406120624D0070B
:2035E300127E33F518A3E0F519900110E0540FFE7B137A0164086013900113E07B147A010F
:20360300640760061236F57405F01EEEF93395E0F8E51929FFC0D07405120624D0D0E51883
:2036230038FF7404120624E517240CF9E4351612347D7405123798D399C0D07404123798D6
:20364300D0D09830D202B2E730E7601EEE2401F86480247F50151236F0E08D828C83F00BD5
:20366300BB00010A0DBD00010CD8EB7408123732123331ECF0EDC0E0C082C08374061237C9
:2036830032D083D082D0E0A3F0123331C082C0837404123798D083D082F0C082C083740526
:2036A300123798D083D082A3F0801A1236F57406F08012E517240EF517E43516F516D802CD
:2036C30080030235629001017404F079047B0A1237AAD0D0D006D005D004D003D002D00147
:2036E300D000D083D082D0F0D0E0D007328B828A8322851782851683227C0002343DE473F9
:203703002F00251BF582E51A3400F583E0FCA3E0FDA3E0FEA3E0FF22251BF582E51A3E8020
:20372300E970617373776F7264007573657200251BF582E51A3400F583E0FEA3E0FF222562
:203743001BF582E51A3E80EF43414E2D525332333220526F7574657200576561746865727C
:2037630073746174696F6E00496E69742E2E2E2E00C0E0E581141414C8C618C9C618181839
:2037830018C608C9C608C9C608C9C608C9C608C9C6C8D0E022251BF582E51A3400F583E079
:2037A300227A00C0E0801A7A00C0E08006C0E0E4FAE9FB851A83851B827816E0F608A3D902
:2037C300FAC0D0E51B2BC0A8C2AFF51BE51A3AF51AD0A8D0D0D0E02274041238448F178EDC
:2037E300168D198C188B078A067C377D031206ACAF17AE1612383A7009AF19AE18123830BE
:203803006003E48002740179040237B074021238448D178C1612383A7009AF17AE161238E6
:20382300306003E48002740179020237B07C377D241206C9EF4E227C377D2D1206C9EF4EA4
:20384300227800F980077800E480027800C0F0F5F0C3E51B99F582C0A8C2AFF51BE51A980D
:20386300F51AD0A8F583E5F060097816E6F008A3D5F0F9D0F0220000388D3CFD389C9038BF
:203883007975F0007402123D4822900400E0600F127B36900400E480059004007401F0225A
:2038A3009035F3E07800C39403FFE89400FE9035E2E0FAA3E0FB7C357DE0123A42E4FFFEA6
:2038C30022C083C082E0FDA3E0FEA3E0FFA3E024FFF0CF34FFCE34FFCD34FFFCD082D08324
:2038E300F0EDA3F0EEA3F0227402123844E4F517F516127CCE7E377F6B1239DB903F04744B
:2039030004F0740EA3F0A37404F07406A3F07A007B047C047D2F7E3F7F00124034903F08C5
:203923007404F0741AA3F0A37438F07481A3F07A007B047C047D2B7E3F7F0E124034903F74
:203943000C7438F0740FA3F0903F127437F074DBA3F01214E5E4FFFEFC7D02120761E4FF84
:20396300FEFDFC122D907B04123E1F7E047F0112257F126BB9123C1D7F008F05127C387EE0
:20398300377F5C1239DB7D017F00127C387E377F4B1239DB126B236005123B1970FB126B31
:2039A300881239BDEF65177005EE651660E61239BD8F178E16126B8280DA1205A17C037D86
:2039C300E802082EAE83AF82A3E024FFF0CFF5828E83E034FFF0FE2274021238448F178E1A
:2039E300168014851782851683E493FF0517E51770020516127C5A851782851683E49370B8
:203A0300E279020237B0E0A3CCC583CDC582CCF0A3CDC583CCC582CDEF70011E1FEE4F7014
:203A2300E522E493A3CCC583CDC582CCF0A3CDC583CCC582CDEF70011E1FEE4F70E422791D
:203A430008740412384EC006C0078D078C067406120631D007D0068B198A18EE30E70302D8
:203A63003B0EEF24FCEE6480347F5003023B0E8F058E047E0B7FBA1204A2900523127E4A96
:203A8300858217858316E51724DDFFC007C0D07405120624D0D0D007E5163405FEC0078EE1
:203AA300077404120624D007123C16123406B4F85A7406123732E51724DEFDE5163405FC9B
:203AC300AB19AA18E5194518602F851917851816E517600205161BBBFF011A8F828E83E0A0
:203AE3008D828C83F0123C100DBD00010C1517E51770E31516E51670DD7404123732123C51
:203B030016E4FBFAAD19AC1812337079047B080237AAE4FDFC227907740412384E7F2374EC
:203B2300051206247F057404120624E4F5197F0474061206247404123732123C16123449F8
:203B4300EE20E77974051237982403F9C0D07404123798D0D03400F889828883E0F516A321
:203B6300E0F5171269D28F038E02EB4A60597404123732123C10E51745166027AD17AC1644
:203B8300ED60010C1517E517B4FF0215168F828E83E08B828A83F0123C100BBB00010ADDA8
:203BA300E3DCE19035E2E0FEA3E0FF1269697404123732123C1612349074018049EF64F6C3
:203BC3007005EE64FF60E70519E519740512379824BAFFC0D07405120624D0D0C0D0740495
:203BE300123798D0D0340BFF74041206247406123798FF1FC0077406120624D007BF0002C1
:203C03008003023B38E479047B070237AA0FBF00010E228F828E83E0FF2279057404123881
:203C23004E74FFFFFEFDFC120761E4FFFEFDFC1207617C007D077EA17F20122F7C7B0812EC
:203C43003E1F751723751605E4F519F5187F047404120624E51724DEFFE5163405FE120648
:203C6300EAE51924E9FFE5183403FE7D02123CD8123E1FF8E51724DDFBE5163405FA8B82DC
:203C83008A83E8F0AF17AE16123C101206EAE51924D1FFE5183407FE7D01123CD8123E1F17
:203CA300851782851683F00519E51970020518E51724BAF517E516340BF5167404123798A6
:203CC300FF1FC0077404120624D007BF008679047B050237AA7A057BDC1232267B0222FF6E
:203CE300E4FEFDFC2280FEEE3395E0FDFC22FF3395E0FEFDFC22E06CF0FCA3E06DF0FDA31D
:203D0300E06EF0FEA3E06FF0FF22E06EF0FEA3E06FF0FF22C083C082E0C0E0A3E0C0E0A357
:203D2300E0C0E0A3E0C0E01212E0D0E0FFD0E0FED0E0FDD0E0FCD082D083F0A3EDF0A3EE7D
:203D4300F0A3EFF022CBC0E0E5F0CAC0E0E4936EA37005E4936F6013A3A3A3EB70011A1B52
:203D6300EA4B70E9D0E0FAD0E0FB22A3E493FAA3E493F5828A83D0E0FAD0E0FBD0E0D0E0D4
:203D8300E473C083C082E0C0E0A3E0C0E0A3E0C0E0A3E0C0E0123E8BD082D083ECF0A3ED6F
:203DA300F0A3EEF0A3EFF022A3E02FFFF0E582700215831582E03EFEF022E04EF0FEA3E075
:203DC3004FF0FF22C3C083C082E0C0E0A3E0C0E0A3E0C0E0A3E0C0E0120441D082D083EC67
:203DE300F0A3EDF0A3EEF0A3EFF022C3A3E09FFFF0E582700215831582E09EFEF022E05E83
:203E0300F0FEA3E05FF0FF22251BFFE51A3400FE22251BF582E51A3400F583227A00CBC0A3
:203E2300A8C2AF251BF51BEA351AF51AD0A8EB22C000C001C002E0F8A3E0F9A3E0FAA3E0B2
:203E43005FFFEA5EFEE95DFDE85CFCD002D001D00022123774D0E05FFFD0E05EFED0E05DBF
:203E6300FDD0E05CFC22C000C001C002E0F8A3E0F9A3E0FAA3E02FFFEA3EFEE93DFDE83CE6
:203E8300FCD002D001D00022123774D0E02FFFD0E03EFED0E03DFDD0E03CFC22ED2FFFEC0C
:203EA3003EFE228F018E008F038E0289828883E0FC09B9000108EC70F2E9C39BFFE89AFE90
:203EC3001FBFFF011E228D018C008F058E04801989828883E08D828C83F009B90001080D0C
:203EE300BD00010C1BBBFF011AEA4B600789828883E070DCEB4A601CA903A802E9600108CE
:203F03001BBBFF011A8D828C83E4F00DBD00010CD9EED8EC228F018E008D828C83E0FA8999
:203F2300828883F00DBD00010C09B9000108EA70E8228D018C008B058A04802A1DBDFF013F
:203F43001C89828883E0FA09B90001088F828E83E0FB0FBF00010EEB6004EB6A6008EBC3F3
:203F63009AFF95E08006ED4C70D2E4FFFE228F018E00800509B900010889828883E070F464
:203F830089828883E0B5050589078806228903880219B9FF0118EBB507E6EAB506E2E4FF32
:203FA300FE228F828E83E0FA0FBF00010EEAF93395E0F8E9B5050AE8B504061FBFFF011E32
:203FC30022EA70DEE4FFFE228D038C028F058E048D828C83E0F80DBD00010CE870F21DBD4C
:203FE300FF011C8B828A83E0F88D828C83F00BBB00010A0DBD00010CE870E82279021238D3
:2040030049C006C007E4120631D007D006EB4A6017A903A802E96001088F828E83EDF00F8B
:20402300BF00010ED9F3D8F1E41237327B020237A4790412384974021206318D078C06E488
:204043001206318B018A0074021237328F038E02E9486041AD01AC00ED60010C19B9FF0193
:2040630018E41237328F828E83E08B828A83F00BBB00010A7401123798FF0FC00774011237
:204083000624D007BF000AE4123798FF0FE4120624DDC9DCC774021237327B040237A48D3D
:2040A300018C008B058A0480261DBDFF011C8F828E83E0FA89828883E0FB6A6008EAC39BAF
:2040C300FF95E080100FBF00010E09B9000108ED4C70D6E4FFFE228F018E00E4FFFE75F04B
:2040E3000089828883E024F7FA09B9000108EAD3940440EDEA641760E8BA240575F00180EF
:204103000AEA6422600519B9FF011889828883E024D0FA09B90001087409C39A401EE5F017
:204123006004EAF404FA8F058E047E007F0A1204A2EAFD3395E0FC123E9F80CF22229017A3
:204143001CE49360F8FFA3E493A3FEE493A3F8E493A3F9E493A3FAE493A3FBE493A3FCE46F
:2041630093FDA3EE54017046EF64016033EF6403602EBF09028029BF0407AE83AF82024262
:2041830027BF06028021AE83AF8288838982E4F0A31DBDFF011CEC4D70F48E838F8280A1C8
:2041A300E4F709DDFB809AE4F309DDFB8093EF64016045EF64036040BF0902803BBF040A1A
:2041C300AE83AF828A838B82805ABF0602803FAE83AF828A838B82E493A3AA83AB82888305
:2041E3008982F0A3A883A9821DBDFF011CEC4D70E28E838F82024144AE83AF828A838B8222
:20420300E493F709A3DDF98E838F82024144AE83AF828A838B82E493F309A3DDF98E838FFA
:2042230082024144E975F008842420F8E6FCE5F06005CC03DCFDCCBD0014E954076006EC65
:2042430003FC0980F5ECF68E838F82024144EB4A6003E493A3C36001D3EC13FC091DE9544C
:204263000770D4ECF680BD204A616E2030312032303030200072772D72772D72772D202093
:204283002031207573657220202020206674702020003C6469723E0020000D0A003530303C
:2042A3002073796E746178206572726F72003535302063616E6E6F742072656D6F766520DF
:2042C3006469726563746F7279003535302066696C65206F72206469726563746F72792096
:2042E3006E6F7420617661696C61626C6500353330206E6F74206C6F6767656420696E0017
:204303003532312063616E6E6F7420637265617465206469726563746F727900353034201D
:20432300636F6D6D616E64206E6F7420696D706C656D656E74656420666F7220746861743E
:2043430020706172616D657465720035303220636F6D6D616E64206E6F7420696D706C653B
:204363006D656E746564003530312073796E746178206572726F7220696E20617267756DE3
:20438300656E74730034323620636F6E6E656374696F6E20636C6F7365643B207472616ECA
:2043A300736665722061626F72746564202866696C6573797374656D2066756C6C2900348C
:2043C30032312073657276696365206E6F7420617661696C61626C652C20746F6F206D61A8
:2043E3006E79207573657273003335302066696C6520666F756E642C2077616974696E67AE
:2044030020666F72206E6577206E616D65003333312075736572206E616D65204F4B0032E4
:2044230035302072656E616D652073756363657366756C6C0032323620636C6F73696E677A
:20444300206461746120636F6E6E656374696F6E0032323020736572766572207265616448
:204463007900323537206E6577206469726563746F727920637265617465640022206973AD
:204483002063757272656E74206469726563746F72790032353720220032353020636F6D2B
:2044A3006D616E64207375636365737366756C003233302075736572206C6F6767656420D3
:2044C300696E0032323120676F6F646279650032303020636F6D6D616E64204F4B003135B3
:2044E3003020726561647920746F20726563656976652042494E4152592E0031353020661F
:20450300696C652072657175657374204F4B2C2061626F757420746F206F70656E2064615A
:20452300746120636F6E6E656374696F6E00530049002E2E002E002F002F686F6D652F00F7
:20454300435744202E2E0058435744005843555000585057440058524D4400584D4B4400D6
:204563004C495354004E4C53540043574400524D44004D4B440044454C450053544F5200BC
:20458300524554520050415356004D4F4445005459504500524E544F00524E465200434438
:2045A300555000505744005155495400504F52540050415353005553455200790674021263
:2045C300384E740212064B8B1775160A7A007B0B7C007D207E347F0B123FFF903415E4F0F0
:2045E3007915783419B9FF0118151612462D121405EF243012462812462D123D1774021283
:204603003705EF4E4D4C70DCE51760067F0B7E34800CE51690340B12000EAF82AE83790248
:204623007B060237AA124C27F022E4FEFDFC7402123E147F0A227915740412384EC0078D2A
:20464300078C067412120631D007C0078B078A06740A120631D007C0077415123732D007EF
:20466300124C31241DF9C0D0124C8AD0D0125B3CC007C082C08388077408120624D083D0F7
:2046830082D007A3E0F8C00788077409120624D007E4F8C0E0C00788077411120624D007F3
:2046A300D0E0F8C00788077410120624D007C0077F00124C62D007EF6044124C5D2437F8E4
:2046C300C007C0D088077407120624D0D0D007C0D0124CD3FED0D03400F8C0078807740668
:2046E300120624D007EF243BF9E43E124C83C006C007124C3BD007D006124C278044124CE0
:20470300362437FFC0D0124CD3D0D03400FEC006C0077406120631D007D006125AFD1203F8
:2047230056125B028D018C00124C36243BFDC0D0124CD3D0D03400125BA08B078A06890555
:204743008804121126124C3624ADFFC007C0D0740F120624D0D0D007C0D0124CD3D0D034FB
:2047630000FEC0078E07740E120624D007125B50F824FC601214600F1470030249A914707E
:2047830003024A2C024AF7124C312414FBC0D0124C8AD0D03400125C46E0FFC082C08374BE
:2047A3000C120624D083D082A3E0FF740D120624B805047F1D80027F45740B1206247F00ED
:2047C300740A120624751908751836024968124C362425F517C0D0124CD3D0D03400F51687
:2047E300125B3278005406FBE4FA4B700302493D124CA2B40575124C362426FDC0D0124C2F
:20480300D3D0D03400FCA919A8187A118D828C83E0FB600D89828883EBF00DBD00010C8037
:2048230007898288837420F009B9000108DADDE5192411FFE43518FE7C427D9B1206AC1245
:204843005B325402600EAF19AE187C427D9512066B0248FA124C4AC0D0124CD3D0D03400A2
:20486300124C837B00124C670248FA125B325402600478648002782D124C51E8F0AF19AE77
:2048830018125C1F7C427D781206AC124C4AC0D0124CD3D0D03400124C837B01124C67AFEB
:2048A30019AE187C427D6A12066B124C362426F9C0D0124CD3D0D03400F87A00E5192434BA
:2048C300FDE43518FC8013124C2C8D828C83F00DBD00010C09B90001080A7411D39A40059D
:2048E300124C2C70E279347800E92AFFE438FE124C51127E4AE4F0AF19AE187C427D9D12B3
:20490300066BAF19AE18123EA674111237982FFFC0D07411120624D0D0C0D0741012379825
:20492300D0D03EFF7410120624AF19AE18123EA6E5192FF519E5183EF518124C58125ABCF2
:20494300E9240CFFE438FEE9241FFDE438FC122AF2123CEAC006C007124C3BD007D0061296
:204963004C27121126124CAA6032740B123798C3C0E0C0D0740D123798FFD0D0D0E09FC07B
:20498300D0740A123798D0D0C0E0C0D0740C123798FFD0D0D0E09F50030247D1124CAA60F1
:2049A30003024AF78078124C5DC007124C3BD007EF240CF517C0D0124CD3D0D0124CB81210
:2049C3004C312414F9C0D0124C8AD0D0125BDBAF17AE167C367D081228F9C006C0077410C1
:2049E300120631D007D006123B15C006C007124C3BD007D006124C27123D85AF17AE16C0E6
:204A030006C0077404123E0B8F058E04D007D0067A007B011228F9EF4E6003024AF7124CB6
:204A23008F4409124628024AF7124C7CC0D0124C8AD0D0125ADDB4060D124C9A7411F07FE6
:204A430008124C628006124C9A7410F0740A123798C0E0740B123798FFD0E04F7003024A7D
:204A6300F7124C5DC007124C3BD007EF240CF517C0D0124CD3D0D0124CB8AF17AE16C00658
:204A8300C007740A123732125B02D007D0067C367D081228178F198E18E519C0E0740B1232
:204AA3003798FFD0E06F700FE518C0E0740A123798FFD0E06F6014AF17AE16121DF0124CF2
:204AC3008F44041246287F09124C62AF19AE18123B15C006C007124C3BD007D006124C27EC
:204AE300123D85E4FFC0E07411120624D0E0FF7410120624124C7CC0D0124C8AD0D0125BCD
:204B03003C64027003024BA5E864047003024BA5124C36C0E0124CD3FFD0E04F607F124C36
:204B2300A224FC601B146018146003147022124C43C0D0124CD3D0D03400FE121DF08010A9
:204B4300124C43C0D0124CD3D0D03400FE122BDA124C362402F9C0D0124CD3D0D0125C3E47
:204B6300124C36240AF9C0D0124CD3D0D0125C3E124C7CC0D0124C8AD0D0125ADDB408076C
:204B83007F09124C62801B124C9AE054016013124CA26403600C7F08124C628005E4FFFE0F
:204BA300807B7414123798606F124C58124C75486066740E123732125AFDC082C0837414B5
:204BC300123798D083D082C0E0C082C083124C58D083D082D0E0F0124C75F92408FBE4381D
:204BE300125C46120356E9240CFBE438125C461211B67024E92419FBE438125C46C082C04F
:204C030083124C58D083D08274FFF0124C75241AFBE438125C46E4F0741012373279047BA9
:204C2300150237AA8982888322124C27E022741302379874090237987406123732025ABC07
:204C4300124C36240CFF22124C36241FF922851982851883227408023732124C36FF227408
:204C6300140206241245BE8F058E04AF19AE18023FCB125B50F8A3E022124C312418F922DC
:204C8300F8124C2702035674120237987415123732125ABC025B507415123732025AFD7438
:204CA3000E123732025B50124C3BE4FFFEFDFC124C270211B63400F516124C2712035612B9
:204CC3000761AF17AE167D001226C37B04023E1F7408023798000159E40002597B000359CC
:204CE300640004596E0005598F000759ED000859DB00095964000A5964000B5A14000C59A1
:204D030050000D595A000E5985000F59BF0010598500115985001259500013595000DC59E4
:204D2300C900E259D201A559F601AA5A0201F55A0B01F85A1D02095A2602125A2F02265A29
:204D43003802275A410256930256E20257E50257F30258070255A70255F5025643025653B4
:204D630002567E02553202574A02574A7916740412384E8F068D198C18C006741612373242
:204D8300D006E519241DF9E43518125B07C082C0837414120624D083D082A3E0FF74151252
:204DA3000624E4FFC0E0740B120624D0E0FF740A120624E4FFC0E0125AD8D0E0FF125B3705
:204DC300E4FFC0E0740F120624D0E0FF740E120624E4FFC0E0740D120624D0E0FF740C12A0
:204DE3000624EE6480247F5023125C00C0D0125CB6D0D03400125B07C082C083125B37D03B
:204E030083D082A3E0FF125AD802592AE5192418FDE43518125BA0E0B4036B751771751670
:204E2300347A02125B32FBA3E04B7032124C27E516F0E517A3F0AF17AE167414120631E477
:204E4300FDFCAF17AE167A007BB0123FFF125AC1E518F0E519A3F07FDC125C75800DE51765
:204E630024B0F517E43516F516DAB8125B4BC0E0125BE3D0E04F600302592A7FA5125C2B37
:204E8300125B3702592A8D828C83E06404605D125AE2C0E0125CB6FFD0E04F700302592ABB
:204EA3007414123732125C25A3F0125AE22402F9C0D0125CB6D0D0125BDB4A700302592A7B
:204EC300EB2418FDE43A125BA07408F0125AEF2419FDE43A125BA074FFF0124C2CF8A3E0EC
:204EE300241AFBE438125C46E4025929EB4A70030258FD9036088B078A06127E4AE4F07E23
:204F0300368E0774101206247F08C0077411120624D0077C007D0D123FA5EF4E6003125C13
:204F230025125B9B7C007D0A123FA5EF4E6003125C257517337516047F01125C759004339D
:204F4300E0F8A3E0486046125BD1125B02125AC1C082C083125B9BD083D082E0FCA3E0FD9D
:204F6300120728EF4E6026E5172402F517E516C0E0C0D07412123732D0D0D0E03400F51641
:204F8300125C1F7412120631125B9370BA125B467028125BC5600E14600F14601014601111
:204FA30014601280157F0F800E7F10800A7F0580067F0680027F11125C75125B9360481260
:204FC3005B4BFFBF0622125BE3BF001C125B9BC0077F11125AD8D007C0077F00125B37D0E3
:204FE300077C457D431206AC125BD1903608127E4AAF82AE838006125AB1125C1F125B1766
:20500300125CA5642060F0125B466003025328125B4B14600C1460711470030251BE025309
:2050230028125AB1123EA6EF24A6EE34FF40427415125B8DF517C0D0125CB6D0D03400F5CA
:2050430016AF17AE167C457D3C1206ACAF17AE16C006C007125C55D007D006123FCB125C5E
:2050630070C0D0125CB6D0D0125AB67402F00253437F12125BCB125C70C0D0125CB6D0D04E
:20508300125AB67401F0025343125B1CFFC007C0D07409120624D0D0D007C0D0125CB6D05B
:2050A300D03400FEC0078E077408120624D007125B50B4020280030251B5125AE2FFC007EC
:2050C300125C55D007EF243FF519C0D0125CB6D0D03400F518903F12E0F8A3E0F9E51924E7
:2050E30006FFE43518FEAB19AA18124C2712370170030251B5AB19AA18125AE224AEF517F7
:20510300C0D0125CB6D0D03400F516125AC1E4801A125B41125C1F125B02125B506400245F
:20512300FFE433F8125B3228125AC1F08B078A067C007D2F123FA5C006C007740C120631E4
:20514300D007D006EF4E70C9125B32F8125AE224AFFBC0D0125CB6D0D03400125C46E8F062
:20516300AF19AE187C457D3A125BFA6028125AE22499F517C0D0125CB6D0D03400F516E4A9
:20518300FDFCAF19AE18123FA5125C0DFEA3E0FF125BBE8014125C31C0D0125CB6D0D012D0
:2051A3005AB6E518F0E519A3F0125B857403F0025343125B857401F002533B125AE2F8122E
:2051C3005AB1E82406F8C007C0D088077409120624D0D0D007C0D0125CB6D0D03400F8C061
:2051E3000788077408120624D0071240DAC007125B7DD007124C27EFC0E0C082C083125ACE
:20520300B1D083D082D0E0F07C007D2C123FA5C006C007125B17D007D006EF4E601B125B97
:20522300506016125B28C007125B7DD00709B9000108124C27EF125C88125BB9C0E0125C1F
:2052430018D0E04F6011125CA5600C125C7D7F02127E4AE8125C88125BB9C0E0125C18D004
:20526300E04F6011125CA5600C125C7D7F03127E4AE8125C88125BB9C0E0125C18D0E04F9C
:20528300602B125CA56026125AC87415125B77F519C0D0125CB6D0D03400F518AF17AE1619
:2052A3001240DA124C51EEF0EFA3125C88125BB9C0E0125C18D0E04F603C125CA560371207
:2052C3005C1FC006C007125B17D007D0067415125B77F517C0D0125CB6D0D03400F5161274
:2052E30040DA125AC1A3E0F87900EF29FBEE38125AC1F0EBA3F0125BB9C0E0125C18D0E0A0
:205303004F6005125CA57038125AF6125AE77415125B77F9C0D0125CB6D0D0125C3E7FF58C
:20532300125C2B8018125C70C0D0125CB6D0D0125B3C7403D39840087F12125B22125B3770
:20534300125B4B24F4C0D0125B46D0D034FF4003025516125BC5C0D0125B46D0D034FF501C
:20536300030255167415125B8DF517C0D0125CB6D0D03400F516AD17AC167E347F16123F7A
:2053830018125C31C0D0125CB6D0D0125C38C39517FFE89516FE903416127E4AAF82AE8344
:2053A300740C120631125B6AC0D0125CB6D0D0125BB1C006C007125B71D007D006740E122C
:2053C3000631124C2CB42F2B125B41125BBE125AE224AEF9C0D0125CB6D0D0125BB1C006D1
:2053E300C007125B71D007D006125BA689078806125B1702550E125B0D8F178E16E517B4CA
:205403000008E516B40003C38001D392F0C0D0A2F0E433FF7407120624D0D05005125AC125
:20542300E4F0740712379824FF4013125B4B24EFC0D0125B46D0D034FF40030254F6125CE5
:20544300A570030254F67C457D38125BFA70030254F6125AB17C457D35125BFA7049125C2B
:2054630097122BDDEF5402F9E4F8496059740E1237321FBFFF011EC006C007125B41125ABC
:20548300BCD007D006125BA6124C2C600D125B417C007D2F123F71125C25125B41125B5000
:2054A3007051125BBE804C740E123732125C1FC006C007740E120631D007D006EF24FAEEA7
:2054C3006480347F50077F26125BCB8046125B41125C1F125B50600A125B417C457D3A129E
:2054E300066B125B41C006C007125C55D007D006123FCB740712379824FF50170517E51773
:2055030070020516AF17AE16125B17125CA560030253F9125B466003025807125B4B24F9DD
:20552300B40D004003025807904D48F82828739045351202A5740412064B7C457D3A7E345B
:205543007F16125BFA6021E4FFFEC006C0077404123E0B125B02D007D0067C347D16122BEE
:20556300DDEF4E70030257DE125C31C0D0125CB6D0D0125AB6C082C083125B418F058E04F6
:20558300D083D082E0FEA3E0FF123F18740F123798FF125B6AC0D0125CB6D0D0125AB6EFFB
:2055A300F0025807125B63C0D0125CB6D0D0125C4C1206EA125BF1C0D07416123798D0D0BE
:2055C3003400125BE8121CA47B02123E1F125B5CC0D0125CB6D0D0125ADD70030257DE125F
:2055E3005C70C0D0125CB6D0D0125AB67406F0025807125B63C0D0125CB6D0D0125C4C12AB
:2056030006EA125BF1C0D07416123798D0D03400125BE8121E8B7B02123E1F125B5CC0D015
:20562300125CB6D0D0125ADD70030257DE125C70C0D0125CB6D0D0125AB67407F002580790
:20564300125C971222D7EF4E70030258070257DE740F12379824FBC0D0740E123798D0D0D9
:205663006480347F400D125C9712217CEF4E70030258077F09125B22025804125C971223CF
:20568300F4EF4E70030258077F27125B22025804125C0770667415125B8DFDC0D0125CB6F0
:2056A300D0D03400FCE4FFFEC006C007125AB1125B02D007D006122BDDEF4E70030257DE6F
:2056C300125AE2FFC007125C55D007EF249BFFC0D0125CB6D0D03400FE123F18025807120A
:2056E3005C00C0D0125CB6D0D0125C3864074860057FF4025801125C0760057FF5025801C2
:205703007415125B8DFDC0D0125CB6D0D0C0E0C0D0125AB1D0D0D0E03400FC1206EAE4FF00
:20572300FE7417123798249BFBC0D07416123798D0D03400FA122C737B02123E1FEF4E702F
:20574300030258070257DE125B9B123EA6EF24FBEE34FF500C125CA5B42F06125B41125C0A
:2057630025125AE22437F517C0D0125CB6D0D03400F516125AE2241FFFC0D0125CB6F8D0AD
:20578300D03400FE1206EA125BF1E438125BE81229AF7B02123E1F123CEA125AC1121126AF
:2057A300E4FFFEFDFC125AC11211B6602E7805125B4BFFBF1309125BE3BF0003D38001C340
:2057C300E433F9E8C399F8125B1CFBC0D0125CB6D0D03400125C46E8F080297F26125B2205
:2057E300801F125AB17C457D33125BFA6016800C125AB17C457D31125BFA60087FF8125CD0
:205803002B125B37125B4B24F4C0D0125B46D0D034FF400302592A125BC5C0D0125B46D0C3
:20582300D034FF500302592A125B1CF519C0D0125CB6D0D03400F518124C51E064037003F5
:2058430002592A7415125B77F9C0D0125CB6D0D0125C38F948700302592A7414123732EF35
:205863002406FBE43EFAEF2402F517E43EF5168B828A83120356120761890588047A467B42
:20588300397E007F14126EEC7B04123E1F125C0DF8A3E0F9486023E9241DFBE438125C46B2
:2058A300C082C083125CB6D083D082F0C082C083125AE2D083D082A3806C124C51E024FCF1
:2058C300601B146018146003147022125B55C0D0125CB6D0D03400FE121DF08010125B55E8
:2058E300C0D0125CB6D0D03400FE122BDA124C517403F07FE2125C75802D125C70C0D01281
:205903005CB6D0D0125ADD24F8600514600B80177FE2125AD87F0080057FAA125C2B125B1A
:2059230037124C277403F0125B4BC0E0125BE3D0E04F7006E4FFFE025AAA741212373290AC
:205943004CD875F000741C123D48025A4A125CAB7C447DFE025A51125CAB7C447DE1025A5A
:2059630051125CAB7C447DD2025A51125CAB7C447DC6125C5D025A54125CAB7C447DB3025C
:205983005A51125CAB7C447D9C025A51125CAB7C447D961206AC125C31C0D0125CB6D0D017
:2059A300125ADDFCA3E0FDAF17AE16123FCBAF17AE167C447D7F12066B025A54125CAB7C6B
:2059C300447D65025A51125CAB7C447D54807F125CAB7C447D388076125CAB7C447D2280CC
:2059E3006D125CAB7C447D118064125CAB7C437DEC805B125CAB7C437DC2125C5D8052120A
:205A03005CAB7C437D888046125CAB7C437D6A803D125CAB7C437D4E8034125CAB7C437DCA
:205A23001F802B125CAB7C437D038022125CAB7C427DF18019125CAB7C427DCD8010125CA2
:205A4300AB7C427DB18007125CAB7C427DA01206ACAF17AE167C427D9D12066B74161237B5
:205A630032125ABC125B504418124628125AE2C0E0125CB6FFD0E04F6026125C00C0D0128A
:205A83005CB6D0D0125AB6C082C083125B46D083D082F0C082C083125B4BD083D082A3F0ED
:205AA300AF17AE16123EA679047B160237AA740A0237323400F8024C278F018E002285170C
:205AC3008285168322125AB18F178E160517E51770020516227413020624125AB6E0227488
:205AE30015023798E4FFFEFDFC021126124C2CFAA3E022740812373280008F828E83228F37
:205B0300038E0222F8124C2CFF22125AB17C007D2F023FA5740A020631125AE224AD2212F5
:205B23005AD87F0222125AC8AF17AE160240DA125AC1E0227412020624125ADDF822740CEF
:205B430002373274120237987413023798125AFDE022125AE2240CFF22125AE2241EF92273
:205B6300125AE22437F922125AE224AFF922125AB1025ABC123798240A22740812373202C3
:205B83005ABC7408123732025AFD123798243F22125B32F8A3E048227410023732FC8D82B8
:205BA3008C8322740E12063109B9000108223400125B077E0022740B0237987C457D3A02E7
:205BC30006AC125B4B24EC22125B22025B37125B32FEA3E0FF0207063400F8125AEFFB2231
:205BE300125B46FF22FEE4FDFC7A347B16227417123798240CFF221206C9EF4E22125AE247
:205C03002404F922125B0DEF4E22125AC1EEF0EFA3F0025B32740A123798FF220FBF0001FA
:205C23000E22125AFDE4F022125AD87F0122125AE22499F922125B3CA3E022125AB6E4F082
:205C4300A3F022FA8B828A8322125AB6125AE7025AB1125AB18F058E04221206AC7416120F
:205C63003732125ABC125B504401024628125B1CF922125AD87F00025B37125B28A80712CD
:205C83005AF67E0022F0AF17AE167C007D2C123FA5025B17125AB1125B02E4FFFE7C347D6E
:205CA3001622125AB1025B50751636751708AF17AE16227414023798E4FDFC7E347F717A8C
:205CC300017B60023FFF434C49454E545345525645520D00434C49454E5400000011892386
:205CE30012329B462457AD653674BF8C489DC1AF5ABED3CA6CDBE5E97EF8F71081010833A1
:205D030093221A56A5472C75B7643E9CC98D40BFDBAE52DAEDCB64F9FFE8762102308B027D
:205D2300101399672676AF443455BDAD4ABCC38E589FD1EB6EFAE7C87CD9F53183200A1260
:205D430091031877A7662E54B5453CBDCBAC429ED98F50FBEFEA66D8FDC9744204538D61B9
:205D630016709F042015A9273236BBCE4CDFC5ED5EFCD7886899E1AB7ABAF35285430C7120
:205D830097601E14A1052837B3263ADECDCF44FDDFEC5698E98960BBFBAA726306728F40FD
:205DA30014519D252234AB063017B9EF4EFEC7CC5CDDD5A96AB8E38A789BF17387620E50E0
:205DC30095411C35A3242A16B10738FFCFEE46DCDDCD54B9EBA8629AF98B7084089581A741
:205DE3001AB693C22CD3A5E13EF0B7084019C92B523ADB4E645FED6D767CFF94898500B7A0
:205E03009BA612D2ADC324F1BFE03618C109483BD32A5A5EE54F6C7DF76C7EA50AB483867C
:205E2300189791E32EF2A7C03CD1B5294238CB0A501BD96F667EEF4C745DFDB58BA402965F
:205E4300998710F3AFE226D0BDC13439C3284A1AD10B587FE76E6E5CF54D7CC60CD785E5B8
:205E63001EF497802891A1A33AB2B34A445BCD695678DF0C601DE92F723EFBD68DC704F51F
:205E83009FE41690A98120B3BBA2325AC54B4C79D7685E1CE10D683FF32E7AE70EF687C4FC
:205EA3001CD595A12AB0A3823893B16B467ACF485459DD2D623CEB0E701FF9F78FE606D4DF
:205EC3009DC514B1ABA02292B983307BC76A4E58D5495C3DE32C6A1EF10F789035D5E0F8A3
:205EE300905CD712000EE493F9EFB50123A900099035D5E9F0E804B4061B7E5C7FC9121555
:205F03001A12153F126B777401A3F09035D280049035D5E4F02274041238448D178C168B80
:205F2300018A00803219B9FF01188E037A00126938F519751800EF6519FDEE6518FCEDFF21
:205F4300E4FE905CDE120168E493FC740193FD6BFFEA6CFE12694BE94870CA79040237B04A
:205F63008021651DC021650FC02365168021637BC021632480216108C02160EF7916740420
:205F830012384E740E1206318D078C06741012063112658BC0077F007409120624D0079040
:205FA30035D1E0F80FBF00010E126585F9E8D399E433F9289035D1F0126580FF2403F9C046
:205FC30007C0D089077415120624D0D0D007C0D012657BFED0D03400F8C00788077414121F
:205FE3000624D007EF2402FCC0D08C077413120624D0D0E43EFF7412120624126539C08231
:20600300C0837412123732D083D082E0F8126585FC7D00ED28F9E43CF8E9D39BE89A30D246
:2060230002B2E720E7030261DB1265802404FFC0D0740B120624D0D0C0D012657BD0D0341B
:2060430000F518FF740A120624740B123798F51912658029FFC0D012657BD0D038FE12651B
:2060630076E9C39404FFE89400FEC006C00712658B8F018E00D007D0067404120631126558
:2060830039E01470030262031460381470030261EB24FE600A24FC70030261210261DB1282
:2060A300656FBF210280030261DB126568BFC00280030261DB9035D6740FF07F06126590AB
:2060C3000264799035D3E0126B724860069035D6E070069035D6740FF0740E123732905FDE
:2060E3007775F0007402123D480261DBE95410FBE4FA4B70030261DBE94420FAE89035D38D
:20610300F0EA0261D91269405410FA4B70030261DB9035D37E207F00123DBD0261DB1265DB
:206123006FBF210280030261DB126568BFC00280030261DB7F0A126590026479AF19AE182C
:20614300851982851883E0FB85191785181612694B126938FA12694B12655EC0D01265594B
:20616300D0D09400FCEA78007902C399F519E498F518E5172519F9E5163518F88919881867
:20618300EA78007902C399F517E498F516EDC39517F9EC9516F8C006C0071265347404128A
:2061A3000631D007D006740F123798F8B82120740E123798F8B88017BB0314EF2402FDE431
:2061C3003EFC7A007B047E3F7F00124034800F9035D37440F0E4A3F0E4FFFE02652D90354B
:2061E300D37EEF7FFF123E0112655920E710C0E07405123798FFD0E04F600302613F80D851
:2062030012656FBF2302800302629B126568BFC002800302629B126554126585F8740B12FD
:20622300379828FDE4C0E0C0D0740A123798FFD0D0D0E03FFC0DBD00010C8D828C83E0F89D
:206243008D828C83E4F0ED28F9E43CF812680B126539C082C083126554D083D082E4F09095
:206263003F0CE0126B720FBF00010E0DBD00010C12653912370170030261D2126554C00719
:206283007F02126590D0078F828E83E4F00FBF00010E1265760264797F02126590026463AC
:2062A300851917851816851982851883E0F8AB19AA1812654AE0FF74081206240BBB0001B6
:2062C3000A12655EC0D0126559D0D09400FC1265457E007F02C39FF519E49EF518EB251969
:2062E300FFEA3518FE8F198E181265457A007B02C39BFFE49AFEEDC39FFBEC9EFA740E122B
:206303003732C006C0078B078A067404120631D007D006905F6F75F0007402123D480263BF
:20632300D5E81470030263CA1470030263CA14600F1470030263CA1470030263CA0263CE0F
:206343001265CDB4C0071265BE6423607AAB17AA1612654A7404F012653974C0F085178248
:206363008516837E007F03127E4A7423F07F0474081206247F038055E824FD600624826094
:206383002880481265CD703F1265BE703A1265AF70351265A070301265347A007B047C3F57
:2063A3007D0E1240347F0380241265CD70191265BE70141265AF700F1265A0700A1265343C
:2063C3001265957F0380067F0280027F0474091206247409123798D3C0E0C0D0740C12373D
:2063E30098FFD0D0D0E09F401712653EC0071265548F018E00D007126590126534126576E2
:2064030012653E64046003BF0356740C123798C0E012653ED0E0B5074774071237986517A0
:2064230070097406123798651660127406123732126545FB7A00AD17AC16124034740712D9
:206443003798C0E0126545FFD0E02FFFE4C0E0C0D07406123798F8D0D0D0E038FE12657657
:2064630012655920E710C0E07405123798FFD0E04F60030262A312658B8F828E83C082C0AA
:2064830083740C123798D083D082F07407123798C3C0E0C0D0126580FFD0D0D0E09FF9C093
:2064A300D07406123798D0D0C0E0C0D012657BFFD0D0D0E09FC0E07412123732D0E0F88F26
:2064C300828E83C0E0C082C0837414123732D083D082D0E0F0AA018F828E83EAC0E0C08220
:2064E300C08312658BD083D082D0E0F0126585B40235740E1237329035D3E0FAA3E0FB90AB
:206503005F6375F0007403123D488013EB440CFBEA800CEB44C0FBEA8005EBEA440CFA90FC
:2065230035D3EAF0EBA3F012653479047B160237AA89078806228982888322740912379886
:20654300FF2274080237980BBB00010A8B828A8322740A0237327404023798740512379831
:20656300C39402FD22740E123798FF22740F123798FF227406020631741002379874110208
:2065830037988F828E83E0227410023732740C0206247A007B047C3F7D00024034851782A5
:2065A3008516837E007F05127E4AE0228517828516837E007F04127E4AE02285178285160A
:2065C300837E007F03127E4AE022E5172402F9E43516F8126539E022002166EA8021667B72
:2065E300C021667BC023667B7906740412384E9035DCE0B4FF359035DDE07517DE7516356E
:20660300B40328126AC4FAC082C0838A077404120624D083D082A3E0FBFF740512062412AB
:20662300695464B87005EE64F06006E4FFFE02673D126938F9780012694B85171985161888
:20664300E95401FBE4FA4B701E851982851883E0FA89007900E92AFBE438FA8B018A0005EC
:2066630019E519700205181265349065DB75F0007404123D4802670AE519C394DCF517E5ED
:20668300189435F5167405123798C39517FDC0D07404123798D0D09516FCEDC39402FBECE8
:2066A3009400FA126534AD19AC18125F7F12674E600EE92517FAE835169035DAF0EAA3F091
:2066C3009035D6E0606E9035D3126AC964FD7005EE643C6006BF3E5CBE3F599035D6E41287
:2066E3006AE9123701804D127ABF12674E6045E519C394DCFBE5189435FAE92BFCE83A90C8
:2067030035DAF0ECA3802C1268167B087EC0126843FCA3E0FD8802126744EA126AD50DBD66
:2067230000010C126744E9126AD58D0109E924FC9035E3F09035DA126AC979047B060237FF
:20674300AA9035DC8D078C06027E4A126926126AC4126B72482200056788000D678804FDD0
:2067630067BF0CFD67BF400067EE12696160030267FC9035D3126AC990675975F00074057D
:20678300123D4880741268307EC0126836740412681F74C012681F742312681F74021268D5
:2067A3001F12681112684B12684B12684B12684B9035D37E007F10123DBD803F1268307E80
:2067C3008012683612681112680BE924DCFFE83435FE1265959035DA7E007F04123DAB9009
:2067E30035D37E107F00123DBD80101268167B057EC07F211269B58002E4229035DBE0249B
:20680300FC9035E3F002692F09B9000108227406026AD59035D1E004F0E0FD22126AD512D3
:20682300680B80009035DC126534027E4A1268167B0122126843126B72126827740380DCFE
:206843007F211269B5026AC412680B126827E4026AD59035D37440F0E4A3F0227403123854
:20686300449035D9E014600624FE601C80101265EB12692612696170097F01126B2CE40244
:20688300692112692F0269211269AD126954F4F9EEF4F81269ADAC019035DC8B078A0612CD
:2068A3007E4AEC126AD50BBB00010A9035DC8B078A06126ACF7F7E1214E87517DC751635BE
:2068C3008038126938F51812694BE518647E6013E518647D600D9035D2E060137420D395F4
:2068E30018400C7F7D1214E8E5186420FF8002AF181214E89035DA1239C712696170C37F11
:206903007E1214E812153F7F01126B2C1269405440FA4B7003026881126B4702688179033C
:206923000237B09035DAEEF0EFA3F0229035D97403F0740122851782851683E0229035D3D8
